:020000040800F2
:1000000000080020550200081B34000813340008C3
:1000100017340008E9150008DD3B00080000000067
:100020000000000000000000000000001F34000875
:1000300021180008000000001D34000821340008C9
:1000400079020008790200087902000879020008A4
:100050007902000879020008D11800087902000826
:100060007902000879020008790200087902000884
:100070007902000879020008790200087902000874
:100080007902000879020008790200087902000864
:100090007902000879020008790200087902000854
:1000A0007902000879020008790200087902000844
:1000B0007902000879020008790200087902000834
:1000C0007902000879020008790200087902000824
:1000D00079020008BD3B0008CD3B0008790200080A
:1000E0007902000879020008790200087902000804
:1000F00079020008790200087902000879020008F4
:1001000079020008790200087902000879020008E3
:1001100079020008790200083D34000879020008DD
:1001200079020008790200087902000879020008C3
:1001300079020008790200087902000879020008B3
:1001400079020008790200087902000879020008A3
:100150007902000879020008790200087902000893
:100160007902000879020008790200087902000883
:1001700079020008790200087902000800000000F6
:10018000790200087902000800F002F800F052F845
:100190000AA090E8000C82448344AAF10107DA45E2
:1001A00001D100F047F8AFF2090EBAE80F0013F0E2
:1001B000010F18BFFB1A43F0010318477C450000EC
:1001C0009C450000103A24BF78C878C1FAD852077D
:1001D00024BF30C830C144BF04680C6070470000C1
:1001E0000023002400250026103A28BF78C1FBD840
:1001F000520728BF30C148BF0B607047662904F022
:100200002F82642900F00481002070471FB504F09C
:1002100022FA00F03DFC04000020002104F08EF9D9
:10022000401C60600020002104F072F9E0601FBDF6
:1002300010B510BD00F094FD1146FFF7E7FF03F085
:1002400001FE00F0C0FD03B4FFF7F2FF03BC03F0B2
:10025000FBFC00000C48016841F4700101600B4890
:1002600080470B480047FEE7FEE7FEE7FEE7FEE7B4
:10027000FEE7FEE7FEE7FEE7FEE700000548064969
:10028000044A064B7047000088ED00E0293400085E
:10029000890100080004002000080020000400205C
:1002A000704753EA020C00F069802DE9F04B4FF0E3
:1002B0000006002B1FBFB3FA83F503FA05F424FAF6
:1002C00005F65E4012BF1643B2FA82F502FA05F453
:1002D000C5F120051EBF22FA05FC44EA0C042035B6
:1002E00056EA044C4FEA144418BF641C4FF000084F
:1002F0004FF00009904271EB030C39D3002919BF6C
:10030000B1FA81F701FA07F6B0FA80F700FA07F6BA
:10031000C7F120071EBF20FA07FC46EA0C0620376B
:10032000B6FBF4FCA7EB0507103F07F01F0BCBF162
:1003300020060CFA0BFB2CFA06F644BFB346002647
:10034000202FA4BF5E464FF0000B5BEA060C08BFEF
:100350004FF0010B19EB0B09ABFB027C48EB0608D5
:10036000C01B06FB02CC0BFB03CC71EB0C01C1E7FD
:100370000B46024641464846BDE8F08B13B54FF0A8
:1003800000004FF00001AFF30080BDE81C40704753
:100390000FB4044910B503AA029800F023FB10BC67
:1003A0005DF814FB380000202DE9F0410E460446AC
:1003B000002020622046E168884730B3252805D018
:1003C000D4E901219047206A401CF2E7E168204609
:1003D00000278847050018D0A5F14100192802D848
:1003E00020354FF400673246294620462760FFF744
:1003F00005FF40B1012804D0F61D26F00706083697
:10040000D8E7361DD6E72846DAE7206ABDE8F0814E
:100410002DE9F0410646002410687529314616A5DD
:1004200010D0AFF30080002802DA404213A507E0A5
:1004300031688A0701D512A502E0490704D511A544
:10044000012401E0AFF3008000210A2206F1240715
:1004500009E0B0FBF2FCB0FBF2F302FB1C00303011
:1004600078541846491C0028F3D123462A463046C2
:10047000BDE8F04100F04EB8000000002D00000083
:100480002B0000002000000070B5064600F03EF88A
:100490000468054630460A22002100F0B5FA2C60B7
:1004A00070BD401ECAB210F8011F8A4202D0002956
:1004B000F9D1002070474FF0000200B51346944672
:1004C0009646203922BFA0E80C50A0E80C50B1F1AC
:1004D0002001BFF4F7AF090728BFA0E80C5048BFC0
:1004E0000CC05DF804EB890028BF40F8042B08BF5E
:1004F000704748BF20F8022B11F0804F18BF00F85A
:10050000012B70477047704770477047004870472D
:100510009C0300202DE9F0470D469946924604467B
:1005200000F124080168880604D5E06921F0100173
:10053000216000E00120A84201DD471B00E0002708
:10054000A1697A1902EB0900081AA0612078C00697
:1005500002D42046AFF30080002608E0D4E9012150
:100560001AF806009047206A401C761C20624E450F
:10057000F4DB2078C0060AD52046AFF3008006E001
:10058000D4E9012130209047206A401C2062381EA7
:10059000A7F10107F4DC07E0D4E9012118F8050010
:1005A0009047206A401C2062281EA5F10105F3DC5B
:1005B0002046AFF300802078000602D50220BDE877
:1005C000F0870120FBE770472DE9FF4F0C461E46E0
:1005D0004FF0FF378BB0D2E90001DDF860800A9060
:1005E0008A46C1F30A5505B93D46002108464FF039
:1005F0000000BAF1000F00F4400005DA00EB8000C3
:100600004FF4400101EA50004FEA9059B9F1010F4F
:1006100000DDB9460A9850EA4A000ED044F6105060
:10062000A5F2FF3545432F14B8F1000F1ED07542D7
:10063000291E1EDDC9F100021CE0B8F1010F4FF0C8
:10064000000001D0302103E0F24305E02154401CBA
:10065000B042FBDB30460022002121540B99C1F847
:100660000880C1E900200FB0BDE8F08FBD1B6D1CF4
:10067000DEE74A4600DA694206A800F0FBFA06AB5C
:1006800093E8070003AB83E8070050460A9900F09F
:10069000E3FB8DE80700A0F500501F380090039899
:1006A000002D0ADD42F21F014A460844002303A937
:1006B0000390684600F04CFE09E0A0F500504A4661
:1006C0001F38002303A90390684600F056FE8DE80A
:1006D00007000004000C03D04FF0FF30410800E099
:1006E0001046B8F1000F03D00022009215461EE01C
:1006F000751E05D400F0D0F9303262556D1EF9D563
:10070000B3460122084302D000227F1C04E0207877
:10071000302801D100227F1E002A099784D01DE0D5
:10072000112D07DA00F0B8F9303262556D1C50EA2D
:100730000102F5D1084302D00098C8B10EE00021B3
:10074000681E05E0235C625C63542254401E491C11
:100750008142F7DBAB46A81B401E0990002004F83D
:100760000B000B98099AC0F80880C0E9002B7AE7C3
:1007700011264FF0000857E72DE9F04F8846044650
:10078000D21D22F0070191B0D1E90001CDE90A01A3
:1007900003F026FA02460B98C00F01D02D2007E087
:1007A0002068810701D52B2002E0202101EAC0004A
:1007B000032A099001D0072A05DB0346414620465B
:1007C00000F0C8F90BE12078800601D5E06900E06F
:1007D0000620B8F1650F814606D0B8F1660F18D033
:1007E000B8F1670F70D131E00020B9F1110F00901E
:1007F00001DB112301E009F101030AAA01A90CA8F8
:10080000FFF7E2FEDDE90C70002609F101058346E1
:1008100047E001204B4600904FF000470AAA01A98B
:100820000CA8FFF7D1FEDDE90DB00C995D4600265E
:1008300010B909F101000D18B9EB050003D4C0F19E
:10084000FF3609F10105A5EB09002BE0B9F1010F15
:1008500001DA4FF001090020B9F1110F009048466C
:1008600001DD112300E003460AAA01A90CA8FFF745
:10087000ABFEDDE90C704D4600268346207800076C
:100880000AD4AB4500DA5D4601A8012D04DD41190B
:1008900011F8011C302907D04F4502DA17F1040F77
:1008A00004DA012082460FE06D1EEEE7002F02DC25
:1008B000ED1B3E4403E0781CA84200DD7D1CB81B04
:1008C00000F1010A4FF000472078000703D4AA4541
:1008D00001DB4FF0FF3A0021B7F1004F0DF1430863
:1008E0008DF8431024D002202B23002F01DA7F4201
:1008F0002D230A21021EA0F1010000DC5FB197FB4D
:10090000F1FC97FBF1F201FB1C7C17460CF1300C5B
:1009100008F801CDEEE7A8F1010003702188090570
:1009200001D5452100E06521A0F1010800F8011C76
:1009300009980FA9A1EB0807FF1D00B1012041197B
:1009400001EBEA70A1693844081A401EA0612078C2
:10095000C00602D42046AFF30080099828B1D4E93C
:1009600001219047206A401C20622078C00622D5D1
:100970002046AFF300801EE0002E04DBB34502DD0D
:1009800001A8805D00E03020D4E901219047206A71
:10099000401C2062761CAAF101005FEA000A0AD11D
:1009A00000F076F8C0680168405CD4E90121904706
:1009B000206A401C2062281EA5F10105DCDC07E04E
:1009C000D4E9012118F8010B9047206A401C2062ED
:1009D000381EA7F10107F3DC2046AFF300800320A7
:1009E00011B041E6074B70B50D467B4400F09FF80F
:1009F0000446284600F0B0F910B14FF0FF3070BD4A
:100A0000204670BD1F3400002DE9F04791460F4687
:100A100080460446002614F8015B2DB100F030F842
:100A20000068405DC007F6D12B2D02D02D2D18D0C7
:100A3000641E4A463946204600F0CCF827B1396892
:100A4000A14201D1C7F800804FF0020471050BD517
:100A50004042002803DDFFF759FD0460A007BDE810
:100A6000F08746F48066E4E70028F8DAFFF74EFDE9
:100A700004606FF00040F2E7004870479C030020DC
:100A800010B500F005F8001D10BD00BFB13A000020
:100A900000487047BC03002030B5B0F10A024FEAAD
:100AA000900E71F100034EEA817EB0EB0E0061EB17
:100AB00091014FEA101E4EEA017E10EB0E0041EB51
:100AC00011114FEA102E4EEA016E10EB0E0041EBB1
:100AD00011214FEA104E4EEA014E10EB0E0041EB91
:100AE0001141401841F100014FEAD00040EA417045
:100AF0004FEAD10110EB80054FEA810444EA90747B
:100B000044EB01046D1944EB0404521BA3414FF064
:100B1000000348BF0A3200D530BD401C41F100013E
:100B200030BD000001694A1C02610878704700B5B9
:100B30008FB0CDE901310021059105497944CDE916
:100B4000031011466846FFF72FFC0FB000BD0000F0
:100B5000E5FFFFFF2DE9F0411F460446032601682B
:100B6000072A01F4006004DB08B116A505E016A50C
:100B700003E008B115A500E015A521F010002060E4
:100B8000A069C01EA0610FB1401EA0612046AFF356
:100B900000804FB1D4E9012138469047206A401CBB
:100BA0002062C01C206206E0206AFAE7D4E9012135
:100BB00015F8010B9047761EF8D22046AFF300805F
:100BC000BDE8F0814E414E006E616E00494E460018
:100BD000696E66002DE9F05F824615468B46002758
:100BE0000AF10104B9460078302801D09DB113E024
:100BF00014F8010B0127782803D0582801D045B1FB
:100C00000AE00DB1102D07D1002714F8010B1025B3
:100C100002E0082500E00A250026B0460EE005FBAC
:100C2000080005FB06F101271FFA80F801EB1046CA
:100C3000B6F5803F00D3B94614F8010B294600F001
:100C4000B4F80028EBDABBF1000F05D00FB1641E39
:100C500000E05446CBF80040B9F1000F06D0FFF792
:100C600055FC02210160C81EBDE8F09F48EA06401D
:100C7000FAE700002DE9F047814616468AB035486C
:100C800078440DC88DE80D0032487844801C03ACD0
:100C90000DC884E80D0041F69B300844372190FBD5
:100CA000F1F290FBF1F5A5F1800501FB12041B3C6C
:100CB00002D56442012000E00020DFF898A08046C1
:100CC0000027FA44AAF1BE0A0EE0E0070AD0324635
:100CD000684607EB470101230AEB810100F04DFB59
:100CE0008DE8070064107F1C002CEED1194F7F4463
:100CF000AE3F19E0E80715D007EB04100DF1180A14
:100D000090E80E008AE80E00C068F04201D1981900
:100D100008903246012306A903A800F02EFB03AB7E
:100D200083E807006D10641C002DE3D14FF0010330
:100D300032466946B8F1000F03A802D000F008FB64
:100D400001E000F01AFBC9E90001C9F808200AB067
:100D5000BDE8F0879C3A0000007B00F080007047FF
:100D60007546FFF789FEAE4605006946534620F0FA
:100D70000700854618B020B5FFF780FABDE820408F
:100D80004FF000064FF000074FF000084FF0000B47
:100D900021F00701AC46ACE8C009ACE8C009ACE8FA
:100DA000C009ACE8C0098D4670473A2800D23038F7
:100DB00020F02002412A01D3A2F13700884201D35A
:100DC0004FF0FF30704710B50446AFF30080204667
:100DD000BDE81040FFF737BA4FF0013C50F8042B44
:100DE00051F8043B9A4221D1A2EB0C03934313EA3E
:100DF000CC1317D150F8042B51F8043B9A4215D16B
:100E0000A2EB0C03934313EACC130BD150F8042B41
:100E100051F8043B9A4209D1A2EB0C03934313EA25
:100E2000CC13DBD04FF00000704700BFD01A01BADE
:100E3000B1FA81F101F0180122FA01F0CB40C1F1C1
:100E40002001DBB2C0B2C01A2CFA01F3D11A9143CF
:100E500011EAC311E6D170475FEA400C08BF91F078
:100E6000000F4FEA8C234FEAC12243EA51514FEA67
:100E70001C5018BF00F5F0404FEA300018BF41F099
:100E800000415FEA6C5C00F02980BCF1FF3F08BFC5
:100E900040F080407047130C06BF12044FF0100C56
:100EA0004FF0000C130E04BF12020CF1080C130FCC
:100EB00004BF12010CF1040C930F04BF92000CF15B
:100EC000020CD30F04BF52000CF1010C11464FF07D
:100ED0000002A0F11F00A0EB0C00704711F0004FC2
:100EE00008BF704731F000413FF4D5AF0B0C06BF8F
:100EF00009044FF0100C4FF0000C0B0E04BF090258
:100F00000CF1080C0B0F04BF09010CF1040C8B0F42
:100F100004BF89000CF1020CCB0F04BF49000CF197
:100F2000010CCCF12003A0EB0C0022FA03F302FA2F
:100F30000CF241EA030100F10100704720F07F4C00
:100F400080EA030023F07F47ACEB070303F57C53F3
:100F500000F0004003F1FF032DE980494FEA154BF3
:100F600009B44FEA144325EA0B4E24EA03480FF272
:100F7000042606EB132749083E785FEA320203FB9A
:100F80000667C7F5000707FB06F64FEA54374FEA36
:100F9000D64606F1020607FB066CCCF1005C4FEA70
:100FA0001C472CEA074C07FB06F40CFB06F504EB88
:100FB00015464FEA961634BF00204FF000404FEA26
:100FC000D13706FB07FC4FEA1C4C0CFB0BF7D21B7E
:100FD00003FB0CF761EB07010CFB0EF7B0EB0740CE
:100FE00072EB17420CFB08F734BFA2EB0742B2EBDF
:100FF000074261EB17414FEA0C444FEA910706FBA9
:1010000007FC4FEA1C4C0CFB0BF7B0EBC74072EB34
:10101000573203FB0CF734BFA2EBC742B2EBC74217
:1010200061EB57310CFB0EF7B0EBC70072EB577258
:101030000CFB08F734BFA2EBC702B2EBC70261EBAF
:101040005771039F4FEA816141EA921104EBCC048E
:101050004FEAD1374FEA826206FB07FC42EA901260
:101060004FEA80604FEA1C4C0CFB0BF7D21B03FBD2
:101070000CF761EB07010CFB0EF7B0EB074072EBCE
:1010800017420CFB08F734BFA2EB0742B2EB074252
:1010900061EB17414FEA8C554FEA910704EB9C2412
:1010A00006FB07FC4FEA1C4C0CFB0BF7B0EBC740F0
:1010B00072EB573203FB0CF734BFA2EBC742B2EB23
:1010C000C74261EB57310CFB0EF7B0EBC70072EB78
:1010D00057720CFB08F734BFA2EBC702B2EBC70292
:1010E00061EB577115EB4C254FEA816141EA921192
:1010F0004FEA82624FEAD13742EA901206FB07FCC0
:1011000044F100044FEA80604FEA1C4C0CFB0BF7E3
:10111000D21B03FB0CF761EB07010CFB0EF7B0EBE6
:10112000074072EB17420CFB08F734BFA2EB0742F3
:10113000B2EB074261EB174115EB1C154FEA813109
:1011400041EA92414FEA823242EA90424FEA8030CD
:101150004FEA0C7644F1000448EA03434EEA0B4898
:101160004FF0000EB2EB080C71EB030724BF624690
:1011700039464EEB0E0E4FF0000B0018524149411C
:101180004BEB0B0BB2EB080C71EB03077BF1000B85
:1011900024BF624639464EEB0E0E4FF0000B00188E
:1011A000524149414BEB0B0BB2EB080C71EB0307BF
:1011B0007BF1000B24BF624639464EEB0E0E51EA1E
:1011C000020718BF46F0010616EB0E7655F1000235
:1011D00054F1000103D5BDE88901BDE80088BDE8F0
:1011E0008901BDE80048B619524141EB0101A3F164
:1011F0000103704780807F7E7D7C7B7A797877766B
:1012000076757473727171706F6E6E6D6C6C6B6AE3
:101210006A69686867666665646463636261616081
:10122000605F5F5E5E5D5D5C5C5B5B5A5A595958FE
:101230005857575656555555545453535252525168
:10124000515050504F4F4F4E4E4D4D4D4C4C4C4BBE
:101250004B4B4A4A4A494949484848474747474605
:101260004646454545444444444343434342424241
:1012700042414141002B9C4630D477002BD01CB515
:101280004FEA370703B44FF010004FF01001BAF1E6
:10129000000F06D0BCF1000FDCBF40F0080040F0AA
:1012A00008014FF000000FBCBDE810400BF1010B2E
:1012B000BBF1010F08BF5FEA170722BF12F101025D
:1012C00011F101014FF0004143F1000300F0004033
:1012D00043EA00007047F9D35708D0E746EA0646CC
:1012E00013F1400F4FEA16461FDD13F1200FDFBF49
:1012F00016430A46002120335B42BED0C3F12007CB
:1013000046EA064602FA07F74FEA164646EA070695
:10131000C3F1200722FA03F201FA07F721FA03F1D9
:101320004FF0000342EA0702A7E746EA020646EA50
:1013300006464FEA164646EA0106BCBF46EA06469E
:10134000360C4FF000034FF000024FF0000194E71D
:101350002DE9804C9A46934670B491E8380007C84E
:1013600031EA400C48BF34EA430C03D5FFF7E6FDF1
:10137000FFF780FFF0BCBDE8008C2DE9804C9A4659
:10138000934670B491E8380007C810F0804F08BF4A
:1013900013F0804F03D100F005F8FFF76BFFF0BCAE
:1013A000BDE8008C20F07F4780EA030023F07F4CEB
:1013B00007EB0C03A3F57C5300F00040A3F1FE0300
:1013C00092F0000F00F0B38095F0000F00F07780EE
:1013D0002DE901494FEA11404FEA144621EA00483D
:1013E00000FB06FC24EA064708FB06F607FB08F8A4
:1013F00000FB07F718EB06484CEB164C4FEA124B74
:1014000018EB07484FEA15464CEB174022EA0B4E03
:101410000BFB06FC25EA06470EFB06F607FB0EFE55
:101420000BFB07F71EEB064E4CEB164C4FF000067D
:101430001EEB074E4CEB174B18EB0B0840F100006E
:1014400018EB0E0B58EB000840F100008F1A4FF01C
:1014500000013CBFC943661B14BFB5EB040C00215F
:101460003CBFC943F61B4FEA17444EEA8E0E27EAEB
:1014700004454FEA1C4704FB07622CEA074C05FBB6
:1014800007F70CFB05F604FB0CFC16EB074642EBDA
:10149000174216EB0C4642EB1C421BEB060658EBC0
:1014A0000202414146EA9E0601D5BDE80189B6190E
:1014B000524141EB0101A3F10103BDE801894FEA6B
:1014C00014454FEA114724EA054621EA074C05FB7B
:1014D00007F406FB07F70CFB06F105FB0CFC11EB10
:1014E000074144EB17444FEA124711EB0C4144EB20
:1014F0001C4422EA074C05FB07F206FB07F70CFB2E
:1015000006F605FB0CFC16EB074642EB174216EB02
:101510000C4642EB1C456A1854F1000148BF704765
:10152000B619524141EB0101A3F10103704795F057
:10153000000F37D04FEA11424FEA144721EA024622
:1015400024EA074C02FB07F106FB07F70CFB06F445
:1015500002FB0CFC14EB074441EB17414FEA154723
:1015600014EB0C4441EB1C4125EA074C02FB07F548
:1015700006FB07F70CFB06F602FB0CFC16EB074616
:1015800045EB174516EB0C4645EB1C42121951F181
:10159000000148BF7047B619524141EB0101A3F168
:1015A000010370474FEA14454FEA114724EA054604
:1015B00021EA074C05FB07F106FB07F70CFB06F2D7
:1015C0004FF0000605FB0CFC12EB074241EB174104
:1015D00012EB0C4251EB1C4148BF7047921841EB93
:1015E0000101A3F10103704700BFFEE770B5054696
:1015F0000C4600200B4908700B4805700B4804701E
:1016000000200B4908700B4908700B4908600B4912
:1016100008609FED0B0A0B4880ED000A02F00CFDFC
:1016200070BD0000240000202600002027000020BC
:1016300028000020250000202C0000203000002081
:10164000000000001800002070B504460D4620463A
:1016500002F0EAFB06466A480078082876D2DFE8FE
:1016600000F0042D495D79A1BECAFEB1654800783D
:10167000401C64490870084600786349097888422C
:1016800014DB00205F49087001205D49087000F0FC
:10169000EBFA5E4908609FED5E0A5E4880ED000A45
:1016A0005D4890F9000002F02BF8A7E014B902F0B1
:1016B000C3FC02E0284600F0B5F89FE0012C13D1EE
:1016C00000F0D2FA51490968401AB0F5167F0BD9DB
:1016D00002204B4908709FED4E0A4E4880ED000AEB
:1016E000284600F09FF804E04B4890F9000002F013
:1016F00007F883E074B902F09FFC032040490870AA
:1017000000F0B2FA454908609FED410A414880ED7A
:10171000000A02E0284600F085F86FE0012C16D19F
:1017200000F0A2FA3D490968401AB0F5167F0ED9BB
:101730000420334908709FED360A364880ED000AD0
:1017400002F06EFC284600F06DF802E052E002F074
:101750001DF853E0DEB12B480078401C2949087081
:1017600008460078012812D105202549087000F0AC
:101770007BFA264908609FED260A264880ED000A7C
:1017800025480078404240B201F0BAFF36E02CB95B
:1017900002F052FC07201A49087002E0284600F0C7
:1017A00041F82BE0012C13D100F05EFA17490968CB
:1017B000401AB0F5167F0BD90620114908709FED2D
:1017C000140A144880ED000A284600F02BF805E0C2
:1017D00011480078404240B201F092FF0EE02CB96F
:1017E00002F02AFC07200649087002E0284600F0B3
:1017F00019F803E000BF02F01FFC00BF00BF70BD7E
:101800002400002028000020260000202C000020BA
:1018100000000000180000202700002030000020F9
:101820007047000010B504469FED220A224880ED63
:10183000000A00EE104AB8EEC00AF6EE000A20EEEA
:10184000200A1E4880ED000A90ED000ADFED1C0A18
:10185000B4EEE00AF1EE10FA03DD9FED190A80ED17
:10186000000A164890ED000ADFED160AB4EEE00A11
:10187000F1EE10FA03D29FED130A80ED000A0E4834
:10188000D0ED000A0D4890ED001A70EE810AB0EE1E
:10189000600A0D4802F0BDFD0748D0ED000A074878
:1018A00090ED001A70EEC10AB0EE600A074802F02F
:1018B000B0FD10BD22224242200000201C0000206A
:1018C00051B82E4251B82EC24C0000207C0000209E
:1018D00010B5012000F0B8F801200149086010BDE2
:1018E000143C014070B50446A56D00F0BDF90646F4
:1018F00094F83500022808D08020606500BF0020E1
:1019000084F8340000BF012070BD2068006820F01A
:101910001600216808602068406920F08000216876
:101920004861206C08B9A06C28B12068006820F0DC
:101930000800216808602068006820F00100216824
:1019400008600FE000F090F9801B05280AD92020DC
:10195000606500BF002084F8340000BF032084F8D5
:101960003500D1E72068006800F001000028E9D1C7
:1019700094F85C103F208840A86000BF002084F8E5
:10198000340000BF012084F835000020BCE7014688
:1019900091F83500022803D0802048650120704767
:1019A000052081F835000868006820F001000A6809
:1019B00010600020F3E7000070B52DED028B0546A6
:1019C000012D32D100F050F9044619480068201A60
:1019D000C82802D2BDEC028B70BD154804601548C2
:1019E00090ED008ADFED140A78EE200AB0EE600A6E
:1019F00002F00FFDDFED100A78EE200AB0EE600A6B
:101A00000E4802F006FD9FED0E0AB4EEC08AF1EE1C
:101A100010FA09DB9FED0B0A064802F0FAFC9FED75
:101A2000090A064802F0F5FC00BF00BFD2E700003B
:101A3000080000204C000020222242427C000020AE
:101A4000222242430000000010B50446044800680A
:101A5000204020B1024804602046FFF7ADFF10BDD2
:101A6000143C0140F8B502460B4600250024002036
:101A70000021DEE0012606FA01F51E6806EA0504EB
:101A8000AC4275D11E7906F00306012E04D01E79F2
:101A900006F00306022E13D190684F000326BE40C5
:101AA000B0434F00DE68BE4030439060506801266E
:101AB0008E40B0431E79C6F300168E40304350600E
:101AC0001E7906F00306032E09D0D0684F000326C6
:101AD000BE40B0434F009E68BE403043D0601E7988
:101AE00006F00306022E13D1CF0802F1200656F8A5
:101AF00027004E07F70E0F26BE40B0434F07FF0EDC
:101B00001E69BE403043CF0802F1200646F8270088
:101B100010684F000326BE40B0431E7906F003064E
:101B20004F00BE40304310605E6806F08056B6F14C
:101B3000805F7DD100BF00260096404E366846F497
:101B400080463E4F3E603E46366806F4804600962C
:101B500000BF00BF3A4E8F0856F827008E07370F98
:101B60000F26BE40B043374EB24202D1002624E0D9
:101B70005EE0354EB24201D101261EE0334EB24244
:101B800001D1022619E0324EB24201D1032614E0FF
:101B9000304EB24201D104260FE02F4EB24201D1A5
:101BA00005260AE02D4EB24201D1062605E02C4E54
:101BB000B24201D1072600E008268F073F0FBE4042
:101BC00030431F4E8F0846F82700264E3068A0434A
:101BD0005E6806F48036B6F5803F00D12043214E82
:101BE0003060361D3068A0435E6806F40036B6F5F6
:101BF000003F00D120431B4E361D3060361D30683B
:101C0000A0435E6806F48016B6F5801F00D120431D
:101C1000144E08363060361D3068A0435E6806F406
:101C20000016B6F5001F00D120430E4E0C36306072
:101C3000491C1029FFF41EAFF8BD000044380240D3
:101C40000838014000000240000402400008024041
:101C5000000C024000100240001402400018024034
:101C6000001C0240003C0140014800687047000031
:101C700040000020034800680349097808440149EE
:101C800008607047400000204800002010B50D4853
:101C9000006840F400700B4908600846006840F492
:101CA000806008600846006840F480700860032087
:101CB00000F080F80F2000F007F800F02BF800206B
:101CC00010BD0000003C024070B504460E4800788C
:101CD0004FF47A71B1FBF0F00C490968B1FBF0F5F3
:101CE000284600F009FC08B1012070BD102C07D275
:101CF00000222146501E00F01EF80548046001E055
:101D00000120F2E70020F0E748000020000000205A
:101D100044000020704701460846002809DB00F017
:101D20001F0301229A4043099B0003F1E023C3F8FB
:101D3000002100BF70472DE9F05F80460D46164632
:101D4000002701F065FF074639462A46334601F071
:101D50000700C0F1070ABAF1040F02D94FF0040AD4
:101D600001E0C0F1070AD14600F1040ABAF1070FF9
:101D700002D24FF0000A01E0A0F1030AD4464FF06E
:101D8000010A0AFA09FAAAF1010A0AEA020A0AFA97
:101D90000CFA4FF0010B0BFA0CFBABF1010B0BEA49
:101DA000030B4AEA0B042146404601F039FFBDE827
:101DB000F09F000000BF00F00702064B19684FF6C5
:101DC000FF031940044B0B4343EA0221014B196006
:101DD00000BF70470CED00E00000FA0570B5044646
:101DE0000D460CB9012070BD5848006800F007008E
:101DF000A84209D255490D700846006800F0070056
:101E0000A84201D00120EEE7207800F0020002286D
:101E10001DD1207800F00400042805D14C4800684A
:101E200040F4E0504A490860207800F00800082893
:101E300005D14748006840F460404549086044487F
:101E4000006820F0F000A16808434149086020784C
:101E500000F00100A8B36068012807D13C480838A9
:101E60000068C0F34040B8B90120BCE760680228B0
:101E700002D06068032807D1354808380068C0F3ED
:101E8000406048B90120AEE7314808380068C0F327
:101E9000400008B90120A6E72D48006820F00300A3
:101EA000616808432A490860FFF7DEFE064609E03C
:101EB000FFF7DAFE801B41F28831884202D9032005
:101EC00091E707E02248006800F00C006168B0EB81
:101ED000810FEDD11D48006800F00700A84209D924
:101EE0001A490D700846006800F00700A84201D0AA
:101EF000012078E7207800F00400042807D1144876
:101F0000006820F4E050E168084311490860207837
:101F100000F00800082808D10D48006820F460404F
:101F2000216940EAC1000A49086000F03FF8084909
:101F30000968C1F30311074A515CC84006490860AB
:101F400006480068FFF7C0FE00204CE7003C024056
:101F5000083802408C4600080000002044000020A1
:101F600001480068704700000000002000B5FFF73E
:101F7000F7FF04490968C1F38221034A515CC84054
:101F800000BD0000083802409C46000800B5FFF77D
:101F9000E7FF04490968C1F34231034A515CC84074
:101FA00000BD0000083802409C4600082DE9F047BB
:101FB000002400250026A1462548006800F00C00FA
:101FC00020B1042805D008283AD105E0DFF8849034
:101FD00039E0DFF8849036E01D48001F006800F00B
:101FE0003F041B48001F006800F4800078B11A48C5
:101FF0001749091F0968C1F38811A0FB0170014648
:10200000224600233846FEF74CF905460EE01148FB
:102010000F49091F0968C1F38811A0FB017001462F
:10202000224600233846FEF73CF905460848001FC3
:102030000068C0F30140401C4600B5FBF6F902E021
:10204000DFF8109000BF00BF4846BDE8F0870000F1
:10205000083802400024F40000127A00F8B5044663
:102060000CB90120F8BD207800F00100002874D0E0
:10207000F948006800F00C0004280DD0F64800680C
:1020800000F00C00082813D1F348001F006800F48A
:102090008000B0F5800F0BD1EF4808380068C0F31E
:1020A0004040002859D06068002856D10120D9E767
:1020B00000BF6068B0F5803F08D1E7480838006885
:1020C00040F48030E449083908601EE06068B0F5EB
:1020D000A02F0DD1E0480838006840F48020DE4988
:1020E000083908600846006840F4803008600CE059
:1020F000D9480838006820F48030D749083908608A
:102100000846006820F48020086000BF606890B135
:10211000FFF7AAFD054606E0FFF7A6FD401B642871
:1021200001D903209EE7CC4808380068C0F340403E
:102130000028F1D011E0FFF797FD054606E0FFF714
:1021400093FD401B642801D903208BE7C24808385F
:102150000068C0F340400028F1D1207800F0020070
:1021600002285FD1BC48006800F00C0058B1BA48A2
:10217000006800F00C0008281CD1B748001F006858
:1021800000F48000B0B9B44808380068C0F34000DB
:1021900020B1E068012801D0012063E7AE4808388B
:1021A000006820F0F800216940EAC100AA49083916
:1021B000086037E0E06800B30120A8490860FFF735
:1021C00053FD054606E0FFF74FFD401B022801D9ED
:1021D000032047E7A04808380068C0F34000002803
:1021E000F1D09D480838006820F0F800216940EAE5
:1021F000C10099490839086014E000209749086037
:10220000FFF732FD054606E0FFF72EFD401B0228D2
:1022100001D9032026E7904808380068C0F3400041
:102220000028F1D1207800F0080008282CD160693E
:10223000A8B101208A490860FFF716FD054606E0AF
:10224000FFF712FD401B022801D903200AE782484C
:102250006C300068C0F340000028F1D014E000208A
:102260007F490860FFF700FD054606E0FFF7FCFC2C
:10227000401B022801D90320F4E677486C3000683F
:10228000C0F340000028F1D1207800F004000428B9
:1022900070D1002770483830006800F0805090B945
:1022A00000BF002000906C483830006840F080503B
:1022B0006949383108600846006800F08050009095
:1022C00000BF00BF01276748006800F48070B0B904
:1022D0006448006840F4807062490860FFF7C4FCFD
:1022E000054606E0FFF7C0FC401B022801D9032089
:1022F000B8E65C48006800F480700028F2D000BFA7
:10230000A068012808D154486830006840F00100F6
:102310005149683108601DE0A06805280DD14E487C
:102320006830006840F004004B4968310860084696
:10233000006840F0010008600CE047486830006821
:1023400020F001004449683108600846006820F028
:102350000400086000BFA068A8B1FFF785FC05462F
:1023600009E0FFF781FC401B41F28831884202D925
:10237000032077E626E0384868300068C0F3400064
:102380000028EED013E0FFF76FFC054608E0FFF7EA
:102390006BFC401B41F28831884201D9032061E681
:1023A0002D4868300068C0F340000028EFD1012FAD
:1023B00007D129483830006820F08050264938314C
:1023C000086000BFA069002845D02348006800F0DD
:1023D0000C0008285DD0A069022845D100201F49C3
:1023E0000866FFF741FC054606E0FFF73DFC401B91
:1023F000022801D9032035E6174808380068C0F3E1
:1024000040600028F1D1D4E907010843616A40EA3D
:1024100081110122A06AC2EB500041EA00412C2048
:10242000005D41EA00600C49091F086001200B496A
:102430000866FFF719FC054606E0FFF715FC401B90
:10244000022801D903200DE6034808380068C0F3CC
:1024500040600028F1D049E00838024000004742BF
:10246000800E474200700040002021490866FFF7B7
:10247000FBFB054606E0FFF7F7FB401B022801D9EE
:102480000320EFE51B480068C0F340600028F2D14C
:102490002CE0A069012800D1E4E51648001D06687B
:1024A000A069012820D006F48001E06981421BD197
:1024B00006F03F01206A814216D147F6C0703040D5
:1024C000616AB0EB811F0FD106F440310122A06A8E
:1024D000C2EB5000B1EB004F06D106F070612C202A
:1024E000005DB1EB006F01D00120BBE50020B9E534
:1024F000000047420038024070B504462546681E79
:10250000B0F1807F01D301200FE0681E4FF0E02181
:1025100048610F214FF0FF3001F082FB00204FF0A7
:10252000E021886107200861002070BD7047704776
:1025300010B504460CB9012010BD94F83D0028B92F
:10254000002084F83C00204600F026F8022084F8A1
:102550003D00211D206800F079FF012084F846002D
:1025600000BF84F83E0001213F2001554020015565
:102570004120015500BF00BF012084F842004320E4
:102580000155442001554520015500BF012084F824
:102590003D000020D0E7000038B504460E49206811
:1025A000884217D100BF002000900C48006840F01E
:1025B00010000A4908600846006800F0100000900A
:1025C00000BF00BF012202213620FFF7B4FB3620F6
:1025D000FFF7A1FB38BD000000100040403802406A
:1025E000014691F83D00012801D0012070470220EA
:1025F00081F83D000868C06840F001000B68D860B1
:102600001A4B086898421BD00868B0F1804F17D069
:10261000174B0868984213D0164B086898420FD0A1
:10262000154B086898420BD0144B0868984207D0A5
:10263000134B0868984203D0124B086898420CD19B
:102640000868806800F00702062A0CD00868006855
:1026500040F001000B68186005E00868006840F071
:1026600001000B6818600020C0E700000000014076
:102670000004004000080040000C0040000401403D
:1026800000400140001800402DE9F04104460D468D
:1026900014B90120BDE8F08194F83D0028B900206C
:1026A00084F83C00204600F053F8022084F83D00F6
:1026B0002068806844F20701884321688860211DF2
:1026C000206800F0C3FE2068D0F808802068866982
:1026D0002068076A286840EA080840F20330864309
:1026E000A969A86840EA0120064340F60C408643E9
:1026F0004FF2F0008643E969E86840EA01200643AA
:1027000028690001296A40EA0130064327F02207C0
:1027100027F088076969686840EA01100743206864
:10272000C0F808802068866120680762012084F86C
:10273000460084F83E0001213F200155012084F825
:10274000420043200155012084F83D000020A1E70C
:1027500010B586B00446142101A8FDF7ACFE42492D
:10276000206888424AD100BF002000903F4800689E
:1027700040F002003D4908600846006800F0020091
:10278000009000BF00BF00BF002000900846006816
:1027900040F0040008600846006800F00400009063
:1027A00000BF00BF00BF002000903048103000681C
:1027B00040F002002D49103108600846006800F022
:1027C0000200009000BF00BF102001900220029084
:1027D0000120039002200490059001A92448FFF7EE
:1027E00041F98020019002200290012003900220F4
:1027F0000490059001A91F48FFF734F91E4920688D
:1028000088422FD100BF002000901848006840F097
:102810000800164908600846006800F008000090AB
:1028200000BF00BF00BF00200090104810300068BB
:1028300040F004000D49103108600846006800F0BF
:102840000400009000BF00BF4FF4405001900220F0
:1028500002900120039002200490059001A90748EE
:10286000FFF700F906B010BD000400403038024008
:10287000000402400008024000080040000C024032
:102880002DE9F04304460D4694F83E603F20075D75
:1028900094F84280432010F804906DB9012E02D1C3
:1028A000B8F1010F02D00120BDE8F083022084F8C6
:1028B0003E0084F8420025E0042D0CD1012F02D106
:1028C000B9F1010F01D00120EEE702213F200155AF
:1028D0004320015516E0012E07D1012F05D1B8F193
:1028E000010F02D1B9F1010F01D00120DCE7022074
:1028F00084F83E0002213F200155022084F8420066
:102900004320015515B1042D0CD105E00122002111
:10291000206800F007FE10E001220421206800F08A
:1029200001FE0AE001220021206800F0FBFD0122E7
:102930000421206800F0F6FD00BF00BF2068006899
:1029400040F00100216808600020ADE7704710B535
:10295000044620680069C0F34000D8B12068C06810
:10296000C0F34000B0B16FF002002168086101209F
:1029700020772068806900F0030018B12046FFF737
:10298000E5FF05E0204600F0ADF8204600F0D8F95C
:102990000020207720680069C0F38000D8B120684B
:1029A000C068C0F38000B0B16FF004002168086116
:1029B000022020772068806900F4407018B120461A
:1029C000FFF7C4FF05E0204600F08CF8204600F039
:1029D000B7F90020207720680069C0F3C000D8B1A3
:1029E0002068C068C0F3C000B0B16FF00800216873
:1029F0000861042020772068C06900F0030018B146
:102A00002046FFF7A3FF05E0204600F06BF82046C4
:102A100000F096F90020207720680069C0F30010CC
:102A2000D8B12068C068C0F30010B0B16FF01000DA
:102A300021680861082020772068C06900F4407090
:102A400018B12046FFF782FF05E0204600F04AF863
:102A5000204600F075F9002020772068006900F01A
:102A6000010058B12068C06800F0010030B16FF07B
:102A7000010021680861204600F0EAF92068006939
:102A8000C0F3C01058B12068C068C0F3C01030B1A6
:102A90006FF08000216808612046FFF747FD20683D
:102AA0000069C0F3801058B12068C068C0F380107E
:102AB00030B16FF0400021680861204600F0D8F97D
:102AC00020680069C0F3401058B12068C068C0F3A6
:102AD000401030B16FF02000216808612046FFF7F8
:102AE00026FD10BD704770B504460D46164600BF62
:102AF00094F83C00012801D1022070BD012084F827
:102B00003C0000BF36B1042E1BD0082E31D00C2E55
:102B10005ED145E02946206800F016FD20688069F6
:102B200040F00800216888612068806920F0040076
:102B30002168886120688069296908432168886163
:102B400047E02946206800F037FD2068806940F49E
:102B50000060216888612068806920F480602168B5
:102B6000886120688069296940EA012021688861BC
:102B70002FE02946206800F05DFD2068C06940F024
:102B800008002168C8612068C06920F0040021683D
:102B9000C8612068C069296908432168C86118E0D4
:102BA0002946206800F082FD2068C06940F400607A
:102BB0002168C8612068C06920F480602168C8610C
:102BC0002068C069296940EA01202168C86100E0E5
:102BD00000BF00BF00BF002084F83C0000BF00BF62
:102BE0008BE710B504460CB9012010BD94F83D00E8
:102BF00028B9002084F83C00204600F025F8022087
:102C000084F83D00211D206800F020FC012084F89C
:102C1000460000BF84F83E0001213F2001554020BE
:102C200001554120015500BF00BF012084F842003A
:102C300043200155442001554520015500BF012086
:102C400084F83D000020D0E710B586B0044614217A
:102C500001A8FDF730FC3549206888422FD100BF1C
:102C6000002000903248006840F0100030490860B1
:102C70000846006800F01000009000BF00BF00BFD1
:102C8000002000902A481430006840F48030284921
:102C9000143108600846006800F48030009000BFDE
:102CA00000BF6020019002200290002003900220CB
:102CB00004900320059001A91E48FEF7D3FE1E498B
:102CC0002068884230D100BF00200090184800687A
:102CD00040F00200164908600846006800F0020053
:102CE000009000BF00BF00BF0020009010481030CF
:102CF000006840F040000E49103108600846006846
:102D000000F04000009000BF00BF4FF44040019031
:102D100002200290002003900220049009200590D8
:102D200001A90648FEF79EFE06B010BD0040014016
:102D300030380240001002400018004000040240F9
:102D40007047000070B504460D4615B994F83E0072
:102D50000BE0042D02D13F20005D06E0082D02D1DA
:102D60004020005D01E04120005D012801D00120EC
:102D700070BD1DB9022084F83E000EE0042D03D181
:102D800002213F20015508E0082D03D102214020F7
:102D9000015502E002214120015501222946206807
:102DA00000F0C0FB23492068884203D022492068F4
:102DB000884201D1012000E0002028B12068406C49
:102DC00040F40040216848641A49206888421BD0BA
:102DD0002068B0F1804F17D018492068884213D07E
:102DE0001749206888420FD01649206888420BD0C6
:102DF00011492068884207D013492068884203D0CF
:102E00001249206888420CD12068806800F00706CB
:102E1000062E0CD02068006840F001002168086090
:102E200005E02068006840F001002168086000208B
:102E30009EE7000000000140000401400004004043
:102E400000080040000C0040004001400018004015
:102E5000054A0168914205D104490988491C09B213
:102E6000024A11807047000000100040040000205A
:102E700070477047704700002DE9F84F04462068FE
:102E800005682068C668206847694FF00009CA468F
:102E900005F00F09B9F1000F0AD105F0200038B193
:102EA00006F0200020B1204600F0BFFCBDE8F88FFE
:102EB000B9F1000F72D007F0010018B906F4907054
:102EC00000286BD005F0010030B106F4807018B115
:102ED000206C40F00100206405F0040030B107F0E0
:102EE000010018B1206C40F00200206405F00200DF
:102EF00030B107F0010018B1206C40F004002064EC
:102F000005F0080048B106F0200010B907F00100F4
:102F100018B1206C40F008002064206C70B305F0FC
:102F2000200028B106F0200010B1204600F07DFC02
:102F300020684069C0F3801A206C00F0080010B9C6
:102F4000BAF1000F23D0204600F044FC206840690D
:102F500000F04000402816D12068406920F0400071
:102F600021684861A06B50B15648A16B0865A06B01
:102F7000FEF70DFD10B1A06B016D88470CE02046F7
:102F8000FFF778FF08E02046FFF774FF04E02046D3
:102F9000FFF770FF0020206488E7FFE7206B01281F
:102FA00079D105F01000002875D006F01000002837
:102FB00071D000BF00200090206800680090206859
:102FC0004068009000BF00BF2068406900F04000EA
:102FD000402839D1A06B006840681FFA80F8B8F12A
:102FE000000F30D0A08D40452DDDA4F82E80A06BC1
:102FF000C069B0F5807F1FD02068C06820F4807061
:103000002168C8602068406920F00100216848619B
:103010002068406920F0400021684861202084F841
:103020003E00002020632068C06820F01000216866
:10303000C860A06BFEF756FCA08DE28D801A81B2AD
:103040002046FFF716FF31E7A08DE18D401A1FFAE9
:1030500080F8E08DE8B1B8F1000F1AD02068C068A0
:1030600020F490702168C8602068406920F0010059
:1030700021684861202084F83E00002020632068F9
:10308000C06820F010002168C86041462046FFF764
:10309000F0FE0BE7FFE705F0800030B106F080009E
:1030A00018B1204600F059FD00E705F0400030B1AE
:1030B00006F0400018B1204600F0A7FBF6E600BF7E
:1030C000F4E60000C137000810B504460CB9012031
:1030D00010BDA06900B100E000BF94F83D0028B920
:1030E000002084F83C00204600F028F8242084F8D2
:1030F0003D002068C06820F400502168C860204668
:1031000000F0F2FB2068006920F49040216808611B
:103110002068406920F02A00216848612068C06862
:1031200040F400502168C86000202064202084F80A
:103130003D0084F83E000020CAE7000010B586B0CC
:10314000044651492068884255D100BF00BF002085
:1031500000904E48006840F010004C490860084656
:10316000006800F01000009000BF00BF00BF00BF6B
:1031700000BF0020009045481438006840F001006E
:103180004249143908600846006800F001000090C8
:1031900000BF00BF00BF00BF00BF00200090084676
:1031A000006840F0010008600846006800F0010077
:1031B000009000BF00BF00BF4815019002200290A0
:1031C00001200390022004900720059001A93048B7
:1031D000FEF748FC4FF4806001900720059001A99C
:1031E0002B48FEF73FFC2520FEF795FD03221146F4
:1031F0002520FEF7A0FD27492068884241D100BF65
:10320000002000902148001F006840F400301F4952
:10321000091F08600846006800F40030009000BFF5
:1032200000BF00BF0020009018481438006840F02C
:1032300001001649143908600846006800F00100D2
:10324000009000BF00BF04200190022002900120E6
:103250000390022004900720059001A90C48FEF776
:1032600001FC082001900720059001A90848FEF7FD
:10327000F9FB022203212620FEF75DFD2620FEF742
:103280004AFD06B010BD0000001001404438024065
:10329000000002400044004070B504460D4616464A
:1032A00094F83E00202816D105B10EB9012070BD5A
:1032B00000BF94F83C00012801D10220F7E701206B
:1032C00084F83C0000BF0020206332462946204697
:1032D00000F020FCEBE70220E9E7000010B504460F
:1032E0004149206888423BD14048008800F40040B2
:1032F00088BB3E48008800F4804070B13C480078AC
:103300000A2803D000203949088024E03748008883
:1033100040F40040354908801DE0354800780D280C
:1033200006D13248008840F480403049088012E0DD
:103330002F4800782D490988C1F30D012D4A5054BA
:103340002A480088401C2949088008460088C72868
:1033500001DD00200880012225492748FFF79CFF56
:103360002649206888423DD12548008800F4004065
:1033700098BB2348008800F4804070B12148007851
:103380000A2803D000201E49088026E01C48008837
:1033900040F400401A4908801FE01A4800780D28C0
:1033A00006D11748008840F480401549088014E091
:1033B0001448007812490988C1F30D01124A50548B
:1033C0000F480088401C0E49088008460088C0F35A
:1033D0000D001F2801DD00200880012209490B484B
:1033E000FFF75AFF10BD0000001001403C00002014
:1033F0003E000020900200205803002000440040BE
:103400000E0000200C000020700200202C02002082
:10341000704700BFFEE700BFFEE770477047704788
:1034200010B5FEF727FC10BD0348006840F470009B
:10343000014908607047000088ED00E010B50248BF
:10344000FFF785FA10BD0000AC00002010B502683F
:10345000294B98420ED0B0F1804F0BD0274B9842A9
:1034600008D0274B984205D0264B984202D0264BD5
:10347000984203D122F070024B681A431E4B9842C7
:1034800020D0B0F1804F1DD01C4B98421AD01C4B5D
:10349000984217D01B4B984214D01B4B984211D026
:1034A0001A4B98420ED01A4B98420BD0194B9842A7
:1034B00008D0194B984205D0184B984202D0184BAF
:1034C000984203D122F44072CB681A4322F0800361
:1034D0004C6943EA040202608B68C3620B68836232
:1034E000054B984202D0084B984201D10B69036307
:1034F0000123436110BD00000000014000040040B2
:1035000000080040000C0040000401400040014061
:10351000004401400048014000180040001C0040E9
:103520000020004030B501F01F05012404FA05F326
:10353000046A9C430462046A01F01F0502FA05F55F
:103540002C43046230BD000030B5056A25F001054A
:103550000562026A4368846924F0700424F003045D
:103560000D682C4322F002028D682A43104DA842B8
:1035700000D103E00F4DA84206D100BF22F008029F
:10358000CD682A4322F00402094DA84202D0094D19
:10359000A84207D123F4807323F400734D692B43B1
:1035A0008D692B43436084614D684563026230BD81
:1035B000000001400004014030B5056A25F0100507
:1035C0000562026A4368846924F4E04424F4407488
:1035D0000D6844EA052422F020028D6842EA0512B3
:1035E000124DA84200D103E0114DA84207D100BFFF
:1035F00022F08002CD6842EA051222F040020B4D13
:10360000A84202D00A4DA84209D123F4806323F4D2
:1036100000634D6943EA85038D6943EA850343608E
:1036200084614D688563026230BD00000000014086
:103630000004014030B5056A25F480750562026A10
:103640004368C46924F0700424F003040D682C431B
:1036500022F400728D6842EA0522124DA84200D180
:1036600003E0114DA84207D100BF22F40062CD68EB
:1036700042EA052222F480620A4DA84202D00A4D95
:10368000A84209D123F4805323F400534D6943EA3F
:1036900005138D6943EA05134360C4614D68C56332
:1036A000026230BD000001400004014030B5056AEF
:1036B00025F480550562036A4468C26922F4E04239
:1036C00022F440720D6842EA052223F400538D680B
:1036D00043EA0533084DA84202D0084DA84204D160
:1036E00024F480444D6944EA85144460C2614D6805
:1036F0000564036230BD0000000001400004014089
:1037000010B504461B4890ED000ADFED1B0A30EEB1
:10371000200A80ED000A90ED000ADFED180AB4EEF1
:10372000E00AF1EE10FA03DD9FED140A80ED000AC5
:1037300000EE904AB8EEE01A0E48D0ED001ADFED28
:10374000100A41EE610AB0EE600A0E4800F061FE18
:1037500000EE904AB8EEE01A0648D0ED001ADFED10
:10376000080A41EE210AB0EE600A074800F051FE57
:1037700010BD000018000020DFDD5D4051B82E4272
:10378000222242424C0000207C00002010B52DED8A
:10379000028B9FED080AB0EE408AB1EE480A064857
:1037A00000F037FEB0EE480A044800F032FEBDECEF
:1037B000028B10BD222242424C0000207C000020DF
:1037C00070B50546AC6B0020E085E0842046FFF72D
:1037D00051FB70BD0168C96821F490710268D16025
:1037E0000168496921F0010102685161016B0129F9
:1037F00005D10168C96821F010010268D16020215B
:1038000080F83E1000210163704710B5044620681F
:10381000C06820F040002168C860202084F83D0086
:103820002046FFF7F5FD002010BD70B5044694F862
:103830003E00222856D1A068B0F5805F0CD12069E7
:1038400050B90025A66A20684068C0F3080030809F
:10385000A06A801CA06215E0A56A0026A068B0F5E9
:10386000805F03D0A06828B9206918B92068406833
:10387000287004E02068406800F07F002870A06A8B
:10388000401CA062E08D401E80B2E08540BB2068F5
:10389000C06820F020002168C8602068C06820F45B
:1038A00080702168C8602068406920F001002168AC
:1038B0004861202084F83E00206B01280AD120684E
:1038C000C06820F010002168C860A18D2046FFF775
:1038D000D0FA02E02046FFF701FD0020206370BD12
:1038E0000020FCE70220FAE72DE9F84F04462068A3
:1038F000006920F44050E1680843216808612169AB
:10390000A068084361690843E169084300902068A2
:10391000C06849F20C618843009908432168C86077
:103920002068406920F44070A1690843216848611B
:1039300076492068884203D075492068884203D1BF
:10394000FEF724FB814602E0FEF710FB8146E069AA
:10395000B0F5004F6CD102206168A0FB0150034616
:103960001920A9FB007001462A463846FCF799FC4D
:103970006421B0FBF1F04FEA001A02206168A0FB5D
:1039800001510B461920A9FB00712A463846FCF765
:1039900088FC834602206168A0FB01500346192081
:1039A000A9FB00712A463846FCF77BFC6421B0FB7A
:1039B000F1F000EBC00101EB0010ABEB8000322115
:1039C00001EBC0006421B0FBF1F000F0F8000AEB5D
:1039D000400A02206168A0FB015003461920A9FBA0
:1039E000007001462A463846FCF75BFC83460220FD
:1039F0006168A0FB015003461920A9FB00712A460B
:103A00003846FCF74EFC6421B0FBF1F000EBC0013E
:103A100001EB0010ABEB8000322101EBC000642110
:103A2000B0FBF1F000F007005044216888606AE0C4
:103A300004206168A0FB015003461920A9FB007017
:103A400001462A463846FCF72CFC82460420616871
:103A5000A0FB015003461920A9FB007001462A462D
:103A60003846FCF71EFC6421B0FBF1F000EBC0010E
:103A700001EB0010AAEB8000322101EB0010642161
:103A8000B0FBF1F000F0F00A04206168A0FB0170C7
:103A900003461920A9FB00513A462846FCF701FCD1
:103AA0006421B0FBF1F00AEB001A04206168A0FB6E
:103AB00001510B461920A9FB00712A463846FCF734
:103AC000F0FB834604206168A0FB015003461920E7
:103AD000A9FB007001462A463846FCF7E2FB642148
:103AE000B0FBF1F000EBC00101EB0010ABEB80008C
:103AF000322101EB00106421B0FBF1F000F00F0067
:103B0000504421688860BDE8F88F00000010014033
:103B10000014014010B5034699629A85DA850020A9
:103B20001864222083F83E0000BF002083F83C0088
:103B300000BF1868C06840F480701C68E0601868B6
:103B4000406940F001001C6860611868C06840F07E
:103B500020001C68E060002010BD014691F83D0087
:103B6000212828D18868B0F5805F0BD1086948B951
:103B70000A6A1088C0F308000B685860086A801C45
:103B8000086205E00B6A581C086218780B685860D8
:103B9000C88C401E80B2C88458B90868C06820F03C
:103BA00080000B68D8600868C06840F040000B686F
:103BB000D860002070470220FCE7000010B50248E2
:103BC000FFF75AF910BD00005803002010B5024855
:103BD000FFF752F910BD00002C02002000BFFEE7E5
:103BE00003B401984100009850EAC12018BF042096
:103BF0004A0D18BF40F0010040F2FF72B2EB515F76
:103C000008BF40F00200012808BF052002B070473D
:103C100002480068C0F30220704700000CED00E08D
:103C200010B5002804DB0A07130E054A135406E0FA
:103C30000A07140E034A00F00F031B1FD45410BDD3
:103C400000E400E018ED00E000BF704770B50446E6
:103C50000D4607480749086008464460C560802152
:103C60008161FEF765FC0348FEF7BAFC70BD0000F9
:103C700000100040AC0000200149086070470000BF
:103C80003400002000B589B024216846FCF713FCFD
:103C90001E481F4908600020486000211C488160C0
:103CA0004FF6FF71C1600021016181610320009026
:103CB0000020019001200290002003900620049033
:103CC0000020059001200690002007900620089013
:103CD00069460F48FEF7D8FC3C210D48FEF7D0FDA1
:103CE00000200B490968486209480068406A094990
:103CF0000880002048809FED080A084680ED010AF0
:103D00009FED050A80ED020A09B000BD00040040E5
:103D100084010020140200200000000000B589B0DA
:103D200024216846FCF7C7FB1E481F490860002095
:103D3000486000211C4881604FF6FF71C16000217E
:103D40000161816103200090002001900120029018
:103D5000002003900620049000200590012006908A
:103D6000002007900620089069460F48FEF78CFC5B
:103D70003C210D48FEF784FD00200B49096848628C
:103D800009480068406A09490880002048809FED82
:103D9000080A084680ED010A9FED050A80ED020A37
:103DA00009B000BD00080040CC0100202002002026
:103DB0000000000000B587B000BF0020019010484F
:103DC000006840F001000E4908600846006800F0F5
:103DD0000100019000BF00BF01200290094803903C
:103DE0000220049002A90848FDF73CFE00220221AF
:103DF0000620FDF7A0FF0620FDF78DFF07B000BDF0
:103E000030380240000011100000024000BF054A97
:103E1000126802F04002002AF9D0C2B2014B5A6087
:103E2000704700000010014001460020022904D123
:103E3000034A1278022A00D00120014A117070470B
:103E4000250000202DED088B88B0FDF71FFF07230C
:103E5000022208214FF4A87000F0DEFAA820FFF734
:103E60000BFF4FF4E13000F037FB4FF4E13000F08E
:103E7000F5F9FFF79FFF00F09DF86FF03201012088
:103E8000FDF7B4FB092142F2CF00FFF7DFFE75E03A
:103E900000F0B0F93A480078002841D000203849B5
:103EA00008703848B0F9001037480078FDF7CCFBAF
:103EB000364890ED010A10EE101A084600F05AFB41
:103EC00041EC180B314890ED000A10EE101A08462C
:103ED00000F050FB41EC190B2D4890ED010A10EE5B
:103EE000101A084600F046FB41EC1A0B284890EDEA
:103EF000000A10EE101A084600F03CFB41EC1B0BC8
:103F00008DED068B8DED049B8DED02AB8DED00BB31
:103F10001C48B0F900201C4801781EA0FCF738FAB4
:103F20002348B0F90000282828DB00202049088019
:103F300000F0A0F800EE100AB8EEC00AB0EE408A19
:103F4000134800F0A7F9BDEEC00A10EE100A04B243
:103F5000204600F09BF800F0EDF800EE100AB8EEF5
:103F6000C00AB0EE408A094800F094F9BDEEC00ADC
:103F700010EE100A04B2204600F0E8F888E70000CE
:103F80001400002012000020100000207C000020FF
:103F90004C0000206F70656E6D763A25642C2564A8
:103FA0002C25662C25662C25662C25660D0A00001E
:103FB0000400002010B56321A72000F089F86321D8
:103FC000532000F0E5F8002000F060F8002000F039
:103FD000BDF8FFF757FEFFF7A1FE0C4800F0E4F92B
:103FE0000B4800F0E1F90B49084800F0BDF90A4917
:103FF000074800F0B9F99FED090A044800F009FAF2
:104000009FED060A024800F004FA10BD4C000020A3
:104010007C0000206446000878460008000000008C
:1040200010B5034800F0C0F9024800F0BDF910BD1A
:104030004C0000207C00002010B50B4800F0B4F9C3
:104040000A4800F0B1F99FED0A0A074800F0E1F9CB
:104050009FED070A054800F0DCF9002000F016F893
:10406000002000F073F810BD4C0000207C00002000
:1040700000000000002004490968496A08B20021D4
:10408000014A1268516270478401002010B5014650
:104090000E4B1B68DA6A00290BDB88B2904200D90C
:1040A00090B20A4B1B6858630023084C2468A36332
:1040B0000BE04B4298B2904200D990B20023034CDF
:1040C00024686363014B1B68986310BDF4000020F3
:1040D00030B587B004460D461C216846FCF7EBF965
:1040E0001248134908600846446000218160C56099
:1040F00001618161FEF775FD602000900020019054
:1041000002900490002269460948FEF7ECFC042264
:1041100069460748FEF7E7FC00210548FEF712FE56
:1041200004210348FEF70EFE07B030BD00400140F9
:10413000F400002004490968496A08B20021024AD3
:104140001268516270470000CC01002010B5014692
:104150000E4B1B68DA6A00290BDB88B2904200D94B
:1041600090B20A4B1B6898630023084C2468636371
:104170000BE04B4298B2904200D990B20023034C1E
:104180002468A363014B1B68586310BD3C010020E9
:1041900030B587B004460D461C216846FCF78BF904
:1041A0001248134908600846446000218160C560D8
:1041B00001618161FEF715FD6020009000200190F3
:1041C00002900490002269460948FEF78CFC042204
:1041D00069460748FEF787FC00210548FEF7B2FD57
:1041E00004210348FEF7AEFD07B030BD00180040C3
:1041F0003C01002010B51448008800F4004000B9CC
:1042000010BD002010490988C1F30D010F4A505418
:104210002C211046FCF745F904467CB100202070A3
:104220000A48FCF731F90A490870601CFCF72CF9C0
:1042300000B208490880012007490870002002499F
:10424000088000BFDCE700000E00002070020020A4
:1042500010000020120000201400002010B50446B9
:1042600009480A4908600846446000218160C1602D
:10427000016181610C214161FEF726FF01220449A1
:104280000248FFF709F810BD004400402C0200204E
:104290000C00002010B52DED028B0446B0EE408AD4
:1042A0009FED300AF0EE408A84ED018A94ED040A15
:1042B00084ED050A94ED030A84ED040A94ED000AE6
:1042C000D4ED010A30EE600A84ED030AB7EE000A6D
:1042D00030EE680AD4ED080A60EE200A94ED030A75
:1042E00094ED041AF0EE001A01EEC10A94ED051ADD
:1042F00030EE010A20EE800AD4ED090A08EEA00A89
:1043000084ED090A94ED030AD4ED040A30EE600A44
:10431000D4ED060A20EE200AD4ED070A94ED031A24
:1043200000EE810AD4ED090A30EE200AD4ED020A2B
:1043300030EE200A84ED020AD4ED0B1AB0EE611AB9
:10434000D4ED0A1AF0EE610AD4ED021AB0EE610A59
:1043500000F015F884ED020A94ED020ABDEC028B20
:1043600010BD0000CDCC4C3F00B502460B461946AF
:10437000104600F039F8104600F016F800BDF0EED7
:10438000401AF4EEC11AF1EE10FA02DDB0EE410A65
:104390007047F4EEE01AF1EE10FA02D2B0EE600AC5
:1043A000F6E7B0EE610AF3E79FED0E0A80ED000A32
:1043B0009FED0C0A80ED010A9FED0A0A80ED090AC3
:1043C0009FED080A80ED020A9FED060A80ED030AC0
:1043D0009FED040A80ED040A9FED020A80ED050AB4
:1043E000704700000000000091ED000A80ED060A11
:1043F00091ED010A80ED070A91ED020A80ED080AAD
:1044000091ED030A80ED0A0A91ED040A80ED0B0A92
:10441000704780ED000A70472DE9F04192B0804668
:104420000C4615461E460027302106A8FCF743F827
:10443000142101A8FCF73FF800BF00200090244899
:10444000006840F08050224908600846006800F08B
:104450008050009000BF00BF00BF002000901D48AA
:10446000006840F480401B4908600846006800F47A
:104470008040009000BF00BF01200690000407901C
:1044800002200C9041050D91CDF83C800E941095C2
:10449000119606A8FDF7E2FD07461FB1012012B0F4
:1044A000BDE8F0810F2001900220029000200390CF
:1044B0004FF4A05004904FF480500590052101A8BE
:1044C000FDF78CFC07460FB10120E8E70020E6E786
:1044D000403802400070004010B5044609480A49BF
:1044E00008600846446000218160C160016181610B
:1044F0000C214161FEF7E8FD012204490248FEF764
:10450000CBFE10BD00100140580300203E000020EB
:1045100010B500290AD00878002807D0054878444B
:10452000FCF75AFC002801D0002010BD0248784456
:1045300010BD00003A0200003202000010B5002950
:104540000AD00878002807D005487844FCF744FCD6
:10455000002801D0002010BD0248784410BD0000A2
:104560002A020000220200000808A0F500114FEA0C
:104570003101704743004FEAD30C4FEA3C0C4340F3
:104580001FBF40070CF1605113F0FE4F70471CF045
:10459000006F03D100200CF0004170470CF0004385
:1045A00043EA507010B540EACC0000F00EF800BFAE
:1045B000000000924FEA0001FFF7D6BF4FF0004124
:1045C0004FF00000A1F5002170470EF1020E2EF011
:1045D000030E5EF8044B244204D44FEA4102B2F1C8
:1045E0007F4F11D84FEA4003B3F17F4F0CD80ED163
:1045F0004FEAD07CB2F17F4F0CEB4C0C0CF1020C6B
:1046000008BF4CEBD17C04E04FF0080C01E04FEA0E
:10461000D17C0CEB4C0324FA03F404F00704B4F14E
:10462000040C06D20EEB840CBDE810404CF0010CDB
:104630006047DFE80CF0070802024FF00040A0F5E9
:10464000800010BD0846420018BFD2F1807288BFBA
:1046500000F0004010BD4FF04070E1EE100A7047CE
:10466000FCF78AB852B89E3ECDCCCC3D6F12033BCE
:104670000000A0C20000A04252B89E3ECDCCCC3D6E
:104680006F12033B0000A0C20000A0420000000027
:1046900000000000010203040607080900000000F2
:1046A0000102030402400000000000A0000000001E
:1046B00005400000000000C8000000000C400000A1
:1046C0000000409C00000000194000000020BCBE1B
:1046D0000000000034400000BFC91B8E0000000431
:1046E000B5400000504BCFD06607E2CF010000007C
:1046F0006C4100003E8251AADFEEA73401000000A9
:10470000D9420000DCB5A0E23A301F97FFFFFFFF5F
:10471000B4450000FD25A0C8E9A3C14FFFFFFFFF7E
:10472000FF3F00000000008000000000FF3F00008D
:104730000000008000000000844800080000002005
:104740004C000000C4010008D04800084C000020C4
:10475000B4070000E00100081C0000004300000056
:10476000F8FFFFFF0C0000000E0000000F0000002B
:104770002E0000001001000043000000F8FFFFFFC2
:104780000040404040404040404041414141414064
:104790004040404040404040404040404040404019
:1047A00040050202020202020202020202020202A8
:1047B00002202020202020202020200202020202AD
:1047C0000202909090909090101010101010101005
:1047D0001010101010101010101010100202020211
:1047E0000202888888888888080808080808080855
:1047F0000808080808080808080808080202020251
:104800004000000000000000000000000000000068
:104810000000000000000000000000000000000098
:104820000000000000000000000000000000000088
:104830000000000000000000000000000000000078
:104840000000000000000000000000000000000068
:104850000000000000000000000000000000000058
:104860000000000000000000000000000000000048
:104870000000000000000000000000000000000038
:10488000000000000024F400000000000000000010
:104890000000000000000000000000000000000018
:1048A0000000000000000000000002000000000006
:1048B00000000000000000000000000000000000F8
:1048C00000000000000000001000000001000000D7
:040000050800018965
:00000001FF
