:020000040800F2
:10000000B8070020290200088B1E0008831E000884
:10001000871E0008210400087D250008000000005C
:100020000000000000000000000000008F1E00081B
:1000300025040008000000008D1E0008911E000825
:100040004D0200084D0200084D0200084D02000854
:100050004D0200084D020008290400084D02000866
:100060004D0200084D0200084D0200084D02000834
:100070004D0200084D0200084D0200084D02000824
:100080004D0200084D0200084D0200084D02000814
:100090004D0200084D0200084D0200084D02000804
:1000A0004D0200084D0200084D0200084D020008F4
:1000B0004D0200084D0200084D0200084D020008E4
:1000C0004D0200084D0200084D0200084D020008D4
:1000D0004D0200086D2500084D0200084D02000881
:1000E0004D0200084D0200084D0200084D020008B4
:1000F0004D0200084D0200084D0200084D020008A4
:100100004D0200084D0200084D0200084D02000893
:100110004D0200084D020008AD1E00084D02000807
:100120004D0200084D0200084D0200084D02000873
:100130004D0200084D0200084D0200084D02000863
:100140004D0200084D0200084D0200084D02000853
:100150004D0200084D0200084D0200084D02000843
:100160004D0200084D0200084D0200084D02000833
:100170004D0200084D0200084D020008000000007A
:100180004D0200084D02000800F002F800F03CF8B3
:100190000AA090E8000C82448344AAF10107DA45E2
:1001A00001D100F031F8AFF2090EBAE80F0013F0F8
:1001B000010F18BFFB1A43F0010318478C310000F0
:1001C000AC310000103A24BF78C878C1FAD8520781
:1001D00024BF30C830C144BF04680C6070470000C1
:1001E0000023002400250026103A28BF78C1FBD840
:1001F000520728BF30C148BF0B6070471FB502F0DF
:100200005DFF1FBD10B510BD00F0D7F81146FFF718
:10021000F5FF02F0ABFC00F0F5F803B4FFF7F2FFD6
:1002200003BC02F001FA00000C48016841F47001BF
:1002300001600B4880470B480047FEE7FEE7FEE7FA
:10024000FEE7FEE7FEE7FEE7FEE7FEE7FEE700006B
:1002500005480649044A064B7047000088ED00E057
:10026000991E000889010008B8030020B807002083
:10027000B8030020704753EA020C00F069802DE9B2
:10028000F04B4FF00006002B1FBFB3FA83F503FAC3
:1002900005F424FA05F65E4012BF1643B2FA82F561
:1002A00002FA05F4C5F120051EBF22FA05FC44EA56
:1002B0000C04203556EA044C4FEA144418BF641C61
:1002C0004FF000084FF00009904271EB030C39D356
:1002D000002919BFB1FA81F701FA07F6B0FA80F7E1
:1002E00000FA07F6C7F120071EBF20FA07FC46EA0E
:1002F0000C062037B6FBF4FCA7EB0507103F07F010
:100300001F0BCBF120060CFA0BFB2CFA06F644BFB0
:10031000B3460026202FA4BF5E464FF0000B5BEAD9
:10032000060C08BF4FF0010B19EB0B09ABFB027C6D
:1003300048EB0608C01B06FB02CC0BFB03CC71EBA1
:100340000C01C1E70B46024641464846BDE8F08B2A
:1003500013B54FF000004FF00001AFF30080BDE88F
:100360001C4070474FF0000200B513469446964675
:10037000203922BFA0E80C50A0E80C50B1F12001B8
:10038000BFF4F7AF090728BFA0E80C5048BF0CC066
:100390005DF804EB890028BF40F8042B08BF7047C4
:1003A00048BF20F8022B11F0804F18BF00F8012B36
:1003B00070477047704770477047754600F02CF8DB
:1003C000AE4605006946534620F00700854618B042
:1003D00020B5FFF73DFFBDE820404FF000064FF08D
:1003E00000074FF000084FF0000B21F00701AC466A
:1003F000ACE8C009ACE8C009ACE8C009ACE8C00989
:100400008D46704710B50446AFF300802046BDE826
:100410001040FFF702BF000000487047580300205B
:1004200000BFFEE77047000010B5012000F09CF807
:1004300001200149086010BD143C014070B504461C
:10044000A56D00F0A1F9064694F83500022808D001
:100450008020606500BF002084F8340000BF0120C8
:1004600070BD2068006820F01600216808602068D0
:10047000406920F0800021684861206C08B9A06CB8
:1004800028B12068006820F0080021680860206812
:10049000006820F00100216808600FE000F074F9A6
:1004A000801B05280AD92020606500BF002084F841
:1004B000340000BF032084F83500D1E720680068CD
:1004C00000F001000028E9D194F85C103F2088403A
:1004D000A86000BF002084F8340000BF012084F829
:1004E00035000020BCE7014691F83500022803D012
:1004F0008020486501207047052081F83500086894
:10050000006820F001000A6810600020F3E7000096
:1005100010B52DED028B0446012C19D10E4890ED3B
:10052000000AB0EE408ADFED0D0A78EE200AB0EE48
:10053000600A02F044FD9FED0A0AB4EEC08AF1EEB3
:1005400010FA04DB9FED070A034802F038FD00BFF4
:10055000BDEC028B10BD0000240000200000C8424A
:1005600000001B440000000010B504460448006869
:10057000204020B1024804602046FFF7C9FF10BDAB
:10058000143C0140F8B502460B460025002400202B
:100590000021DEE0012606FA01F51E6806EA0504E0
:1005A000AC4275D11E7906F00306012E04D01E79E7
:1005B00006F00306022E13D190684F000326BE40BA
:1005C000B0434F00DE68BE40304390605068012663
:1005D0008E40B0431E79C6F300168E403043506003
:1005E0001E7906F00306032E09D0D0684F000326BB
:1005F000BE40B0434F009E68BE403043D0601E797D
:1006000006F00306022E13D1CF0802F1200656F899
:1006100027004E07F70E0F26BE40B0434F07FF0ED0
:100620001E69BE403043CF0802F1200646F827007D
:1006300010684F000326BE40B0431E7906F0030643
:100640004F00BE40304310605E6806F08056B6F141
:10065000805F7DD100BF00260096404E366846F48C
:1006600080463E4F3E603E46366806F48046009621
:1006700000BF00BF3A4E8F0856F827008E07370F8D
:100680000F26BE40B043374EB24202D1002624E0CE
:100690005EE0354EB24201D101261EE0334EB24239
:1006A00001D1022619E0324EB24201D1032614E0F4
:1006B000304EB24201D104260FE02F4EB24201D19A
:1006C00005260AE02D4EB24201D1062605E02C4E49
:1006D000B24201D1072600E008268F073F0FBE4037
:1006E00030431F4E8F0846F82700264E3068A0433F
:1006F0005E6806F48036B6F5803F00D12043214E77
:100700003060361D3068A0435E6806F40036B6F5EA
:10071000003F00D120431B4E361D3060361D30682F
:10072000A0435E6806F48016B6F5801F00D1204312
:10073000144E08363060361D3068A0435E6806F4FB
:100740000016B6F5001F00D120430E4E0C36306067
:10075000491C1029FFF41EAFF8BD000044380240C8
:100760000838014000000240000402400008024036
:10077000000C024000100240001402400018024029
:10078000001C0240003C0140014800687047000026
:10079000180000200348006803490978084401490B
:1007A00008607047180000202000002010B50D4898
:1007B000006840F400700B4908600846006840F487
:1007C000806008600846006840F48070086003207C
:1007D00000F080F80F2000F007F800F02BF8002060
:1007E00010BD0000003C024070B504460E48007881
:1007F0004FF47A71B1FBF0F00C490968B1FBF0F5E8
:10080000284600F009FC08B1012070BD102C07D269
:1008100000222146501E00F01EF80548046001E049
:100820000120F2E70020F0E7200000200000002077
:100830001C000020704701460846002809DB00F034
:100840001F0301229A4043099B0003F1E023C3F8F0
:10085000002100BF70472DE9F05F80460D46164627
:10086000002701F08DFE074639462A46334601F03F
:100870000700C0F1070ABAF1040F02D94FF0040AC9
:1008800001E0C0F1070AD14600F1040ABAF1070FEE
:1008900002D24FF0000A01E0A0F1030AD4464FF063
:1008A000010A0AFA09FAAAF1010A0AEA020A0AFA8C
:1008B0000CFA4FF0010B0BFA0CFBABF1010B0BEA3E
:1008C000030B4AEA0B042146404601F061FEBDE8F5
:1008D000F09F000000BF00F00702064B19684FF6BA
:1008E000FF031940044B0B4343EA0221014B1960FB
:1008F00000BF70470CED00E00000FA0570B504463B
:100900000D460CB9012070BD5848006800F0070082
:10091000A84209D255490D700846006800F007004A
:10092000A84201D00120EEE7207800F00200022862
:100930001DD1207800F00400042805D14C4800683F
:1009400040F4E0504A490860207800F00800082888
:1009500005D14748006840F4604045490860444874
:10096000006820F0F000A168084341490860207841
:1009700000F00100A8B36068012807D13C4808389E
:100980000068C0F34040B8B90120BCE760680228A5
:1009900002D06068032807D1354808380068C0F3E2
:1009A000406048B90120AEE7314808380068C0F31C
:1009B000400008B90120A6E72D48006820F0030098
:1009C000616808432A490860FFF7DEFE064609E031
:1009D000FFF7DAFE801B41F28831884202D90320FA
:1009E00091E707E02248006800F00C006168B0EB76
:1009F000810FEDD11D48006800F00700A84209D919
:100A00001A490D700846006800F00700A84201D09E
:100A1000012078E7207800F00400042807D114486A
:100A2000006820F4E050E16808431149086020782C
:100A300000F00800082808D10D48006820F4604044
:100A4000216940EAC1000A49086000F03FF80849FE
:100A50000968C1F30311074A515CC84006490860A0
:100A600006480068FFF7C0FE00204CE7003C02404B
:100A700008380240E4300008000000201C0000207C
:100A800001480068704700000000002000B5FFF733
:100A9000F7FF04490968C1F38221034A515CC84049
:100AA00000BD000008380240F430000800B5FFF730
:100AB000E7FF04490968C1F34231034A515CC84069
:100AC00000BD000008380240F43000082DE9F0476E
:100AD000002400250026A1462548006800F00C00EF
:100AE00020B1042805D008283AD105E0DFF8849029
:100AF00039E0DFF8849036E01D48001F006800F000
:100B00003F041B48001F006800F4800078B11A48B9
:100B10001749091F0968C1F38811A0FB017001463C
:100B2000224600233846FFF7A6FB05460EE0114893
:100B30000F49091F0968C1F38811A0FB0170014624
:100B4000224600233846FFF796FB05460848001F5B
:100B50000068C0F30140401C4600B5FBF6F902E016
:100B6000DFF8109000BF00BF4846BDE8F0870000E6
:100B7000083802400024F40000127A00F8B5044658
:100B80000CB90120F8BD207800F00100002874D0D5
:100B9000F948006800F00C0004280DD0F648006801
:100BA00000F00C00082813D1F348001F006800F47F
:100BB0008000B0F5800F0BD1EF4808380068C0F313
:100BC0004040002859D06068002856D10120D9E75C
:100BD00000BF6068B0F5803F08D1E748083800687A
:100BE00040F48030E449083908601EE06068B0F5E0
:100BF000A02F0DD1E0480838006840F48020DE497D
:100C0000083908600846006840F4803008600CE04D
:100C1000D9480838006820F48030D749083908607E
:100C20000846006820F48020086000BF606890B12A
:100C3000FFF7AAFD054606E0FFF7A6FD401B642866
:100C400001D903209EE7CC4808380068C0F3404033
:100C50000028F1D011E0FFF797FD054606E0FFF709
:100C600093FD401B642801D903208BE7C248083854
:100C70000068C0F340400028F1D1207800F0020065
:100C800002285FD1BC48006800F00C0058B1BA4897
:100C9000006800F00C0008281CD1B748001F00684D
:100CA00000F48000B0B9B44808380068C0F34000D0
:100CB00020B1E068012801D0012063E7AE48083880
:100CC000006820F0F800216940EAC100AA4908390B
:100CD000086037E0E06800B30120A8490860FFF72A
:100CE00053FD054606E0FFF74FFD401B022801D9E2
:100CF000032047E7A04808380068C0F340000028F8
:100D0000F1D09D480838006820F0F800216940EAD9
:100D1000C10099490839086014E00020974908602B
:100D2000FFF732FD054606E0FFF72EFD401B0228C7
:100D300001D9032026E7904808380068C0F3400036
:100D40000028F1D1207800F0080008282CD1606933
:100D5000A8B101208A490860FFF716FD054606E0A4
:100D6000FFF712FD401B022801D903200AE7824841
:100D70006C300068C0F340000028F1D014E000207F
:100D80007F490860FFF700FD054606E0FFF7FCFC21
:100D9000401B022801D90320F4E677486C30006834
:100DA000C0F340000028F1D1207800F004000428AE
:100DB00070D1002770483830006800F0805090B93A
:100DC00000BF002000906C483830006840F0805030
:100DD0006949383108600846006800F0805000908A
:100DE00000BF00BF01276748006800F48070B0B9F9
:100DF0006448006840F4807062490860FFF7C4FCF2
:100E0000054606E0FFF7C0FC401B022801D903207D
:100E1000B8E65C48006800F480700028F2D000BF9B
:100E2000A068012808D154486830006840F00100EB
:100E30005149683108601DE0A06805280DD14E4871
:100E40006830006840F004004B496831086008468B
:100E5000006840F0010008600CE047486830006816
:100E600020F001004449683108600846006820F01D
:100E70000400086000BFA068A8B1FFF785FC054624
:100E800009E0FFF781FC401B41F28831884202D91A
:100E9000032077E626E0384868300068C0F3400059
:100EA0000028EED013E0FFF76FFC054608E0FFF7DF
:100EB0006BFC401B41F28831884201D9032061E676
:100EC0002D4868300068C0F340000028EFD1012FA2
:100ED00007D129483830006820F080502649383141
:100EE000086000BFA069002845D02348006800F0D2
:100EF0000C0008285DD0A069022845D100201F49B8
:100F00000866FFF741FC054606E0FFF73DFC401B85
:100F1000022801D9032035E6174808380068C0F3D5
:100F200040600028F1D1D4E907010843616A40EA32
:100F300081110122A06AC2EB500041EA00412C203D
:100F4000005D41EA00600C49091F086001200B495F
:100F50000866FFF719FC054606E0FFF715FC401B85
:100F6000022801D903200DE6034808380068C0F3C1
:100F700040600028F1D049E00838024000004742B4
:100F8000800E474200700040002021490866FFF7AC
:100F9000FBFB054606E0FFF7F7FB401B022801D9E3
:100FA0000320EFE51B480068C0F340600028F2D141
:100FB0002CE0A069012800D1E4E51648001D066870
:100FC000A069012820D006F48001E06981421BD18C
:100FD00006F03F01206A814216D147F6C0703040CA
:100FE000616AB0EB811F0FD106F440310122A06A83
:100FF000C2EB5000B1EB004F06D106F070612C201F
:10100000005DB1EB006F01D00120BBE50020B9E528
:10101000000047420038024070B504462546681E6D
:10102000B0F1807F01D301200FE0681E4FF0E02176
:1010300048610F214FF0FF3001F0AAFA00204FF075
:10104000E021886107200861002070BD704770476B
:1010500010B504460CB9012010BD94F83D0028B924
:10106000002084F83C00204600F026F8022084F896
:101070003D00211D206800F021FF012084F846007A
:1010800000BF84F83E0001213F200155402001555A
:101090004120015500BF00BF012084F842004320D9
:1010A0000155442001554520015500BF012084F819
:1010B0003D000020D0E7000038B504460E49206806
:1010C000884217D100BF002000900C48006840F013
:1010D00010000A4908600846006800F010000090FF
:1010E00000BF00BF012202213620FFF7B4FB3620EB
:1010F000FFF7A1FB38BD000000100040403802405F
:10110000014691F83D00012801D0012070470220DE
:1011100081F83D000868C06840F001000B68D860A5
:101120001A4B086898421BD00868B0F1804F17D05E
:10113000174B0868984213D0164B086898420FD096
:10114000154B086898420BD0144B0868984207D09A
:10115000134B0868984203D0124B086898420CD190
:101160000868806800F00702062A0CD0086800684A
:1011700040F001000B68186005E00868006840F066
:1011800001000B6818600020C0E70000000001406B
:101190000004004000080040000C00400004014032
:1011A00000400140001800402DE9F04104460D4682
:1011B00014B90120BDE8F08194F83D0028B9002061
:1011C00084F83C00204600F053F8022084F83D00EB
:1011D0002068806844F20701884321688860211DE7
:1011E000206800F06BFE2068D0F8088020688669CF
:1011F0002068076A286840EA080840F203308643FE
:10120000A969A86840EA0120064340F60C408643DD
:101210004FF2F0008643E969E86840EA012006439E
:1012200028690001296A40EA0130064327F02207B5
:1012300027F088076969686840EA01100743206859
:10124000C0F808802068866120680762012084F861
:10125000460084F83E0001213F200155012084F81A
:10126000420043200155012084F83D000020A1E701
:1012700010B586B00446142101A8FFF773F842495F
:10128000206888424AD100BF002000903F48006893
:1012900040F002003D4908600846006800F0020086
:1012A000009000BF00BF00BF00200090084600680B
:1012B00040F0040008600846006800F00400009058
:1012C00000BF00BF00BF0020009030481030006811
:1012D00040F002002D49103108600846006800F017
:1012E0000200009000BF00BF102001900220029079
:1012F0000120039002200490059001A92448FFF7E3
:1013000041F98020019002200290012003900220E8
:101310000490059001A91F48FFF734F91E49206881
:1013200088422FD100BF002000901848006840F08C
:101330000800164908600846006800F008000090A0
:1013400000BF00BF00BF00200090104810300068B0
:1013500040F004000D49103108600846006800F0B4
:101360000400009000BF00BF4FF4405001900220E5
:1013700002900120039002200490059001A90748E3
:10138000FFF700F906B010BD0004004030380240FD
:10139000000402400008024000080040000C024027
:1013A0002DE9F04304460D4694F83E603F20075D6A
:1013B00094F84280432010F804906DB9012E02D1B8
:1013C000B8F1010F02D00120BDE8F083022084F8BB
:1013D0003E0084F8420025E0042D0CD1012F02D1FB
:1013E000B9F1010F01D00120EEE702213F200155A4
:1013F0004320015516E0012E07D1012F05D1B8F188
:10140000010F02D1B9F1010F01D00120DCE7022068
:1014100084F83E0002213F200155022084F842005A
:101420004320015515B1042D0CD105E00122002106
:10143000206800F0AFFD10E001220421206800F0D8
:10144000A9FD0AE001220021206800F0A3FD01228D
:101450000421206800F09EFD00BF00BF20680068E6
:1014600040F00100216808600020ADE7704710B52A
:10147000044620680069C0F34000D8B12068C06805
:10148000C0F34000B0B16FF0020021680861012094
:1014900020772068806900F0030018B12046FFF72C
:1014A000E5FF05E0204600F0ADF8204600F0D8F951
:1014B0000020207720680069C0F38000D8B1206840
:1014C000C068C0F38000B0B16FF00400216808610B
:1014D000022020772068806900F4407018B120460F
:1014E000FFF7C4FF05E0204600F08CF8204600F02E
:1014F000B7F90020207720680069C0F3C000D8B198
:101500002068C068C0F3C000B0B16FF00800216867
:101510000861042020772068C06900F0030018B13A
:101520002046FFF7A3FF05E0204600F06BF82046B9
:1015300000F096F90020207720680069C0F30010C1
:10154000D8B12068C068C0F30010B0B16FF01000CF
:1015500021680861082020772068C06900F4407085
:1015600018B12046FFF782FF05E0204600F04AF858
:10157000204600F075F9002020772068006900F00F
:10158000010058B12068C06800F0010030B16FF070
:10159000010021680861204600F0EAF9206800692E
:1015A000C0F3C01058B12068C068C0F3C01030B19B
:1015B0006FF08000216808612046FFF747FD206832
:1015C0000069C0F3801058B12068C068C0F3801073
:1015D00030B16FF0400021680861204600F014FA35
:1015E00020680069C0F3401058B12068C068C0F39B
:1015F000401030B16FF02000216808612046FFF7ED
:1016000026FD10BD704770B504460D46164600BF56
:1016100094F83C00012801D1022070BD012084F81B
:101620003C0000BF36B1042E1BD0082E31D00C2E4A
:101630005ED145E02946206800F0BEFC2068806944
:1016400040F00800216888612068806920F004006B
:101650002168886120688069296908432168886158
:1016600047E02946206800F0DFFC2068806940F4EC
:101670000060216888612068806920F480602168AA
:10168000886120688069296940EA012021688861B1
:101690002FE02946206800F005FD2068C06940F071
:1016A00008002168C8612068C06920F00400216832
:1016B000C8612068C069296908432168C86118E0C9
:1016C0002946206800F02AFD2068C06940F40060C7
:1016D0002168C8612068C06920F480602168C86101
:1016E0002068C069296940EA01202168C86100E0DA
:1016F00000BF00BF00BF002084F83C0000BF00BF57
:101700008BE710B504460CB9012010BD94F83D00DC
:1017100028B9002084F83C00204600F025F802207B
:1017200084F83D00211D206800F0C8FB012084F8EA
:10173000460000BF84F83E0001213F2001554020B3
:1017400001554120015500BF00BF012084F842002F
:1017500043200155442001554520015500BF01207B
:1017600084F83D000020D0E710B586B0044614216F
:1017700001A8FEF7F7FD3549206888422FD100BF48
:10178000002000903248006840F0100030490860A6
:101790000846006800F01000009000BF00BF00BFC6
:1017A000002000902A481430006840F48030284916
:1017B000143108600846006800F48030009000BFD3
:1017C00000BF6020019002200290002003900220C0
:1017D00004900320059001A91E48FEF7D3FE1E4980
:1017E0002068884230D100BF00200090184800686F
:1017F00040F00200164908600846006800F0020048
:10180000009000BF00BF00BF0020009010481030C3
:10181000006840F040000E4910310860084600683A
:1018200000F04000009000BF00BF4FF44040019026
:1018300002200290002003900220049009200590CD
:1018400001A90648FEF79EFE06B010BD004001400B
:1018500030380240001002400018004000040240EE
:101860007047000070B504460D4615B994F83E0067
:101870000BE0042D02D13F20005D06E0082D02D1CF
:101880004020005D01E04120005D012801D00120E1
:1018900070BD1DB9022084F83E000EE0042D03D176
:1018A00002213F20015508E0082D03D102214020EC
:1018B000015502E0022141200155012229462068FC
:1018C00000F068FB23492068884203D02249206841
:1018D000884201D1012000E0002028B12068406C3E
:1018E00040F40040216848641A49206888421BD0AF
:1018F0002068B0F1804F17D018492068884213D073
:101900001749206888420FD01649206888420BD0BA
:1019100011492068884207D013492068884203D0C3
:101920001249206888420CD12068806800F00706C0
:10193000062E0CD02068006840F001002168086085
:1019400005E02068006840F0010021680860002080
:101950009EE7000000000140000401400004004038
:1019600000080040000C004000400140001800400A
:1019700070B504461A49206888422FD101F070F9E9
:1019800001F0ECF9174890ED020A174880ED000AC3
:10199000164890ED020A164880ED000A124890EDB4
:1019A000000A144A1449154801F058F8BDEEC00A5F
:1019B00010EE100A05B2284601F07CF90C4890EDB3
:1019C000000A0C4A0E490F4801F048F8BDEEC00A63
:1019D00010EE100A05B2284601F0EAF970BD0000C9
:1019E00000100040340200200400002040020020CB
:1019F00008000020C8300008240000208C000020CF
:101A000058000020AC00002070477047704700006D
:101A10002DE9F84F0446206805682068C6682068EC
:101A200047694FF00009CA4605F00F09B9F1000FE8
:101A30000AD105F0200038B106F0200020B1204680
:101A400000F0CBFBBDE8F88FB9F1000F72D007F0C2
:101A5000010018B906F4907000286BD005F0010061
:101A600030B106F4807018B1206C40F001002064A1
:101A700005F0040030B107F0010018B1206C40F00F
:101A80000200206405F0020030B107F0010018B137
:101A9000206C40F00400206405F0080048B106F016
:101AA000200010B907F0010018B1206C40F00800C8
:101AB0002064206C70B305F0200028B106F02000EF
:101AC00010B1204600F089FB20684069C0F3801AFD
:101AD000206C00F0080010B9BAF1000F23D02046A6
:101AE00000F050FB2068406900F04000402816D10B
:101AF0002068406920F0400021684861A06B50B127
:101B00005648A16B0865A06BFEF7EDFC10B1A06B09
:101B1000016D88470CE02046FFF778FF08E020467B
:101B2000FFF774FF04E02046FFF770FF00202064F9
:101B300088E7FFE7206B012879D105F01000002825
:101B400075D006F01000002871D000BF0020009072
:101B500020680068009020684068009000BF00BFC7
:101B60002068406900F04000402839D1A06B00682F
:101B700040681FFA80F8B8F1000F30D0A08D4045C2
:101B80002DDDA4F82E80A06BC069B0F5807F1FD03A
:101B90002068C06820F480702168C86020684069AF
:101BA00020F00100216848612068406920F0400071
:101BB00021684861202084F83E00002020632068CE
:101BC000C06820F010002168C860A06BFEF736FCEA
:101BD000A08DE28D801A81B22046FFF716FF31E713
:101BE000A08DE18D401A1FFA80F8E08DE8B1B8F1C0
:101BF000000F1AD02068C06820F490702168C86077
:101C00002068406920F0010021684861202084F8A4
:101C10003E00002020632068C06820F0100021688A
:101C2000C86041462046FFF7F0FE0BE7FFE705F0EE
:101C3000800030B106F0800018B1204600F065FC4D
:101C400000E705F0400030B106F0400018B1204632
:101C500000F0B3FAF6E600BFF4E6000071210008D8
:101C600010B504460CB9012010BDA06900B100E018
:101C700000BF94F83D0028B9002084F83C002046BD
:101C800000F028F8242084F83D002068C06820F483
:101C900000502168C860204600F0FEFA2068006904
:101CA00020F49040216808612068406920F02A00F3
:101CB000216848612068C06840F400502168C8600D
:101CC00000202064202084F83D0084F83E0000209D
:101CD000CAE7000010B586B004462E492068884245
:101CE00055D100BF00BF002000902B48006840F095
:101CF0001000294908600846006800F010000090B4
:101D000000BF00BF00BF00BF00BF002000902248FE
:101D10001438006840F001001F4914390860084673
:101D2000006800F00100009000BF00BF00BF00BFCE
:101D300000BF002000900846006840F001000860E5
:101D40000846006800F00100009000BF00BF00BF1F
:101D50004815019002200290012003900220049077
:101D60000720059001A90D48FEF70CFC4FF4806098
:101D700001900720059001A90848FEF703FC2520E3
:101D8000FEF759FD032211462520FEF764FD06B03B
:101D900010BD000000100140443802400000024025
:101DA00070B504460D46164694F83E00202816D11C
:101DB00005B10EB9012070BD00BF94F83C000128A8
:101DC00001D10220F7E7012084F83C0000BF002089
:101DD000206332462946204600F074FBEBE70220E0
:101DE000E9E7000010B504462049206888423BD14D
:101DF0001F48008800F4004088BB1D48008800F49C
:101E0000804070B11B4800780A2803D00020184990
:101E1000088024E01648008840F4004014490880F7
:101E20001DE0144800780D2806D11148008840F4C0
:101E300080400F49088012E00E4800780C4909885C
:101E4000C1F30D010C4A505409480088401C084950
:101E5000088008460088C72801DD0020088001228C
:101E600004490648FFF79CFF10BD00000010014028
:101E700014000020160000204C0200201403002053
:101E8000704700BFFEE700BFFEE77047704770472E
:101E900010B5FEF77FFC10BD0348006840F47000E9
:101EA000014908607047000088ED00E010B5024865
:101EB000FFF7DDFA10BD0000CC00002010B502686D
:101EC000294B98420ED0B0F1804F0BD0274B98424F
:101ED00008D0274B984205D0264B984202D0264B7B
:101EE000984203D122F070024B681A431E4B98426D
:101EF00020D0B0F1804F1DD01C4B98421AD01C4B03
:101F0000984217D01B4B984214D01B4B984211D0CB
:101F10001A4B98420ED01A4B98420BD0194B98424C
:101F200008D0194B984205D0184B984202D0184B54
:101F3000984203D122F44072CB681A4322F0800306
:101F40004C6943EA040202608B68C3620B688362D7
:101F5000054B984202D0084B984201D10B690363AC
:101F60000123436110BD0000000001400004004057
:101F700000080040000C0040000401400040014007
:101F8000004401400048014000180040001C00408F
:101F90000020004030B501F01F05012404FA05F3CC
:101FA000046A9C430462046A01F01F0502FA05F505
:101FB0002C43046230BD000030B5056A25F00105F0
:101FC0000562026A4368846924F0700424F0030403
:101FD0000D682C4322F002028D682A43104DA8425E
:101FE00000D103E00F4DA84206D100BF22F0080245
:101FF000CD682A4322F00402094DA84202D0094DBF
:10200000A84207D123F4807323F400734D692B4356
:102010008D692B43436084614D684563026230BD26
:10202000000001400004014030B5056A25F01005AC
:102030000562026A4368846924F4E04424F440742D
:102040000D6844EA052422F020028D6842EA051258
:10205000124DA84200D103E0114DA84207D100BFA4
:1020600022F08002CD6842EA051222F040020B4DB8
:10207000A84202D00A4DA84209D123F4806323F478
:1020800000634D6943EA85038D6943EA8503436034
:1020900084614D688563026230BD0000000001402C
:1020A0000004014030B5056A25F480750562026AB6
:1020B0004368C46924F0700424F003040D682C43C1
:1020C00022F400728D6842EA0522124DA84200D126
:1020D00003E0114DA84207D100BF22F40062CD6891
:1020E00042EA052222F480620A4DA84202D00A4D3B
:1020F000A84209D123F4805323F400534D6943EAE5
:1021000005138D6943EA05134360C4614D68C563D7
:10211000026230BD000001400004014030B5056A94
:1021200025F480550562036A4468C26922F4E042DE
:1021300022F440720D6842EA052223F400538D68B0
:1021400043EA0533084DA84202D0084DA84204D105
:1021500024F480444D6944EA85144460C2614D68AA
:102160000564036230BD000000000140000401402E
:1021700070B50546AC6B0020E085E0842046FFF793
:1021800045FC70BD0168C96821F490710268D16096
:102190000168496921F0010102685161016B01295F
:1021A00005D10168C96821F010010268D1602021C1
:1021B00080F83E1000210163704710B50446206886
:1021C000C06820F040002168C860202084F83D00ED
:1021D0002046FFF755FE002010BD70B5044694F868
:1021E0003E00222856D1A068B0F5805F0CD120694E
:1021F00050B90025A66A20684068C0F30800308006
:10220000A06A801CA06215E0A56A0026A068B0F54F
:10221000805F03D0A06828B9206918B92068406899
:10222000287004E02068406800F07F002870A06AF1
:10223000401CA062E08D401E80B2E08540BB20685B
:10224000C06820F020002168C8602068C06820F4C1
:1022500080702168C8602068406920F00100216812
:102260004861202084F83E00206B01280AD12068B4
:10227000C06820F010002168C860A18D2046FFF7DB
:10228000C4FB02E02046FFF7ADFD0020206370BDD7
:102290000020FCE70220FAE72DE9F84F0446206809
:1022A000006920F44050E168084321680861216911
:1022B000A068084361690843E16908430090206809
:1022C000C06849F20C618843009908432168C860DE
:1022D0002068406920F44070A16908432168486182
:1022E00076492068884203D075492068884203D126
:1022F000FEF7DCFB814602E0FEF7C8FB8146E069A1
:10230000B0F5004F6CD102206168A0FB015003467C
:102310001920A9FB007001462A463846FDF7ABFF9D
:102320006421B0FBF1F04FEA001A02206168A0FBC3
:1023300001510B461920A9FB00712A463846FDF7CA
:102340009AFF834602206168A0FB015003461920D2
:10235000A9FB00712A463846FDF78DFF6421B0FBCA
:10236000F1F000EBC00101EB0010ABEB800032217B
:1023700001EBC0006421B0FBF1F000F0F8000AEBC3
:10238000400A02206168A0FB015003461920A9FB06
:10239000007001462A463846FDF76DFF834602204D
:1023A0006168A0FB015003461920A9FB00712A4671
:1023B0003846FDF760FF6421B0FBF1F000EBC0018F
:1023C00001EB0010ABEB8000322101EBC000642177
:1023D000B0FBF1F000F007005044216888606AE02B
:1023E00004206168A0FB015003461920A9FB00707E
:1023F00001462A463846FDF73EFF824604206168C2
:10240000A0FB015003461920A9FB007001462A4693
:102410003846FDF730FF6421B0FBF1F000EBC0015E
:1024200001EB0010AAEB8000322101EB00106421C7
:10243000B0FBF1F000F0F00A04206168A0FB01702D
:1024400003461920A9FB00513A462846FDF713FF21
:102450006421B0FBF1F00AEB001A04206168A0FBD4
:1024600001510B461920A9FB00712A463846FDF799
:1024700002FF834604206168A0FB01500346192037
:10248000A9FB007001462A463846FDF7F4FE642198
:10249000B0FBF1F000EBC00101EB0010ABEB8000F2
:1024A000322101EB00106421B0FBF1F000F00F00CD
:1024B000504421688860BDE8F88F0000001001409A
:1024C0000014014010B5034699629A85DA85002010
:1024D0001864222083F83E0000BF002083F83C00EF
:1024E00000BF1868C06840F480701C68E06018681D
:1024F000406940F001001C6860611868C06840F0E5
:1025000020001C68E060002010BD014691F83D00ED
:10251000212828D18868B0F5805F0BD1086948B9B7
:102520000A6A1088C0F308000B685860086A801CAB
:10253000086205E00B6A581C086218780B6858603E
:10254000C88C401E80B2C88458B90868C06820F0A2
:1025500080000B68D8600868C06840F040000B68D5
:10256000D860002070470220FCE7000010B5024848
:10257000FFF74EFA10BD00001403002000BFFEE775
:1025800002480068C0F30220704700000CED00E034
:1025900010B5002804DB0A07130E054A135406E0A1
:1025A0000A07140E034A00F00F031B1FD45410BD7A
:1025B00000E400E018ED00E010EE100AC0F3C7518F
:1025C0007F391729A8BF7047DFED140A002970EE84
:1025D000200A0DDAF5EEC00AF1EE10FA1ADD002835
:1025E000A8BF002016DAB0F1004F18BF0C4811E068
:1025F0000C4ACA40104208BF7047F5EEC00AF1EE1F
:1026000010FA07DD002804DA4FF4000323FA01F181
:102610000844904300EE100A70470000CAF2497166
:10262000000080BFFFFF7F0000BF704770B5044609
:102630000D4607480749086008464460C560802188
:102640008161FEF705FD0348FEF75AFD70BD0000ED
:1026500000100040CC000020F0EE401AF4EEE01A2A
:10266000F1EE10FA02D2B0EE600A7047F4EEC11A31
:10267000F1EE10FA02DDB0EE410AF6E7B0EE610AC3
:10268000F3E7000030B503460C469FED320AB0EE8A
:10269000401A9FED300AF0EE400A00204CE003EBB8
:1026A000800191ED000AB5EEC00AF1EE10FA00D1FA
:1026B00040E000213BE004EB810595ED002AB5EEFA
:1026C000C02AF1EE10FA00D12FE003EB800595ED62
:1026D000002A04EB8105D5ED002AB4EEE22AF1EEE2
:1026E00010FA04D203EB800595ED002A03E004EB19
:1026F000810595ED002AB0EE420AB5EEC00AF1EE72
:1027000010FA00D111E0C0EBC0050D4402EB8505C5
:10271000D5ED001AB0EE412A00EE212AB0EE421AA1
:1027200030EE802AF0EE420A00BF4D1C69B2072944
:10273000C1DB00BF411C48B20728B0DBF5EEC00A80
:10274000F1EE10FA02D19FED030A30BD81EE200AAE
:10275000FBE700000000000001490860704700002E
:102760000C00002000B589B024216846FDF7FAFD71
:102770001E481F4908600020486000211C488160F5
:102780004FF6FF71C160002101618161032000905B
:102790000020019001200290002003900620049068
:1027A0000020059001200690002007900620089048
:1027B00069460F48FEF7F8FC3C210D48FEF7F0FD96
:1027C00000200B490968486209480068406A0949C5
:1027D0000880002048809FED080A084680ED010A25
:1027E0009FED050A80ED020A09B000BD000400401B
:1027F000A4010020340200200000000000B589B0D0
:1028000024216846FDF7AEFD1E481F4908600020E0
:10281000486000211C4881604FF6FF71C1600021B3
:10282000016181610320009000200190012002904D
:1028300000200390062004900020059001200690BF
:10284000002007900620089069460F48FEF7ACFC70
:102850003C210D48FEF7A4FD00200B4909684862A1
:1028600009480068406A09490880002048809FEDB7
:10287000080A084680ED010A9FED050A80ED020A6C
:1028800009B000BD00080040EC010020400200201B
:102890000000000000B587B000BF00200190104884
:1028A000006840F001000E4908600846006800F02A
:1028B0000100019000BF00BF012002900948039071
:1028C0000220049002A90848FDF75CFE00220221C4
:1028D0000620FDF7C0FF0620FDF7ADFF07B000BDE5
:1028E0003038024000001110000002402DE9F04194
:1028F0002DED048BF0EE409A0446B0EE081AF8EE87
:10290000080AB0EE690AFFF7A7FEB0EE408A002081
:1029100007E09FED2A0A04EB800181ED000A411CCB
:1029200048B20728F5DBB0EE480AFFF745FEBDEEDA
:10293000C00A10EE100A45B200EE105AF8EEC08A36
:10294000B7EE000A38EE809AE81C46B2281D47B25E
:10295000002E07DB072E05DA39EE480A04EB860065
:1029600080ED000A002F07DB072F05DA38EE680A32
:1029700004EB870080ED000AB0EE080AB4EE408A4E
:10298000F1EE10FA07D1B7EE000A84ED060A9FEDCA
:102990000B0A84ED050AB8EE080AB4EE408AF1EE9F
:1029A00010FA07D1B7EE000A84ED000A9FED030A82
:1029B00084ED010ABDEC048BBDE8F081000000004D
:1029C000F0B52DED088B8FB00446B0EE408AF0EEE6
:1029D000608A0D4616461F4694ED000A20EE080A4E
:1029E000B0EE409A94ED010A20EE280AF0EE409AEB
:1029F00008A8B0EE490AFFF779FF01A8B0EE690A0E
:102A0000FFF774FF01A908A86269FFF73BFEB0EE6B
:102A100040AA01A908A8A269FFF734FEF0EE40AA77
:102A200001A908A8E269FFF72DFEB0EE40BA94EDC7
:102A3000020A20EE0A0A85ED000A94ED030A20EE50
:102A40002A0A86ED000A94ED040A20EE0B0A87EDAF
:102A5000000A0FB0BDEC088BF0BD000070B52DED85
:102A6000048B84B006460C461546B0EE408A9FEDB6
:102A7000320A8DED030A9FED300A8DED020A9FEDBB
:102A80002E0A8DED010A94ED000A30EE480AF0EEB0
:102A9000408A94ED040A38EEC00AB0EE409A01ABC9
:102AA00002AA03A9F0EE490AB0EE680A3046FFF721
:102AB00087FF95ED000ADDED030A30EE200A84ED74
:102AC000060A95ED010ADDED020A30EE200A84EDDA
:102AD000070A95ED020ADDED010A30EE200A84EDC9
:102AE000080A94ED060AB5EEC00AF1EE10FA03D218
:102AF0009FED110A84ED060A94ED070AB5EEC00AAF
:102B0000F1EE10FA03D29FED0C0A84ED070A94ED62
:102B1000080AB5EEC00AF1EE10FA03D29FED060ADC
:102B200084ED080AB0EE480A204600F095F904B09A
:102B3000BDEC048B70BD00000000000080ED000AB9
:102B4000C0ED010A80ED021AC0ED031A80ED042ADF
:102B500003494161034981610349C1617047000034
:102B6000FC300008C0310008843200082DED028BD3
:102B7000FDF71CFE0723022208214FF4A87000F085
:102B800021FAA820FFF7E8FD4FF4E13000F07AFACF
:102B9000FFF780FE41F26701012000F0ADF841F23D
:102BA0006701002000F026F9002000F083F80020E3
:102BB00000F0FEF8FFF7D6FDFFF720FE1D491E4886
:102BC00000F0A3F91B491D4800F09FF99FED1C0A76
:102BD000194800F0F4F99FED1A0A184800F0EFF9CF
:102BE0009FED180AB0EE408A9FED170AF0EE408A7A
:102BF0009FED162ADFED161A9FED161AF0EE680A01
:102C0000B0EE480A1448FFF799FF9FED102ADFED58
:102C1000101A9FED101AF0EE680AB0EE480A0F483D
:102C2000FFF78CFF312142F2CF00FFF7FFFC00BF1E
:102C3000FEE70000C83000082400002058000020F3
:102C40000000E143A69BC43B8FC2753CCDCC4C3DFC
:102C50006F12033B9A99193F8C000020AC000020B2
:102C600010490968496A88B20F490988411A09B2AE
:102C70000D4A518011460880B1F9021000EE101A79
:102C8000B8EEC00ADFED090A80EE201A114681ED88
:102C9000011A91ED010ADFED060A20EE200A81ED0E
:102CA000020A7047A401002034020020022B0740D2
:102CB0000000704210B501460E4B1B68DA6A00290D
:102CC0000BDB88B2904200D990B20A4B1B68586364
:102CD0000023084C2468A3630BE04B4298B2904257
:102CE00000D990B20023034C24686363014B1B6836
:102CF000986310BD1401002030B587B004460D461E
:102D00001C216846FDF72EFB12481349086008464F
:102D1000446000218160C56001618161FEF7F1FCC2
:102D200060200090002001900290049000226946EB
:102D30000948FEF768FC042269460748FEF763FC71
:102D400000210548FEF78EFD04210348FEF78AFDA9
:102D500007B030BD0040014014010020104909684F
:102D6000496A88B20F490988411A09B20D4A51804F
:102D700011460880B1F9021000EE101AB8EEC00A30
:102D8000DFED090A80EE201A114681ED011A91ED5E
:102D9000010ADFED060A20EE200A81ED020A7047E3
:102DA000EC01002040020020022B0740000070428E
:102DB00010B501460E4B1B68DA6A00290BDB88B29E
:102DC000904200D990B20A4B1B6858630023084C0C
:102DD0002468A3630BE04B4298B2904200D990B2B2
:102DE0000023034C24686363014B1B68986310BD88
:102DF0005C01002030B587B004460D461C216846B2
:102E0000FDF7B0FA124813490860084644600021F3
:102E10008160C56001618161FEF773FC60200090F4
:102E20000020019002900490002269460948FEF7B4
:102E3000EAFB042269460748FEF7E5FB0021054846
:102E4000FEF710FD04210348FEF70CFD07B030BD6E
:102E5000001800405C01002010B52DED028B0446E7
:102E6000B0EE408A84ED018A94ED000AD4ED010AA7
:102E700030EE600A84ED030A94ED050AD4ED030AEE
:102E800030EE200A84ED050AD4ED0C1AB0EE611A7A
:102E9000D4ED0B1AF0EE610AD4ED051AB0EE610A1A
:102EA00000F03EF884ED050A94ED060AD4ED030A1D
:102EB00020EE200AD4ED070A94ED051A00EE810AEF
:102EC000D4ED030A94ED041A70EEC10A94ED081AC9
:102ED00001EE200A84ED020AD4ED0A1AB0EE611A5E
:102EE000D4ED091AF0EE610AD4ED021AB0EE610ACF
:102EF00000F016F884ED020A94ED030A84ED040A4A
:102F000094ED020ABDEC028B10BD00B502460B46E3
:102F10001946104600F036F8104600F017F800BDCC
:102F2000F0EE401AF4EEC11AF1EE10FA02DDB0EE46
:102F3000410A7047F4EEE01AF1EE10FA02D2B0EE58
:102F4000600AF6E7B0EE610AF3E700009FED0C0AB5
:102F500080ED000A9FED0A0A80ED010A9FED080A44
:102F600080ED020A9FED060A80ED030A9FED040A38
:102F700080ED040A9FED020A80ED050A704700000B
:102F80000000000091ED000A80ED060A91ED010AB3
:102F900080ED070A91ED020A80ED080A91ED030A1F
:102FA00080ED090A91ED040A80ED0A0A91ED050A07
:102FB00080ED0B0A91ED060A80ED0C0A704780ED5A
:102FC000000A70472DE9F04192B080460C46154644
:102FD0001E460027302106A8FDF7C4F9142101A8D8
:102FE000FDF7C0F900BF002000902448006840F0C1
:102FF0008050224908600846006800F08050009028
:1030000000BF00BF00BF002000901D48006840F4D2
:1030100080401B4908600846006800F4804000902A
:1030200000BF00BF012006900004079002200C9012
:1030300041050D91CDF83C800E941095119606A88F
:10304000FDF79CFD07461FB1012012B0BDE8F081DD
:103050000F20019002200290002003904FF4A05016
:1030600004904FF480500590052101A8FDF746FC1F
:1030700007460FB10120E8E70020E6E740380240AC
:103080000070004010B5044609480A490860084627
:10309000446000218160C160016181610C21416156
:1030A000FEF7DEFD012204490248FEF779FE10BD5D
:1030B0000010014014030020160000204FF0407063
:1030C000E1EE100A70470000000080400AD7A33CE0
:1030D0000AD7233D00C05AC500C05A4500007AC433
:1030E00000007A4400000000000000000102030418
:1030F0000607080900000000010203040000404028
:10310000000040400000004000000040000000407F
:1031100000000000000000000000404000004040AF
:10312000000000400000803F0000803F00000000E1
:10313000000080BF00000040000000400000004090
:103140000000803F00000000000080BF000080BF42
:1031500000000040000000400000803F0000000030
:10316000000080BF000000C0000000C00000803FE1
:103170000000803F00000000000080BF000080BF12
:10318000000000C0000000C00000803F0000000000
:10319000000080BF000000C0000000C0000000C0B0
:1031A000000040C00000000000000000000000C05F
:1031B000000000C0000000C0000040C0000040C08F
:1031C000000040C0000040C0000000C0000000C07F
:1031D000000080BF0000000000000000000040C0B0
:1031E000000040C0000000C0000080BF000080BFA1
:1031F0000000000000000000000040C0000000C00F
:10320000000080BF000080BF000000000000803F81
:103210000000803F000000C0000000C0000080BF30
:10322000000000000000803F00000040000000405F
:10323000000000C0000080BF000000000000803FD0
:103240000000803F000040400000404000000000BF
:10325000000000000000803F0000803F00000040B0
:10326000000040400000404000000000000000005E
:103270000000803F0000004000000040000040408F
:10328000000040400000404000004040000000407E
:103290000000803F00000000000080BF000000C070
:1032A0000000404000004040000000400000803F1F
:1032B00000000000000080BF000000C000000040CF
:1032C000000000400000803F00000000000080BFC0
:1032D000000000C0000000C00000803F0000803FF0
:1032E00000000000000080BF000080BF000000C0A0
:1032F000000000C00000000000000000000080BFCF
:10330000000000C0000000C0000040C0000040C03D
:10331000000080BF000080BF000000C0000040C06F
:10332000000040C0000040C0000040C0000000C0DD
:10333000000000C0000040C0000040C0000040C0CD
:10334000000040C0000040C06833000800000020BA
:1033500024000000C40100088C3300082400002071
:1033600094070000E00100080024F40000000000C1
:10337000000000000000000000000000000000004D
:0C33800000000000100000000100000030
:040000050800018965
:00000001FF
