:020000040800F2
:100000006807002049020008A5340008C73100082D
:10001000A1340008CD170008453C0008000000008E
:100020000000000000000000000000003137000860
:10003000D117000800000000A7340008333700087B
:100040006D0200086D0200086D0200086D020008D4
:100050006D0200086D0200086D0200086D020008C4
:100060006D0200086D0200086D0200086D020008B4
:100070006D0200086D0200086D0200086D020008A4
:100080006D0200086D0200086D0200086D02000894
:100090006D0200086D0200086D0200086D02000884
:1000A0006D0200086D0200086D0200086D02000874
:1000B0006D0200086D0200086D0200086D02000864
:1000C0006D0200086D0200086D0200086D02000854
:1000D0006D020008353C00086D0200086D02000842
:1000E0006D0200086D0200086D0200086D02000834
:1000F0006D0200086D0200086D0200086D02000824
:100100006D0200086D0200086D0200086D02000813
:100110006D0200086D020008513700086D020008EA
:100120006D0200086D0200086D0200086D020008F3
:100130006D0200086D0200086D0200086D020008E3
:100140006D0200086D0200086D0200086D020008D3
:100150006D0200086D0200086D0200086D020008C3
:100160006D0200086D0200086D0200086D020008B3
:100170006D0200086D0200086D020008000000001A
:100180006D0200086D02000800F002F800F04DF862
:100190000AA090E8000C82448344AAF10107DA45E2
:1001A00001D100F042F8AFF2090EBAE80F0013F0E7
:1001B000010F18BFFB1A43F001031847585A0000FB
:1001C000785A0000103A24BF78C878C1FAD852078C
:1001D00024BF30C830C144BF04680C6070470000C1
:1001E0000023002400250026103A28BF78C1FBD840
:1001F000520728BF30C148BF0B607047662905F021
:100200003884002070471FB505F029FC9DE80300E5
:1002100000F010FA00F074FC04000020002104F04B
:1002200099FEE0601FBD10B510BD00F0A6FD11469F
:10023000FFF7E9FF04F0FEFA00F0C4FD03B4FFF796
:10024000F2FF03BC04F01FFA0C48016841F470018E
:1002500001600B4880470B480047FEE7FEE7FEE7DA
:10026000FEE7FEE7FEE7FEE7FEE7FEE7FEE700004B
:1002700005480649044A064B7047000088ED00E037
:100280003D37000889010008680300206807002046
:1002900068030020704770B5064600F0AFF90568A6
:1002A00006F10B0020F00704B4429CBF002070BD93
:1002B0002B466A68BAB11068A04210D304F1080155
:1002C00088423CBF5068586007D35168101941609C
:1002D0001168091B016058601460101D70BD134641
:1002E0005268002AE7D12146284600F08FF90028FD
:1002F000DED170BD70B50446051F00F07FF90068BF
:10030000002C14BF446870BD002C18BFAC423CBF29
:1003100020466468F8D301680A18AA4218BF4560ED
:1003200003D12A6805461144016028684119A14299
:100330001CBF6C6070BD61686960216808442860FA
:1003400070BD53EA020C00F069802DE9F04B4FF0CC
:100350000006002B1FBFB3FA83F503FA05F424FA55
:1003600005F65E4012BF1643B2FA82F502FA05F4B2
:10037000C5F120051EBF22FA05FC44EA0C04203515
:1003800056EA044C4FEA144418BF641C4FF00008AE
:100390004FF00009904271EB030C39D3002919BFCB
:1003A000B1FA81F701FA07F6B0FA80F700FA07F61A
:1003B000C7F120071EBF20FA07FC46EA0C062037CB
:1003C000B6FBF4FCA7EB0507103F07F01F0BCBF1C2
:1003D00020060CFA0BFB2CFA06F644BFB3460026A7
:1003E000202FA4BF5E464FF0000B5BEA060C08BF4F
:1003F0004FF0010B19EB0B09ABFB027C48EB060835
:10040000C01B06FB02CC0BFB03CC71EB0C01C1E75C
:100410000B46024641464846BDE8F08B13B54FF007
:1004200000004FF00001AFF30080BDE81C407047B2
:100430000FB4044910B503AA029800F04BFB10BC9E
:100440005DF814FB8C00002070B5044685690068D7
:10045000C10601D5302600E02026C00707D070BDB8
:10046000D4E9012130469047206A401C20626D1E6D
:10047000F6D570BD70B5044685690078C00707D110
:1004800070BDD4E9012120209047206A401C2062E1
:100490006D1EF6D570BD2DE9F0474FF0000A894674
:1004A0000446C0F820A02046E1688847002876D09E
:1004B000252806D0D4E901219047206A401C2062FB
:1004C000F1E7E168204600258847C4F81CA00646ED
:1004D0000027C4F818A02A2E09D0304604F0CCF822
:1004E00038B304EB8708303EC8F8186019E059F8B3
:1004F000041B204604EB87029161E1688847012FC5
:10050000064618D1E069002820DA25F020051DE014
:10051000D8F8180000EB800006EB40003038C8F82F
:1005200018002046E1688847064604F0A5F8002830
:10053000EED1012F0AD02E2E08D12046E16888473F
:100540007F1C0646022F45F02005C4DBA069002869
:1005500003DA404245F00105A061E80701D025F02B
:100560001005B6B1A6F14100192802D8203645F48D
:1005700000654A463146204625604D46FFF73EFE5F
:1005800058B1012806D0ED1D25F0070000F108093B
:1005900089E704E005F1040985E730468AE7206A27
:1005A000BDE8F0874FF0000200B51346944696462A
:1005B000203922BFA0E80C50A0E80C50B1F1200176
:1005C000BFF4F7AF090728BFA0E80C5048BF0CC024
:1005D0005DF804EB890028BF40F8042B08BF704782
:1005E00048BF20F8022B11F0804F18BF00F8012BF4
:1005F0007047704770477047704700000048704769
:100600000C030020704770477047704738B50446A8
:100610000A4600206946AFF30080002808BF38BDB5
:1006200002460099204600F073FA012038BD0120EF
:1006300000F09CBBF8B5AFF30080054600200C46E7
:10064000102000BF0646A819A0420DD932466946BF
:100650000020AFF30080070008BF00F087FB009880
:10066000A04218BF0546C419FFF7C8FF056007463A
:10067000F01D20F007004619284600F00AF8B442A1
:1006800008BFF8BDA21B31463868BDE8F84000F04D
:100690003FBA00210160C0E9011070471020704787
:1006A00010B500F031FA006810BD10B5044600F036
:1006B0002BFA046010BD70472DE9FF4F0C461E4613
:1006C0004FF0FF378BB0D2E90001DDF860800A906F
:1006D0008A46C1F30A5505B93D46002108464FF048
:1006E0000000BAF1000F00F4400005DA00EB8000D2
:1006F0004FF4400101EA50004FEA9059B9F1010F5F
:1007000000DDB9460A9850EA4A000ED044F610506F
:10071000A5F2FF3545432F14B8F1000F1ED07542E6
:10072000291E1EDDC9F100021CE0B8F1010F4FF0D7
:10073000000001D0302103E0F24305E02154401CC9
:10074000B042FBDB30460022002121540B99C1F856
:100750000880C1E900200FB0BDE8F08FBD1B6D1C03
:10076000DEE74A4600DA694206A800F089FA06ABDD
:1007700093E8070003AB83E8070050460A9900F0AE
:10078000B0FB8DE80700A0F500501F3800900398DB
:10079000002D0ADD42F21F014A460844002303A946
:1007A0000390684600F019FE09E0A0F500504A46A3
:1007B0001F38002303A90390684600F023FE8DE84C
:1007C00007000004000C03D04FF0FF30410800E0A8
:1007D0001046B8F1000F03D00022009215461EE02B
:1007E000751E05D400F0AEF9303262556D1EF9D594
:1007F000B3460122084302D000227F1C04E0207887
:10080000302801D100227F1E002A099784D01DE0E4
:10081000112D07DA00F096F9303262556D1C50EA5E
:100820000102F5D1084302D00098C8B10EE00021C2
:10083000681E05E0235C625C63542254401E491C20
:100840008142F7DBAB46A81B401E0990002004F84C
:100850000B000B98099AC0F80880C0E9002B7AE7D2
:1008600011264FF0000857E72DE9F04F884604465F
:10087000D21D22F0070191B0D1E90001CDE90A01B2
:1008800003F0E2F902460B98C00F01D02D2007E0DB
:100890002068810701D52B2002E0202101EAC00059
:1008A000032A099001D0072A05DB0346414620466A
:1008B00000F0A6F90BE12078800601D5E06900E0A0
:1008C0000620B8F1650F814606D0B8F1660F18D042
:1008D000B8F1670F70D131E00020B9F1110F00902D
:1008E00001DB112301E009F101030AAA01A90CA807
:1008F000FFF7E2FEDDE90C70002609F101058346F1
:1009000047E001204B4600904FF000470AAA01A99A
:100910000CA8FFF7D1FEDDE90DB00C995D4600266D
:1009200010B909F101000D18B9EB050003D4C0F1AD
:10093000FF3609F10105A5EB09002BE0B9F1010F24
:1009400001DA4FF001090020B9F1110F009048467B
:1009500001DD112300E003460AAA01A90CA8FFF754
:10096000ABFEDDE90C704D4600268346207800077B
:100970000AD4AB4500DA5D4601A8012D04DD41191A
:1009800011F8011C302907D04F4502DA17F1040F86
:1009900004DA012082460FE06D1EEEE7002F02DC34
:1009A000ED1B3E4403E0781CA84200DD7D1CB81B13
:1009B00000F1010A4FF000472078000703D4AA4550
:1009C00001DB4FF0FF3A0021B7F1004F0DF1430872
:1009D0008DF8431024D002202B23002F01DA7F4210
:1009E0002D230A21021EA0F1010000DC5FB197FB5C
:1009F000F1FC97FBF1F201FB1C7C17460CF1300C6B
:100A000008F801CDEEE7A8F101000370218809057F
:100A100001D5452100E06521A0F1010800F8011C85
:100A200009980FA9A1EB0807FF1D00B1012041198A
:100A300001EBEA70A1693844081A401EA0612078D1
:100A4000C00602D42046FFF7FFFC099828B1D4E97C
:100A500001219047206A401C20622078C00622D5E0
:100A60002046FFF7F1FC1EE0002E04DBB34502DD5B
:100A700001A8805D00E03020D4E901219047206A80
:100A8000401C2062761CAAF101005FEA000A0AD12C
:100A900000F036F8C0680168405CD4E90121904755
:100AA000206A401C2062281EA5F10105DCDC07E05D
:100AB000D4E9012118F8010B9047206A401C2062FC
:100AC000381EA7F10107F3DC2046FFF7D3FC032013
:100AD00011B041E6074B70B50D467B4400F07DF840
:100AE0000446284600F03EF910B14FF0FF3070BDCB
:100AF000204670BD733C000000487047040300208E
:100B00000048704724030020004870470403002079
:100B1000034640688C46002818BF88423CBF034605
:100B20004068F8D318681844884207D00CF10300D5
:100B300020F00700001D411A521A0146081D0A60E4
:100B4000FFF7D8BB30B5B0F10A024FEA900E71F151
:100B500000034EEA817EB0EB0E0061EB91014FEA9B
:100B6000101E4EEA017E10EB0E0041EB11114FEA10
:100B7000102E4EEA016E10EB0E0041EB11214FEAF0
:100B8000104E4EEA014E10EB0E0041EB11414018A1
:100B900041F100014FEAD00040EA41704FEAD10133
:100BA00010EB80054FEA810444EA907444EB0104A1
:100BB0006D1944EB0404521BA3414FF0000348BFDE
:100BC0000A3200D530BD401C41F1000130BD0000AB
:100BD00001694A1C02610878704700B58FB0CDE901
:100BE00001310021059105497944CDE903101146F1
:100BF0006846FFF750FC0FB000BD0000E5FFFFFFA7
:100C00002DE9F0411F46044603260168072A01F436
:100C1000006004DB08B116A505E016A503E008B1E5
:100C200015A500E015A521F010002060A069C01EE8
:100C3000A0610FB1401EA0612046FFF705FC4FB137
:100C4000D4E9012138469047206A401C2062C01C2C
:100C5000206206E0206AFAE7D4E9012115F8010BC9
:100C60009047761EF8D22046FFF704FCBDE8F081DD
:100C70004E414E006E616E00494E4600696E660040
:100C80002DE9F047814616468AB0354878440DC8AC
:100C90008DE80D0032487844801C03AC0DC884E810
:100CA0000D0041F69B300844372190FBF1F290FB98
:100CB000F1F5A5F1800501FB12041B3C02D564424D
:100CC000012000E00020DFF898A080460027FA44C9
:100CD000AAF1BE0A0EE0E0070AD03246684607EBEA
:100CE000470101230AEB810100F08CFB8DE807002E
:100CF00064107F1C002CEED1194F7F44AE3F19E0E9
:100D0000E80715D007EB04100DF1180A90E80E0063
:100D10008AE80E00C068F04201D198190890324666
:100D2000012306A903A800F06DFB03AB83E80700CD
:100D30006D10641C002DE3D14FF00103324669466B
:100D4000B8F1000F03A802D000F047FB01E000F06B
:100D500059FBC9E90001C9F808200AB0BDE8F087CD
:100D60006C4F0000007B00F08000704710B500F071
:100D700037F8BDE8104000F02EB87546FFF7BCFE0E
:100D8000AE4605006946534620F00700854618B078
:100D900020B5FFF76DFABDE820404FF000064FF098
:100DA00000074FF000084FF0000B21F00701AC46A0
:100DB000ACE8C009ACE8C009ACE8C009ACE8C009BF
:100DC0008D46704710B50446AFF300802046BDE85D
:100DD0001040FFF733BA002801D003F054BC70472D
:100DE00010B5012805D0002103A000F061F8012012
:100DF00010BD09A1F8E7000053494752544D454D35
:100E00003A204F7574206F662068656170206D65AB
:100E10006D6F7279000000003A2048656170206DA6
:100E2000656D6F727920636F72727570746564009E
:100E30004FF0013C50F8042B51F8043B9A4221D169
:100E4000A2EB0C03934313EACC1317D150F8042BF5
:100E500051F8043B9A4215D1A2EB0C03934313EAD9
:100E6000CC130BD150F8042B51F8043B9A4209D112
:100E7000A2EB0C03934313EACC13DBD04FF000003A
:100E8000704700BFD01A01BAB1FA81F101F0180120
:100E900022FA01F0CB40C1F12001DBB2C0B2C01A8E
:100EA0002CFA01F3D11A914311EAC311E6D170472C
:100EB00070B505460C460A2000E06D1C03F0E5FB0A
:100EC00035B128780028F8D102E0641C03F0DDFB7E
:100ED00014B120780028F8D1BDE870400A2003F052
:100EE000D4BB5FEA400C08BF91F0000F4FEA8C239F
:100EF0004FEAC12243EA51514FEA1C5018BF00F596
:100F0000F0404FEA300018BF41F000415FEA6C5CEE
:100F100000F02980BCF1FF3F08BF40F080407047DF
:100F2000130C06BF12044FF0100C4FF0000C130E00
:100F300004BF12020CF1080C130F04BF12010CF1D4
:100F4000040C930F04BF92000CF1020CD30F04BFEA
:100F500052000CF1010C11464FF00002A0F11F00ED
:100F6000A0EB0C00704711F0004F08BF704731F044
:100F700000413FF4D5AF0B0C06BF09044FF0100C35
:100F80004FF0000C0B0E04BF09020CF1080C0B0F04
:100F900004BF09010CF1040C8B0F04BF89000CF194
:100FA000020CCB0F04BF49000CF1010CCCF1200363
:100FB000A0EB0C0022FA03F302FA0CF241EA03015F
:100FC00000F10100704720F07F4C80EA030023F01D
:100FD0007F47ACEB070303F57C5300F0004003F1BF
:100FE000FF032DE980494FEA154B09B44FEA14433A
:100FF00025EA0B4E24EA03480FF2042606EB1327DA
:1010000049083E785FEA320203FB0667C7F500072E
:1010100007FB06F64FEA54374FEAD64606F10206BA
:1010200007FB066CCCF1005C4FEA1C472CEA074C2E
:1010300007FB06F40CFB06F504EB15464FEA961683
:1010400034BF00204FF000404FEAD13706FB07FCC9
:101050004FEA1C4C0CFB0BF7D21B03FB0CF761EBAC
:1010600007010CFB0EF7B0EB074072EB17420CFBCD
:1010700008F734BFA2EB0742B2EB074261EB17411E
:101080004FEA0C444FEA910706FB07FC4FEA1C4C61
:101090000CFB0BF7B0EBC74072EB573203FB0CF7BE
:1010A00034BFA2EBC742B2EBC74261EB57310CFB36
:1010B0000EF7B0EBC70072EB57720CFB08F734BFAA
:1010C000A2EBC702B2EBC70261EB5771039F4FEA75
:1010D000816141EA921104EBCC044FEAD1374FEA27
:1010E000826206FB07FC42EA90124FEA80604FEAF8
:1010F0001C4C0CFB0BF7D21B03FB0CF761EB07013D
:101100000CFB0EF7B0EB074072EB17420CFB08F735
:1011100034BFA2EB0742B2EB074261EB17414FEA43
:101120008C554FEA910704EB9C2406FB07FC4FEA21
:101130001C4C0CFB0BF7B0EBC74072EB573203FBB8
:101140000CF734BFA2EBC742B2EBC74261EB573199
:101150000CFB0EF7B0EBC70072EB57720CFB08F7F5
:1011600034BFA2EBC702B2EBC70261EB577115EBBC
:101170004C254FEA816141EA92114FEA82624FEABF
:10118000D13742EA901206FB07FC44F100044FEA13
:1011900080604FEA1C4C0CFB0BF7D21B03FB0CF7D7
:1011A00061EB07010CFB0EF7B0EB074072EB174247
:1011B0000CFB08F734BFA2EB0742B2EB074261EB2E
:1011C000174115EB1C154FEA813141EA92414FEA74
:1011D000823242EA90424FEA80304FEA0C7644F184
:1011E000000448EA03434EEA0B484FF0000EB2EB0E
:1011F000080C71EB030724BF624639464EEB0E0E16
:101200004FF0000B0018524149414BEB0B0BB2EB76
:10121000080C71EB03077BF1000B24BF62463946D3
:101220004EEB0E0E4FF0000B0018524149414BEBB4
:101230000B0BB2EB080C71EB03077BF1000B24BF27
:10124000624639464EEB0E0E51EA020718BF46F0D1
:10125000010616EB0E7655F1000254F1000103D59C
:10126000BDE88901BDE80088BDE88901BDE8004806
:10127000B619524141EB0101A3F10103704780808F
:101280007F7E7D7C7B7A79787776767574737271E0
:1012900071706F6E6E6D6C6C6B6A6A696868676698
:1012A00066656464636362616160605F5F5E5E5D2A
:1012B0005D5C5C5B5B5A5A5959585857575656559E
:1012C00055555454535352525251515050504F4F00
:1012D0004F4E4E4D4D4D4C4C4C4B4B4B4A4A4A4950
:1012E0004949484848474747474646464545454493
:1012F0004444444343434342424242414141002B20
:101300009C4630D477002BD01CB54FEA370703B486
:101310004FF010004FF01001BAF1000F06D0BCF1F1
:10132000000FDCBF40F0080040F008014FF0000063
:101330000FBCBDE810400BF1010BBBF1010F08BF62
:101340005FEA170722BF12F1010211F101014FF00C
:10135000004143F1000300F0004043EA0000704701
:10136000F9D35708D0E746EA064613F1400F4FEA93
:1013700016461FDD13F1200FDFBF16430A4600217A
:1013800020335B42BED0C3F1200746EA064602FA8C
:1013900007F74FEA164646EA0706C3F1200722FA86
:1013A00003F201FA07F721FA03F14FF0000342EAD2
:1013B0000702A7E746EA020646EA06464FEA16464D
:1013C00046EA0106BCBF46EA0646360C4FF000036B
:1013D0004FF000024FF0000194E72DE9804C9A464F
:1013E000934670B491E8380007C831EA400C48BF12
:1013F00034EA430C03D5FFF7E6FDFFF780FFF0BCAE
:10140000BDE8008C2DE9804C9A46934670B491E873
:10141000380007C810F0804F08BF13F0804F03D189
:1014200000F005F8FFF76BFFF0BCBDE8008C20F082
:101430007F4780EA030023F07F4C07EB0C03A3F502
:101440007C5300F00040A3F1FE0392F0000F00F087
:10145000B38095F0000F00F077802DE901494FEA45
:1014600011404FEA144621EA004800FB06FC24EA3A
:10147000064708FB06F607FB08F800FB07F718EB22
:1014800006484CEB164C4FEA124B18EB07484FEA54
:1014900015464CEB174022EA0B4E0BFB06FC25EAE7
:1014A00006470EFB06F607FB0EFE0BFB07F71EEBCF
:1014B000064E4CEB164C4FF000061EEB074E4CEB65
:1014C000174B18EB0B0840F1000018EB0E0B58EB14
:1014D000000840F100008F1A4FF000013CBFC943E3
:1014E000661B14BFB5EB040C00213CBFC943F61BBF
:1014F0004FEA17444EEA8E0E27EA04454FEA1C478E
:1015000004FB07622CEA074C05FB07F70CFB05F60A
:1015100004FB0CFC16EB074642EB174216EB0C469D
:1015200042EB1C421BEB060658EB0202414146EA25
:101530009E0601D5BDE80189B619524141EB010172
:10154000A3F10103BDE801894FEA14454FEA1147B1
:1015500024EA054621EA074C05FB07F406FB07F7DA
:101560000CFB06F105FB0CFC11EB074144EB1744A7
:101570004FEA124711EB0C4144EB1C4422EA074CA2
:1015800005FB07F206FB07F70CFB06F605FB0CFC58
:1015900016EB074642EB174216EB0C4642EB1C4596
:1015A0006A1854F1000148BF7047B619524141EB27
:1015B0000101A3F10103704795F0000F37D04FEA06
:1015C00011424FEA144721EA024624EA074C02FB83
:1015D00007F106FB07F70CFB06F402FB0CFC14EB0F
:1015E000074441EB17414FEA154714EB0C4441EB1C
:1015F0001C4125EA074C02FB07F506FB07F70CFB2D
:1016000006F602FB0CFC16EB074645EB174516EBFE
:101610000C4645EB1C42121951F1000148BF7047BE
:10162000B619524141EB0101A3F1010370474FEAA2
:1016300014454FEA114724EA054621EA074C05FB09
:1016400007F106FB07F70CFB06F24FF0000605FB5F
:101650000CFC12EB074241EB174112EB0C4251EB31
:101660001C4148BF7047921841EB0101A3F10103EF
:10167000704700004A48007800287DD0494800782B
:1016800080B9002048490860484908604849086016
:1016900048490860484908604849086001204149B4
:1016A000087036E03F480078401C3E4908704448C6
:1016B000B0F900003C49096808443B4908604148CA
:1016C000B0F90000394909680844384908603C48C5
:1016D000B0F90200364909680844354908603948BC
:1016E000B0F90200334909680844324908603448B7
:1016F000B0F90400A0F500602F49096808442E499C
:1017000008603048B0F904002C49096808442B49A6
:10171000086024480078FB2840D122480078401E09
:101720002049087020480068097890FBF1F000B269
:10173000254908801D4800681A49097890FBF1F096
:1017400000B22149C8801A4800681649097890FB00
:10175000F1F000B21C494880164800681149097828
:1017600090FBF1F001B218480181134800680D495F
:10177000097890FBF1F000E010E000B21249888097
:101780000E4800680749097890FBF1F001B20E4855
:10179000418100200349087001490870704700002A
:1017A00038000020640000204C0000205800002079
:1017B000500000205C000020540000206000002049
:1017C0000C00002012000020D000002000BFFEE727
:1017D0007047000001200149087070473800002060
:1017E00010B52DED088B0446714890ED000A20EEEF
:1017F000000A7048D0ED000A90ED001A00EEC10A10
:101800006D48D0ED000A90ED001A00EEC10A6B4859
:10181000D0ED000A90ED001A00EE810A10EE101AC9
:10182000084604F0ABF841EC1A0B614890ED000A51
:101830006048D0ED000A20EE200A5F48D0ED000A93
:101840005E4890ED001A00EE810AF0EE000A20EEEC
:10185000200A10EE101A084604F090F841EC1B0B19
:10186000B0EE4A1AF0EE6A1AB0EE4B0AF0EE6B0ACE
:1018700002F03AFDB0EE409AF0EE609A9FED500B08
:1018800053EC102B51EC190B03F0B8FD41EC180B85
:1018900003F082FB2060464890ED000A4648D0EDF8
:1018A000000A20EE200A4348D0ED000A434890ED9C
:1018B000001A00EEC10AF0EE000A20EE200A10EE37
:1018C000101A084604F05AF841EC1A0BB0EE4A0A16
:1018D000F0EE6A0A02F0ECF9B0EE409AF0EE609A8F
:1018E0009FED370B53EC102B51EC190B03F086FDD9
:1018F00041EC180B03F050FB60602D4890ED000A9E
:1019000020EE000A2B48D0ED000A90ED001A00EE00
:10191000810A2948D0ED000A90ED001A00EEC10AB4
:101920002648D0ED000A90ED001A00EEC10A10EE34
:10193000101A084604F022F841EC1A0B1C4890EDEE
:10194000000A1E48D0ED000A20EE200A1948D0ED0A
:10195000000A194890ED001A00EE810AF0EE000A24
:1019600020EE200A10EE101A084604F007F841ECA9
:101970001B0BB0EE4A1AF0EE6A1AB0EE4B0AF0EE0C
:101980006B0A02F0B1FCB0EE409AF0EE609A9FED67
:101990000C0B53EC102B51EC190B03F02FFD41EC09
:1019A000180B03F0F9FAA060BDEC088B10BD000025
:1019B0006C000020700000207400002078000020DF
:1019C0000000006066A64C4070B50446A56D00F0AE
:1019D0006DF9064694F83500022808D0802060652D
:1019E00000BF002084F8340000BF012070BD2068D3
:1019F000006820F01600216808602068406920F027
:101A0000800021684861206C08B9A06C28B120686A
:101A1000006820F00800216808602068006820F055
:101A20000100216808600FE000F040F9801B0528E4
:101A30000AD92020606500BF002084F8340000BF70
:101A4000032084F83500D1E72068006800F0010029
:101A50000028E9D194F85C103F208840A86000BFBE
:101A6000002084F8340000BF012084F835000020F5
:101A7000BCE7014691F83500022803D08020486574
:101A800001207047052081F835000868006820F0C3
:101A900001000A6810600020F3E70000F8B5024674
:101AA0000B460025002400200021DEE0012606FA76
:101AB00001F51E6806EA0504AC4275D11E7906F0F0
:101AC0000306012E04D01E7906F00306022E13D160
:101AD00090684F000326BE40B0434F00DE68BE4012
:101AE00030439060506801268E40B0431E79C6F3A3
:101AF00000168E40304350601E7906F00306032E18
:101B000009D0D0684F000326BE40B0434F009E6806
:101B1000BE403043D0601E7906F00306022E13D17A
:101B2000CF0802F1200656F827004E07F70E0F26C1
:101B3000BE40B0434F07FF0E1E69BE403043CF0882
:101B400002F1200646F8270010684F000326BE4029
:101B5000B0431E7906F003064F00BE4030431060CC
:101B60005E6806F08056B6F1805F7DD100BF00262A
:101B70000096404E366846F480463E4F3E603E46F4
:101B8000366806F48046009600BF00BF3A4E8F08C4
:101B900056F827008E07370F0F26BE40B043374E4A
:101BA000B24202D1002624E05EE0354EB24201D1BD
:101BB00001261EE0334EB24201D1022619E0324E18
:101BC000B24201D1032614E0304EB24201D10426C4
:101BD0000FE02F4EB24201D105260AE02D4EB2424F
:101BE00001D1062605E02C4EB24201D1072600E0C5
:101BF00008268F073F0FBE4030431F4E8F0846F820
:101C00002700264E3068A0435E6806F48036B6F59D
:101C1000803F00D12043214E3060361D3068A04304
:101C20005E6806F40036B6F5003F00D120431B4E37
:101C3000361D3060361D3068A0435E6806F480169D
:101C4000B6F5801F00D12043144E08363060361D93
:101C50003068A0435E6806F40016B6F5001F00D198
:101C600020430E4E0C363060491C1029FFF41EAF85
:101C7000F8BD00004438024008380140000002402E
:101C80000004024000080240000C02400010024024
:101C90000014024000180240001C0240003C0140B9
:101CA0000AB1816101E00B0483617047014800685B
:101CB0007047000094000020034800680349097839
:101CC0000844014908607047940000209C000020EF
:101CD00010B50D48006840F400700B4908600846D4
:101CE000006840F4806008600846006840F4807036
:101CF0000860032000F080F80F2000F007F800F0E3
:101D00002BF8002010BD0000003C024070B50446D6
:101D10000E4800784FF47A71B1FBF0F00C49096875
:101D2000B1FBF0F5284600F04EFE08B1012070BD71
:101D3000102C07D200222146501E00F01EF8054844
:101D4000046001E00120F2E70020F0E79C000020A1
:101D50003400002098000020704701460846002803
:101D600009DB00F01F0301229A4043099B0003F1A5
:101D7000E023C3F8002100BF70472DE9F05F8046E3
:101D80000D461646002701F077FF074639462A46DA
:101D9000334601F00700C0F1070ABAF1040F02D977
:101DA0004FF0040A01E0C0F1070AD14600F1040A2D
:101DB000BAF1070F02D24FF0000A01E0A0F1030AC6
:101DC000D4464FF0010A0AFA09FAAAF1010A0AEA0E
:101DD000020A0AFA0CFA4FF0010B0BFA0CFBABF1FA
:101DE000010B0BEA030B4AEA0B042146404601F0C3
:101DF0004BFFBDE8F09F000000BF00F00702064B5C
:101E000019684FF6FF031940044B0B4343EA0221C4
:101E1000014B196000BF70470CED00E00000FA05AF
:101E200070B504460D460CB9012070BD58480068D5
:101E300000F00700A84209D255490D700846006815
:101E400000F00700A84201D00120EEE7207800F062
:101E5000020002281DD1207800F00400042805D1DA
:101E60004C48006840F4E0504A490860207800F08F
:101E70000800082805D14748006840F460404549FB
:101E800008604448006820F0F000A1680843414918
:101E90000860207800F00100A8B36068012807D12D
:101EA0003C4808380068C0F34040B8B90120BCE79E
:101EB0006068022802D06068032807D135480838D6
:101EC0000068C0F3406048B90120AEE731480838E7
:101ED0000068C0F3400008B90120A6E72D4800685B
:101EE00020F00300616808432A490860FFF7DEFE1E
:101EF000064609E0FFF7DAFE801B41F2883188428E
:101F000002D9032091E707E02248006800F00C00A6
:101F10006168B0EB810FEDD11D48006800F007004B
:101F2000A84209D91A490D700846006800F0070058
:101F3000A84201D0012078E7207800F004000428AE
:101F400007D11448006820F4E050E16808431149C3
:101F50000860207800F00800082808D10D480068C3
:101F600020F46040216940EAC1000A49086000F09D
:101F70003FF808490968C1F30311074A515CC8409A
:101F80000649086006480068FFF7C0FE00204CE7DD
:101F9000003C024008380240765A00083400002015
:101FA00098000020014800687047000034000020BD
:101FB00000B5FFF7F7FF04490968C1F38221034A1E
:101FC000515CC84000BD000008380240865A000835
:101FD00000B5FFF7E7FF04490968C1F34231034A3E
:101FE000515CC84000BD000008380240865A000815
:101FF0002DE9F047002400250026A1462548006869
:1020000000F00C0020B1042805D008283AD105E0E2
:10201000DFF8849039E0DFF8849036E01D48001F37
:10202000006800F03F041B48001F006800F48000B7
:1020300078B11A481749091F0968C1F38811A0FB34
:1020400001700146224600233846FEF77AF905461C
:102050000EE011480F49091F0968C1F38811A0FB60
:1020600001700146224600233846FEF76AF905460C
:102070000848001F0068C0F30140401C4600B5FB43
:10208000F6F902E0DFF8109000BF00BF4846BDE857
:10209000F0870000083802400024F40000127A00A3
:1020A000F8B504460CB90120F8BD207800F0010015
:1020B000002874D0F948006800F00C0004280DD006
:1020C000F648006800F00C00082813D1F348001F00
:1020D000006800F48000B0F5800F0BD1EF4808389D
:1020E0000068C0F34040002859D06068002856D1ED
:1020F0000120D9E700BF6068B0F5803F08D1E7480C
:102100000838006840F48030E449083908601EE06F
:102110006068B0F5A02F0DD1E0480838006840F4A1
:102120008020DE49083908600846006840F48030A5
:1021300008600CE0D9480838006820F48030D7499E
:10214000083908600846006820F48020086000BF55
:10215000606890B1FFF7AAFD054606E0FFF7A6FD0F
:10216000401B642801D903209EE7CC48083800684A
:10217000C0F340400028F1D011E0FFF797FD05467D
:1021800006E0FFF793FD401B642801D903208BE78D
:10219000C24808380068C0F340400028F1D12078D8
:1021A00000F0020002285FD1BC48006800F00C007B
:1021B00058B1BA48006800F00C0008281CD1B74894
:1021C000001F006800F48000B0B9B4480838006807
:1021D000C0F3400020B1E068012801D0012063E78E
:1021E000AE480838006820F0F800216940EAC100D4
:1021F000AA490839086037E0E06800B30120A8491F
:102200000860FFF753FD054606E0FFF74FFD401B52
:10221000022801D9032047E7A04808380068C0F326
:1022200040000028F1D09D480838006820F0F800F0
:10223000216940EAC10099490839086014E000208A
:1022400097490860FFF732FD054606E0FFF72EFDCF
:10225000401B022801D9032026E79048083800686F
:10226000C0F340000028F1D1207800F008000828D1
:102270002CD16069A8B101208A490860FFF716FDDA
:10228000054606E0FFF712FD401B022801D9032096
:102290000AE782486C300068C0F340000028F1D0A3
:1022A00014E000207F490860FFF700FD054606E0C6
:1022B000FFF7FCFC401B022801D90320F4E6774815
:1022C0006C300068C0F340000028F1D1207800F0A5
:1022D0000400042870D1002770483830006800F0EE
:1022E000805090B900BF002000906C4838300068E2
:1022F00040F080506949383108600846006800F0B5
:102300008050009000BF00BF01276748006800F4BC
:102310008070B0B96448006840F480706249086019
:10232000FFF7C4FC054606E0FFF7C0FC401B02288F
:1023300001D90320B8E65C48006800F480700028EA
:10234000F2D000BFA068012808D154486830006866
:1023500040F001005149683108601DE0A06805287F
:102360000DD14E486830006840F004004B49683198
:1023700008600846006840F0010008600CE047482B
:102380006830006820F00100444968310860084660
:10239000006820F00400086000BFA068A8B1FFF743
:1023A00085FC054609E0FFF781FC401B41F28831BE
:1023B000884202D9032077E626E038486830006872
:1023C000C0F340000028EED013E0FFF76FFC054695
:1023D00008E0FFF76BFC401B41F28831884201D9CD
:1023E000032061E62D4868300068C0F340000028F3
:1023F000EFD1012F07D129483830006820F08050F4
:1024000026493831086000BFA069002845D023481C
:10241000006800F00C0008285DD0A069022845D1B2
:1024200000201F490866FFF741FC054606E0FFF75C
:102430003DFC401B022801D9032035E61748083827
:102440000068C0F340600028F1D1D4E907010843D7
:10245000616A40EA81110122A06AC2EB500041EAA0
:1024600000412C20005D41EA00600C49091F086012
:1024700001200B490866FFF719FC054606E0FFF747
:1024800015FC401B022801D903200DE6034808383B
:102490000068C0F340600028F1D049E008380240ED
:1024A00000004742800E4742007000400020214952
:1024B0000866FFF7FBFB054606E0FFF7F7FB401B4E
:1024C000022801D90320EFE51B480068C0F34060F3
:1024D0000028F2D12CE0A069012800D1E4E51648DB
:1024E000001D0668A069012820D006F48001E0697B
:1024F00081421BD106F03F01206A814216D147F686
:10250000C0703040616AB0EB811F0FD106F44031DA
:102510000122A06AC2EB5000B1EB004F06D106F0D9
:1025200070612C20005DB1EB006F01D00120BBE594
:102530000020B9E5000047420038024010B50446CB
:102540000CB9012010BD606A38B96068B0F5827FAF
:1025500000D105E00021E16102E00021216161611B
:10256000A06AB0F5005F00D100BF94F8510028B90F
:10257000002084F85000204600F050F8022084F833
:1025800051002068006820F0400021680860A088A1
:1025900000F48270218901F404410843A18901F407
:1025A00000610843217C01F002010843217D01F014
:1025B00001010843218B01F400710843217F01F0E0
:1025C000380108432021095D01F080010843218D75
:1025D00001F400510843216808600421A06901EA60
:1025E000104094F8241001F010010843216848605D
:1025F000A06AB0F5005F03D1A08D80B221680861A8
:102600002068C06920F400602168C861002060650E
:10261000012084F85100002094E7000010B586B036
:10262000044630492068884259D100BF00200090FC
:102630002D48006840F480402B4908600846006837
:1026400000F48040009000BF00BF00BF0020009059
:1026500025481038006840F004002349103908600C
:102660000846006800F00400009000BF00BF00BFF3
:10267000002000900846006840F00200086008460C
:10268000006800F00200009000BF00BF042001902D
:1026900002200290052005900120039001A9134813
:1026A000FFF7FCF90820019002200290032004901B
:1026B000012003900520059001A90C48FFF7EEF9D1
:1026C0004FF48060019002200290032004900120CA
:1026D00003900520059001A90548FFF7DFF906B032
:1026E00010BD0000003800404038024000080240A1
:1026F000000402402DE9F04F85B00446884691461B
:102700001D460E9E002004900120029000200190A2
:1027100000BF94F85000012803D1022005B0BDE8A5
:10272000F08F012084F8500000BFFFF7BFFA074682
:1027300094F851B060680390AA46BBF1010F0BD02A
:102740000398B0F5827F04D1A06810B9BBF1040FE3
:1027500002D0022001902CE1B8F1000F03D0B9F1B2
:10276000000F00D015B90120019022E194F851002A
:10277000042802D0052084F8510000206065C4F8C8
:102780003890E587A587C4F83080E586A586206463
:102790006064A06AB0F5005F0DD100BF20680068DA
:1027A00020F40050216808602068006840F4005060
:1027B0002168086000BF2068006800F040004028E1
:1027C00005D02068006840F0400021680860E0689B
:1027D000B0F5006F56D1606810B1BAF1010F09D1A0
:1027E000206B00882168C860206B801C2063E08E0D
:1027F000401EE0863FE02068806800F0020002286A
:102800001CD1E08ED0B10298012817D1206B00882E
:102810002168C860206B801C2063E08E401EE0862B
:1028200000200290E08E48B9A06AB0F5005F05D1A3
:102830002068006840F48050216808602068806843
:1028400000F0010068B1E08F58B12068C068A16B4A
:102850000880A06B801CA063E08F401EE0870120F1
:102860000290FFF723FAC01BB04204D3701C10B1D2
:10287000032001909DE0E08E0028BCD1E08F00286D
:10288000B9D156E0606810B1BAF1010F09D1206BDF
:10289000007821680873206B401C2063E08E401E86
:1028A000E08640E02068806800F0020002281CD129
:1028B000E08ED0B10298012817D1206B00782168F2
:1028C0000873206B401C2063E08E401EE0860020D1
:1028D0000290E08E48B9A06AB0F5005F05D120688B
:1028E000006840F48050216808602068806800F02B
:1028F000010068B1E08F58B12068C068A16B087012
:10290000A06B401CA063E08F401EE0870120029076
:10291000FFF7CCF9C01BB04201D3701C00B916B947
:102920000320019045E0E08E0028BBD1E08F002815
:10293000B8D1A06AB0F5005F12D13346012211462A
:102940002046009700F088FE30B1606D40F0020034
:102950006065032001902CE02068C068049000BFEF
:102960002068806800F01000102809D1606D40F0E8
:10297000020060654FF6EF702168886001200190C9
:102980003A463146204600F031FE20B10120019048
:10299000202060650DE0A06850B900BF00200090C5
:1029A0002068C068009020688068009000BF00BF69
:1029B00000BF012084F8510000BF002084F85000BF
:1029C00000BF0198AAE670B504462546681EB0F11E
:1029D000807F01D301200FE0681E4FF0E0214861A5
:1029E0000F214FF0FF3001F04FF900204FF0E021B0
:1029F000886107200861002070BD7047704710B5DE
:102A000004460CB9012010BD94F83D0028B90020FF
:102A100084F83C00204600F025F8022084F83D00B0
:102A2000211D206800F09CFE012084F8460000BFB4
:102A300084F83E0001213F200155402001554120EE
:102A4000015500BF00BF012084F84200432001551A
:102A5000442001554520015500BF012084F83D0068
:102A60000020D0E738B504460E492068884217D1C7
:102A700000BF002000900C48006840F010000A4998
:102A800008600846006800F01000009000BF00BF1A
:102A9000002202213620FFF770F93620FFF75DF99A
:102AA00038BD00000010004040380240014691F857
:102AB0003D00012801D001207047022081F83D002F
:102AC0000868C06840F001000B68D8601A4B0868BD
:102AD00098421BD00868B0F1804F17D0174B086898
:102AE000984213D0164B086898420FD0154B0868CF
:102AF00098420BD0144B0868984207D0134B0868D3
:102B0000984203D0124B086898420CD1086880683C
:102B100000F00702062A0CD00868006840F00100A7
:102B20000B68186005E00868006840F001000B6859
:102B300018600020C0E700000000014000040040D1
:102B400000080040000C004000040140004001402B
:102B500000180040704710B5044620680069C0F3B3
:102B60004000D8B12068C068C0F34000B0B16FF039
:102B7000020021680861012020772068806900F048
:102B8000030018B12046FFF7E5FF05E0204600F0FE
:102B9000ADF8204600F0ABF80020207720680069EF
:102BA000C0F38000D8B12068C068C0F38000B0B125
:102BB0006FF0040021680861022020772068806996
:102BC00000F4407018B12046FFF7C4FF05E020462E
:102BD00000F08CF8204600F08AF80020207720686A
:102BE0000069C0F3C000D8B12068C068C0F3C0005D
:102BF000B0B16FF0080021680861042020772068D8
:102C0000C06900F0030018B12046FFF7A3FF05E0FC
:102C1000204600F06BF8204600F069F8002020778D
:102C200020680069C0F30010D8B12068C068C0F304
:102C30000010B0B16FF01000216808610820207703
:102C40002068C06900F4407018B12046FFF782FF89
:102C500005E0204600F04AF8204600F048F8002041
:102C600020772068006900F0010058B12068C06832
:102C700000F0010030B16FF00100216808612046CA
:102C800000F036F820680069C0F3C01058B1206821
:102C9000C068C0F3C01030B16FF0800021680861D7
:102CA0002046FFF7AAFE20680069C0F3801058B1E3
:102CB0002068C068C0F3801030B16FF04000216818
:102CC0000861204600F042F820680069C0F3401017
:102CD00058B12068C068C0F3401030B16FF02000D8
:102CE000216808612046FFF789FE10BD70477047D4
:102CF000114A016891421DD110490988491C0F4AA7
:102D0000118001210E4A11700C4A118801EBD17219
:102D10005210A1EB420212B901210A4A117007496F
:102D20000988642291FBF2F302FB131111B901210E
:102D3000054A117070470000001000406600002036
:102D400068000020690000206A000020704770477A
:102D5000704700002DE9F84F044620680568206898
:102D6000C668206847694FF00009CA4605F00F0998
:102D7000B9F1000F0AD105F0200038B106F02000AB
:102D800020B1204600F08DFDBDE8F88FB9F1000FAD
:102D900072D007F0010018B906F4907000286BD0CB
:102DA00005F0010030B106F4807018B1206C40F0DD
:102DB0000100206405F0040030B107F0010018B1F3
:102DC000206C40F00200206405F0020030B107F0F2
:102DD000010018B1206C40F00400206405F00800E8
:102DE00048B106F0200010B907F0010018B1206CBE
:102DF00040F008002064206C70B305F0200028B17A
:102E000006F0200010B1204600F04BFD206840691C
:102E1000C0F3801A206C00F0080010B9BAF1000F5E
:102E200023D0204600F012FD2068406900F04000E9
:102E3000402816D12068406920F040002168486190
:102E4000A06B50B15648A16B0865A06BFEF711FE50
:102E500010B1A06B016D88470CE02046FFF778FFAA
:102E600008E02046FFF774FF04E02046FFF770FFFC
:102E70000020206488E7FFE7206B012879D105F066
:102E80001000002875D006F01000002871D000BF97
:102E90000020009020680068009020684068009042
:102EA00000BF00BF2068406900F04000402839D1D1
:102EB000A06B006840681FFA80F8B8F1000F30D0AE
:102EC000A08D40452DDDA4F82E80A06BC069B0F523
:102ED000807F1FD02068C06820F480702168C8609F
:102EE0002068406920F0010021684861206840693D
:102EF00020F0400021684861202084F83E00002036
:102F000020632068C06820F010002168C860A06BB2
:102F1000FEF75AFDA08DE28D801A81B22046FFF7A0
:102F200016FF31E7A08DE18D401A1FFA80F8E08D81
:102F3000E8B1B8F1000F1AD02068C06820F4907092
:102F40002168C8602068406920F00100216848615C
:102F5000202084F83E00002020632068C06820F014
:102F600010002168C86041462046FFF7F0FE0BE7DD
:102F7000FFE705F0800030B106F0800018B1204670
:102F800000F027FE00E705F0400030B106F04000F9
:102F900018B1204600F075FCF6E600BFF4E600002C
:102FA0003938000810B504460CB9012010BDA069DD
:102FB00000B100E000BF94F83D0028B9002084F87B
:102FC0003C00204600F028F8242084F83D002068CA
:102FD000C06820F400502168C860204600F0C0FCA2
:102FE0002068006920F490402168086120684069E9
:102FF00020F02A00216848612068C06840F4005031
:103000002168C86000202064202084F83D0084F8F6
:103010003E000020CAE7000010B586B004462E49E5
:103020002068884255D100BF00BF002000902B4887
:10303000006840F01000294908600846006800F068
:103040001000009000BF00BF00BF00BF00BF002005
:10305000009022481438006840F001001F491439DC
:1030600008600846006800F00100009000BF00BF43
:1030700000BF00BF00BF002000900846006840F07D
:10308000010008600846006800F00100009000BFE1
:1030900000BF00BF4815019002200290012003905C
:1030A000022004900720059001A90D48FEF7F6FCC8
:1030B0004FF4806001900720059001A90848FEF7B1
:1030C000EDFC2520FEF749FE032211462520FEF7E0
:1030D00054FE06B010BD000000100140443802400C
:1030E0000000024070B504460D46164694F83E00B6
:1030F000202816D105B10EB9012070BD00BF94F88B
:103100003C00012801D10220F7E7012084F83C00AF
:1031100000BF0020206332462946204600F036FDDD
:10312000EBE70220E9E7000010B5044620492068DB
:1031300088423BD11F48008800F4004088BB1D48EE
:10314000008800F4804070B11B4800780A2803D042
:1031500000201849088024E01648008840F4004008
:10316000144908801DE0144800780D2806D1114844
:10317000008840F480400F49088012E00E48007833
:103180000C490988C1F30D010C4A505409480088C4
:10319000401C0849088008460088C72801DD002037
:1031A0000880012204490648FFF79CFF10BD00007B
:1031B000001001409000002092000020F801002043
:1031C000C0020020704700BFFEE7000000B52DEDF3
:1031D000108B81B0F0EE408AB0EE609AF0EE419A2A
:1031E000B0EE61BAB0EE42AAF0EE62AAA44890ED49
:1031F000000AF0EE40BAA34890ED000AB0EE40CAD3
:10320000A14890ED000AF0EE40CAA04890ED000AF7
:10321000B0EE40DA6BEE0B0A4AEE0A0A4AEEAA0A50
:10322000B0EE600A01F058F9B0EE408A8BEE080A61
:10323000B0EE40BA8AEE080AB0EE40AA8AEE880ADA
:10324000F0EE40AA8F4890ED000A9048D0ED000AB9
:1032500020EE200A8A48D0ED000A8B4890ED001A33
:1032600000EEC10AF0EE000A20EE200AF0EE40DA8D
:10327000834890ED000A8348D0ED000A20EE200A32
:103280008148D0ED000A814890ED001A00EE810AD5
:10329000F0EE000A20EE200AB0EE40EA784890ED09
:1032A000000A20EE000A7748D0ED000A90ED001ADF
:1032B00000EEC10A7448D0ED000A90ED001A00EE4D
:1032C000C10A7248D0ED000A90ED001A00EE810AA2
:1032D000F0EE40EA2AEE2E0A0AEECE0AB0EE40FAEE
:1032E0002AEEAD0A0BEE6E0AF0EE40FA2BEE0E0A55
:1032F0000AEE6D0A8DED000A654890ED000ADFEDDB
:10330000650A0FEE200A80ED000A634890ED000A7E
:10331000DFED600A0FEEA00A80ED000A5F48D0EDF5
:10332000000A9DED000A9FED5B1A40EE010AC0ED18
:10333000000AF7EE000AB0EE680A00EE8F0A544861
:10334000D0ED000A30EE200AF0EE408AF7EE000AD7
:10335000B0EE490A00EEAF0A4F48D0ED000A30EE59
:10336000200AB0EE409A9DED000AB7EE001AF0EE8A
:10337000690A41EE000A494890ED000A30EE800AE1
:10338000F0EE409AB1EE4C0A20EE280A0CEEC90A83
:103390000DEE690A9FED3F1AF0EE6B0A40EE010A4E
:1033A0003748C0ED000A2BEEA80A0CEEA90A0DEE74
:1033B000490A9FED381AF0EE4C0A40EE010A3148F6
:1033C000C0ED000A2BEE890A0CEE690A0DEE280A00
:1033D0009FED301AF0EE6C0A40EE010A2A48C0ED6B
:1033E000000A2BEEA90A0CEE090A0CEEE80A9FED82
:1033F000291AF0EE4D0A40EE010A2448C0ED000AF9
:103400001F48D0ED000A60EEA00A1E4890ED001A99
:10341000D0ED001A41EE210A1B4890ED001AD0EDC4
:10342000001A41EE210A194890ED001AD0ED001A59
:1034300041EE210AB0EE600A01F04EF8B0EE408A8B
:103440000F4890ED000AC0EE080AC0ED000A0D48D2
:1034500090ED000AC0EE080AC0ED000A0A4890ED9F
:10346000000AC0EE080AC0ED000A084890ED000A04
:10347000C0EE080AC0ED000A01B0BDEC108B00BD23
:103480006C000020700000207400002078000020F4
:103490007C0000206F12833A80000020840000200E
:1034A00000BFFEE77047704710B50C231D4A00218E
:1034B0001F2000F03DF81B4840781A49097840EA7F
:1034C000012000B2184908801648C078154989784B
:1034D00040EA012000B2144948801248407911495D
:1034E000097940EA012000B20F4988800D48C0796F
:1034F0000C49897940EA012000B20C49088009484A
:10350000407A0849097A40EA012000B20749488018
:103510000448C07A0349897A40EA012000B203498D
:10352000888010BDA40100200000002006000020BB
:103530002DE9FC5F80468A4615461E46701C1FFA20
:1035400080F9CB465846FCF7A6FE0446CDF8049019
:103550000198FCF7A0FE07465DB148F0800020709E
:10356000012003E0FF212154411C88B2B042F9DD63
:1035700004E008F07F00207084F801A000BF002262
:1035800080211848FEF78CFB00BF4FF47A704B4641
:103590003A46214600901448FFF7ACF840B138464F
:1035A000FCF7A8FE2046FCF7A5FE0120BDE8FC9F25
:1035B00000BF012280210B48FEF772FB00BF45B11E
:1035C000002004E0411C795C2954411C88B2B042BF
:1035D000F8DB3846FCF78EFE2046FCF78BFE002019
:1035E000E4E7000000100240FC0000207CB5044627
:1035F0000D461646164800681821B0FBF1F0154933
:10360000B0FBF1F04FF47A71484301906068B0F577
:10361000827F0DD12B46002280212046009600F0AB
:103620001BF898B1606D40F02000606503207CBD00
:1036300000BF019800B908E00198401E0190206881
:103640008068C0F3C0100028F3D100BF0020EEE76F
:103650003400002040420F002DE9F84F04460D468B
:1036600090461E46DDF82890FEF720FBA0EB0900EF
:10367000371AFEF71BFB82462C480068C0F3CB309C
:103680007843009045E0701C002842D0FEF70EFB06
:10369000A0EB0A00B84200D2A7BB2068406820F027
:1036A000E000216848606068B0F5827F0DD1A068B5
:1036B000B0F5004F03D0A068B0F5806F05D1206849
:1036C000006820F0400021680860A06AB0F5005F43
:1036D0000DD100BF2068006820F400502168086008
:1036E0002068006840F400502168086000BF012095
:1036F00084F8510000BF002084F8500000BF032070
:10370000BDE8F88FFFE7009800B900270098401E39
:103710000090206880682840A84201D1012000E084
:1037200000204045AFD10020EAE70000340000202F
:10373000704710B5FEF7C0FA10BD000003480068DE
:1037400040F47000014908607047000088ED00E017
:1037500010B50248FFF7FFF910BD0000B0010020CE
:1037600010B50268294B98420ED0B0F1804F0BD0B3
:10377000274B984208D0274B984205D0264B9842B9
:1037800002D0264B984203D122F070024B681A43B4
:103790001E4B984220D0B0F1804F1DD01C4B984258
:1037A0001AD01C4B984217D01B4B984214D01B4B7D
:1037B000984211D01A4B98420ED01A4B98420BD017
:1037C000194B984208D0194B984205D0184B984293
:1037D00002D0184B984203D122F44072CB681A43AE
:1037E00022F080034C6943EA040202608B68C362E2
:1037F0000B688362054B984202D0084B984201D176
:103800000B6903630123436110BD00000000014008
:103810000004004000080040000C0040000401408B
:1038200000400140004401400048014000180040B1
:10383000001C00400020004070B50546AC6B002025
:10384000E085E0842046FFF783FA70BD0168C9680F
:1038500021F490710268D1600168496921F0010189
:1038600002685161016B012905D10168C96821F025
:1038700010010268D160202180F83E100021016310
:10388000704710B504462068C06820F040002168E9
:10389000C860202084F83D002046FFF793FC0020FC
:1038A00010BD70B5044694F83E00222856D1A06899
:1038B000B0F5805F0CD1206950B90025A66A206858
:1038C0004068C0F308003080A06A801CA06215E048
:1038D000A56A0026A068B0F5805F03D0A06828B96B
:1038E000206918B920684068287004E020684068A2
:1038F00000F07F002870A06A401CA062E08D401E8E
:1039000080B2E08540BB2068C06820F020002168BC
:10391000C8602068C06820F480702168C860206892
:10392000406920F0010021684861202084F83E00B1
:10393000206B01280AD12068C06820F0100021689F
:10394000C860A18D2046FFF702FA02E02046FFF78B
:10395000EBFB0020206370BD0020FCE70220FAE7AB
:103960002DE9F84F04462068006920F44050E168D2
:103970000843216808612169A06808436169084318
:10398000E169084300902068C06849F20C618843EF
:10399000009908432168C8602068406920F440709D
:1039A000A16908432168486176492068884203D0AC
:1039B00075492068884203D1FEF70AFB814602E080
:1039C000FEF7F6FA8146E069B0F5004F6CD10220AF
:1039D0006168A0FB015003461920A9FB0070014655
:1039E0002A463846FCF7ADFC6421B0FBF1F04FEA03
:1039F000001A02206168A0FB01510B461920A9FBA7
:103A000000712A463846FCF79CFC83460220616818
:103A1000A0FB015003461920A9FB00712A46384635
:103A2000FCF78FFC6421B0FBF1F000EBC00101EB6F
:103A30000010ABEB8000322101EBC0006421B0FB31
:103A4000F1F000F0F8000AEB400A02206168A0FBE8
:103A5000015003461920A9FB007001462A4638464A
:103A6000FCF76FFC834602206168A0FB015003460F
:103A70001920A9FB00712A463846FCF762FC642134
:103A8000B0FBF1F000EBC00101EB0010ABEB8000EC
:103A9000322101EBC0006421B0FBF1F000F007001F
:103AA0005044216888606AE004206168A0FB0150EE
:103AB00003461920A9FB007001462A463846FCF748
:103AC00040FC824604206168A0FB01500346192097
:103AD000A9FB007001462A463846FCF732FC6421F7
:103AE000B0FBF1F000EBC00101EB0010AAEB80008D
:103AF000322101EB00106421B0FBF1F000F0F00A7C
:103B000004206168A0FB017003461920A9FB005145
:103B10003A462846FCF715FC6421B0FBF1F00AEBAD
:103B2000001A04206168A0FB01510B461920A9FB73
:103B300000712A463846FCF704FC8346042061687D
:103B4000A0FB015003461920A9FB007001462A463C
:103B50003846FCF7F6FB6421B0FBF1F000EBC00146
:103B600001EB0010ABEB8000322101EB001064216F
:103B7000B0FBF1F000F00F00504421688860BDE810
:103B8000F88F0000001001400014014010B50346FA
:103B900099629A85DA8500201864222083F83E0015
:103BA00000BF002083F83C0000BF1868C06840F4E4
:103BB00080701C68E0601868406940F001001C6873
:103BC00060611868C06840F020001C68E060002058
:103BD00010BD014691F83D00212828D18868B0F534
:103BE000805F0BD1086948B90A6A1088C0F30800E1
:103BF0000B685860086A801C086205E00B6A581C54
:103C0000086218780B685860C88C401E80B2C8845F
:103C100058B90868C06820F080000B68D860086850
:103C2000C06840F040000B68D86000207047022058
:103C3000FCE7000010B50248FFF78CF810BD00004B
:103C4000C002002000BFFEE703B4019841000098C5
:103C500050EAC12018BF04204A0D18BF40F00100EF
:103C600040F2FF72B2EB515F08BF40F00200012842
:103C700008BF052002B0704702480068C0F3022068
:103C8000704700000CED00E010B5002804DB0A07C7
:103C9000130E054A135406E00A07140E034A00F0F7
:103CA0000F031B1FD45410BD00E400E018ED00E02A
:103CB00070B5C1482DED020B2DED0E8B82B0119D1C
:103CC00025F000449FEDBEDB9FEDBFEB84423EDB61
:103CD000A4F140511098A1F17F6108430FD0BC4876
:103CE000844202DC28D1109830B39DED100B02B055
:103CF000BDEC0E8B02B0BDE8704000F086BC9DEDBF
:103D0000100B53EC1D2B51EC100B01F077FB9DEDCC
:103D1000100B41EC180B53EC1E2B51EC100B01F067
:103D20006DFB53EC182B01F069F941EC100B02B05C
:103D3000BDEC0E8B02B070BD0120FCF7B6FC02B0EA
:103D4000BDEC0E8B02B0BDE8704000F075BCA14820
:103D50009FEDA18B844256DA9DED100BB4F1795F93
:103D60000ADA51EC100BFFF76FFF042808BF00F0D0
:103D700073FC9DED100BDAE753EC102B51EC100B9C
:103D800001F03CFB41EC190B95480621B0EE490AC5
:103D9000F0EE690A784400F0BCFB53EC192B51ECAF
:103DA000100B01F02BFB41EC1A0B8E48B0EE490AC8
:103DB000F0EE690A0421784400F0ABFB53EC192BB8
:103DC00051EC100B01F01AFB53EC182B01F016F913
:103DD00041EC100B51EC1A0B53EC102B01F0B6F91F
:103DE000CDE900019DED000B53EC102B9DED100B68
:103DF00051EC100B01F002FB9DED101B53EC112B4D
:103E000001F0FCF8D2E09DED100B51EC100B00F02E
:103E100093FC53EC182B01F0EFFB9FED730BCDE9F6
:103E2000000153EC102B9DED000B51EC100B01F039
:103E3000E5FA41EC190B6E480621B0EE490AF0EEA6
:103E4000690A784400F065FB53EC192B51EC100B18
:103E500001F0D4FA41EC1B0B6648B0EE490AF0EED3
:103E6000690A0421784400F054FB53EC192B51ECFF
:103E7000100B01F0C3FA53EC182B01F0BFF841EC22
:103E80001C0B51EC190B00F0B1FF41EC180B5A4818
:103E90009FED5BABA04222DC53EC1C2B51EC1B0BC7
:103EA00001F054F9CDE900019DED000B51EC180B28
:103EB00053EC102B01F0A2FA53EC182B01F09EF8F2
:103EC00053EC1A2B01F09AFA53EC1D2B01F06CFC09
:103ED00053EC1E2B01F090FB41EC100B5FE08DEDDD
:103EE000008B002000909DED000B51EC180B53EC63
:103EF000102B01F083F89DED000B41EC1E0B53ECF1
:103F0000102B51EC100B01F079FA53EC192B01F046
:103F100073FB53EC1E2B01F019F941EC190B53EC18
:103F20001C2B51EC1B0B01F011F941EC1B0B53EC5A
:103F30001A2B51EC190B01F061FA53EC1D2B01F017
:103F40005BFB41EC190B53EC1A2B51EC180B01F0F5
:103F500055FA53EC1B2B01F051FA53EC192B01F0DD
:103F600023FC9DED000B41EC180B53EC1A2B51EC8C
:103F7000100B01F043FA9FED249B53EC192B01F039
:103F80003BFB41EC100B51EC180B53EC102B01F0E8
:103F90000BFC53EC192B01F02FFB41EC100B002D07
:103FA0003FF7C5AE51EC100B00F0EAFF41EC100BEF
:103FB000BDE60000000000000000F03F000000002F
:103FC000075C143326A6913C182D4454FB21F93F7D
:103FD0000000F07F0000E03F000000000000F03F24
:103FE000F81C0000061D0000000000000000E03F7B
:103FF0004A1C0000581C00003333EF3F0000000053
:104000000000000000000040182D4454FB21E93F4F
:1040100070B59B482DED020B2DED068B079D25F00D
:104020000044A04218DC9748844202DC0AD106987A
:1040300040B19DED060BBDEC068B02B0BDE87040B3
:1040400000F0E3BA002DCCBF9FED8F0B9FED900BDE
:10405000BDEC068B02B070BD8F48A04215DD8F48C5
:10406000A042D8BF4FF0FF3458DD9DED060B51EC58
:10407000100BFFF7E9FD042808BF00F0EDFA9DEDF5
:10408000060BBDEC068B02B070BD9DED060B51EC2E
:10409000100B00F051FBCDE9060181489FED828BAA
:1040A000A0423CDD8248A0421FDD00249FED82AB90
:1040B0009DED060B53EC1A2B51EC100B00F09EFFFC
:1040C0009DED060B41EC190B53EC1A2B51EC100B28
:1040D00001F094F953EC182B01F066FB53EC192B0B
:1040E00001F034F8CDE9060149E09DED060B01240D
:1040F00053EC182B51EC100B00F080FF9DED060BDC
:1041000041EC190B53EC182B51EC100B01F04CFB4C
:1041100053EC192B01F01AF8CDE906012FE068489D
:10412000A0421FDD02249FED689B9DED060B53EC22
:10413000192B51EC100B01F061F953EC182B00F026
:104140005DFF9DED060B41EC180B53EC192B51EC68
:10415000100B01F029FB53EC182B00F0F7FFCDE911
:1041600006010CE09DED060B032453EC102B9FED94
:10417000580B51EC100B00F0E9FFCDE906019DED65
:10418000060B53EC102B51EC100B01F037F941ECFE
:10419000180B53EC182B01F031F941EC190B4E4878
:1041A0000621B0EE490AF0EE690A784400F0B1F950
:1041B00053EC182B51EC100B01F020F941EC180BCB
:1041C0004648B0EE490AF0EE690A0521784400F04D
:1041D000A0F953EC192B51EC100B01F00FF941EC45
:1041E000100B51EC180B53EC102B002C0EDA00F0D6
:1041F00005FF9DED061B53EC112B01F0FFF89DED23
:10420000061B53EC112B01F0F7F935E000F0F6FE38
:104210009DED061B53EC112B01F0F0F841EC100B57
:104220002F48784400EBC40090ED001B51EC100BBC
:1042300053EC112B01F0B8FA9DED061B53EC112B3A
:1042400001F0B2FA41EC100B2648784400EBC400B0
:1042500090ED001B51EC100B53EC112B01F0CCF93D
:1042600041EC100B002DA2BFBDEC068B02B070BD5F
:1042700051EC100B00F084FE41EC100B01E7000044
:10428000000010440000F07F182D4454FB21F93F3A
:10429000182D4454FB21F9BF0000DC3F0000203EF4
:1042A0000000F33F00000000000000000000F03FAD
:1042B0000000E63F00000000000000000000004099
:1042C0000080034000000000000000000000F83FF4
:1042D000000000000000F0BF9A1900005019000013
:1042E000DA1800009218000070B56B4E2DED040B2B
:1042F0002DED028B82B0DDF81CC0DDE905235C42A8
:104300002CF000411C4341EAD474049D22F000408B
:10431000B44205D86C422C4340EAD474B4420BD961
:104320009DED061B9DED040B02B0BDEC028B04B0AD
:10433000BDE8704000F073B9ACF14054A4F17F6463
:104340001C430BD0022404EAAC7444EAD274054343
:104350009FED538B9FED542B07D015E09DED040B83
:1043600051EC100B00F093F942E0002C11BF012C2E
:104370009DED040B02B0BDEC028B04BF04B070BD18
:10438000022C38D0032C3BD00B439FED491B9FEDF3
:104390004A0B0AD0B14218D1B04209D121F0804174
:1043A00020F08040079105900FE0002A15DA10E018
:1043B000434B7B44002C08BF93ED000B0DD0012C28
:1043C00010D0022C17D0032C1AD0B0421DD1002AD5
:1043D00003DAB0EE410AF0EE610A02B0BDEC028BE6
:1043E00004B070BD93ED000B51EC100B00F0C8FD54
:1043F00041EC100BF1E7B0EE480AF0EE680AECE78A
:10440000B0EE420AF0EE620AE7E7401A00153C28D7
:10441000C8BF8DED000B19DCBCF1000FBEBF10F161
:104420003C0F9FED290B8DED000B0FDB9DED060B77
:1044300053EC102B9DED040B51EC100B00F086FE9D
:1044400000F07AF900F023F9CDE90001002C08BF53
:104450009DED000BC1D0012C10D0022C9FED1C0B48
:1044600053EC102B9DED000B51EC100B0DD001F017
:104470009BF953EC182B01F097F9B9E7019880F0FC
:10448000004001909DED000BA7E701F08DF953EC82
:10449000182B01F0B1F8ABE70000F07F000000003E
:1044A000182D4454FB210940182D4454FB2109C008
:1044B000182D4454FB21F9BF182D4454FB21F93F1A
:1044C000C217000000000000000000000000000013
:1044D000075C143326A6A13C10B52DED028BB1EE7E
:1044E000C08A18EE100A20F00040C0F1FF40C00F53
:1044F0000AD010EE100A20F00040C0F1FF40C00FBB
:1045000004BF0120FCF7D1F8B0EE480ABDEC028BE5
:1045100010BD70B504462DED028B4D1E00EBC5009D
:10452000B0EE408AF0EE608A90ED000B35F00600A8
:1045300017D053EC182B51EC100B00F05FFF41EC3F
:10454000100B6D1E04EBC50090ED001B51EC100B21
:1045500053EC112B00F052FD41EC100B35F006002E
:10456000E7D1022D36D0042D1CD0062D1CBFBDEC8A
:10457000028B70BD53EC182B51EC100B00F03EFF7A
:1045800094ED0A1B53EC112B00F038FD53EC182B63
:1045900000F034FF94ED081B53EC112B00F02EFDBE
:1045A00041EC100B53EC182B51EC100B00F026FFD4
:1045B00094ED061B53EC112B00F020FD53EC182B4F
:1045C00000F01CFF94ED040B53EC102B00F016FDD3
:1045D00041EC100B53EC182B51EC100B00F00EFFBC
:1045E00094ED021B53EC112B00F008FD53EC182B3B
:1045F00000F004FF94ED001B53EC112B00F0FEFCC7
:10460000BDEC028B41EC100B70BD10B553EC102BC0
:1046100051EC100B00F0F2FC41EC100B10BD10B58A
:1046200053EC112B51EC100B00F0E8FC41EC100B9B
:1046300010BD0000000000009FED050B10B553EC0D
:10464000102B51EC100B00F081FD41EC100B10BD54
:1046500000000000000000009FED050B10B553ECBA
:10466000102B51EC100B00F0C9FE41EC100B10BDEB
:10467000000000000000001030380A2801D201209C
:1046800070470020704700BF704700BF704710B5EB
:1046900041EC100BFFF7BCFC51EC100B10BD0000FF
:1046A00010B509480949086000210848816042F2B4
:1046B000CF000649486009210448C160FEF79FF910
:1046C0000248FEF7F3F910BD00100040B0010020D1
:1046D00001490860704700008800002010B50446BA
:1046E0004FF47A7104FB01F000F002F810BD0000F5
:1046F00070B5034600224FF0E02675690D4E36680E
:1047000003FB06F44FF0E026B16910E04FF0E0261D
:10471000B06988420BD0884202D20E1A324402E0BD
:104720002E1A0E4432440146A24200D300E0EDE7C7
:1047300000BF70BD8800002082B0CDE9000121F0EB
:10474000004001909DED000B02B051EC100B704742
:1047500000BF054A126802F04002002AF9D0C2B236
:10476000014B5A60704700000010014000B587B04F
:1047700000F016FB00BF002001901248006840F0D6
:104780001000104908600846006800F01000019011
:1047900000BF00BF142102A8FBF704FF8020029095
:1047A000012003900320059002A90748FDF776F940
:1047B00000BF012280210448FDF772FA00BF07B054
:1047C00000BD0000303802400010024010B5FFF775
:1047D000CDFF0123002211467620FEF7A9FE01231A
:1047E000002219461120FEF7A3FE0120FFF776FFF5
:1047F0000123002205211320FEF79AFE0123002247
:1048000011461620FEF794FE012300220F214E20B0
:10481000FEF78EFEC820FFF76BFF01230022062162
:104820004F20FEF785FE0123002206215020FEF7CF
:104830007FFE10BD2DED068B84B0FDF749FA0723EE
:10484000022208214FF4A87000F008FBA820FFF70F
:104850003FFF4FF4E13000F061FBFFF7B7FFFFF7D8
:104860001FFFFCF7B7FF4FF47A70FFF737FF93E0B5
:104870004A48007820B1002048490870FCF7AAFF98
:104880004748007830B1002045490870FEF70CFE1B
:1048900000F0B2F84348007808B30020414908709E
:1048A000414890ED023AF0EE432A90ED013AB0EE25
:1048B000432A90ED003AF0EE431A3C4890ED023A5C
:1048C000B0EE431A90ED013AF0EE430A90ED003A53
:1048D000B0EE430AFEF77AFC3548FCF781FF354815
:1048E0000078002858D000203249087032480088EB
:1048F0003249088030484088314908802E488088F5
:1049000030490880304890ED000ABDEEC00A10EE34
:10491000100A00B22D4908802B4890ED010ABDEE27
:10492000C00A10EE100A00B229490880264890ED0E
:10493000020ABDEEC00A10EE100A00B22549088036
:104940001B4890ED000A244880ED000A184890EDBD
:10495000010A224880ED000A154890ED020A20481D
:1049600080ED000A006801F009F841EC1A0B1B48C1
:10497000006801F003F841EC180B1748006800F0DC
:10498000FDFF41EC190B8DED02AB8DED008B53EC6F
:10499000192B14A0FBF74CFD6AE700003000002043
:1049A0006800002069000020A0000020B80000205E
:1049B000F00000206A0000201200002024000020E7
:1049C0002600002028000020AC0000202A00002043
:1049D0002C0000202E000020180000201C000020C9
:1049E0002000002025352E31662C25352E31662CF1
:1049F00025352E31660D0A0000B5D748B0F9000004
:104A000000EE100AB8EEC00AD44880ED030AD2487E
:104A1000B0F9020000EE100AB8EEC00AD04880EDEE
:104A2000030ACD48B0F9040000EE100AB8EEC00A3F
:104A3000CC4880ED030ACC48B0F9000000EE100A23
:104A4000B8EEC00AC94880ED030AC748B0F90200B1
:104A500000EE100AB8EEC00AC54880ED030AC2484D
:104A6000B0F9040000EE100AB8EEC00AC14880EDAB
:104A7000030A0320A3E0B94901EB800191ED000A8C
:104A8000411EB64A02EB8101D1ED000A70EE600AC8
:104A9000411E02EB810191ED000A9FEDB71A01EE74
:104AA000200A411E02EB810181ED000AAC4901EBB5
:104AB000800191ED000A411EA94A02EB8101D1ED6E
:104AC000000A70EE600A411E02EB810191ED000ABE
:104AD0009FEDA91A01EE200A411E02EB810181ED32
:104AE000000AA04901EB800191ED000A411E9D4A98
:104AF00002EB8101D1ED000A70EE600A411E02EB6B
:104B0000810191ED000A9FED9C1A01EE200A411EE1
:104B100002EB810181ED000A944901EB800191EDE6
:104B2000000A411E914A02EB8101D1ED000A70EEAC
:104B3000600A411E02EB810191ED000A9FED8E1A81
:104B400001EE200A411E02EB810181ED000A884935
:104B500001EB800191ED000A411E854A02EB8101C3
:104B6000D1ED000A70EE600A411E02EB810191ED69
:104B7000000A9FED811A01EE200A411E02EB81011D
:104B800081ED000A7B4901EB800191ED000A411E95
:104B9000784A02EB8101D1ED000A70EE600A411EF5
:104BA00002EB810191ED000A9FED731A01EE200ADC
:104BB000411E02EB810181ED000A411EC8B20028AE
:104BC0003FF759AF654890ED000ABDEEC00A10EE00
:104BD000100A00B269490880614890ED000ABDEEF4
:104BE000C00A10EE100A00B248805E4890ED000A3C
:104BF000BDEEC00A10EE100A00B288805B4890ED4E
:104C0000000ABDEEC00A10EE100A00B25C4908802E
:104C1000574890ED000ABDEEC00A10EE100A00B22F
:104C20004880544890ED000ABDEEC00A10EE100A0C
:104C300000B288800846B0F900005249B1F900106E
:104C4000401A00EE100AB8EEC00A4F4880ED000A84
:104C50004B48B0F902004B49B1F90210401A00EE7E
:104C6000100AB8EEC00A484880ED010A4448B0F97D
:104C700004004449B1F90410401A00EE100AB8EEDD
:104C8000C00A414880ED020A3C48B0F900003D49A5
:104C9000B1F90610401A00EE100AB8EEC00A3B48FF
:104CA00080ED000A3548B0F902103648B0F9080026
:104CB000081A00EE100AB8EEC00A344880ED010A66
:104CC0002E48B0F904102F48B0F90A00081A00EE77
:104CD000100AB8EEC00A2D4880ED020AFCF7CAFCA3
:104CE0002A4890ED000ADFED2A0A20EE200A294822
:104CF00080ED000A254890ED010ADFED250A20EE3F
:104D0000200A244880ED010A204890ED020ADFEDD8
:104D1000200A20EE200A1F4880ED020A90ED000ACA
:104D2000DFED1D0A20EE200A1C4880ED000A19481C
:104D300090ED010ADFED180A20EE200A174880EDF9
:104D4000010A144890ED020ADFED130A20EE200A52
:104D5000124880ED020A00BD060000205401002028
:104D60006401002074010020000000208401002064
:104D7000940100203C000020AE47613E120000205C
:104D80000C000020D0000020A0000020AC0000207B
:104D9000F1FF793DC40000204DF38E3CB8000020A7
:104DA00010B51048104908604FF482704860002127
:104DB0000D488160C160016141614FF40071816102
:104DC0003821C1610021016241628162FDF7B6FBB9
:104DD00005480068006840F0400003490968086021
:104DE00010BD000000380040FC00002000B52DED93
:104DF000048B83B041EC190B00F00AFC41EC180B5A
:104E000018EE100A18EE901A8DED008B002818BFCE
:104E10000120084320F00040C0F17F6000F1E04035
:104E2000C00F14D019EE101A19EE900A8DED009BE8
:104E3000002918BF0121084320F00040C0F17F6025
:104E400000F1E040C00F04BF0120FBF72EFC51EC45
:104E5000180B03B0BDEC048B00BD00002DE9F04140
:104E600092B080460C4615461E460027302106A803
:104E7000FBF798FB142101A8FBF794FB00BF00206F
:104E800000902448006840F080502249086008469D
:104E9000006800F08050009000BF00BF00BF0020FD
:104EA00000901D48006840F480401B490860084697
:104EB000006800F48040009000BF00BF0120069011
:104EC0000004079002200C9041050D91CDF83C8024
:104ED0000E941095119606A8FDF7E2F807461FB14B
:104EE000012012B0BDE8F0810F2001900220029055
:104EF000002003904FF4A05004904FF48050059090
:104F0000052101A8FCF78CFF07460FB10120E8E757
:104F10000020E6E7403802400070004010B504462B
:104F200009480A4908600846446000218160C16060
:104F3000016181610C214161FEF734F801220449CD
:104F40000248FEF7CFF810BD00100140C00200205B
:104F50009200002010B500290AD00878002807D058
:104F600005487844FBF764FF002801D0002010BDFD
:104F70000248784410BD0000D20C0000CA0C0000AA
:104F800081F00041704780F00040704721F00041FF
:104F9000704720F00040704721F00042A2F16052BB
:104FA000B2F5801F01F0004328BFD2F17F6C0BD90E
:104FB0005FEA001C43EAC20242EB507018BF704720
:104FC00028BF20F001007047B2F5801FBCBF184613
:104FD00070474FEA410C1CF5001F02D2084600F052
:104FE00043BD70B500F0B4FA00000089FFF7F6BFCA
:104FF0004FF00040A0F580007047000010B591EA26
:10500000030F48BF83F0004300F1D683841A71EB8D
:10501000030C05D2121943EB0C03001B61EB0C01CE
:10502000DFF824E14FEA1154A4EB135C1EEA430FAE
:1050300018BF9EEA445F73D023EA0E03DCF1200E12
:1050400021EA045143F4801332D322FA0CFE10EB10
:105050000E0023FA0CFE41EB0E01CCF1200E03FAF8
:105060000EFE10EB0E0051F10001B1F5801FCCF1E6
:10507000200E32D201EB045112FA0EF2BDE81040BC
:1050800058BF7047401C38BF5FEA420218BF7047E4
:10509000002814BF20F0010041F100014FEA410354
:1050A00013F5001F38BF7047A1F1C04100F09EBA50
:1050B000012A43EB0302ACF1200CDCF11F0E32BFDE
:1050C0004FF0000E23FA0CF310EB030041EB0451F8
:1050D000B4EB115FD0D0A1EB045101F58011490868
:1050E0005FEA300001EB04510ED350F1000038BFED
:1050F00012FA0EFE08D1BDE81040C9E7401C38BFC7
:105100005FEA4202CAD1C3E7BDE810404FEA41035B
:1051100013F5001F38BF7047A1F1C04100F066BA17
:105120009EEA445F08D011EA5E0FBDE8104004BF5C
:1051300001F0004100207047BDE8104070B500F05C
:1051400007FA00BF64FBBE3E0000E0FF2DE9C0414E
:1051500030B4DFF8A0C23CEA111418BF3CEA1314C3
:1051600000F0EC8081EA03051CEA111444EAD574CE
:1051700018BF1CEA131500F0C780A4EB05044FF01C
:10518000004545EAC12145EAC32341EA505143EABB
:10519000525304F17F74994204F500344FEAC02061
:1051A0004FEAC22208BF904200F09C804FEA13658C
:1051B0000FF24016765D4FEA134506FB05F7C7F17F
:1051C000807706FB07F74FEAD737A7FB03687642DD
:1051D000C8F58038A7FB06CE38BFA8F1010807FB49
:1051E00008E64FF0000EA6FB028CE6FB03CEDCF1D6
:1051F000000CCEF1004E38BFAEF1010EA6FB0C58EC
:105200004FF000074FF00005E6FB0E87A1FB08C634
:10521000A0FB07CE16EB0E0645F10005E1FB076586
:1052200015F1E04E7EBFA4F580345FEA46066D417D
:1052300016F1800745F100054FEA17274FEA066689
:1052400047EA0567A6F1DE46B6F1805F4FEA15250D
:105250001FD9384624F0010C05EBC471BCF1FE6F78
:1052600001EB0C1102D8F0BCBDE8008124425CBF08
:1052700001F5801E9EEAC47F02D4F0BCBDE8008127
:10528000244238D4F0BCA1F1C041BDE8004100F097
:10529000ADB94FEAD22242EA43524FEAD323A7FBE9
:1052A00002864FEAD02040EA415007FB03661EEA1F
:1052B0000E0F4FEAD12105FB026658BFA6EB005640
:1052C000B6EB00564FEA520E4EEAC37E18EB0E0EB6
:1052D00056EB530EBDD518EB02085E417F1C55F10D
:1052E0000005B6E74FF480154FF000074FF00006B9
:1052F0004FF00008ADE7F0BC4FF0000001F1C041F5
:1053000001F00041BDE8008111EA0C1F0CEA131501
:1053100000D00CE013EA0C1F00F025804FF00000D5
:10532000F0BC81EA030101F00041BDE80081F0BC5E
:10533000BDE8004181EA030100F058B9F0BCBDE8C6
:10534000004170B500F004F9097EFC3E00F007B89A
:1053500081EA03014FF0000001F00041704781EA4B
:10536000030100F043B9F0BCBDE800414FF000007C
:1053700021497047FFFDFBF9F7F5F4F2F0EEEDEB94
:10538000E9E8E6E4E3E1E0DEDDDBDAD8D7D5D4D343
:10539000D1D0CFCDCCCBCAC8C7C6C5C4C2C1C0BF8F
:1053A000BEBDBCBBBAB9B8B7B6B5B4B3B2B1B0AF95
:1053B000AEADACABAAA9A8A8A7A6A5A4A3A3A2A179
:1053C000A09F9F9E9D9C9C9B9A9999989797969534
:1053D00095949393929191908F8F8E8E8D8C8C8BD0
:1053E0008B8A898988888787868585848483838258
:1053F000828181800000FF070000F87FDFF848C14C
:1054000070B51CEA111E1EBF1CEA13159EEA0C0F94
:1054100095EA0C0F00F06F8081EA030423EA4C1335
:105420004EEAD47E21EA4C1141F4801143F48013FA
:10543000AE44A1FB024CA0FB0365AEF17F7E3619A2
:1054400055EB0C05A1FB034C4CF10003A0FB021C27
:1054500016EB0C06654153F10003094218BF46F0F4
:10546000010613F4007F0BD14FEA03314FEA0530F8
:10547000340341EA155140EA16506FF003020AE086
:105480004FEAC3214FEAC520F40241EA555140EAF0
:1054900056506FF0020202EB2E4201EB025585EAF4
:1054A000CE710AD05FEA440C18BF24F0004450F1DA
:1054B000000041F1000120EAD47040F2FE7C624518
:1054C00000D270BDA84214BF4FF080444FF040445A
:1054D000002E08BF0024BEF1806FA8BFA1F1C0411B
:1054E000BDE8704080F282804FF0000001F1C041C1
:1054F00001F0004170479EEA0C0F0CEA131518BF2B
:1055000095EA0C0F06D04FF0000081EA030E0EF072
:10551000004170BD00F01CF88900013E00F007B8A2
:1055200000F009B84FEA430C5FEA5C5C08D081EAFE
:10553000030100F05BB84FEA410C5FEA5C5CF6D116
:105540004FF00000014970470000FF070000F87F9E
:105550000EF1020E2EF0030E5EF8046B364205D4F7
:10556000012A43EB030515F5001F12D8012841EB72
:10557000010C1CF5001F0CD80ED14FEAD17C15F59B
:10558000001F0CEB4C0C0CF1020C08BF4CEBD37C55
:1055900004E04FF0080C01E04FEAD37C0CEB4C0523
:1055A00026FA05F606F00706B6F1040C06D20EEB55
:1055B000860CBDE870404CF0010C6047DFE80CF051
:1055C000090B02024FF000414FF00000A1F500214D
:1055D00070BD19461046012851EB010418BFD4F5DF
:1055E000001484BF002001F0004170BD0808A0F540
:1055F00000114FEA3101704791EA030F10B581F0B5
:1056000000413FF503AD83F0004300F0D5B8000042
:105610002DE9F04101F5801CBCF5001FC0F2A98006
:105620004FEA115C21EA0C510CF1FD0C41F48011A0
:105630005FEA5C0C0CF5C07C01D34000494130A40A
:10564000890241EA905187028E0E0A0CA45D04FB88
:1056500004F602FB06F6C6F14046A4FB0662F60D10
:1056600046EA422606FB06F4A4FB01235242C3F19C
:10567000404338BF5B1EA6FB02420024E6FB032426
:10568000D20B42EA4446A6FB0623A1FB02E2A3FB9F
:1056900007E4E3FB61426442C2F1404E38BFAEF121
:1056A000010EA6FB04234FF00002E6FB0E32A2FB24
:1056B00003463400E2FB6264A1FB06E6A4FB07E8B4
:1056C000E4FB61687642C8F1405838BFA8F1010890
:1056D000A2FB06E4A3FB08E5E2FB6854A1FB05E698
:1056E000A7FB04E8E1FB648618F1200556F10006EB
:1056F000A809A8F11B08B10908F03F08B8F10A0F82
:1057000040EA86601CD901EB0C51BDE8F08100BF76
:10571000FCF5EEE8E2DDD8D3CFCBC7C3C0BDB9B648
:10572000B4B1AEACA9A7A5A3A19F9D9B9A9896954D
:105730009392908F8D8C8B898887868584838281D4
:10574000A0FB006800FB01F208EB4208B8EB8728D9
:1057500007D5341858EB0104D5D5401C51F1000190
:10576000D1E7341A78EB0104CDD4401E71F1000169
:10577000C9E75FEA4C0C5FEA9C5C0DD105D34FF0A2
:10578000000001F00041BDE8F081BDE8F04170B5D6
:10579000FFF7DEFE6DDBFFBEBDE8F0414FF000001D
:1057A000004970470000F87F10B591EA030F48BF29
:1057B00083F000433FF52AAC841A71EB030C07D247
:1057C00012198CF0004C43EB0C03001B61EB0C0135
:1057D000DFF8A4E14FEA1154A4EB135C1EEA430F77
:1057E00018BF9EEA445F00F0B08023EA6E03524285
:1057F00021EA0451C3EB6E0338BF5B1EDCF1200EBF
:1058000025D322FA0CFE10EB0E0043FA0CFE41EBFE
:105810000E01CCF1200E03FA0EFE10EB0E0051F13A
:105820000001CCF1200E29D412FA0EF201EB045142
:10583000BDE8104058BF7047401C1CBFB2F1004F7C
:10584000704700280CBF491C20F00100704712EB84
:10585000020E43EB030218BF4FF0010E4EEA420264
:10586000ACF1200CDCF11E0E54D943FA0CFE10EB07
:105870000E0051F1FF31CCF11E0ED5D50EF1010E07
:1058800012FA0EFE404141EB010101EB445C5FEA7C
:105890005C5C10D910EBDE7001EB045138BFBEF137
:1058A000004FBDE8104018BF704700280CBF491CCE
:1058B00020F00100704730D24FEAD42C11F50011CE
:1058C00024F400641BD0B1FA81F20B3AA41AA41E8E
:1058D000D2F12003914030FA03F31943904001EBD9
:1058E000CC71002C01EB0451BDE81040A8BF7047FB
:1058F00001F1C0414FF0000001F000417047B0FAE3
:1059000080F310FA03F100D110BDE41A173C4805EA
:10591000C90AE4E701EB045110BD491001EB045141
:10592000BDE810404FEA300002E04FF00001704740
:105930004A0008BF0042F8D0B2F5001F28BF7047E8
:1059400001F000414FF0000070479EEA445F07D02D
:1059500011EA5E0FBDE8104004BF0021002070472F
:10596000BDE8104070B5FFF7F3FD00BF40DFF63E25
:1059700083F00041104670470000E0FF43004FEA0B
:10598000D30C4FEA3C0C43401FBF40070CF1605161
:1059900013F0FE4F70471CF0006F03D100200CF095
:1059A000004170470CF0004343EA507010B540EAE4
:1059B000CC0000F00EF800BF000000924FEA00019A
:1059C000FFF714BE4FF000414FF00000A1F5002199
:1059D00070470EF1020E2EF0030E5EF8044B2442C7
:1059E00004D44FEA4102B2F17F4F11D84FEA40038D
:1059F000B3F17F4F0CD80ED14FEAD07CB2F17F4F7C
:105A00000CEB4C0C0CF1020C08BF4CEBD17C04E00D
:105A10004FF0080C01E04FEAD17C0CEB4C0324FA68
:105A200003F404F00704B4F1040C06D20EEB840C6A
:105A3000BDE810404CF0010C6047DFE80CF00708AF
:105A400002024FF00040A0F5800010BD0846420061
:105A500018BFD2F1807288BF00F0004010BD4FF037
:105A60004070E1EE100A7047FF2141EAD050C005B6
:105A70007047FAF7F9BE00000000000000000102C4
:105A800003040607080900000000010203040000E7
:105A9000555555555555C53F7D6FEB0312D6D4BFAF
:105AA0005544880E55C1C93F3B8F68B52882A4BFB5
:105AB00088B20175E0EF493F09F7FD0DE13D023F76
:105AC0004B2D8A1C273A03C0C88A599CE52A0040FE
:105AD00059018D1B6C06E6BF82922EB1C5B8B33F4B
