:020000040800F2
:10000000E0050020490200081B2A0008132A000806
:10001000172A0008631500084D3000080000000092
:10002000000000000000000000000000212C00087B
:1000300067150008000000001D2A0008232C000896
:100040006D0200086D0200086D0200086D020008D4
:100050006D0200086D0200086D0200086D020008C4
:100060006D0200086D0200086D0200086D020008B4
:100070006D0200086D0200086D0200086D020008A4
:100080006D0200086D0200086D0200086D02000894
:100090006D0200086D0200086D0200086D02000884
:1000A0006D0200086D0200086D0200086D02000874
:1000B0006D0200086D0200086D0200086D02000864
:1000C0006D0200086D0200086D0200086D02000854
:1000D0006D0200083D3000086D0200086D02000846
:1000E0006D0200086D0200086D0200086D02000834
:1000F0006D0200086D0200086D0200086D02000824
:100100006D0200086D0200086D0200086D02000813
:100110006D0200086D0200086D0200086D02000803
:100120006D0200086D0200086D0200086D020008F3
:100130006D0200086D0200086D0200086D020008E3
:100140006D0200086D0200086D0200086D020008D3
:100150006D0200086D0200086D0200086D020008C3
:100160006D0200086D0200086D0200086D020008B3
:100170006D0200086D0200086D020008000000001A
:100180006D0200086D02000800F002F800F04DF862
:100190000AA090E8000C82448344AAF10107DA45E2
:1001A00001D100F042F8AFF2090EBAE80F0013F0E7
:1001B000010F18BFFB1A43F001031847003D000070
:1001C000203D0000103A24BF78C878C1FAD8520701
:1001D00024BF30C830C144BF04680C6070470000C1
:1001E0000023002400250026103A28BF78C1FBD840
:1001F000520728BF30C148BF0B607047662903F023
:100200000486002070471FB503F0F5FD9DE803004C
:1002100000F096F900F0F0FB04000020002103F04C
:10022000DBF9E0601FBD10B510BD00F01EFD1146EA
:10023000FFF7E9FF03F0ACF800F03CFD03B4FFF773
:10024000F2FF03BC02F038FF0C48016841F4700172
:1002500001600B4880470B480047FEE7FEE7FEE7DA
:10026000FEE7FEE7FEE7FEE7FEE7FEE7FEE700004B
:1002700005480649044A064B7047000088ED00E037
:100280002D2C000889010008E0010020E005002075
:10029000E0010020704770B5064600F035F90568AA
:1002A00006F10B0020F00704B4429CBF002070BD93
:1002B0002B466A68BAB11068A04210D304F1080155
:1002C00088423CBF5068586007D35168101941609C
:1002D0001168091B016058601460101D70BD134641
:1002E0005268002AE7D12146284600F015F9002877
:1002F000DED170BD70B50446051F00F005F9006839
:10030000002C14BF446870BD002C18BFAC423CBF29
:1003100020466468F8D301680A18AA4218BF4560ED
:1003200003D12A6805461144016028684119A14299
:100330001CBF6C6070BD61686960216808442860FA
:1003400070BD53EA020C00F069802DE9F04B4FF0CC
:100350000006002B1FBFB3FA83F503FA05F424FA55
:1003600005F65E4012BF1643B2FA82F502FA05F4B2
:10037000C5F120051EBF22FA05FC44EA0C04203515
:1003800056EA044C4FEA144418BF641C4FF00008AE
:100390004FF00009904271EB030C39D3002919BFCB
:1003A000B1FA81F701FA07F6B0FA80F700FA07F61A
:1003B000C7F120071EBF20FA07FC46EA0C062037CB
:1003C000B6FBF4FCA7EB0507103F07F01F0BCBF1C2
:1003D00020060CFA0BFB2CFA06F644BFB3460026A7
:1003E000202FA4BF5E464FF0000B5BEA060C08BF4F
:1003F0004FF0010B19EB0B09ABFB027C48EB060835
:10040000C01B06FB02CC0BFB03CC71EB0C01C1E75C
:100410000B46024641464846BDE8F08B13B54FF007
:1004200000004FF00001AFF30080BDE81C407047B2
:100430000FB4044910B503AA029800F0C7FA10BC23
:100440005DF814FB080000202DE9F0410E4604463B
:10045000002020622046E168884730B3252805D077
:10046000D4E901219047206A401CF2E7E168204668
:1004700000278847050018D0A5F14100192802D8A7
:1004800020354FF400673246294620462760FFF7A3
:10049000B5FE40B1012804D0F61D26F00706083647
:1004A000D8E7361DD6E72846DAE7206ABDE8F081AE
:1004B0004FF0000200B5134694469646203922BFFD
:1004C000A0E80C50A0E80C50B1F12001BFF4F7AF48
:1004D000090728BFA0E80C5048BF0CC05DF804EB2A
:1004E000890028BF40F8042B08BF704748BF20F898
:1004F000022B11F0804F18BF00F8012B7047704796
:10050000704770477047000000487047880100201E
:10051000704770477047704738B504460A46002058
:100520006946AFF30080002808BF38BD0246009935
:10053000204600F065FA012038BD012000F08EBB96
:10054000F8B5AFF30080054600200C46102000BF30
:100550000646A819A0420DD9324669460020AFF3DD
:100560000080070008BF00F079FB0098A04218BF88
:100570000546C419FFF7C8FF05600746F01D20F0C7
:1005800007004619284600F00AF8B44208BFF8BD33
:10059000A21B31463868BDE8F84000F031BA0021AE
:1005A0000160C0E9011070471020704770472DE9C5
:1005B000FF4F0C461E464FF0FF378BB0D2E90001CB
:1005C000DDF860800A908A46C1F30A5505B93D46B8
:1005D000002108464FF00000BAF1000F00F440007F
:1005E00005DA00EB80004FF4400101EA50004FEAC9
:1005F0009059B9F1010F00DDB9460A9850EA4A0056
:100600000ED044F61050A5F2FF3545432F14B8F133
:10061000000F1ED07542291E1EDDC9F100021CE02C
:10062000B8F1010F4FF0000001D0302103E0F24398
:1006300005E02154401CB042FBDB30460022002183
:1006400021540B99C1F80880C1E900200FB0BDE822
:10065000F08FBD1B6D1CDEE74A4600DA694206A832
:1006600000F086FA06AB93E8070003AB83E80700C7
:1006700050460A9900F0ADFB8DE80700A0F5005048
:100680001F3800900398002D0ADD42F21F014A46F0
:100690000844002303A90390684600F016FE09E011
:1006A000A0F500504A461F38002303A9039068466E
:1006B00000F020FE8DE807000004000C03D04FF08E
:1006C000FF30410800E01046B8F1000F03D00022CF
:1006D000009215461EE0751E05D400F0ABF93032CD
:1006E00062556D1EF9D5B3460122084302D000229F
:1006F0007F1C04E02078302801D100227F1E002AD0
:10070000099784D01DE0112D07DA00F093F93032FB
:1007100062556D1C50EA0102F5D1084302D00098E1
:10072000C8B10EE00021681E05E0235C625C6354E2
:100730002254401E491C8142F7DBAB46A81B401ED9
:100740000990002004F80B000B98099AC0F8088063
:10075000C0E9002B7AE711264FF0000857E72DE992
:10076000F04F88460446D21D22F0070191B0D1E92E
:100770000001CDE90A0102F06BFC02460B98C00FA4
:1007800001D02D2007E02068810701D52B2002E051
:10079000202101EAC000032A099001D0072A05DBC5
:1007A00003464146204600F0A3F90BE1207880067D
:1007B00001D5E06900E00620B8F1650F814606D05A
:1007C000B8F1660F18D0B8F1670F70D131E0002092
:1007D000B9F1110F009001DB112301E009F10103D0
:1007E0000AAA01A90CA8FFF7E2FEDDE90C700026B9
:1007F00009F10105834647E001204B4600904FF088
:1008000000470AAA01A90CA8FFF7D1FEDDE90DB047
:100810000C995D46002610B909F101000D18B9EBDD
:10082000050003D4C0F1FF3609F10105A5EB09006D
:100830002BE0B9F1010F01DA4FF001090020B9F105
:10084000110F0090484601DD112300E003460AAA7B
:1008500001A90CA8FFF7ABFEDDE90C704D460026A0
:100860008346207800070AD4AB4500DA5D4601A82C
:10087000012D04DD411911F8011C302907D04F4525
:1008800002DA17F1040F04DA012082460FE06D1E30
:10089000EEE7002F02DCED1B3E4403E0781CA8428B
:1008A00000DD7D1CB81B00F1010A4FF000472078E5
:1008B000000703D4AA4501DB4FF0FF3A0021B7F14E
:1008C000004F0DF143088DF8431024D002202B2354
:1008D000002F01DA7F422D230A21021EA0F1010020
:1008E00000DC5FB197FBF1FC97FBF1F201FB1C7C94
:1008F00017460CF1300C08F801CDEEE7A8F1010025
:1009000003702188090501D5452100E06521A0F18A
:10091000010800F8011C09980FA9A1EB0807FF1DA9
:1009200000B10120411901EBEA70A1693844081AAD
:10093000401EA0612078C00602D42046AFF300809C
:10094000099828B1D4E901219047206A401C20620F
:100950002078C00622D52046AFF300801EE0002E8E
:1009600004DBB34502DD01A8805D00E03020D4E95E
:1009700001219047206A401C2062761CAAF10100E8
:100980005FEA000A0AD100F037F8C0680168405CED
:10099000D4E901219047206A401C2062281EA5F15D
:1009A0000105DCDC07E0D4E9012118F8010B9047D0
:1009B000206A401C2062381EA7F10107F3DC2046A4
:1009C000AFF30080032011B041E60000074B70B583
:1009D0000D467B4400F079F80446284600F03AF9C9
:1009E00010B14FF0FF3070BD204670BD532700009E
:1009F000004870478001002000487047A001002097
:100A0000034640688C46002818BF88423CBF034616
:100A10004068F8D318681844884207D00CF10300E6
:100A200020F00700001D411A521A0146081D0A60F5
:100A3000FFF760BC30B5B0F10A024FEA900E71F1D9
:100A400000034EEA817EB0EB0E0061EB91014FEAAC
:100A5000101E4EEA017E10EB0E0041EB11114FEA21
:100A6000102E4EEA016E10EB0E0041EB11214FEA01
:100A7000104E4EEA014E10EB0E0041EB11414018B2
:100A800041F100014FEAD00040EA41704FEAD10144
:100A900010EB80054FEA810444EA907444EB0104B2
:100AA0006D1944EB0404521BA3414FF0000348BFEF
:100AB0000A3200D530BD401C41F1000130BD0000BC
:100AC00001694A1C02610878704700B58FB0CDE912
:100AD00001310021059105497944CDE90310114602
:100AE0006846FFF7B1FC0FB000BD0000E5FFFFFF57
:100AF0002DE9F0411F46044603260168072A01F448
:100B0000006004DB08B116A505E016A503E008B1F6
:100B100015A500E015A521F010002060A069C01EF9
:100B2000A0610FB1401EA0612046AFF300804FB11D
:100B3000D4E9012138469047206A401C2062C01C3D
:100B4000206206E0206AFAE7D4E9012115F8010BDA
:100B50009047761EF8D22046AFF30080BDE8F081C2
:100B60004E414E006E616E00494E4600696E660051
:100B70002DE9F047814616468AB0354878440DC8BD
:100B80008DE80D0032487844801C03AC0DC884E821
:100B90000D0041F69B300844372190FBF1F290FBA9
:100BA000F1F5A5F1800501FB12041B3C02D564425E
:100BB000012000E00020DFF898A080460027FA44DA
:100BC000AAF1BE0A0EE0E0070AD03246684607EBFB
:100BD000470101230AEB810100F08CFB8DE807003F
:100BE00064107F1C002CEED1194F7F44AE3F19E0FA
:100BF000E80715D007EB04100DF1180A90E80E0075
:100C00008AE80E00C068F04201D198190890324677
:100C1000012306A903A800F06DFB03AB83E80700DE
:100C20006D10641C002DE3D14FF00103324669467C
:100C3000B8F1000F03A802D000F047FB01E000F07C
:100C400059FBC9E90001C9F808200AB0BDE8F087DE
:100C500024330000007B00F08000704710B500F0E6
:100C600037F8BDE8104000F02EB87546FFF7C0FE1B
:100C7000AE4605006946534620F00700854618B089
:100C800020B5FFF7F5FABDE820404FF000064FF021
:100C900000074FF000084FF0000B21F00701AC46B1
:100CA000ACE8C009ACE8C009ACE8C009ACE8C009D0
:100CB0008D46704710B50446AFF300802046BDE86E
:100CC0001040FFF7BBBA002801D002F0F5B9704719
:100CD00010B5012805D0002103A000F061F8012023
:100CE00010BD09A1F8E7000053494752544D454D46
:100CF0003A204F7574206F662068656170206D65BD
:100D00006D6F7279000000003A2048656170206DB7
:100D1000656D6F727920636F7272757074656400AF
:100D20004FF0013C50F8042B51F8043B9A4221D17A
:100D3000A2EB0C03934313EACC1317D150F8042B06
:100D400051F8043B9A4215D1A2EB0C03934313EAEA
:100D5000CC130BD150F8042B51F8043B9A4209D123
:100D6000A2EB0C03934313EACC13DBD04FF000004B
:100D7000704700BFD01A01BAB1FA81F101F0180131
:100D800022FA01F0CB40C1F12001DBB2C0B2C01A9F
:100D90002CFA01F3D11A914311EAC311E6D170473D
:100DA00070B505460C460A2000E06D1C02F086F97D
:100DB00035B128780028F8D102E0641C02F07EF9F1
:100DC00014B120780028F8D1BDE870400A2002F064
:100DD00075B95FEA400C08BF91F0000F4FEA8C2311
:100DE0004FEAC12243EA51514FEA1C5018BF00F5A7
:100DF000F0404FEA300018BF41F000415FEA6C5C00
:100E000000F02980BCF1FF3F08BF40F080407047F0
:100E1000130C06BF12044FF0100C4FF0000C130E11
:100E200004BF12020CF1080C130F04BF12010CF1E5
:100E3000040C930F04BF92000CF1020CD30F04BFFB
:100E400052000CF1010C11464FF00002A0F11F00FE
:100E5000A0EB0C00704711F0004F08BF704731F055
:100E600000413FF4D5AF0B0C06BF09044FF0100C46
:100E70004FF0000C0B0E04BF09020CF1080C0B0F15
:100E800004BF09010CF1040C8B0F04BF89000CF1A5
:100E9000020CCB0F04BF49000CF1010CCCF1200374
:100EA000A0EB0C0022FA03F302FA0CF241EA030170
:100EB00000F10100704720F07F4C80EA030023F02E
:100EC0007F47ACEB070303F57C5300F0004003F1D0
:100ED000FF032DE980494FEA154B09B44FEA14434B
:100EE00025EA0B4E24EA03480FF2042606EB1327EB
:100EF00049083E785FEA320203FB0667C7F5000740
:100F000007FB06F64FEA54374FEAD64606F10206CB
:100F100007FB066CCCF1005C4FEA1C472CEA074C3F
:100F200007FB06F40CFB06F504EB15464FEA961694
:100F300034BF00204FF000404FEAD13706FB07FCDA
:100F40004FEA1C4C0CFB0BF7D21B03FB0CF761EBBD
:100F500007010CFB0EF7B0EB074072EB17420CFBDE
:100F600008F734BFA2EB0742B2EB074261EB17412F
:100F70004FEA0C444FEA910706FB07FC4FEA1C4C72
:100F80000CFB0BF7B0EBC74072EB573203FB0CF7CF
:100F900034BFA2EBC742B2EBC74261EB57310CFB47
:100FA0000EF7B0EBC70072EB57720CFB08F734BFBB
:100FB000A2EBC702B2EBC70261EB5771039F4FEA86
:100FC000816141EA921104EBCC044FEAD1374FEA38
:100FD000826206FB07FC42EA90124FEA80604FEA09
:100FE0001C4C0CFB0BF7D21B03FB0CF761EB07014E
:100FF0000CFB0EF7B0EB074072EB17420CFB08F747
:1010000034BFA2EB0742B2EB074261EB17414FEA54
:101010008C554FEA910704EB9C2406FB07FC4FEA32
:101020001C4C0CFB0BF7B0EBC74072EB573203FBC9
:101030000CF734BFA2EBC742B2EBC74261EB5731AA
:101040000CFB0EF7B0EBC70072EB57720CFB08F706
:1010500034BFA2EBC702B2EBC70261EB577115EBCD
:101060004C254FEA816141EA92114FEA82624FEAD0
:10107000D13742EA901206FB07FC44F100044FEA24
:1010800080604FEA1C4C0CFB0BF7D21B03FB0CF7E8
:1010900061EB07010CFB0EF7B0EB074072EB174258
:1010A0000CFB08F734BFA2EB0742B2EB074261EB3F
:1010B000174115EB1C154FEA813141EA92414FEA85
:1010C000823242EA90424FEA80304FEA0C7644F195
:1010D000000448EA03434EEA0B484FF0000EB2EB1F
:1010E000080C71EB030724BF624639464EEB0E0E27
:1010F0004FF0000B0018524149414BEB0B0BB2EB88
:10110000080C71EB03077BF1000B24BF62463946E4
:101110004EEB0E0E4FF0000B0018524149414BEBC5
:101120000B0BB2EB080C71EB03077BF1000B24BF38
:10113000624639464EEB0E0E51EA020718BF46F0E2
:10114000010616EB0E7655F1000254F1000103D5AD
:10115000BDE88901BDE80088BDE88901BDE8004817
:10116000B619524141EB0101A3F1010370478080A0
:101170007F7E7D7C7B7A79787776767574737271F1
:1011800071706F6E6E6D6C6C6B6A6A6968686766A9
:1011900066656464636362616160605F5F5E5E5D3B
:1011A0005D5C5C5B5B5A5A595958585757565655AF
:1011B00055555454535352525251515050504F4F11
:1011C0004F4E4E4D4D4D4C4C4C4B4B4B4A4A4A4961
:1011D00049494848484747474746464645454544A4
:1011E0004444444343434342424242414141002B31
:1011F0009C4630D477002BD01CB54FEA370703B498
:101200004FF010004FF01001BAF1000F06D0BCF102
:10121000000FDCBF40F0080040F008014FF0000074
:101220000FBCBDE810400BF1010BBBF1010F08BF73
:101230005FEA170722BF12F1010211F101014FF01D
:10124000004143F1000300F0004043EA0000704712
:10125000F9D35708D0E746EA064613F1400F4FEAA4
:1012600016461FDD13F1200FDFBF16430A4600218B
:1012700020335B42BED0C3F1200746EA064602FA9D
:1012800007F74FEA164646EA0706C3F1200722FA97
:1012900003F201FA07F721FA03F14FF0000342EAE3
:1012A0000702A7E746EA020646EA06464FEA16465E
:1012B00046EA0106BCBF46EA0646360C4FF000037C
:1012C0004FF000024FF0000194E72DE9804C9A4660
:1012D000934670B491E8380007C831EA400C48BF23
:1012E00034EA430C03D5FFF7E6FDFFF780FFF0BCBF
:1012F000BDE8008C2DE9804C9A46934670B491E885
:10130000380007C810F0804F08BF13F0804F03D19A
:1013100000F005F8FFF76BFFF0BCBDE8008C20F093
:101320007F4780EA030023F07F4C07EB0C03A3F513
:101330007C5300F00040A3F1FE0392F0000F00F098
:10134000B38095F0000F00F077802DE901494FEA56
:1013500011404FEA144621EA004800FB06FC24EA4B
:10136000064708FB06F607FB08F800FB07F718EB33
:1013700006484CEB164C4FEA124B18EB07484FEA65
:1013800015464CEB174022EA0B4E0BFB06FC25EAF8
:1013900006470EFB06F607FB0EFE0BFB07F71EEBE0
:1013A000064E4CEB164C4FF000061EEB074E4CEB76
:1013B000174B18EB0B0840F1000018EB0E0B58EB25
:1013C000000840F100008F1A4FF000013CBFC943F4
:1013D000661B14BFB5EB040C00213CBFC943F61BD0
:1013E0004FEA17444EEA8E0E27EA04454FEA1C479F
:1013F00004FB07622CEA074C05FB07F70CFB05F61C
:1014000004FB0CFC16EB074642EB174216EB0C46AE
:1014100042EB1C421BEB060658EB0202414146EA36
:101420009E0601D5BDE80189B619524141EB010183
:10143000A3F10103BDE801894FEA14454FEA1147C2
:1014400024EA054621EA074C05FB07F406FB07F7EB
:101450000CFB06F105FB0CFC11EB074144EB1744B8
:101460004FEA124711EB0C4144EB1C4422EA074CB3
:1014700005FB07F206FB07F70CFB06F605FB0CFC69
:1014800016EB074642EB174216EB0C4642EB1C45A7
:101490006A1854F1000148BF7047B619524141EB38
:1014A0000101A3F10103704795F0000F37D04FEA17
:1014B00011424FEA144721EA024624EA074C02FB94
:1014C00007F106FB07F70CFB06F402FB0CFC14EB20
:1014D000074441EB17414FEA154714EB0C4441EB2D
:1014E0001C4125EA074C02FB07F506FB07F70CFB3E
:1014F00006F602FB0CFC16EB074645EB174516EB10
:101500000C4645EB1C42121951F1000148BF7047CF
:10151000B619524141EB0101A3F1010370474FEAB3
:1015200014454FEA114724EA054621EA074C05FB1A
:1015300007F106FB07F70CFB06F24FF0000605FB70
:101540000CFC12EB074241EB174112EB0C4251EB42
:101550001C4148BF7047921841EB0101A3F1010300
:10156000704700BFFEE7704770B50446A56D00F0F8
:101570006DF9064694F83500022808D08020606591
:1015800000BF002084F8340000BF012070BD206837
:10159000006820F01600216808602068406920F08B
:1015A000800021684861206C08B9A06C28B12068CF
:1015B000006820F00800216808602068006820F0BA
:1015C0000100216808600FE000F040F9801B052849
:1015D0000AD92020606500BF002084F8340000BFD5
:1015E000032084F83500D1E72068006800F001008E
:1015F0000028E9D194F85C103F208840A86000BF23
:10160000002084F8340000BF012084F83500002059
:10161000BCE7014691F83500022803D080204865D8
:1016200001207047052081F835000868006820F027
:1016300001000A6810600020F3E70000F8B50246D8
:101640000B460025002400200021DEE0012606FADA
:1016500001F51E6806EA0504AC4275D11E7906F054
:101660000306012E04D01E7906F00306022E13D1C4
:1016700090684F000326BE40B0434F00DE68BE4076
:1016800030439060506801268E40B0431E79C6F307
:1016900000168E40304350601E7906F00306032E7C
:1016A00009D0D0684F000326BE40B0434F009E686B
:1016B000BE403043D0601E7906F00306022E13D1DF
:1016C000CF0802F1200656F827004E07F70E0F2626
:1016D000BE40B0434F07FF0E1E69BE403043CF08E7
:1016E00002F1200646F8270010684F000326BE408E
:1016F000B0431E7906F003064F00BE403043106031
:101700005E6806F08056B6F1805F7DD100BF00268E
:101710000096404E366846F480463E4F3E603E4658
:10172000366806F48046009600BF00BF3A4E8F0828
:1017300056F827008E07370F0F26BE40B043374EAE
:10174000B24202D1002624E05EE0354EB24201D121
:1017500001261EE0334EB24201D1022619E0324E7C
:10176000B24201D1032614E0304EB24201D1042628
:101770000FE02F4EB24201D105260AE02D4EB242B3
:1017800001D1062605E02C4EB24201D1072600E029
:1017900008268F073F0FBE4030431F4E8F0846F884
:1017A0002700264E3068A0435E6806F48036B6F502
:1017B000803F00D12043214E3060361D3068A04369
:1017C0005E6806F40036B6F5003F00D120431B4E9C
:1017D000361D3060361D3068A0435E6806F4801602
:1017E000B6F5801F00D12043144E08363060361DF8
:1017F0003068A0435E6806F40016B6F5001F00D1FD
:1018000020430E4E0C363060491C1029FFF41EAFE9
:10181000F8BD000044380240083801400000024092
:101820000004024000080240000C02400010024088
:101830000014024000180240001C0240003C01401D
:101840000AB1816101E00B048361704701480068BF
:101850007047000010000020034800680349097821
:10186000084401490860704710000020180000205B
:1018700010B50D48006840F400700B490860084638
:10188000006840F4806008600846006840F480709A
:101890000860032000F080F80F2000F007F800F047
:1018A0002BF8002010BD0000003C024070B504463B
:1018B0000E4800784FF47A71B1FBF0F00C490968DA
:1018C000B1FBF0F5284600F04EFE08B1012070BDD6
:1018D000102C07D200222146501E00F01EF80548A9
:1018E000046001E00120F2E70020F0E7180000208A
:1018F0000000002014000020704701460846002820
:1019000009DB00F01F0301229A4043099B0003F109
:10191000E023C3F8002100BF70472DE9F05F804647
:101920000D461646002701F0ABFB074639462A460E
:10193000334601F00700C0F1070ABAF1040F02D9DB
:101940004FF0040A01E0C0F1070AD14600F1040A91
:10195000BAF1070F02D24FF0000A01E0A0F1030A2A
:10196000D4464FF0010A0AFA09FAAAF1010A0AEA72
:10197000020A0AFA0CFA4FF0010B0BFA0CFBABF15E
:10198000010B0BEA030B4AEA0B042146404601F027
:101990007FFBBDE8F09F000000BF00F00702064B90
:1019A00019684FF6FF031940044B0B4343EA022129
:1019B000014B196000BF70470CED00E00000FA0514
:1019C00070B504460D460CB9012070BD584800683A
:1019D00000F00700A84209D255490D70084600687A
:1019E00000F00700A84201D00120EEE7207800F0C7
:1019F000020002281DD1207800F00400042805D13F
:101A00004C48006840F4E0504A490860207800F0F3
:101A10000800082805D14748006840F4604045495F
:101A200008604448006820F0F000A168084341497C
:101A30000860207800F00100A8B36068012807D191
:101A40003C4808380068C0F34040B8B90120BCE702
:101A50006068022802D06068032807D1354808383A
:101A60000068C0F3406048B90120AEE7314808384B
:101A70000068C0F3400008B90120A6E72D480068BF
:101A800020F00300616808432A490860FFF7DEFE82
:101A9000064609E0FFF7DAFE801B41F288318842F2
:101AA00002D9032091E707E02248006800F00C000B
:101AB0006168B0EB810FEDD11D48006800F00700B0
:101AC000A84209D91A490D700846006800F00700BD
:101AD000A84201D0012078E7207800F00400042813
:101AE00007D11448006820F4E050E1680843114928
:101AF0000860207800F00800082808D10D48006828
:101B000020F46040216940EAC1000A49086000F001
:101B10003FF808490968C1F30311074A515CC840FE
:101B20000649086006480068FFF7C0FE00204CE741
:101B3000003C0240083802400E3E00080000002031
:101B400014000020014800687047000000000020D9
:101B500000B5FFF7F7FF04490968C1F38221034A82
:101B6000515CC84000BD0000083802401E3E00081D
:101B700000B5FFF7E7FF04490968C1F34231034AA2
:101B8000515CC84000BD0000083802401E3E0008FD
:101B90002DE9F047002400250026A14625480068CD
:101BA00000F00C0020B1042805D008283AD105E047
:101BB000DFF8849039E0DFF8849036E01D48001F9C
:101BC000006800F03F041B48001F006800F480001C
:101BD00078B11A481749091F0968C1F38811A0FB99
:101BE00001700146224600233846FEF7AAFB05464F
:101BF0000EE011480F49091F0968C1F38811A0FBC5
:101C000001700146224600233846FEF79AFB05463E
:101C10000848001F0068C0F30140401C4600B5FBA7
:101C2000F6F902E0DFF8109000BF00BF4846BDE8BB
:101C3000F0870000083802400024F40000127A0007
:101C4000F8B504460CB90120F8BD207800F0010079
:101C5000002874D0F948006800F00C0004280DD06A
:101C6000F648006800F00C00082813D1F348001F64
:101C7000006800F48000B0F5800F0BD1EF48083801
:101C80000068C0F34040002859D06068002856D151
:101C90000120D9E700BF6068B0F5803F08D1E74870
:101CA0000838006840F48030E449083908601EE0D4
:101CB0006068B0F5A02F0DD1E0480838006840F406
:101CC0008020DE49083908600846006840F480300A
:101CD00008600CE0D9480838006820F48030D74903
:101CE000083908600846006820F48020086000BFBA
:101CF000606890B1FFF7AAFD054606E0FFF7A6FD74
:101D0000401B642801D903209EE7CC4808380068AE
:101D1000C0F340400028F1D011E0FFF797FD0546E1
:101D200006E0FFF793FD401B642801D903208BE7F1
:101D3000C24808380068C0F340400028F1D120783C
:101D400000F0020002285FD1BC48006800F00C00DF
:101D500058B1BA48006800F00C0008281CD1B748F8
:101D6000001F006800F48000B0B9B448083800686B
:101D7000C0F3400020B1E068012801D0012063E7F2
:101D8000AE480838006820F0F800216940EAC10038
:101D9000AA490839086037E0E06800B30120A84983
:101DA0000860FFF753FD054606E0FFF74FFD401BB7
:101DB000022801D9032047E7A04808380068C0F38B
:101DC00040000028F1D09D480838006820F0F80055
:101DD000216940EAC10099490839086014E00020EF
:101DE00097490860FFF732FD054606E0FFF72EFD34
:101DF000401B022801D9032026E7904808380068D4
:101E0000C0F340000028F1D1207800F00800082835
:101E10002CD16069A8B101208A490860FFF716FD3E
:101E2000054606E0FFF712FD401B022801D90320FA
:101E30000AE782486C300068C0F340000028F1D007
:101E400014E000207F490860FFF700FD054606E02A
:101E5000FFF7FCFC401B022801D90320F4E6774879
:101E60006C300068C0F340000028F1D1207800F009
:101E70000400042870D1002770483830006800F052
:101E8000805090B900BF002000906C483830006846
:101E900040F080506949383108600846006800F019
:101EA0008050009000BF00BF01276748006800F421
:101EB0008070B0B96448006840F48070624908607E
:101EC000FFF7C4FC054606E0FFF7C0FC401B0228F4
:101ED00001D90320B8E65C48006800F4807000284F
:101EE000F2D000BFA068012808D1544868300068CB
:101EF00040F001005149683108601DE0A0680528E4
:101F00000DD14E486830006840F004004B496831FC
:101F100008600846006840F0010008600CE047488F
:101F20006830006820F001004449683108600846C4
:101F3000006820F00400086000BFA068A8B1FFF7A7
:101F400085FC054609E0FFF781FC401B41F2883122
:101F5000884202D9032077E626E0384868300068D6
:101F6000C0F340000028EED013E0FFF76FFC0546F9
:101F700008E0FFF76BFC401B41F28831884201D931
:101F8000032061E62D4868300068C0F34000002857
:101F9000EFD1012F07D129483830006820F0805058
:101FA00026493831086000BFA069002845D0234881
:101FB000006800F00C0008285DD0A069022845D117
:101FC00000201F490866FFF741FC054606E0FFF7C1
:101FD0003DFC401B022801D9032035E6174808388C
:101FE0000068C0F340600028F1D1D4E9070108433C
:101FF000616A40EA81110122A06AC2EB500041EA05
:1020000000412C20005D41EA00600C49091F086076
:1020100001200B490866FFF719FC054606E0FFF7AB
:1020200015FC401B022801D903200DE6034808389F
:102030000068C0F340600028F1D049E00838024051
:1020400000004742800E47420070004000202149B6
:102050000866FFF7FBFB054606E0FFF7F7FB401BB2
:10206000022801D90320EFE51B480068C0F3406057
:102070000028F2D12CE0A069012800D1E4E516483F
:10208000001D0668A069012820D006F48001E069DF
:1020900081421BD106F03F01206A814216D147F6EA
:1020A000C0703040616AB0EB811F0FD106F440313F
:1020B0000122A06AC2EB5000B1EB004F06D106F03E
:1020C00070612C20005DB1EB006F01D00120BBE5F9
:1020D0000020B9E5000047420038024010B5044630
:1020E0000CB9012010BD606A38B96068B0F5827F14
:1020F00000D105E00021E16102E000212161616180
:10210000A06AB0F5005F00D100BF94F8510028B973
:10211000002084F85000204600F050F8022084F897
:1021200051002068006820F0400021680860A08805
:1021300000F48270218901F404410843A18901F46B
:1021400000610843217C01F002010843217D01F078
:1021500001010843218B01F400710843217F01F044
:10216000380108432021095D01F080010843218DD9
:1021700001F400510843216808600421A06901EAC4
:10218000104094F8241001F01001084321684860C1
:10219000A06AB0F5005F03D1A08D80B2216808610C
:1021A0002068C06920F400602168C8610020606573
:1021B000012084F85100002094E7000010B586B09B
:1021C000044630492068884259D100BF0020009061
:1021D0002D48006840F480402B490860084600689C
:1021E00000F48040009000BF00BF00BF00200090BE
:1021F00025481038006840F0040023491039086071
:102200000846006800F00400009000BF00BF00BF57
:10221000002000900846006840F002000860084670
:10222000006800F00200009000BF00BF0420019091
:1022300002200290052005900120039001A9134877
:10224000FFF7FCF90820019002200290032004907F
:10225000012003900520059001A90C48FFF7EEF935
:102260004FF480600190022002900320049001202E
:1022700003900520059001A90548FFF7DFF906B096
:1022800010BD000000380040403802400008024005
:10229000000402402DE9F04F85B00446884691467F
:1022A0001D460E9E00200490012002900020019007
:1022B00000BF94F85000012803D1022005B0BDE80A
:1022C000F08F012084F8500000BFFFF7BFFA0746E7
:1022D00094F851B060680390AA46BBF1010F0BD08F
:1022E0000398B0F5827F04D1A06810B9BBF1040F48
:1022F00002D0022001902CE1B8F1000F03D0B9F117
:10230000000F00D015B90120019022E194F851008E
:10231000042802D0052084F8510000206065C4F82C
:102320003890E587A587C4F83080E586A5862064C7
:102330006064A06AB0F5005F0DD100BF206800683E
:1023400020F40050216808602068006840F40050C4
:102350002168086000BF2068006800F04000402845
:1023600005D02068006840F0400021680860E068FF
:10237000B0F5006F56D1606810B1BAF1010F09D104
:10238000206B00882168C860206B801C2063E08E71
:10239000401EE0863FE02068806800F002000228CE
:1023A0001CD1E08ED0B10298012817D1206B008893
:1023B0002168C860206B801C2063E08E401EE08690
:1023C00000200290E08E48B9A06AB0F5005F05D108
:1023D0002068006840F480502168086020688068A8
:1023E00000F0010068B1E08F58B12068C068A16BAF
:1023F0000880A06B801CA063E08F401EE087012056
:102400000290FFF723FAC01BB04204D3701C10B136
:10241000032001909DE0E08E0028BCD1E08F0028D1
:10242000B9D156E0606810B1BAF1010F09D1206B43
:10243000007821680873206B401C2063E08E401EEA
:10244000E08640E02068806800F0020002281CD18D
:10245000E08ED0B10298012817D1206B0078216856
:102460000873206B401C2063E08E401EE086002035
:102470000290E08E48B9A06AB0F5005F05D12068EF
:10248000006840F48050216808602068806800F08F
:10249000010068B1E08F58B12068C068A16B087076
:1024A000A06B401CA063E08F401EE08701200290DB
:1024B000FFF7CCF9C01BB04201D3701C00B916B9AC
:1024C0000320019045E0E08E0028BBD1E08F00287A
:1024D000B8D1A06AB0F5005F12D13346012211468F
:1024E0002046009700F030FB30B1606D40F00200F4
:1024F0006065032001902CE02068C068049000BF54
:102500002068806800F01000102809D1606D40F04C
:10251000020060654FF6EF7021688860012001902D
:102520003A463146204600F0D9FA20B10120019008
:10253000202060650DE0A06850B900BF0020009029
:102540002068C068009020688068009000BF00BFCD
:1025500000BF012084F8510000BF002084F8500023
:1025600000BF0198AAE670B504462546681EB0F182
:10257000807F01D301200FE0681E4FF0E021486109
:102580000F214FF0FF3000F083FD00204FF0E021DD
:10259000886107200861002070BD70477047000007
:1025A0002DE9F84F0446206805682068C668206851
:1025B00047694FF00009CA4605F00F09B9F1000F4D
:1025C0000AD105F0200038B106F0200020B12046E5
:1025D00000F06BFBBDE8F88FB9F1000F72D007F087
:1025E000010018B906F4907000286BD005F00100C6
:1025F00030B106F4807018B1206C40F00100206406
:1026000005F0040030B107F0010018B1206C40F073
:102610000200206405F0020030B107F0010018B19B
:10262000206C40F00400206405F0080048B106F07A
:10263000200010B907F0010018B1206C40F008002C
:102640002064206C70B305F0200028B106F0200053
:1026500010B1204600F029FB20684069C0F3801AC1
:10266000206C00F0080010B9BAF1000F23D020460A
:1026700000F0F0FA2068406900F04000402816D1D0
:102680002068406920F0400021684861A06B50B18B
:102690005648A16B0865A06BFEF7BBFF10B1A06B9D
:1026A000016D88470CE02046FFF778FF08E02046E0
:1026B000FFF774FF04E02046FFF770FF002020645E
:1026C00088E7FFE7206B012879D105F0100000288A
:1026D00075D006F01000002871D000BF00200090D7
:1026E00020680068009020684068009000BF00BF2C
:1026F0002068406900F04000402839D1A06B006894
:1027000040681FFA80F8B8F1000F30D0A08D404526
:102710002DDDA4F82E80A06BC069B0F5807F1FD09E
:102720002068C06820F480702168C8602068406913
:1027300020F00100216848612068406920F04000D5
:1027400021684861202084F83E0000202063206832
:10275000C06820F010002168C860A06BFEF704FF7D
:10276000A08DE28D801A81B22046FFF716FF31E777
:10277000A08DE18D401A1FFA80F8E08DE8B1B8F124
:10278000000F1AD02068C06820F490702168C860DB
:102790002068406920F0010021684861202084F809
:1027A0003E00002020632068C06820F010002168EF
:1027B000C86041462046FFF7F0FE0BE7FFE705F053
:1027C000800030B106F0800018B1204600F005FC12
:1027D00000E705F0400030B106F0400018B1204697
:1027E00000F053FAF6E600BFF4E60000412C0008C2
:1027F00010B504460CB9012010BDA06900B100E07D
:1028000000BF94F83D0028B9002084F83C00204621
:1028100000F028F8242084F83D002068C06820F4E7
:1028200000502168C860204600F09EFA20680069C8
:1028300020F49040216808612068406920F02A0057
:10284000216848612068C06840F400502168C86071
:1028500000202064202084F83D0084F83E00002001
:10286000CAE7000010B586B004462E4920688842A9
:1028700055D100BF00BF002000902B48006840F0F9
:102880001000294908600846006800F01000009018
:1028900000BF00BF00BF00BF00BF00200090224863
:1028A0001438006840F001001F49143908600846D8
:1028B000006800F00100009000BF00BF00BF00BF33
:1028C00000BF002000900846006840F0010008604A
:1028D0000846006800F00100009000BF00BF00BF84
:1028E00048150190022002900120039002200490DC
:1028F0000720059001A90D48FEF7A0FE4FF4806067
:1029000001900720059001A90848FEF797FE2520B1
:10291000FEF7F3FF032211462520FEF7FEFF06B067
:1029200010BD000000100140443802400000024089
:1029300070B504460D46164694F83E00202816D180
:1029400005B10EB9012070BD00BF94F83C0001280C
:1029500001D10220F7E7012084F83C0000BF0020ED
:10296000206332462946204600F014FBEBE70220A4
:10297000E9E7000010B504462049206888423BD1B1
:102980001F48008800F4004088BB1D48008800F400
:10299000804070B11B4800780A2803D000201849F5
:1029A000088024E01648008840F40040144908805C
:1029B0001DE0144800780D2806D11148008840F425
:1029C00080400F49088012E00E4800780C490988C1
:1029D000C1F30D010C4A505409480088401C0849B5
:1029E000088008460088C72801DD002008800122F1
:1029F00004490648FFF79CFF10BD0000001001408D
:102A00000C0000200E000020740000203C0100207B
:102A1000704700BFFEE700BFFEE770477047000049
:102A20002DE9FC5F80468A4615461E46701C1FFA3B
:102A300080F9CB465846FDF72EFC0446CDF80490AD
:102A40000198FDF728FC07465DB148F08000207032
:102A5000012003E0FF212154411C88B2B042F9DD7E
:102A600004E008F07F00207084F801A000BF00227D
:102A700080211848FEF7E4FE00BF4FF47A704B4601
:102A80003A46214600901448FFF704FC40B138460E
:102A9000FDF730FC2046FDF72DFC0120BDE8FC9F32
:102AA00000BF012280210B48FEF7CAFE00BF45B1DE
:102AB000002004E0411C795C2954411C88B2B042DA
:102AC000F8DB3846FDF716FC2046FDF713FC002026
:102AD000E4E70000001002401C0000207CB5044622
:102AE0000D461646164800681821B0FBF1F015494E
:102AF000B0FBF1F04FF47A71484301906068B0F593
:102B0000827F0DD12B46002280212046009600F0C6
:102B10001BF898B1606D40F02000606503207CBD1B
:102B200000BF019800B908E00198401E019020689C
:102B30008068C0F3C0100028F3D100BF0020EEE78A
:102B40000000002040420F002DE9F84F04460D46DA
:102B500090461E46DDF82890FEF778FEA0EB0900AF
:102B6000371AFEF773FE82462C480068C0F3CB305C
:102B70007843009045E0701C002842D0FEF766FEC6
:102B8000A0EB0A00B84200D2A7BB2068406820F042
:102B9000E000216848606068B0F5827F0DD1A068D0
:102BA000B0F5004F03D0A068B0F5806F05D1206864
:102BB000006820F0400021680860A06AB0F5005F5E
:102BC0000DD100BF2068006820F400502168086023
:102BD0002068006840F400502168086000BF0120B0
:102BE00084F8510000BF002084F8500000BF03208B
:102BF000BDE8F88FFFE7009800B900270098401E55
:102C00000090206880682840A84201D1012000E09F
:102C100000204045AFD10020EAE70000000000207E
:102C2000704710B5FEF718FE10BD0000034800689D
:102C300040F47000014908607047000088ED00E032
:102C400070B50546AC6B0020E085E0842046FFF7B8
:102C5000A5FC70BD0168C96821F490710268D1605B
:102C60000168496921F0010102685161016B012984
:102C700005D10168C96821F010010268D1602021E6
:102C800080F83E1000210163704710B504462068AB
:102C9000C06820F040002168C860202084F83D0012
:102CA0002046FFF7B5FE002010BD70B5044694F82D
:102CB0003E00222856D1A068B0F5805F0CD1206973
:102CC00050B90025A66A20684068C0F3080030802B
:102CD000A06A801CA06215E0A56A0026A068B0F575
:102CE000805F03D0A06828B9206918B920684068BF
:102CF000287004E02068406800F07F002870A06A17
:102D0000401CA062E08D401E80B2E08540BB206880
:102D1000C06820F020002168C8602068C06820F4E6
:102D200080702168C8602068406920F00100216837
:102D30004861202084F83E00206B01280AD12068D9
:102D4000C06820F010002168C860A18D2046FFF700
:102D500024FC02E02046FFF70DFE0020206370BD3A
:102D60000020FCE70220FAE72DE9F84F044620682E
:102D7000006920F44050E168084321680861216936
:102D8000A068084361690843E1690843009020682E
:102D9000C06849F20C618843009908432168C86003
:102DA0002068406920F44070A169084321684861A7
:102DB00076492068884203D075492068884203D14B
:102DC000FEF7D6FE814602E0FEF7C2FE8146E069CC
:102DD000B0F5004F6CD102206168A0FB01500346A2
:102DE0001920A9FB007001462A463846FDF7A9FACA
:102DF0006421B0FBF1F04FEA001A02206168A0FBE9
:102E000001510B461920A9FB00712A463846FDF7EF
:102E100098FA834602206168A0FB015003461920FE
:102E2000A9FB00712A463846FDF78BFA6421B0FBF6
:102E3000F1F000EBC00101EB0010ABEB80003221A0
:102E400001EBC0006421B0FBF1F000F0F8000AEBE8
:102E5000400A02206168A0FB015003461920A9FB2B
:102E6000007001462A463846FDF76BFA8346022079
:102E70006168A0FB015003461920A9FB00712A4696
:102E80003846FDF75EFA6421B0FBF1F000EBC001BB
:102E900001EB0010ABEB8000322101EBC00064219C
:102EA000B0FBF1F000F007005044216888606AE050
:102EB00004206168A0FB015003461920A9FB0070A3
:102EC00001462A463846FDF73CFA824604206168EE
:102ED000A0FB015003461920A9FB007001462A46B9
:102EE0003846FDF72EFA6421B0FBF1F000EBC0018B
:102EF00001EB0010AAEB8000322101EB00106421ED
:102F0000B0FBF1F000F0F00A04206168A0FB017052
:102F100003461920A9FB00513A462846FDF711FA4D
:102F20006421B0FBF1F00AEB001A04206168A0FBF9
:102F300001510B461920A9FB00712A463846FDF7BE
:102F400000FA834604206168A0FB01500346192063
:102F5000A9FB007001462A463846FDF7F2F96421C4
:102F6000B0FBF1F000EBC00101EB0010ABEB800017
:102F7000322101EB00106421B0FBF1F000F00F00F2
:102F8000504421688860BDE8F88F000000100140BF
:102F90000014014010B5034699629A85DA85002035
:102FA0001864222083F83E0000BF002083F83C0014
:102FB00000BF1868C06840F480701C68E060186842
:102FC000406940F001001C6860611868C06840F00A
:102FD00020001C68E060002010BD014691F83D0013
:102FE000212828D18868B0F5805F0BD1086948B9DD
:102FF0000A6A1088C0F308000B685860086A801CD1
:10300000086205E00B6A581C086218780B68586063
:10301000C88C401E80B2C88458B90868C06820F0C7
:1030200080000B68D8600868C06840F040000B68FA
:10303000D860002070470220FCE7000010B502486D
:10304000FFF7AEFA10BD00003C01002000BFFEE714
:1030500003B401984100009850EAC12018BF042031
:103060004A0D18BF40F0010040F2FF72B2EB515F11
:1030700008BF40F00200012808BF052002B07047D9
:1030800002480068C0F30220704700000CED00E029
:1030900010B5002804DB0A07130E054A135406E096
:1030A0000A07140E034A00F00F031B1FD45410BD6F
:1030B00000E400E018ED00E000BF704700BF70477B
:1030C00001490860704700000400002010B5044664
:1030D0004FF47A7104FB01F000F002F810BD00001B
:1030E00070B5034600224FF0E02675690D4E366834
:1030F00003FB06F44FF0E026B16910E04FF0E02644
:10310000B06988420BD0884202D20E1A324402E0E3
:103110002E1A0E4432440146A24200D300E0EDE7ED
:1031200000BF70BD0400002000BF054A126802F015
:103130004002002AF9D0C2B2014B5A607047000029
:103140000010014000B587B000F0A4F900BF0020D6
:1031500001901248006840F01000104908600846CD
:10316000006800F01000019000BF00BF142102A809
:10317000FDF79EF980200290012003900320059026
:1031800002A90748FEF75AFA00BF0122802104482D
:10319000FEF756FB00BF07B000BD0000303802400C
:1031A000001002402DE9F0472DED068B84B0044657
:1031B0000D4616461F46DDE9139ADDF848800020CB
:1031C00000900190029003900E236A4600211D207A
:1031D000FFF726FC9DF801109DF8002041EA02212E
:1031E00008B200F041FC41EC1A0B9FED480B53EC88
:1031F000102B00F0E1FA41EC190B9FED460B53EC5C
:10320000102B00F031FA41EC180B00F0FBF92060B4
:103210009DF803009DF8021040EA012000B200EE84
:10322000100AB8EEC00ADFED3D0A80EE201A85EDE7
:10323000001A9DF805009DF8041040EA012000B234
:1032400000EE100AB8EEC00ADFED340A80EE201A54
:1032500086ED001A9DF807009DF8061040EA01204F
:1032600000B200EE100AB8EEC00ADFED2C0A80EEC4
:10327000201A87ED001A9DF809109DF8082041EAF0
:10328000022108B200F0F0FB41EC190B9FED240B7A
:1032900053EC102B00F090FA41EC180B00F0B2F94F
:1032A000C8F800009DF80B109DF80A2041EA0221A1
:1032B00008B200F0D9FB41EC190B9FED190B53EC50
:1032C000102B00F079FA41EC180B00F09BF9C9F8CB
:1032D00000009DF80D109DF80C2041EA022108B273
:1032E00000F0C2FB41EC190B9FED0D0B53EC102BC2
:1032F00000F062FA41EC180B00F084F9CAF8000003
:1033000004B0BDEC068BBDE8F08700008FC2F52845
:103310005C8F6040000000000000394000008046E3
:10332000FCA9F1D24D62504010B5FFF70BFF01230D
:10333000002211467620FFF773FB01230022194675
:103340001120FFF76DFB0120FFF7C0FE01230022D3
:1033500005211320FFF764FB0123002211461620EC
:10336000FFF75EFB012300220F214E20FFF758FBE1
:10337000C820FFF7B5FE0123002246214F20FFF7AA
:103380004FFB0123002266215020FFF749FB10BDAF
:103390002DED0E8B94B09FED380A8DED130A9FED45
:1033A000360A8DED120A9FED340A8DED110A9FED5C
:1033B000320A8DED100A9FED300A8DED0F0A9FED58
:1033C0002E0A8DED0E0A9FED2C0A8DED0D0AFEF7EB
:1033D0004FFA0723022208214FF4A87000F080F86A
:1033E000A820FFF76DFE4FF4E13000F0D9F8FFF7A9
:1033F0009BFF3FE00DA80EA90FAA10ABCDE900215D
:10340000029011AA12A913A8FFF7CCFE0D9800F0A4
:1034100081FC41EC1E0B0E9800F07CFC41EC180B7B
:103420000F9800F077FC41EC190B109800F072FC3B
:1034300041EC1A0B119800F06DFC41EC1B0B12983B
:1034400000F068FC41EC1C0B139800F063FC41ECAD
:103450001D0B8DED0AEB8DED088B8DED069B8DED33
:1034600004AB8DED02BB8DED00CB53EC1D2B03A007
:10347000FCF7DEFFBEE700000000000025662C25FB
:10348000662C25662C25662C25662C25662C256643
:103490000D0A000010B51048104908604FF4827002
:1034A000486000210D488160C160016141614FF4B5
:1034B000007181613821C161002101624162816234
:1034C000FEF70CFE05480068006840F04000034924
:1034D0000968086010BD0000003800401C00002092
:1034E0002DE9F04192B080460C4615461E46002755
:1034F000302106A8FCF7DCFF142101A8FCF7D8FF57
:1035000000BF002000902448006840F0805022490D
:1035100008600846006800F08050009000BF00BFBF
:1035200000BF002000901D48006840F480401B4907
:1035300008600846006800F48040009000BF00BFAB
:10354000012006900004079002200C9041050D9187
:10355000CDF83C800E941095119606A8FEF770FBEE
:1035600007461FB1012012B0BDE8F0810F20019085
:1035700002200290002003904FF4A05004904FF4DA
:1035800080500590052101A8FEF71AFA07460FB1F1
:103590000120E8E70020E6E74038024000700040E4
:1035A00010B5044609480A490860084644600021ED
:1035B0008160C160016181610C214161FFF718F9EF
:1035C000012204490248FFF7B3F910BD0010014081
:1035D0003C0100200E00002010B500290AD0087818
:1035E000002807D005487844FDF79AFB002801D051
:1035F000002010BD0248784410BD0000F60800000D
:10360000EE08000021F00042A2F16052B2F5801FE6
:1036100001F0004328BFD2F17F6C0BD95FEA001C98
:1036200043EAC20242EB507018BF704728BF20F037
:1036300001007047B2F5801FBCBF184670474FEAC3
:10364000410C1CF5001F02D2084600F0D9BB70B532
:1036500000F021FA00000089FFF7F6BF4FF00040AC
:10366000A0F580007047000010B591EA030F48BF35
:1036700083F0004300F16C82841A71EB030C05D2D5
:10368000121943EB0C03001B61EB0C01DFF824E182
:103690004FEA1154A4EB135C1EEA430F18BF9EEAD5
:1036A000445F73D023EA0E03DCF1200E21EA0451BB
:1036B00043F4801332D322FA0CFE10EB0E0023FAEF
:1036C0000CFE41EB0E01CCF1200E03FA0EFE10EBC6
:1036D0000E0051F10001B1F5801FCCF1200E32D265
:1036E00001EB045112FA0EF2BDE8104058BF7047CA
:1036F000401C38BF5FEA420218BF7047002814BF61
:1037000020F0010041F100014FEA410313F5001FD1
:1037100038BF7047A1F1C04100F00BBA012A43EB5A
:103720000302ACF1200CDCF11F0E32BF4FF0000E93
:1037300023FA0CF310EB030041EB0451B4EB115FDF
:10374000D0D0A1EB045101F5801149085FEA3000A7
:1037500001EB04510ED350F1000038BF12FA0EFEF7
:1037600008D1BDE81040C9E7401C38BF5FEA4202FB
:10377000CAD1C3E7BDE810404FEA410313F5001F6B
:1037800038BF7047A1F1C04100F0D3B99EEA445F51
:1037900008D011EA5E0FBDE8104004BF01F00041FF
:1037A00000207047BDE8104070B500F074F900BF0C
:1037B00064FBBE3E0000E0FF2DE9C04130B4DFF8FD
:1037C000A0C23CEA111418BF3CEA131400F0EC80CC
:1037D00081EA03051CEA111444EAD57418BF1CEAF7
:1037E000131500F0C780A4EB05044FF0004545EA2F
:1037F000C12145EAC32341EA505143EA525304F13F
:103800007F74994204F500344FEAC0204FEAC22287
:1038100008BF904200F09C804FEA13650FF24016FB
:10382000765D4FEA134506FB05F7C7F1807706FB87
:1038300007F74FEAD737A7FB03687642C8F5803809
:10384000A7FB06CE38BFA8F1010807FB08E64FF03A
:10385000000EA6FB028CE6FB03CEDCF1000CCEF1E1
:10386000004E38BFAEF1010EA6FB0C584FF000071A
:103870004FF00005E6FB0E87A1FB08C6A0FB07CEB4
:1038800016EB0E0645F10005E1FB076515F1E04E6C
:103890007EBFA4F580345FEA46066D4116F18007CD
:1038A00045F100054FEA17274FEA066647EA056724
:1038B000A6F1DE46B6F1805F4FEA15251FD93846DE
:1038C00024F0010C05EBC471BCF1FE6F01EB0C118F
:1038D00002D8F0BCBDE8008124425CBF01F5801E27
:1038E0009EEAC47F02D4F0BCBDE80081244238D4F3
:1038F000F0BCA1F1C041BDE8004100F01AB94FEAA7
:10390000D22242EA43524FEAD323A7FB02864FEA70
:10391000D02040EA415007FB03661EEA0E0F4FEA33
:10392000D12105FB026658BFA6EB0056B6EB005648
:103930004FEA520E4EEAC37E18EB0E0E56EB530EB4
:10394000BDD518EB02085E417F1C55F10005B6E7B6
:103950004FF480154FF000074FF000064FF00008BD
:10396000ADE7F0BC4FF0000001F1C04101F00041B3
:10397000BDE8008111EA0C1F0CEA131500D00CE021
:1039800013EA0C1F00F025804FF00000F0BC81EA24
:10399000030101F00041BDE80081F0BCBDE8004139
:1039A00081EA030100F0C5B8F0BCBDE8004170B584
:1039B00000F071F8097EFC3E00F007B881EA0301CF
:1039C0004FF0000001F00041704781EA030100F070
:1039D000B0B8F0BCBDE800414FF00000214970478D
:1039E000FFFDFBF9F7F5F4F2F0EEEDEBE9E8E6E4C4
:1039F000E3E1E0DEDDDBDAD8D7D5D4D3D1D0CFCD4B
:103A0000CCCBCAC8C7C6C5C4C2C1C0BFBEBDBCBB83
:103A1000BAB9B8B7B6B5B4B3B2B1B0AFAEADACAB7E
:103A2000AAA9A8A8A7A6A5A4A3A3A2A1A09F9F9E58
:103A30009D9C9C9B9A99999897979695959493930A
:103A4000929191908F8F8E8E8D8C8C8B8B8A8989A1
:103A50008888878786858584848383828281818024
:103A60000000FF070000F87F10F0004248BF40420E
:103A7000B0FA80F310FA03F10AD0C3F11D0303F585
:103A800080634FEA415002EB035202EBD1217047B1
:103A90004FF0000070470EF1020E2EF0030E5EF89C
:103AA000046B364205D4012A43EB030515F5001FCC
:103AB00012D8012841EB010C1CF5001F0CD80ED1C7
:103AC0004FEAD17C15F5001F0CEB4C0C0CF1020CED
:103AD00008BF4CEBD37C04E04FF0080C01E04FEA48
:103AE000D37C0CEB4C0526FA05F606F00706B6F17A
:103AF000040C06D20EEB860CBDE870404CF0010CB5
:103B00006047DFE80CF0090B02024FF000414FF074
:103B10000000A1F5002170BD19461046012851EBA7
:103B2000010418BFD4F5001484BF002001F0004147
:103B300070BD0808A0F500114FEA31017047000080
:103B400010B591EA030F48BF83F000433FF594ADF1
:103B5000841A71EB030C07D212198CF0004C43EB62
:103B60000C03001B61EB0C01DFF8A4E14FEA1154D8
:103B7000A4EB135C1EEA430F18BF9EEA445F00F0FB
:103B8000B08023EA6E03524221EA0451C3EB6E0374
:103B900038BF5B1EDCF1200E25D322FA0CFE10EBA1
:103BA0000E0043FA0CFE41EB0E01CCF1200E03FA9D
:103BB0000EFE10EB0E0051F10001CCF1200E29D4C5
:103BC00012FA0EF201EB0451BDE8104058BF7047E5
:103BD000401C1CBFB2F1004F704700280CBF491CAD
:103BE00020F00100704712EB020E43EB030218BFF6
:103BF0004FF0010E4EEA4202ACF1200CDCF11E0E39
:103C000054D943FA0CFE10EB0E0051F1FF31CCF108
:103C10001E0ED5D50EF1010E12FA0EFE404141EBFB
:103C2000010101EB445C5FEA5C5C10D910EBDE70D3
:103C300001EB045138BFBEF1004FBDE8104018BF82
:103C4000704700280CBF491C20F00100704730D29B
:103C50004FEAD42C11F5001124F400641BD0B1FA02
:103C600081F20B3AA41AA41ED2F12003914030FA3B
:103C700003F31943904001EBCC71002C01EB04518C
:103C8000BDE81040A8BF704701F1C0414FF00000EF
:103C900001F000417047B0FA80F310FA03F100D14F
:103CA00010BDE41A173C4805C90AE4E701EB0451CA
:103CB00010BD491001EB0451BDE810404FEA30003F
:103CC00002E04FF0000170474A0008BF0042F8D000
:103CD000B2F5001F28BF704701F000414FF000000F
:103CE00070479EEA445F07D011EA5E0FBDE81040BE
:103CF00004BF002100207047BDE8104070B5FFF7F9
:103D0000CAFE00BF40DFF63E83F000411046704718
:103D10000000E0FF43004FEAD30C4FEA3C0C434065
:103D20001FBF40070CF1605113F0FE4F70471CF0AD
:103D3000006F03D100200CF0004170470CF00043ED
:103D400043EA507010B540EACC0000F00EF800BF16
:103D5000000000924FEA0001FFF7EBBE4FF0004178
:103D60004FF00000A1F5002170470EF1020E2EF079
:103D7000030E5EF8044B244204D44FEA4102B2F130
:103D80007F4F11D84FEA4003B3F17F4F0CD80ED1CB
:103D90004FEAD07CB2F17F4F0CEB4C0C0CF1020CD3
:103DA00008BF4CEBD17C04E04FF0080C01E04FEA77
:103DB000D17C0CEB4C0324FA03F404F00704B4F1B7
:103DC000040C06D20EEB840CBDE810404CF0010C44
:103DD0006047DFE80CF0070802024FF00040A0F552
:103DE000800010BD0846420018BFD2F1807288BF23
:103DF00000F0004010BD4FF04070E1EE100A704737
:103E0000FF2141EAD050C0057047FCF7A8BC000074
:103E1000000000000000010203040607080900007A
:103E2000000001020304000002400000000000A0A6
:103E30000000000005400000000000C80000000075
:103E40000C4000000000409C0000000019400000F1
:103E50000020BCBE0000000034400000BFC91B8E23
:103E600000000004B5400000504BCFD06607E2CF01
:103E7000010000006C4100003E8251AADFEEA73431
:103E800001000000D9420000DCB5A0E23A301F97E3
:103E9000FFFFFFFFB4450000FD25A0C8E9A3C14F07
:103EA000FFFFFFFFFF3F0000000000800000000058
:103EB000FF3F00000000008000000000F83E000806
:103EC000000000201C000000C4010008143F00088E
:103ED0001C000020C4050000E00100081C000000D8
:103EE00043000000F8FFFFFF0C0000000E00000080
:103EF0000F0000002E0000000024F400000000006D
:103F000000000000000000000000000010000000A1
:043F100001000000AC
:040000050800018965
:00000001FF
