:020000040800F2
:100000008006002049020008993C00083B2E0008A9
:10001000953C00087F150008B1430008000000006F
:100020000000000000000000000000009D3E0008ED
:1000300083150008000000009B3C00089F3E00085C
:100040006D0200086D0200086D0200086D020008D4
:100050006D0200086D0200086D0200086D020008C4
:100060006D0200086D0200086D0200086D020008B4
:100070006D0200086D0200086D0200086D020008A4
:100080006D0200086D0200086D0200086D02000894
:100090006D0200086D0200086D0200086D02000884
:1000A0006D0200086D0200086D0200086D02000874
:1000B0006D0200086D0200086D0200086D02000864
:1000C0006D0200086D0200086D0200086D02000854
:1000D0006D020008A14300086D0200086D020008CF
:1000E0006D0200086D0200086D0200086D02000834
:1000F0006D0200086D0200086D0200086D02000824
:100100006D0200086D0200086D0200086D02000813
:100110006D0200086D020008BD3E00086D02000877
:100120006D0200086D0200086D0200086D020008F3
:100130006D0200086D0200086D0200086D020008E3
:100140006D0200086D0200086D0200086D020008D3
:100150006D0200086D0200086D0200086D020008C3
:100160006D0200086D0200086D0200086D020008B3
:100170006D0200086D0200086D020008000000001A
:100180006D0200086D02000800F002F800F04DF862
:100190000AA090E8000C82448344AAF10107DA45E2
:1001A00001D100F042F8AFF2090EBAE80F0013F0E7
:1001B000010F18BFFB1A43F001031847BC510000A0
:1001C000DC510000103A24BF78C878C1FAD8520731
:1001D00024BF30C830C144BF04680C6070470000C1
:1001E0000023002400250026103A28BF78C1FBD840
:1001F000520728BF30C148BF0B607047662905F021
:100200005380002070471FB505F049F89DE80300B2
:1002100000F096F900F0FAFB04000020002104F041
:10022000B1FFE0601FBD10B510BD00F02CFD114600
:10023000FFF7E9FF04F09EFE00F04AFD03B4FFF76C
:10024000F2FF03BC04F00AFD0C48016841F47001A0
:1002500001600B4880470B480047FEE7FEE7FEE7DA
:10026000FEE7FEE7FEE7FEE7FEE7FEE7FEE700004B
:1002700005480649044A064B7047000088ED00E037
:10028000A93E0008890100088002002080060020A5
:1002900080020020704770B5064600F035F9056809
:1002A00006F10B0020F00704B4429CBF002070BD93
:1002B0002B466A68BAB11068A04210D304F1080155
:1002C00088423CBF5068586007D35168101941609C
:1002D0001168091B016058601460101D70BD134641
:1002E0005268002AE7D12146284600F015F9002877
:1002F000DED170BD70B50446051F00F005F9006839
:10030000002C14BF446870BD002C18BFAC423CBF29
:1003100020466468F8D301680A18AA4218BF4560ED
:1003200003D12A6805461144016028684119A14299
:100330001CBF6C6070BD61686960216808442860FA
:1003400070BD53EA020C00F069802DE9F04B4FF0CC
:100350000006002B1FBFB3FA83F503FA05F424FA55
:1003600005F65E4012BF1643B2FA82F502FA05F4B2
:10037000C5F120051EBF22FA05FC44EA0C04203515
:1003800056EA044C4FEA144418BF641C4FF00008AE
:100390004FF00009904271EB030C39D3002919BFCB
:1003A000B1FA81F701FA07F6B0FA80F700FA07F61A
:1003B000C7F120071EBF20FA07FC46EA0C062037CB
:1003C000B6FBF4FCA7EB0507103F07F01F0BCBF1C2
:1003D00020060CFA0BFB2CFA06F644BFB3460026A7
:1003E000202FA4BF5E464FF0000B5BEA060C08BF4F
:1003F0004FF0010B19EB0B09ABFB027C48EB060835
:10040000C01B06FB02CC0BFB03CC71EB0C01C1E75C
:100410000B46024641464846BDE8F08B13B54FF007
:1004200000004FF00001AFF30080BDE81C407047B2
:100430000FB4044910B503AA029800F0D1FA10BC19
:100440005DF814FB600000202DE9F0410E460446E3
:10045000002020622046E168884730B3252805D077
:10046000D4E901219047206A401CF2E7E168204668
:1004700000278847050018D0A5F14100192802D8A7
:1004800020354FF400673246294620462760FFF7A3
:10049000B5FE40B1012804D0F61D26F00706083647
:1004A000D8E7361DD6E72846DAE7206ABDE8F081AE
:1004B0004FF0000200B5134694469646203922BFFD
:1004C000A0E80C50A0E80C50B1F12001BFF4F7AF48
:1004D000090728BFA0E80C5048BF0CC05DF804EB2A
:1004E000890028BF40F8042B08BF704748BF20F898
:1004F000022B11F0804F18BF00F8012B7047704796
:10050000704770477047000000487047280200207D
:10051000704770477047704738B504460A46002058
:100520006946AFF30080002808BF38BD0246009935
:10053000204600F073FA012038BD012000F09CBB7A
:10054000F8B5AFF30080054600200C46102000BF30
:100550000646A819A0420DD9324669460020AFF3DD
:100560000080070008BF00F087FB0098A04218BF7A
:100570000546C419FFF7C8FF05600746F01D20F0C7
:1005800007004619284600F00AF8B44208BFF8BD33
:10059000A21B31463868BDE8F84000F03FBA0021A0
:1005A0000160C0E9011070471020704710B500F0DD
:1005B00031FA006810BD10B5044600F02BFA046053
:1005C00010BD70472DE9FF4F0C461E464FF0FF3718
:1005D0008BB0D2E90001DDF860800A908A46C1F351
:1005E0000A5505B93D46002108464FF00000BAF112
:1005F000000F00F4400005DA00EB80004FF44001EA
:1006000001EA50004FEA9059B9F1010F00DDB946F7
:100610000A9850EA4A000ED044F61050A5F2FF3571
:1006200045432F14B8F1000F1ED07542291E1EDD60
:10063000C9F100021CE0B8F1010F4FF0000001D039
:10064000302103E0F24305E02154401CB042FBDBC3
:1006500030460022002121540B99C1F80880C1E9DD
:1006600000200FB0BDE8F08FBD1B6D1CDEE74A46D1
:1006700000DA694206A800F089FA06AB93E80700A1
:1006800003AB83E8070050460A9900F0B0FB8DE801
:100690000700A0F500501F3800900398002D0ADDD8
:1006A00042F21F014A460844002303A9039068460A
:1006B00000F019FE09E0A0F500504A461F3800235B
:1006C00003A90390684600F023FE8DE807000004AC
:1006D000000C03D04FF0FF30410800E01046B8F1A5
:1006E000000F03D00022009215461EE0751E05D4AF
:1006F00000F0AEF9303262556D1EF9D5B3460122D5
:10070000084302D000227F1C04E02078302801D169
:1007100000227F1E002A099784D01DE0112D07DAE0
:1007200000F096F9303262556D1C50EA0102F5D1A5
:10073000084302D00098C8B10EE00021681E05E011
:10074000235C625C63542254401E491C8142F7DBE7
:10075000AB46A81B401E0990002004F80B000B9824
:10076000099AC0F80880C0E9002B7AE711264FF0FB
:10077000000857E72DE9F04F88460446D21D22F0C5
:10078000070191B0D1E90001CDE90A0103F012FEA1
:1007900002460B98C00F01D02D2007E0206881078A
:1007A00001D52B2002E0202101EAC000032A099094
:1007B00001D0072A05DB03464146204600F0A6F992
:1007C0000BE12078800601D5E06900E00620B8F151
:1007D000650F814606D0B8F1660F18D0B8F1670FE3
:1007E00070D131E00020B9F1110F009001DB11232D
:1007F00001E009F101030AAA01A90CA8FFF7E2FE32
:10080000DDE90C70002609F10105834647E001206F
:100810004B4600904FF000470AAA01A90CA8FFF729
:10082000D1FEDDE90DB00C995D46002610B909F145
:1008300001000D18B9EB050003D4C0F1FF3609F132
:100840000105A5EB09002BE0B9F1010F01DA4FF02A
:1008500001090020B9F1110F0090484601DD112374
:1008600000E003460AAA01A90CA8FFF7ABFEDDE9E8
:100870000C704D4600268346207800070AD4AB450D
:1008800000DA5D4601A8012D04DD411911F8011CB3
:10089000302907D04F4502DA17F1040F04DA01209E
:1008A00082460FE06D1EEEE7002F02DCED1B3E449A
:1008B00003E0781CA84200DD7D1CB81B00F1010A92
:1008C0004FF000472078000703D4AA4501DB4FF022
:1008D000FF3A0021B7F1004F0DF143088DF84310A6
:1008E00024D002202B23002F01DA7F422D230A215E
:1008F000021EA0F1010000DC5FB197FBF1FC97FB49
:10090000F1F201FB1C7C17460CF1300C08F801CD0C
:10091000EEE7A8F1010003702188090501D5452102
:1009200000E06521A0F1010800F8011C09980FA959
:10093000A1EB0807FF1D00B10120411901EBEA708E
:10094000A1693844081A401EA0612078C00602D46C
:100950002046AFF30080099828B1D4E901219047DF
:10096000206A401C20622078C00622D52046AFF3C2
:1009700000801EE0002E04DBB34502DD01A8805D8F
:1009800000E03020D4E901219047206A401C206219
:10099000761CAAF101005FEA000A0AD100F036F8DD
:1009A000C0680168405CD4E901219047206A401C7E
:1009B0002062281EA5F10105DCDC07E0D4E9012155
:1009C00018F8010B9047206A401C2062381EA7F1DE
:1009D0000107F3DC2046AFF30080032011B041E6AD
:1009E000074B70B50D467B4400F07DF80446284661
:1009F00000F03EF910B14FF0FF3070BD204670BDE1
:100A00001343000000487047200200200048704750
:100A10004002002000487047200200200346406842
:100A20008C46002818BF88423CBF03464068F8D374
:100A300018681844884207D00CF1030020F0070022
:100A4000001D411A521A0146081D0A60FFF752BCE8
:100A500030B5B0F10A024FEA900E71F100034EEA90
:100A6000817EB0EB0E0061EB91014FEA101E4EEA61
:100A7000017E10EB0E0041EB11114FEA102E4EEAF1
:100A8000016E10EB0E0041EB11214FEA104E4EEAC1
:100A9000014E10EB0E0041EB1141401841F10001F5
:100AA0004FEAD00040EA41704FEAD10110EB8005D7
:100AB0004FEA810444EA907444EB01046D1944EB5D
:100AC0000404521BA3414FF0000348BF0A3200D573
:100AD00030BD401C41F1000130BD000001694A1CDD
:100AE00002610878704700B58FB0CDE9013100216F
:100AF000059105497944CDE9031011466846FFF791
:100B0000A3FC0FB000BD0000E5FFFFFF2DE9F041A1
:100B10001F46044603260168072A01F4006004DB2F
:100B200008B116A505E016A503E008B115A500E07B
:100B300015A521F010002060A069C01EA0610FB1B2
:100B4000401EA0612046AFF300804FB1D4E90121DF
:100B500038469047206A401C2062C01C206206E094
:100B6000206AFAE7D4E9012115F8010B9047761EB7
:100B7000F8D22046AFF30080BDE8F0814E414E0030
:100B80006E616E00494E4600696E66002DE9F047C1
:100B9000814616468AB0354878440DC88DE80D0068
:100BA00032487844801C03AC0DC884E80D0041F63F
:100BB0009B300844372190FBF1F290FBF1F5A5F151
:100BC000800501FB12041B3C02D56442012000E0B9
:100BD0000020DFF898A080460027FA44AAF1BE0A58
:100BE0000EE0E0070AD03246684607EB47010123D2
:100BF0000AEB810100F08CFB8DE8070064107F1C7C
:100C0000002CEED1194F7F44AE3F19E0E80715D014
:100C100007EB04100DF1180A90E80E008AE80E00A8
:100C2000C068F04201D1981908903246012306A904
:100C300003A800F06DFB03AB83E807006D10641C94
:100C4000002DE3D14FF0010332466946B8F1000FA1
:100C500003A802D000F047FB01E000F059FBC9E90E
:100C60000001C9F808200AB0BDE8F087C4470000B9
:100C7000007B00F08000704710B500F037F8BDE849
:100C8000104000F02EB87546FFF7BCFEAE460500DA
:100C90006946534620F00700854618B020B5FFF797
:100CA000E7FABDE820404FF000064FF000074FF094
:100CB00000084FF0000B21F00701AC46ACE8C0097A
:100CC000ACE8C009ACE8C009ACE8C0098D46704783
:100CD00010B50446AFF300802046BDE81040FFF792
:100CE000ADBA002801D003F0B9BF704710B5012894
:100CF00005D0002103A000F061F8012010BD09A17A
:100D0000F8E7000053494752544D454D3A204F757E
:100D100074206F662068656170206D656D6F7279F3
:100D2000000000003A2048656170206D656D6F72AB
:100D30007920636F72727570746564004FF0013CC6
:100D400050F8042B51F8043B9A4221D1A2EB0C033A
:100D5000934313EACC1317D150F8042B51F8043BFA
:100D60009A4215D1A2EB0C03934313EACC130BD197
:100D700050F8042B51F8043B9A4209D1A2EB0C0322
:100D8000934313EACC13DBD04FF00000704700BF51
:100D9000D01A01BAB1FA81F101F0180122FA01F07A
:100DA000CB40C1F12001DBB2C0B2C01A2CFA01F372
:100DB000D11A914311EAC311E6D1704770B50546C7
:100DC0000C460A2000E06D1C03F04AFF35B128787C
:100DD0000028F8D102E0641C03F042FF14B120782F
:100DE0000028F8D1BDE870400A2003F039BF5FEA5F
:100DF000400C08BF91F0000F4FEA8C234FEAC1224C
:100E000043EA51514FEA1C5018BF00F5F0404FEA39
:100E1000300018BF41F000415FEA6C5C00F02980AF
:100E2000BCF1FF3F08BF40F080407047130C06BF85
:100E300012044FF0100C4FF0000C130E04BF1202FE
:100E40000CF1080C130F04BF12010CF1040C930FEA
:100E500004BF92000CF1020CD30F04BF52000CF13E
:100E6000010C11464FF00002A0F11F00A0EB0C0096
:100E7000704711F0004F08BF704731F000413FF458
:100E8000D5AF0B0C06BF09044FF0100C4FF0000C4F
:100E90000B0E04BF09020CF1080C0B0F04BF090173
:100EA0000CF1040C8B0F04BF89000CF1020CCB0F6A
:100EB00004BF49000CF1010CCCF12003A0EB0C00A5
:100EC00022FA03F302FA0CF241EA030100F10100F5
:100ED000704720F07F4C80EA030023F07F47ACEBA3
:100EE000070303F57C5300F0004003F1FF032DE9F5
:100EF00080494FEA154B09B44FEA144325EA0B4EDB
:100F000024EA03480FF2042606EB132749083E782B
:100F10005FEA320203FB0667C7F5000707FB06F628
:100F20004FEA54374FEAD64606F1020607FB066C35
:100F3000CCF1005C4FEA1C472CEA074C07FB06F497
:100F40000CFB06F504EB15464FEA961634BF00205D
:100F50004FF000404FEAD13706FB07FC4FEA1C4C2C
:100F60000CFB0BF7D21B03FB0CF761EB07010CFB2F
:100F70000EF7B0EB074072EB17420CFB08F734BFDB
:100F8000A2EB0742B2EB074261EB17414FEA0C4478
:100F90004FEA910706FB07FC4FEA1C4C0CFB0BF7D2
:100FA000B0EBC74072EB573203FB0CF734BFA2EB38
:100FB000C742B2EBC74261EB57310CFB0EF7B0EB07
:100FC000C70072EB57720CFB08F734BFA2EBC702E5
:100FD000B2EBC70261EB5771039F4FEA816141EAAF
:100FE000921104EBCC044FEAD1374FEA826206FB40
:100FF00007FC42EA90124FEA80604FEA1C4C0CFB5F
:101000000BF7D21B03FB0CF761EB07010CFB0EF790
:10101000B0EB074072EB17420CFB08F734BFA2EBB2
:101020000742B2EB074261EB17414FEA8C554FEA9A
:10103000910704EB9C2406FB07FC4FEA1C4C0CFBBD
:101040000BF7B0EBC74072EB573203FB0CF734BF22
:10105000A2EBC742B2EBC74261EB57310CFB0EF774
:10106000B0EBC70072EB57720CFB08F734BFA2EB72
:10107000C702B2EBC70261EB577115EB4C254FEA83
:10108000816141EA92114FEA82624FEAD13742EA26
:10109000901206FB07FC44F100044FEA80604FEA1F
:1010A0001C4C0CFB0BF7D21B03FB0CF761EB07018D
:1010B0000CFB0EF7B0EB074072EB17420CFB08F786
:1010C00034BFA2EB0742B2EB074261EB174115EBCD
:1010D0001C154FEA813141EA92414FEA823242EADD
:1010E00090424FEA80304FEA0C7644F1000448EA1F
:1010F00003434EEA0B484FF0000EB2EB080C71EBC5
:10110000030724BF624639464EEB0E0E4FF0000B2C
:101110000018524149414BEB0B0BB2EB080C71EB41
:1011200003077BF1000B24BF624639464EEB0E0EDF
:101130004FF0000B0018524149414BEB0B0BB2EB47
:10114000080C71EB03077BF1000B24BF62463946A4
:101150004EEB0E0E51EA020718BF46F0010616EBE1
:101160000E7655F1000254F1000103D5BDE8890166
:10117000BDE80088BDE88901BDE80048B6195241C4
:1011800041EB0101A3F10103704780807F7E7D7CEC
:101190007B7A7978777676757473727171706F6E09
:1011A0006E6D6C6C6B6A6A696868676666656464B4
:1011B000636362616160605F5F5E5E5D5D5C5C5B3E
:1011C0005B5A5A59595858575756565555555454AD
:1011D000535352525251515050504F4F4F4E4E4D0B
:1011E0004D4D4C4C4C4B4B4B4A4A4A494949484857
:1011F0004847474747464646454545444444444397
:1012000043434342424242414141002B9C4630D439
:1012100077002BD01CB54FEA370703B44FF010000E
:101220004FF01001BAF1000F06D0BCF1000FDCBF87
:1012300040F0080040F008014FF000000FBCBDE88E
:1012400010400BF1010BBBF1010F08BF5FEA17075C
:1012500022BF12F1010211F101014FF0004143F1EF
:10126000000300F0004043EA00007047F9D357083C
:10127000D0E746EA064613F1400F4FEA16461FDD57
:1012800013F1200FDFBF16430A46002120335B42D3
:10129000BED0C3F1200746EA064602FA07F74FEA36
:1012A000164646EA0706C3F1200722FA03F201FABE
:1012B00007F721FA03F14FF0000342EA0702A7E71C
:1012C00046EA020646EA06464FEA164646EA01069E
:1012D000BCBF46EA0646360C4FF000034FF0000252
:1012E0004FF0000194E72DE9804C9A46934670B484
:1012F00091E8380007C831EA400C48BF34EA430C93
:1013000003D5FFF7E6FDFFF780FFF0BCBDE8008CDA
:101310002DE9804C9A46934670B491E8380007C88E
:1013200010F0804F08BF13F0804F03D100F005F894
:10133000FFF76BFFF0BCBDE8008C20F07F4780EA30
:10134000030023F07F4C07EB0C03A3F57C5300F064
:101350000040A3F1FE0392F0000F00F0B38095F07F
:10136000000F00F077802DE901494FEA11404FEA64
:10137000144621EA004800FB06FC24EA064708FB65
:1013800006F607FB08F800FB07F718EB06484CEBDE
:10139000164C4FEA124B18EB07484FEA15464CEB38
:1013A000174022EA0B4E0BFB06FC25EA06470EFB14
:1013B00006F607FB0EFE0BFB07F71EEB064E4CEB8B
:1013C000164C4FF000061EEB074E4CEB174B18EB7C
:1013D0000B0840F1000018EB0E0B58EB000840F131
:1013E00000008F1A4FF000013CBFC943661B14BFB9
:1013F000B5EB040C00213CBFC943F61B4FEA174470
:101400004EEA8E0E27EA04454FEA1C4704FB0762AA
:101410002CEA074C05FB07F70CFB05F604FB0CFC5C
:1014200016EB074642EB174216EB0C4642EB1C420A
:101430001BEB060658EB0202414146EA9E0601D527
:10144000BDE80189B619524141EB0101A3F1010345
:10145000BDE801894FEA14454FEA114724EA0546E1
:1014600021EA074C05FB07F406FB07F70CFB06F126
:1014700005FB0CFC11EB074144EB17444FEA124704
:1014800011EB0C4144EB1C4422EA074C05FB07F22C
:1014900006FB07F70CFB06F605FB0CFC16EB0746F4
:1014A00042EB174216EB0C4642EB1C456A1854F10E
:1014B000000148BF7047B619524141EB0101A3F149
:1014C0000103704795F0000F37D04FEA11424FEA01
:1014D000144721EA024624EA074C02FB07F106FB07
:1014E00007F70CFB06F402FB0CFC14EB074441EB82
:1014F00017414FEA154714EB0C4441EB1C4125EA18
:10150000074C02FB07F506FB07F70CFB06F602FB90
:101510000CFC16EB074645EB174516EB0C4645EB66
:101520001C42121951F1000148BF7047B6195241CF
:1015300041EB0101A3F1010370474FEA14454FEA63
:10154000114724EA054621EA074C05FB07F106FB93
:1015500007F70CFB06F24FF0000605FB0CFC12EB44
:10156000074241EB174112EB0C4251EB1C4148BFC3
:101570007047921841EB0101A3F10103704700BFCE
:10158000FEE7704770B50446A56D00F06DF906469C
:1015900094F83500022808D08020606500BF002044
:1015A00084F8340000BF012070BD2068006820F07E
:1015B0001600216808602068406920F080002168DA
:1015C0004861206C08B9A06C28B12068006820F040
:1015D0000800216808602068006820F00100216888
:1015E00008600FE000F040F9801B05280AD9202090
:1015F000606500BF002084F8340000BF032084F839
:101600003500D1E72068006800F001000028E9D12A
:1016100094F85C103F208840A86000BF002084F848
:10162000340000BF012084F835000020BCE70146EB
:1016300091F83500022803D08020486501207047CA
:10164000052081F835000868006820F001000A686C
:1016500010600020F3E70000F8B502460B460025B5
:10166000002400200021DEE0012606FA01F51E68B4
:1016700006EA0504AC4275D11E7906F00306012E78
:1016800004D01E7906F00306022E13D190684F0095
:101690000326BE40B0434F00DE68BE40304390603A
:1016A000506801268E40B0431E79C6F300168E4066
:1016B000304350601E7906F00306032E09D0D0682F
:1016C0004F000326BE40B0434F009E68BE403043EB
:1016D000D0601E7906F00306022E13D1CF0802F166
:1016E000200656F827004E07F70E0F26BE40B043DF
:1016F0004F07FF0E1E69BE403043CF0802F120069F
:1017000046F8270010684F000326BE40B0431E79FC
:1017100006F003064F00BE40304310605E6806F0DE
:101720008056B6F1805F7DD100BF00260096404E06
:10173000366846F480463E4F3E603E46366806F4C4
:101740008046009600BF00BF3A4E8F0856F827002B
:101750008E07370F0F26BE40B043374EB24202D13C
:10176000002624E05EE0354EB24201D101261EE0A3
:10177000334EB24201D1022619E0324EB24201D1BB
:10178000032614E0304EB24201D104260FE02F4E62
:10179000B24201D105260AE02D4EB24201D1062601
:1017A00005E02C4EB24201D1072600E008268F0743
:1017B0003F0FBE4030431F4E8F0846F82700264E8D
:1017C0003068A0435E6806F48036B6F5803F00D1ED
:1017D0002043214E3060361D3068A0435E6806F419
:1017E0000036B6F5003F00D120431B4E361D306059
:1017F000361D3068A0435E6806F48016B6F5801F7B
:1018000000D12043144E08363060361D3068A043A6
:101810005E6806F40016B6F5001F00D120430E4E98
:101820000C363060491C1029FFF41EAFF8BD0000D3
:1018300044380240083801400000024000040240E1
:1018400000080240000C0240001002400014024058
:1018500000180240001C0240003C01400AB18161B6
:1018600001E00B0483617047014800687047000085
:1018700068000020034800680349097808440149CA
:1018800008607047680000207000002010B50D4807
:10189000006840F400700B4908600846006840F496
:1018A000806008600846006840F48070086003208B
:1018B00000F080F80F2000F007F800F02BF800206F
:1018C00010BD0000003C024070B504460E48007890
:1018D0004FF47A71B1FBF0F00C490968B1FBF0F5F7
:1018E000284600F04EFE08B1012070BD102C07D232
:1018F00000222146501E00F01EF80548046001E059
:101900000120F2E70020F0E7700000200000002036
:101910006C000020704701460846002809DB00F0F3
:101920001F0301229A4043099B0003F1E023C3F8FF
:10193000002100BF70472DE9F05F80460D46164636
:10194000002702F063FD074639462A46334601F078
:101950000700C0F1070ABAF1040F02D94FF0040AD8
:1019600001E0C0F1070AD14600F1040ABAF1070FFD
:1019700002D24FF0000A01E0A0F1030AD4464FF072
:10198000010A0AFA09FAAAF1010A0AEA020A0AFA9B
:101990000CFA4FF0010B0BFA0CFBABF1010B0BEA4D
:1019A000030B4AEA0B042146404602F037FDBDE82E
:1019B000F09F000000BF00F00702064B19684FF6C9
:1019C000FF031940044B0B4343EA0221014B19600A
:1019D00000BF70470CED00E00000FA0570B504464A
:1019E0000D460CB9012070BD5848006800F0070092
:1019F000A84209D255490D700846006800F007005A
:101A0000A84201D00120EEE7207800F00200022871
:101A10001DD1207800F00400042805D14C4800684E
:101A200040F4E0504A490860207800F00800082897
:101A300005D14748006840F4604045490860444883
:101A4000006820F0F000A168084341490860207850
:101A500000F00100A8B36068012807D13C480838AD
:101A60000068C0F34040B8B90120BCE760680228B4
:101A700002D06068032807D1354808380068C0F3F1
:101A8000406048B90120AEE7314808380068C0F32B
:101A9000400008B90120A6E72D48006820F00300A7
:101AA000616808432A490860FFF7DEFE064609E040
:101AB000FFF7DAFE801B41F28831884202D9032009
:101AC00091E707E02248006800F00C006168B0EB85
:101AD000810FEDD11D48006800F00700A84209D928
:101AE0001A490D700846006800F00700A84201D0AE
:101AF000012078E7207800F00400042807D114487A
:101B0000006820F4E050E16808431149086020783B
:101B100000F00800082808D10D48006820F4604053
:101B2000216940EAC1000A49086000F03FF808490D
:101B30000968C1F30311074A515CC84006490860AF
:101B400006480068FFF7C0FE00204CE7003C02405A
:101B500008380240AC520008000000206C00002051
:101B600001480068704700000000002000B5FFF742
:101B7000F7FF04490968C1F38221034A515CC84058
:101B800000BD000008380240BC52000800B5FFF755
:101B9000E7FF04490968C1F34231034A515CC84078
:101BA00000BD000008380240BC5200082DE9F04793
:101BB000002400250026A1462548006800F00C00FE
:101BC00020B1042805D008283AD105E0DFF8849038
:101BD00039E0DFF8849036E01D48001F006800F00F
:101BE0003F041B48001F006800F4800078B11A48C9
:101BF0001749091F0968C1F38811A0FB017001464C
:101C0000224600233846FEF79CFB05460EE01148AD
:101C10000F49091F0968C1F38811A0FB0170014633
:101C2000224600233846FEF78CFB05460848001F75
:101C30000068C0F30140401C4600B5FBF6F902E025
:101C4000DFF8109000BF00BF4846BDE8F0870000F5
:101C5000083802400024F40000127A00F8B5044667
:101C60000CB90120F8BD207800F00100002874D0E4
:101C7000F948006800F00C0004280DD0F648006810
:101C800000F00C00082813D1F348001F006800F48E
:101C90008000B0F5800F0BD1EF4808380068C0F322
:101CA0004040002859D06068002856D10120D9E76B
:101CB00000BF6068B0F5803F08D1E7480838006889
:101CC00040F48030E449083908601EE06068B0F5EF
:101CD000A02F0DD1E0480838006840F48020DE498C
:101CE000083908600846006840F4803008600CE05D
:101CF000D9480838006820F48030D749083908608E
:101D00000846006820F48020086000BF606890B139
:101D1000FFF7AAFD054606E0FFF7A6FD401B642875
:101D200001D903209EE7CC4808380068C0F3404042
:101D30000028F1D011E0FFF797FD054606E0FFF718
:101D400093FD401B642801D903208BE7C248083863
:101D50000068C0F340400028F1D1207800F0020074
:101D600002285FD1BC48006800F00C0058B1BA48A6
:101D7000006800F00C0008281CD1B748001F00685C
:101D800000F48000B0B9B44808380068C0F34000DF
:101D900020B1E068012801D0012063E7AE4808388F
:101DA000006820F0F800216940EAC100AA4908391A
:101DB000086037E0E06800B30120A8490860FFF739
:101DC00053FD054606E0FFF74FFD401B022801D9F1
:101DD000032047E7A04808380068C0F34000002807
:101DE000F1D09D480838006820F0F800216940EAE9
:101DF000C10099490839086014E00020974908603B
:101E0000FFF732FD054606E0FFF72EFD401B0228D6
:101E100001D9032026E7904808380068C0F3400045
:101E20000028F1D1207800F0080008282CD1606942
:101E3000A8B101208A490860FFF716FD054606E0B3
:101E4000FFF712FD401B022801D903200AE7824850
:101E50006C300068C0F340000028F1D014E000208E
:101E60007F490860FFF700FD054606E0FFF7FCFC30
:101E7000401B022801D90320F4E677486C30006843
:101E8000C0F340000028F1D1207800F004000428BD
:101E900070D1002770483830006800F0805090B949
:101EA00000BF002000906C483830006840F080503F
:101EB0006949383108600846006800F08050009099
:101EC00000BF00BF01276748006800F48070B0B908
:101ED0006448006840F4807062490860FFF7C4FC01
:101EE000054606E0FFF7C0FC401B022801D903208D
:101EF000B8E65C48006800F480700028F2D000BFAB
:101F0000A068012808D154486830006840F00100FA
:101F10005149683108601DE0A06805280DD14E4880
:101F20006830006840F004004B496831086008469A
:101F3000006840F0010008600CE047486830006825
:101F400020F001004449683108600846006820F02C
:101F50000400086000BFA068A8B1FFF785FC054633
:101F600009E0FFF781FC401B41F28831884202D929
:101F7000032077E626E0384868300068C0F3400068
:101F80000028EED013E0FFF76FFC054608E0FFF7EE
:101F90006BFC401B41F28831884201D9032061E685
:101FA0002D4868300068C0F340000028EFD1012FB1
:101FB00007D129483830006820F080502649383150
:101FC000086000BFA069002845D02348006800F0E1
:101FD0000C0008285DD0A069022845D100201F49C7
:101FE0000866FFF741FC054606E0FFF73DFC401B95
:101FF000022801D9032035E6174808380068C0F3E5
:1020000040600028F1D1D4E907010843616A40EA41
:1020100081110122A06AC2EB500041EA00412C204C
:10202000005D41EA00600C49091F086001200B496E
:102030000866FFF719FC054606E0FFF715FC401B94
:10204000022801D903200DE6034808380068C0F3D0
:1020500040600028F1D049E00838024000004742C3
:10206000800E474200700040002021490866FFF7BB
:10207000FBFB054606E0FFF7F7FB401B022801D9F2
:102080000320EFE51B480068C0F340600028F2D150
:102090002CE0A069012800D1E4E51648001D06687F
:1020A000A069012820D006F48001E06981421BD19B
:1020B00006F03F01206A814216D147F6C0703040D9
:1020C000616AB0EB811F0FD106F440310122A06A92
:1020D000C2EB5000B1EB004F06D106F070612C202E
:1020E000005DB1EB006F01D00120BBE50020B9E538
:1020F000000047420038024010B504460CB90120E8
:1021000010BD606A38B96068B0F5827F00D105E023
:102110000021E16102E0002121616161A06AB0F566
:10212000005F00D100BF94F8510028B9002084F866
:102130005000204600F050F8022084F8510020683A
:10214000006820F0400021680860A08800F48270D8
:10215000218901F404410843A18901F40061084385
:10216000217C01F002010843217D01F001010843B7
:10217000218B01F400710843217F01F038010843ED
:102180002021095D01F080010843218D01F40051F7
:102190000843216808600421A06901EA104094F80E
:1021A000241001F01001084321684860A06AB0F5CE
:1021B000005F03D1A08D80B2216808612068C069EA
:1021C00020F400602168C86100206065012084F867
:1021D0005100002094E7000010B586B00446304955
:1021E0002068884259D100BF002000902D48006827
:1021F00040F480402B4908600846006800F48040A5
:10220000009000BF00BF00BF00200090254810389C
:10221000006840F00400234910390860084600684F
:1022200000F00400009000BF00BF00BF002000903D
:102230000846006840F0020008600846006800F0A8
:102240000200009000BF00BF042001900220029015
:10225000052005900120039001A91348FFF7FCF920
:102260000820019002200290032004900120039096
:102270000520059001A90C48FFF7EEF94FF48060A6
:102280000190022002900320049001200390052079
:10229000059001A90548FFF7DFF906B010BD000061
:1022A000003800404038024000080240000402406C
:1022B0002DE9F04F85B00446884691461D460E9E96
:1022C00000200490012002900020019000BF94F8AB
:1022D0005000012803D1022005B0BDE8F08F012095
:1022E00084F8500000BFFFF7BFFA074694F851B0DA
:1022F00060680390AA46BBF1010F0BD00398B0F5BC
:10230000827F04D1A06810B9BBF1040F02D0022073
:1023100001902CE1B8F1000F03D0B9F1000F00D00B
:1023200015B90120019022E194F85100042802D04F
:10233000052084F8510000206065C4F83890E587D6
:10234000A587C4F83080E586A58620646064A06A0D
:10235000B0F5005F0DD100BF2068006820F4005088
:10236000216808602068006840F400502168086017
:1023700000BF2068006800F04000402805D02068B9
:10238000006840F0400021680860E068B0F5006F28
:1023900056D1606810B1BAF1010F09D1206B0088E5
:1023A0002168C860206B801C2063E08E401EE086A0
:1023B0003FE02068806800F0020002281CD1E08E17
:1023C000D0B10298012817D1206B00882168C8601D
:1023D000206B801C2063E08E401EE086002002906F
:1023E000E08E48B9A06AB0F5005F05D120680068AA
:1023F00040F48050216808602068806800F0010087
:1024000068B1E08F58B12068C068A16B0880A06BEC
:10241000801CA063E08F401EE08701200290FFF740
:1024200023FAC01BB04204D3701C10B103200190EA
:102430009DE0E08E0028BCD1E08F0028B9D156E0A5
:10244000606810B1BAF1010F09D1206B00782168E2
:102450000873206B401C2063E08E401EE08640E045
:102460002068806800F0020002281CD1E08ED0B104
:102470000298012817D1206B007821680873206B1F
:10248000401C2063E08E401EE08600200290E08E1B
:1024900048B9A06AB0F5005F05D12068006840F433
:1024A0008050216808602068806800F0010068B1F1
:1024B000E08F58B12068C068A16B0870A06B401C09
:1024C000A063E08F401EE08701200290FFF7CCF967
:1024D000C01BB04201D3701C00B916B90320019093
:1024E00045E0E08E0028BBD1E08F0028B8D1A06A7B
:1024F000B0F5005F12D13346012211462046009705
:1025000001F060FC30B1606D40F0020060650320B6
:1025100001902CE02068C068049000BF20688068AB
:1025200000F01000102809D1606D40F002006065D5
:102530004FF6EF7021688860012001903A463146DD
:10254000204601F009FC20B10120019020206065A7
:102550000DE0A06850B900BF002000902068C0685E
:10256000009020688068009000BF00BF00BF01207D
:1025700084F8510000BF002084F8500000BF01988B
:10258000AAE670B504462546681EB0F1807F01D3E7
:1025900001200FE0681E4FF0E02148610F214FF04D
:1025A000FF3001F03BFF00204FF0E0218861072061
:1025B0000861002070BD7047704710B504460CB923
:1025C000012010BD94F83D0028B9002084F83C009B
:1025D000204600F025F8022084F83D00211D2068E7
:1025E00001F074FC012084F8460000BF84F83E002E
:1025F00001213F200155402001554120015500BFD8
:1026000000BF012084F842004320015544200155B9
:102610004520015500BF012084F83D000020D0E78F
:1026200038B504460E492068884217D100BF002003
:1026300000900C48006840F010000A490860084605
:10264000006800F01000009000BF00BF00220221CF
:102650003620FFF770F93620FFF75DF938BD00002E
:102660000010004040380240014691F83D0001282A
:1026700001D001207047022081F83D000868C06841
:1026800040F001000B68D8601A4B086898421BD0D4
:102690000868B0F1804F17D0174B0868984213D0E4
:1026A000164B086898420FD0154B086898420BD01B
:1026B000144B0868984207D0134B0868984203D01F
:1026C000124B086898420CD10868806800F0070235
:1026D000062A0CD00868006840F001000B681860FA
:1026E00005E00868006840F001000B6818600020F1
:1026F000C0E7000000000140000400400008004066
:10270000000C00400004014000400140001800405F
:10271000704710B5044620680069C0F34000D8B186
:102720002068C068C0F34000B0B16FF002002168BB
:102730000861012020772068806900F0030018B14B
:102740002046FFF7E5FF05E0204600F0ADF8204603
:1027500000F0ABF80020207720680069C0F380000B
:10276000D8B12068C068C0F38000B0B16FF0040039
:1027700021680861022020772068806900F4407099
:1027800018B12046FFF7C4FF05E0204600F08CF8A2
:10279000204600F08AF80020207720680069C0F306
:1027A000C000D8B12068C068C0F3C000B0B16FF0FD
:1027B000080021680861042020772068C06900F0C3
:1027C000030018B12046FFF7A3FF05E0204600F004
:1027D0006BF8204600F069F8002020772068006937
:1027E000C0F30010D8B12068C068C0F30010B0B1C9
:1027F0006FF0100021680861082020772068C06908
:1028000000F4407018B12046FFF782FF05E0204633
:1028100000F04AF8204600F048F8002020772068B1
:10282000006900F0010058B12068C06800F00100A4
:1028300030B16FF0010021680861204600F036F8E1
:1028400020680069C0F3C01058B12068C068C0F3A8
:10285000C01030B16FF08000216808612046FFF79A
:10286000AAFE20680069C0F3801058B12068C068D3
:10287000C0F3801030B16FF040002168086120463D
:1028800000F09EF820680069C0F3401058B120683D
:10289000C068C0F3401030B16FF0200021680861BB
:1028A0002046FFF789FE10BD7047704710B52DED2B
:1028B000068B84B004463449206888425FD133488F
:1028C0003349344B344ACDE900103449344802F0DE
:1028D0007DFADFED342A9FED332ADFED321A2E48E0
:1028E00090ED001A2D48D0ED000A2D4890ED000A19
:1028F00000F0A6FA9FED2B4ADFED2A3A9FED293A28
:102900002548D0ED002A254890ED002A2448D0ED36
:10291000001A1E4890ED001A1D48D0ED000A1D480F
:1029200090ED000A00F0B0FE00F0EEFD02F002FAB9
:102930001D4880ED000A02F0EFF91C4880ED000A06
:1029400002F006FA1A4880ED000A006802F036FC30
:1029500041EC180B1548006802F030FC41EC190BF3
:102960001148006802F02AFC41EC1A0B8DED028B35
:102970008DED009B53EC1A2B0EA0FDF759FD04B012
:10298000BDEC068B10BD0000001000404C00002084
:102990004800002044000020400000203C000020AF
:1029A00038000020000000005000002058000020E7
:1029B0005400002025662C25662C25660D0A000093
:1029C00070477047704700002DE9F84F04462068B3
:1029D00005682068C668206847694FF00009CA4644
:1029E00005F00F09B9F1000F0AD105F0200038B148
:1029F00006F0200020B1204601F009FBBDE8F88F69
:102A0000B9F1000F72D007F0010018B906F4907008
:102A100000286BD005F0010030B106F4807018B1C9
:102A2000206C40F00100206405F0040030B107F094
:102A3000010018B1206C40F00200206405F0020093
:102A400030B107F0010018B1206C40F004002064A0
:102A500005F0080048B106F0200010B907F00100A9
:102A600018B1206C40F008002064206C70B305F0B1
:102A7000200028B106F0200010B1204601F0C7FA6E
:102A800020684069C0F3801A206C00F0080010B97B
:102A9000BAF1000F23D0204601F08EFA2068406979
:102AA00000F04000402816D12068406920F0400026
:102AB00021684861A06B50B15648A16B0865A06BB6
:102AC000FEF7B5FD10B1A06B016D88470CE0204604
:102AD000FFF778FF08E02046FFF774FF04E0204688
:102AE000FFF770FF0020206488E7FFE7206B0128D4
:102AF00079D105F01000002875D006F010000028EC
:102B000071D000BF0020009020680068009020680D
:102B10004068009000BF00BF2068406900F040009E
:102B2000402839D1A06B006840681FFA80F8B8F1DE
:102B3000000F30D0A08D40452DDDA4F82E80A06B75
:102B4000C069B0F5807F1FD02068C06820F4807015
:102B50002168C8602068406920F001002168486150
:102B60002068406920F0400021684861202084F8F6
:102B70003E00002020632068C06820F0100021681B
:102B8000C860A06BFEF7FEFCA08DE28D801A81B2BA
:102B90002046FFF716FF31E7A08DE18D401A1FFA9E
:102BA00080F8E08DE8B1B8F1000F1AD02068C06855
:102BB00020F490702168C8602068406920F001000E
:102BC00021684861202084F83E00002020632068AE
:102BD000C06820F010002168C86041462046FFF719
:102BE000F0FE0BE7FFE705F0800030B106F0800053
:102BF00018B1204601F0A3FB00E705F0400030B11A
:102C000006F0400018B1204601F0F1F9F6E600BFE9
:102C1000F4E60000A53F000810B504460CB90120F9
:102C200010BDA06900B100E000BF94F83D0028B9D4
:102C3000002084F83C00204600F028F8242084F886
:102C40003D002068C06820F400502168C86020461C
:102C500001F03CFA2068006920F490402168086186
:102C60002068406920F02A00216848612068C06817
:102C700040F400502168C86000202064202084F8BF
:102C80003D0084F83E000020CAE7000010B586B081
:102C900004462E492068884255D100BF00BF00205D
:102CA00000902B48006840F0100029490860084651
:102CB000006800F01000009000BF00BF00BF00BF20
:102CC00000BF0020009022481438006840F0010046
:102CD0001F49143908600846006800F001000090A0
:102CE00000BF00BF00BF00BF00BF0020009008462B
:102CF000006840F0010008600846006800F001002C
:102D0000009000BF00BF00BF481501900220029054
:102D100001200390022004900720059001A90D488E
:102D2000FEF79AFC4FF4806001900720059001A9FE
:102D30000848FEF791FC2520FEF7EDFD0322114621
:102D40002520FEF7F8FD06B010BD00000010014080
:102D5000443802400000024070B504460D46164655
:102D600094F83E00202816D105B10EB9012070BD9F
:102D700000BF94F83C00012801D10220F7E70120B0
:102D800084F83C0000BF00202063324629462046DC
:102D900001F0B2FAEBE70220E9E7000010B50446C3
:102DA0002049206888423BD11F48008800F4004039
:102DB00088BB1D48008800F4804070B11B48007833
:102DC0000A2803D000201849088024E0164800880B
:102DD00040F40040144908801DE0144800780D2894
:102DE00006D11148008840F480400F49088012E065
:102DF0000E4800780C490988C1F30D010C4A505463
:102E000009480088401C0849088008460088C728EF
:102E100001DD00200880012204490648FFF79CFFDD
:102E200010BD00000010014064000020660000207A
:102E300014010020DC010020704700BFFEE7000005
:102E400000B52DED108B87B0F0EE40EAB0EE60AA31
:102E5000F0EE41AAF0EE619AF0EE428AB0EE629A8C
:102E60006EEEAE0A4AEE0A0A4AEEAA0AB0EE600A0E
:102E700002F06CF8B0EE408A2EEE880AF0EE40EADE
:102E80002AEE080AB0EE40AA2AEE880AF0EE40AA1E
:102E9000F5EEC09AF1EE10FA21D0F5EEC08AF1EE0F
:102EA00010FA1CD0B5EEC09AF1EE10FA17D069EE08
:102EB000A90A48EEA80A49EE090AB0EE600A02F033
:102EC00045F8B0EE408A29EE880AF0EE409A28EEE6
:102ED000880AF0EE408A29EE080AB0EE409AF0EE39
:102EE0006A0AB1EE6E0A01F043FBB0EE40FAF0EE72
:102EF0006A0AB0EE4A0A01F03BFBF0EE40FAB0EE8F
:102F00006F0A01F005FD8DED060AB0EE6F0A01F0C3
:102F100057FC8DED050AB0EE4F0A01F051FC8DED26
:102F2000030AB0EE4F0A01F0F3FC8DED040AF5EE52
:102F3000C09AF1EE10FA34D0F5EEC08AF1EE10FA34
:102F40002FD0B5EEC09AF1EE10FA2AD09DED030A0B
:102F500029EE800ADDED040A28EEA01ADDED060A4E
:102F600001EE200ADDED040A29EE201ADDED050A46
:102F700001EE200A8DED020A9DED050A28EE800A79
:102F8000DDED060A09EE600A8DED010ADDED020AAB
:102F90009DED010AB1EE400A01F0EAFAB0EE40BA46
:102FA00001E09FED55BAF6EE000A6FEEA00AB0EE12
:102FB000600A01F005FCF0EE40BAF6EE000A6FEE92
:102FC000200AB0EE600A01F0FBFBB0EE40CAF6EE5C
:102FD000000A6BEE200AB0EE600A01F0F1FBF0EEA1
:102FE00040CAF6EE000A6FEEA00AB0EE600A01F0E9
:102FF0008FFCB0EE40DAF6EE000A6FEE200AB0EE7B
:10300000600A01F085FCF0EE40DAF6EE000A6BEEA5
:10301000200AB0EE600A01F07BFCB0EE40EA2BEE35
:103020008C0A20EE2C0A6DEE2D0A00EE8E0A334833
:1030300080ED000A2DEE0C0A20EE2C0A6BEEAD0A94
:1030400000EECE0A2E4880ED000A2BEEAD0A20EEEF
:103050002C0A6DEE0C0A00EE8E0A2A4880ED000A5A
:103060002BEE8C0A20EE0E0A6DEE2D0A00EEEC0A15
:10307000254880ED000A2148D0ED000A60EEA00A44
:103080001F4890ED001AD0ED001A41EE210A1D48AC
:1030900090ED001AD0ED001A41EE210A1A4890ED89
:1030A000001AD0ED001A41EE210AB0EE600A00F0DD
:1030B000C3FAB0EE408A114890ED000A20EE080AEB
:1030C00080ED000A0E4890ED000A20EE080A80ED1F
:1030D000000A0C4890ED000A20EE080A80ED000A74
:1030E000094890ED000A20EE080A80ED000A07B0BA
:1030F000BDEC108B00BD00000000000008000020A7
:103100000C000020100000201400002010B52DED50
:10311000108BF0EE408AB0EE609AF0EE419AB0EE7D
:1031200061BAB0EE42AAF0EE62AAB5EEC0BAF1EE14
:1031300010FA09D1B5EEC0AAF1EE10FA04D1F5EEFD
:10314000C0AAF1EE10FA7DD06BEE0B0A4AEE0A0A25
:103150004AEEAA0AB0EE600A01F0F8FEB0EE408A2C
:10316000B0EE480A2BEE000AB0EE40BAB0EE480AC4
:103170002AEE000AB0EE40AAB0EE480A2AEE800A13
:10318000F0EE40AAB04890ED000AB048D0ED000A39
:1031900020EE200AAE48D0ED000AAE4890ED001AAD
:1031A000B0EE40DA00EEC1DAA94890ED000AA64878
:1031B000D0ED000A20EE200AA648D0ED000AA34870
:1031C00090ED001AF0EE40DA40EE81DAA048D0ED42
:1031D000000A90ED001AB6EE000A10EE810A9B4834
:1031E000D0ED000A90ED001AB0EE40EA00EE81EA60
:1031F0002AEE0E0AF0EE40EA4AEEEDEA2AEE8D0AD9
:10320000B0EE40FA0BEE4EFA2BEE2D0AF0EE40FA3D
:103210004AEE4DFA904890ED000AB5EEC00AF1EE84
:1032200010FA43DD90ED000A60EE2E0A8B4890ED17
:10323000001A8B4890ED000A00EE810A80ED000A2A
:10324000854800E059E090ED000A60EE0F0A8348DF
:1032500090ED001A834890ED000A00EE810A80ED9F
:10326000000A7D4890ED000A60EE2F0A7B4890ED41
:10327000001A7D4890ED000A00EE810A80ED000AF8
:10328000774890ED000A38EE800AF0EE408A7548E3
:1032900090ED000A39EE000AB0EE409A724890EDC7
:1032A000000A39EE800AF0EE409A0EE09FED6F0AB8
:1032B0006B4880ED000A9FED6D0A6A4880ED000AB8
:1032C0009FED6A0A684880ED000AF7EE000AB0EE4A
:1032D000680A00EEAE0AF0EE408AF7EE000AB0EEA1
:1032E000490A00EE8F0AB0EE409AF7EE000AB0EEFF
:1032F000690A00EEAF0AF0EE409A584890ED000AD5
:10330000F6EE000A20EE200A20EE280AF0EE408AAF
:1033100090ED000AF6EE000A20EE200A20EE090ADF
:10332000B0EE409A90ED000AF6EE000A20EE200A78
:1033300020EE290AF0EE409A4548D0ED00BA424806
:1033400090ED00CA4348D0ED00CAB1EE4C0A20EE21
:10335000280A0CEEC90A3D48D0ED000A00EEE90A41
:103360003B48D0ED000A30EE200A80ED000A2BEE3B
:10337000A80A0CEEA90A3548D0ED000A00EEC90AE9
:103380003148D0ED000A30EE200A80ED000A2BEE25
:10339000890A0CEE690A2D48D0ED000A00EEA80A51
:1033A0002C48D0ED000A30EE200A80ED000A2BEE0A
:1033B000A90A0CEE090A0CEEE80A2448D0ED000A2E
:1033C00030EE200A80ED000A2148D0ED000A60EEC0
:1033D000A00A1D4890ED001AD0ED001A41EE210A16
:1033E0001C4890ED001AD0ED001A41EE210A174852
:1033F00090ED001AD0ED001A41EE210AB0EE600AFD
:1034000001F0A4FDB0EE408A114890ED000A20EED4
:10341000080A80ED000A0C4890ED000A20EE080A28
:1034200080ED000A0B4890ED000A20EE080A80EDBE
:10343000000A064890ED000A20EE080A80ED000A16
:10344000BDEC108B10BD00000C000020140000200B
:1034500008000020100000200400002024000020AC
:10346000180000201C0000202000002000000000A8
:10347000DFED190A1948C0ED000AF7EE000A1848F6
:10348000C0ED000ADFED170A1748C0ED000ADFEDB6
:10349000150A1648C0ED000ADFED120A1448C0ED07
:1034A000000ADFED100A1348C0ED000ADFED0D0A37
:1034B0001148C0ED000ADFED0B0A1048C0ED000A0C
:1034C00000200F490870F7EE000A80EE801A0D48C0
:1034D00080ED001A70470000CDCC4C3E0400002067
:1034E00008000020000000000C0000201000002058
:1034F00014000020180000201C00002020000020E4
:10350000340000202400002010B5434890ED001A3C
:1035100021EE011A4148D0ED001A90ED002A01EE8B
:10352000821AF7EE001AB0EE002A42EE411AF0EECF
:10353000610A3B4890ED001A3748D0ED001A21EEA1
:10354000211A3648D0ED001A364890ED002A01EED7
:10355000821AF0EE001A21EE211AB0EE410A01F0B3
:1035600007F8DFED310A20EE200A304880ED000A2E
:103570002948D0ED000A2B4890ED001A60EE810A30
:10358000274890ED001A2548D0ED001A41EE610A57
:10359000B8EE001A60EE810AB0EE600A00F052FF49
:1035A000DFED210A20EE200A214880ED000A1B48A9
:1035B00090ED001A21EE011A1A48D0ED001A90ED94
:1035C000002A01EE821AF7EE001AB0EE002A42EE4F
:1035D000411AF0EE610A124890ED001A1148D0ED40
:1035E000001A21EE211A0C48D0ED001A0B4890ED7C
:1035F000002A01EE821AF0EE001A21EE211AB0EE36
:10360000410A00F0B5FFDFED080A20EE200A094864
:1036100080ED000A10BD00000C000020100000200A
:103620000800002014000020E12E65422800002040
:103630002C00002030000020F0EE400AF6EE001AC8
:1036400060EEA11AB0EE611AB0EE600A10EE100A38
:103650000C49A1EB600000EE100A21EE002AF7EE03
:10366000081A42EE401A61EE801AB0EE610A21EEAD
:10367000002AF7EE081A42EE401A61EE801AB0EE08
:10368000610A7047DF59375F00B52DED108B95B09B
:10369000B0EE40AAF0EE60AAB0EE41BAF0EE61CA18
:1036A000F0EE42BAB0EE62CAF0EE439AB0EE638A30
:1036B000F0EE448AF5EEC09AF1EE10FA1BD1B5EEA9
:1036C000C08AF1EE10FA16D1F5EEC08AF1EE10FACA
:1036D00011D1F0EE4C2AB0EE6B2AF0EE6C1AB0EE7F
:1036E0004B1AF0EE6A0AB0EE4A0AFFF70FFD15B06A
:1036F000BDEC108B00BDF5EEC0CAF1EE10FA09D199
:10370000F5EEC0BAF1EE10FA04D1B5EEC0CAF1EE92
:1037100010FA7CD06CEEAC0A4BEEAB0A4CEE0C0A05
:10372000B0EE600A01F012FCB0EE409A2CEE890A6D
:10373000F0EE40CA2BEE890AF0EE40BA2CEE090AF0
:10374000B0EE40CA69EEA90A48EE080A48EEA80A97
:10375000B0EE600A01F0FAFBB0EE409A29EE890A59
:10376000F0EE409A28EE090AB0EE408A28EE890A67
:10377000F0EE408AFE4890ED000A20EE000A8DED42
:10378000140A90ED000AFB48D0ED000A20EE20EA72
:10379000F74890ED000AF848D0ED000A20EE20DA54
:1037A000F34890ED000AF548D0ED000A20EE200A1B
:1037B0008DED130AEF4890ED000A20EE000A8DED22
:1037C000120A90ED000AEC48D0ED000A20EE200A23
:1037D0008DED110AE74890ED000AE848D0ED000AA7
:1037E00060EE20DAE44890ED000A60EE00EA90ED29
:1037F000000AE248D0ED000A20EE20FA90ED000A1F
:1038000060EE00FAB6EE000A30EE6E0A00E060E10B
:1038100030EE6F0A20EE291A9DED110ADDED130A34
:1038200070EE600AB0EE410A08EE200A7DEE8D0AC5
:1038300008EEA00AF0EE000A60EE200ACDED100AB4
:103840009DED110ADDED130A30EE200A60EE290A23
:103850009DED120AB6EE001A31EE400A30EE6F1AF4
:10386000B0EE600A08EE010A7FEE4E0A08EEA00AEA
:10387000F0EE000A60EE200ACDED0F0ADDED100A31
:1038800020EEA01ADDED0F0A00EEA01AB0EE410AFC
:1038900001F006F98DED0E0A3DEECD0A20EE290A63
:1038A0007FEE0E0A08EE200ADDED120AB6EE001ACF
:1038B00071EE600A70EEEE0A08EEA00AF0EE000A61
:1038C00020EE200A8DED0D0A3DEECD0A8DED0C0A9D
:1038D0003EEE0F0A8DED0B0A9DED140AF6EE000A7E
:1038E00030EE600A30EE2F0A8DED0A0AB6EE000ABD
:1038F00030EE6E0A70EE6F0A9DED0E0A20EE800A21
:103900003DEECD1ADDED0D0A00EE810A8DED090ABE
:103910009DED110ADDED130A70EE600A9DED0E0AB1
:1039200020EE800A3EEE0F1ADDED0D0A00EE810A50
:103930008DED080A7DEE2D0A9DED0E0A20EE801A0F
:103940009DED120AF6EE000A30EEC00A70EE6E1A15
:10395000DDED0D0AB0EE410A00EEA10A8DED070A79
:103960009DED0A0A6BEE800A9DED0B0A4CEE400AB3
:103970009DED070A28EE001A9DED080A08EEC01A10
:1039800030EE810A8DED060A9DED0C0A6CEE000A00
:103990009DED0A0A4CEEC00A9DED090A28EE801A38
:1039A0009DED070A09EEC01A30EE810A8DED050A79
:1039B0009DED0B0A6CEE800A9DED0C0A4BEEC00AE1
:1039C0009DED080A29EE801A9DED090A08EE401ABD
:1039D00030EE810A8DED040A694890ED000AB5EEDB
:1039E000C00AF1EE10FA47DDD0ED000A9DED060A9F
:1039F00060EE800A634890ED001A634890ED000A7B
:103A000000EE810A80ED000A5D48D0ED000A9DEDD0
:103A1000050A60EE800A5B4890ED001A5B4890ED65
:103A2000000A00EE810A80ED000A5548D0ED000A38
:103A30009DED040A60EE800A524890ED001A544849
:103A400090ED000A00EE810A80ED000A4E4890EDEC
:103A5000000A3AEE000AB0EE40AA4C4890ED000A87
:103A60003AEE800AF0EE40AA494890ED000A3BEE9B
:103A7000000AB0EE40BA0EE09FED460A424880EDE3
:103A8000000A9FED440A414880ED000A9FED410A7B
:103A90003F4880ED000A9DED060AB7EE001AF0EEF1
:103AA0004A0A41EE000AB0EE60AA9DED050AB7EEA3
:103AB000001AF0EE6A0A41EE000AF0EE60AA9DEDEF
:103AC000040AB7EE001AF0EE4B0A41EE000AB0EE1F
:103AD00060BA2C4890ED000AF6EE000A20EE200AAB
:103AE00020EE0A0AB0EE40AA90ED000AF6EE000AB7
:103AF00020EE200A20EE2A0AF0EE40AA90ED000AFD
:103B0000F6EE000A20EE200A20EE0B0AB0EE40BAD4
:103B1000174890ED000A8DED030A164890ED000A53
:103B20008DED020A144890ED000A8DED010A9DED1D
:103B3000020AB1EE400A60EE0A0A9DED010A40EE6B
:103B40006A0A0E4890ED000A40EE4B0A084890EDD4
:103B5000000A30EE800A80ED000A9DED030A60EE57
:103B60000A0A9DED010A40EE0B0A044814E0000029
:103B7000080000200C00002010000020140000208D
:103B80000400002024000020180000201C00002059
:103B9000200000200000000090ED000A40EE6A0ABC
:103BA000374890ED000A30EE800A80ED000A9DED66
:103BB000030A60EE2A0A9DED020A40EE4B0A3148E4
:103BC00090ED000A40EE0A0A2F4890ED000A30EE10
:103BD000800A80ED000A9DED030A60EE0B0A9DED60
:103BE000020A40EE2A0A9DED010A40EE4A0A2548E3
:103BF00090ED000A30EE800A80ED000A2348D0EDF7
:103C0000000A60EEA00A1E4890ED001AD0ED001ADE
:103C100041EE210A1C4890ED001AD0ED001A41EE49
:103C2000210A184890ED001AD0ED001A41EE210A41
:103C3000B0EE600A01F08AF9B0EE409A134890EDB8
:103C4000000A20EE090A80ED000A0D4890ED000AF6
:103C500020EE090A80ED000A0B4890ED000A20EEE4
:103C6000090A80ED000A074890ED000A20EE090AD3
:103C700080ED000A00200649087000BF37E500000B
:103C80000C0000201400002010000020080000207C
:103C90003400002000BFFEE7704770472DE9FC5F4D
:103CA00080468A4615461E46701C1FFA80F9CB4690
:103CB0005846FCF7F0FA0446CDF804900198FCF75A
:103CC000EAFA07465DB148F080002070012003E069
:103CD000FF212154411C88B2B042F9DD04E008F014
:103CE0007F00207084F801A000BF002280211848C6
:103CF000FDF7B4FD00BF4FF47A704B463A462146BB
:103D000000901448FEF7D4FA40B13846FCF7F2FAB6
:103D10002046FCF7EFFA0120BDE8FC9F00BF01221E
:103D200080210B48FDF79AFD00BF45B1002004E05B
:103D3000411C795C2954411C88B2B042F8DB3846FA
:103D4000FCF7D8FA2046FCF7D5FA0020E4E700009B
:103D500000100240740000207CB504460D46164653
:103D6000164800681821B0FBF1F01549B0FBF1F0DE
:103D70004FF47A71484301906068B0F5827F0DD1AD
:103D80002B46002280212046009600F01BF898B1B7
:103D9000606D40F02000606503207CBD00BF01988D
:103DA00000B908E00198401E019020688068C0F3C7
:103DB000C0100028F3D100BF0020EEE70000002073
:103DC00040420F002DE9F84F04460D4690461E462E
:103DD000DDF82890FDF748FDA0EB0900371AFDF744
:103DE00043FD82462C480068C0F3CB3078430090F6
:103DF00045E0701C002842D0FDF736FDA0EB0A001C
:103E0000B84200D2A7BB2068406820F0E0002168DB
:103E100048606068B0F5827F0DD1A068B0F5004FB2
:103E200003D0A068B0F5806F05D12068006820F04D
:103E3000400021680860A06AB0F5005F0DD100BFA6
:103E40002068006820F4005021680860206800683D
:103E500040F400502168086000BF012084F8510040
:103E600000BF002084F8500000BF0320BDE8F88F99
:103E7000FFE7009800B900270098401E00902068D6
:103E800080682840A84201D1012000E00020404580
:103E9000AFD10020EAE7000000000020704710B515
:103EA000FDF7E8FC10BD00000348006840F4700016
:103EB000014908607047000088ED00E010B5024835
:103EC000FEF727FC10BD0000CC00002010B50268F2
:103ED000294B98420ED0B0F1804F0BD0274B98421F
:103EE00008D0274B984205D0264B984202D0264B4B
:103EF000984203D122F070024B681A431E4B98423D
:103F000020D0B0F1804F1DD01C4B98421AD01C4BD2
:103F1000984217D01B4B984214D01B4B984211D09B
:103F20001A4B98420ED01A4B98420BD0194B98421C
:103F300008D0194B984205D0184B984202D0184B24
:103F4000984203D122F44072CB681A4322F08003D6
:103F50004C6943EA040202608B68C3620B688362A7
:103F6000054B984202D0084B984201D10B6903637C
:103F70000123436110BD0000000001400004004027
:103F800000080040000C00400004014000400140D7
:103F9000004401400048014000180040001C00405F
:103FA0000020004070B50546AC6B0020E085E08441
:103FB0002046FEF707FD70BD0168C96821F49071C5
:103FC0000268D1600168496921F00101026851610C
:103FD000016B012905D10168C96821F0100102684F
:103FE000D160202180F83E1000210163704710B598
:103FF00004462068C06820F040002168C860202086
:1040000084F83D002046FEF717FF002010BD70B574
:10401000044694F83E00222856D1A068B0F5805F8F
:104020000CD1206950B90025A66A20684068C0F309
:1040300008003080A06A801CA06215E0A56A0026F6
:10404000A068B0F5805F03D0A06828B9206918B9CE
:1040500020684068287004E02068406800F07F0015
:104060002870A06A401CA062E08D401E80B2E085EE
:1040700040BB2068C06820F020002168C86020682C
:10408000C06820F480702168C8602068406920F012
:10409000010021684861202084F83E00206B01283F
:1040A0000AD12068C06820F010002168C860A18D86
:1040B0002046FEF786FC02E02046FEF76FFE002059
:1040C000206370BD0020FCE70220FAE72DE9F84FDD
:1040D00004462068006920F44050E16808432168E4
:1040E00008612169A068084361690843E1690843E0
:1040F00000902068C06849F20C6188430099084329
:104100002168C8602068406920F44070A1690843B4
:104110002168486176492068884203D07549206843
:10412000884203D1FDF732FD814602E0FDF71EFD16
:104130008146E069B0F5004F6CD102206168A0FBB8
:10414000015003461920A9FB007001462A46384653
:10415000FCF7F7F86421B0FBF1F04FEA001A0220F7
:104160006168A0FB01510B461920A9FB00712A468A
:104170003846FCF7E6F8834602206168A0FB015050
:1041800003461920A9FB00712A463846FCF7D9F8E6
:104190006421B0FBF1F000EBC00101EB0010ABEBD0
:1041A0008000322101EBC0006421B0FBF1F000F08F
:1041B000F8000AEB400A02206168A0FB01500346A8
:1041C0001920A9FB007001462A463846FCF7B9F8C9
:1041D000834602206168A0FB015003461920A9FB19
:1041E00000712A463846FCF7ACF86421B0FBF1F0C8
:1041F00000EBC00101EB0010ABEB8000322101EBC2
:10420000C0006421B0FBF1F000F0070050442168C9
:1042100088606AE004206168A0FB01500346192011
:10422000A9FB007001462A463846FCF78AF8824608
:1042300004206168A0FB015003461920A9FB00700F
:1042400001462A463846FCF77CF86421B0FBF1F0C1
:1042500000EBC00101EB0010AAEB8000322101EB62
:1042600000106421B0FBF1F000F0F00A0420616856
:10427000A0FB017003461920A9FB00513A462846CD
:10428000FCF75FF86421B0FBF1F00AEB001A0420A0
:104290006168A0FB01510B461920A9FB00712A4659
:1042A0003846FCF74EF8834604206168A0FB0150B5
:1042B00003461920A9FB007001462A463846FCF740
:1042C00040F86421B0FBF1F000EBC00101EB0010FD
:1042D000ABEB8000322101EB00106421B0FBF1F068
:1042E00000F00F00504421688860BDE8F88F00009E
:1042F000001001400014014010B5034699629A85F0
:10430000DA8500201864222083F83E0000BF0020D8
:1043100083F83C0000BF1868C06840F480701C68D7
:10432000E0601868406940F001001C68606118682E
:10433000C06840F020001C68E060002010BD01460D
:1043400091F83D00212828D18868B0F5805F0BD115
:10435000086948B90A6A1088C0F308000B685860F9
:10436000086A801C086205E00B6A581C086218780D
:104370000B685860C88C401E80B2C88458B9086861
:10438000C06820F080000B68D8600868C06840F002
:1043900040000B68D860002070470220FCE7000056
:1043A00010B50248FEF710FB10BD0000DC01002034
:1043B00000BFFEE703B401984100009850EAC12015
:1043C00018BF04204A0D18BF40F0010040F2FF72F0
:1043D000B2EB515F08BF40F00200012808BF052082
:1043E00002B070474100080218BF04200A0E18BF2F
:1043F00040F001004FF07F4232EA010108BF40F077
:104400000200012808BF052070470000024800682C
:10441000C0F30220704700000CED00E010B500284A
:1044200004DB0A07130E054A135406E00A07140EAC
:10443000034A00F00F031B1FD45410BD00E400E03A
:1044400018ED00E010B54FF00E402DED028BB0EEF0
:10445000408A18EE104A00EB4400B0F1506F4AD881
:104460004FF0FC40B0EB440F22D2B0EEC80AF7EE9A
:10447000000A30EEC00AF6EE000A60EE208A18EE5E
:10448000900A00F0E3FD01EE100A14F0004F1DBF8A
:10449000DFED2D0A9FED2D0AB1EE411ADFED2C0A5A
:1044A00008BF9FED2C0AF8EE001A21EE218A05E0E4
:1044B000DFED290A68EE088AB0EE600A9FED271A40
:1044C000DFED271A30EE080A48EE811A9FED251A13
:1044D00008EEA11ADFED241A48EE811A9FED231A87
:1044E00008EEA11A68EE281ABDEC028B01EE810AD3
:1044F00030EE200A10BD4FF0E440B0EB440F0CD971
:1045000018EE100AFFF76EFF042808BF00F0F4FA57
:10451000B0EE480ABDEC028B10BD4FF07F40B0EB0F
:10452000440F07D2B0EE480ABDEC028BBDE8104044
:1045300000F0D3BA0120FCF73EF8BDEC028BBDE8D9
:10454000104000F0D1BA00000000C9BF22AAFDB996
:104550000000C93F22AAFD390000000024FE1C3DD6
:10456000C78AD83C1E67383D1B93993DAFAA2A3EA7
:1045700010EE100A10B510EE901A4FF0684202EBE0
:1045800040032DED028BB3F1654F3CBF02EB4102BE
:10459000B2F1654F7CD200BFC0F3C753C1F3C7521D
:1045A0009A1A1B2A09DD10F0004F14BF9FED6E0A06
:1045B0009FED6E0ABDEC028B10BD12F11A0F1BDAD3
:1045C00011F0004F09D010F0004F0CBF9FED680AAA
:1045D0009FED680ABDEC028B10BD80EE208A18EEBC
:1045E000100AFFF7FFFE042808BF00F085FAB0EEBE
:1045F000480ABDEC028B10BD4200B2EB410F37D927
:1046000010F0004F19BFDFED5C1A9FED5C1ADFED73
:104610005C1A9FED5C1AB0EE602A0A46F1EE400A81
:1046200080F00041B0EE420A10460A1A5200B2F180
:10463000807F34D2484010F0004FDFED532A9FEDC9
:10464000533A1DBFBEEE002A71EEE21A31EE431A54
:10465000B6EE002A04BF71EEA21A31EE031AF0EE94
:10466000402A42EE602A40EE020A82EEA02A18E0BA
:1046700011F0004F04BF9FED461AF0EE411AD4D05E
:1046800010F0004F1CBFDFED431A9FED431A00E00E
:1046900026E004BFDFED411A9FED411AC5E780EE29
:1046A000202A22EE020ADFED3F0ADFED3F2ABDECB1
:1046B000028B40EE202ADFED3D0A40EE220ADFEDBC
:1046C0003C2A40EE202ADFED3B0A40EE220A22EE91
:1046D000000A00EE201A31EE020A30EE210A10BD67
:1046E0004FF07F42B2EB400F28BFB2EB410F05D233
:1046F000BDEC028BBDE8104000F0F2B940EA0103C6
:104700005B0008BF41F0FF410BD0B2EB400F08BF88
:10471000B2EB410F08D120F0804000EE100A21F0EA
:10472000804100EE901A37E7B2EB400F12BF5FEA0C
:10473000410240F0FF4001F000413FF42DAF4A003C
:1047400092EA40033FF528AF002AACBF9FED1A1A4A
:104750009FED1A1A20EE010A60EE810A10EE100A8F
:1047600010EE901A18E70000DB0FC9BFDB0FC93F3E
:10477000DB0F4940DB0F49C00000C9BF22AAFDB9C9
:104780000000C93F22AAFD390060ED3EC30ACE37C2
:1047900000000000000049C022AA7DBA0000494084
:1047A00022AA7D3A2DAD65BD8FB8D53D0FB511BE9E
:1047B00061C84C3EA8AAAABE0000804F0000802F0E
:1047C00010EE101A08B5444A6846B2EB410F28D9DA
:1047D0004FF0E640B0EB410F94BF00204FF0FF30A8
:1047E00000900098002861DB60EE000A10F0010FD5
:1047F00045D010F0020FDFED391A9FED391A00EEA7
:10480000E11ADFED381A40EE811A21EEA01AF0EE1F
:10481000400A40EE010A08BFF1EE600AB0EE600AFD
:1048200008BD314B21F0004293423CD911F0004FBA
:10483000DFED2E0A20EE201ADFED2D0A19BF31EE32
:10484000601A71EE200A31EE201A71EE600ABDEE98
:10485000E01A11EE100A9FED271A00F0030000EE97
:10486000C10A9FED251A009000EEC10A9FED231AA0
:1048700000EEC10A9FED221A00EEC10AB1E79FEDDA
:10488000211A9FED210A10F0020F00EE810A9FED20
:104890001F1A00EE801AB7EE000A00EE810A18BF58
:1048A000B1EE400A08BD00F02FF99AE710EE100AA9
:1048B0004000B0F17F4F3CBFB7EE000A08BD07D102
:1048C0004FF00100FBF777FEBDE8084000F00CB99F
:1048D000BDE8084000F001B9B61F927E336D4C3937
:1048E000DA82083CA0AA2ABE490E494683F9223F33
:1048F0000000004B0000C93F00A0FD390020A2339A
:104900001A61342CB93AB2BACA9F2A3DDDFFFFBE04
:1049100000B510EE101A2DED028B81B0524A684698
:10492000B2EB410F2ED94FF0E640B0EB410F94BFF0
:1049300000204FF0FF3000900098B0EE408A002831
:104940006ADB10F0010F4BD068EE080A9FED471AA2
:104950009FED470A00EE810A9FED461A10F0020F04
:1049600000EE801AB7EE000A00EE810A02BF01B025
:10497000BDEC028B00BD00BF01B0B1EE400ABDEC42
:10498000028B00BD3C4B21F00042934241D911F013
:10499000004FDFED3A0A20EE201ADFED390A19BF89
:1049A00031EE601A71EE200A31EE201A71EE600AC3
:1049B000BDEEE01A11EE100A9FED321A00F003006E
:1049C00000EEC10A9FED301A009000EEC10A9FED83
:1049D0002F1A00EEC10A9FED2E1A00EEC10AABE7B6
:1049E00028EE080A9FED2B1ADFED2B0A10F0020FBC
:1049F00040EE410A9FED291A00EE201A61EE000AEE
:104A0000B0EE480A08EE200AB6D101B0BDEC028B28
:104A100000BD00F079F88FE718EE100A4000B0F101
:104A20007F4F0DD218EE100AFFF7DCFC042808BFF8
:104A300000F062F8B0EE480A01B0BDEC028B00BD98
:104A400009D10120FBF7B7FD01B0BDEC028B5DF889
:104A500004EB00F049B801B0B0EE480ABDEC028B9F
:104A60005DF804EB00F039B8B61F927EB93AB2BADD
:104A7000CA9F2A3DDDFFFFBE490E494683F9223F0A
:104A80000000004B0000C93F00A0FD390020A23308
:104A90001A61342C336D4C39DA82083CA0AA2ABE44
:104AA00010B52DED028BB1EEC08A18EE100A20F081
:104AB0000040C0F1FF40C00F0AD010EE100A20F0F5
:104AC0000040C0F1FF40C00F04BF0120FBF773FDA1
:104AD000B0EE480ABDEC028B10BD30EE000A704704
:104AE00030EE200A70470000DFED020A80EEA00AD7
:104AF00070470000000000009FED020A20EE000A4F
:104B000070470000000000102DE9F0014FF07F42D7
:104B1000B2EB410F9FBF4FF0FF310160BDE8F001E4
:104B200070474FF0004242EA0123C1F3C752783A7E
:104B3000551112F01F0C434CCCF120067C44C1F3FC
:104B4000C752A2F178024FEA621204EB820254F8D3
:104B5000254008BFD2E9015612D0556804FA0CF47A
:104B600025FA06F73C43976805FA0CF527FA06F88C
:104B7000D26807FA0CFCF24045EA08054CEA020646
:104B8000A4FB034CA5FB0352A6FB03631D449D42FB
:104B900034BF012600261319334416B1934202D9BB
:104BA00003E0934201D2012200E00022624402F1BC
:104BB000200C9206DC0C42EA443200EE102A5B0321
:104BC000DFED210AF8EEC01A00EE103A4FEA9C1C05
:104BD00011F0004FB8EE400AC0F800C020EE201AD5
:104BE00000EE105ADFED190AB8EE400A20EE200A56
:104BF00071EE810A70EE800A10EE902A02F50062D2
:104C00006FF30B0200EE902A70EEE11A31EEC11A3A
:104C1000DFED101A30EE411A9FED0D0A20EE800AEA
:104C200001EE210A9FED0C1A00EE810A04BFBDE8D7
:104C3000F0017047CCF180510160BDE8F001B1EEA8
:104C4000400A704784070000000000360000802CF6
:104C500022AAFD29DB0FC92F0000C92F00BF704712
:104C600000BF704710B5094809490860002108488D
:104C7000816042F2CF000649486009210448C160C2
:104C8000FDF79BFC0248FDF7EFFC10BD0010004053
:104C9000CC00002001490860704700005C00002043
:104CA00010B504464FF47A7104FB01F000F002F8ED
:104CB00010BD000070B5034600224FF0E026756974
:104CC0000D4E366803FB06F44FF0E026B16910E0A4
:104CD0004FF0E026B06988420BD0884202D20E1A0B
:104CE000324402E02E1A0E4432440146A24200D35E
:104CF00000E0EDE700BF70BD5C00002000BF054A8A
:104D0000126802F04002002AF9D0C2B2014B5A6088
:104D1000704700000010014010B50448007808B941
:104D2000FEF7F2FB024890ED000A10BD34000020AF
:104D30002C00002010B50448007808B9FEF7E4FB09
:104D4000024890ED000A10BD340000202800002029
:104D500010B50448007808B9FEF7D6FB024890ED7C
:104D6000000A10BD340000203000002000B587B0DC
:104D700000F046F900BF002001901248006840F0A2
:104D80001000104908600846006800F0100001900B
:104D900000BF00BF142102A8FBF78AFB802002900D
:104DA000012003900320059002A90748FCF754FC5A
:104DB00000BF012280210448FCF750FD00BF07B06E
:104DC00000BD000030380240001002402DE9FE43D3
:104DD00004460D4616461F46DDE90A89002000906C
:104DE000019002900C236A4600211F20FEF756FF17
:104DF0009DF801009DF8001040EA012000B200EE8D
:104E0000100AB8EEC00ADFED340A80EE201A84EDF5
:104E1000001A9DF803009DF8021040EA012000B23C
:104E200000EE100AB8EEC00ADFED2B0A80EE201A61
:104E300085ED001A9DF805009DF8041040EA012058
:104E400000B200EE100AB8EEC00ADFED230A80EED1
:104E5000201A86ED001A9DF807009DF8061040EA1A
:104E6000012000B200EE100AF8EEC00A9FED1B1AF6
:104E700080EE810ADFED1A0A20EE200A87ED000A93
:104E80009DF809009DF8081040EA012000B200EEEC
:104E9000100AF8EEC00A9FED111A80EE810ADFEDCC
:104EA000100A20EE200A88ED000A9DF80B009DF8FC
:104EB0000A1040EA012000B200EE100AF8EEC00A23
:104EC0009FED061A80EE810ADFED050A20EE200A2A
:104ED00089ED000ABDE8FE83000080466F12834220
:104EE00035FA8E3C10B5FFF741FF01230022114631
:104EF0007620FEF7D3FE0123002219461120FEF78B
:104F0000CDFE0120FFF7CCFE012300220521132056
:104F1000FEF7C4FE0123002211461620FEF7BEFE56
:104F2000012300220F214E20FEF7B8FEC820FFF714
:104F3000C1FE0123002246214F20FEF7AFFE0123D0
:104F4000002266215020FEF7A9FE10BD08B5F0EE44
:104F5000402AB7EE000A8DED000AB0EE620AFEF7B5
:104F60006BFBDDED000A80EE801A8DED001A9DEDE1
:104F7000000A08BD1CB5FCF789FC072302220821A2
:104F80004FF4A87000F082F8A820FFF783FE4FF4DA
:104F9000E13000F0DBF8FFF7A5FF11481149124B93
:104FA000124ACDE9001012491248FFF70FFF9FED9A
:104FB000120AFEF75DFADFED112A9FED102ADFEDF0
:104FC0000F1A0A4890ED001A0948D0ED000A094866
:104FD00090ED000AFDF734FFFFF744FE00BFFEE747
:104FE0004C00002048000020440000204000002029
:104FF0003C0000203800002000007A44000000003F
:1050000010B51048104908604FF4827048600021C4
:105010000D488160C160016141614FF4007181619F
:105020003821C1610021016241628162FDF764F8AB
:1050300005480068006840F04000034909680860BE
:1050400010BD0000003800407400002010B500EED4
:10505000100A2DED028BB1EEC08A18EE100A20F076
:105060000040C0F1FF40C00F0AD010EE100A20F03F
:105070000040C0F1FF40C00F04BF0120FBF79BFAC6
:1050800018EE100ABDEC028B10BD00002DE9F041B6
:1050900092B080460C4615461E460027302106A8D1
:1050A000FBF706FA142101A8FBF702FA00BF002063
:1050B00000902448006840F080502249086008466B
:1050C000006800F08050009000BF00BF00BF0020CB
:1050D00000901D48006840F480401B490860084665
:1050E000006800F48040009000BF00BF01200690DF
:1050F0000004079002200C9041050D91CDF83C80F2
:105100000E941095119606A8FCF7A8FD07461FB14E
:10511000012012B0BDE8F0810F2001900220029022
:10512000002003904FF4A05004904FF4805005905D
:10513000052101A8FCF752FC07460FB10120E8E762
:105140000020E6E7403802400070004010B50446F9
:1051500009480A4908600846446000218160C1602E
:10516000016181610C214161FDF756FD0122044975
:105170000248FDF7F1FD10BD00100140DC010020E8
:105180006600002010B500290AD00878002807D052
:1051900005487844FBF7D2FD002801D0002010BD5F
:1051A0000248784410BD000006020000FE01000025
:1051B0000808A0F500114FEA3101704743004FEA9B
:1051C000D30C4FEA3C0C43401FBF40070CF1605129
:1051D00013F0FE4F70471CF0006F03D100200CF05D
:1051E000004170470CF0004343EA507010B540EAAC
:1051F000CC0000F00EF800BF000000924FEA000162
:10520000FFF7D6BF4FF000414FF00000A1F500219D
:1052100070470EF1020E2EF0030E5EF8044B24428E
:1052200004D44FEA4102B2F17F4F11D84FEA400354
:10523000B3F17F4F0CD80ED14FEAD07CB2F17F4F43
:105240000CEB4C0C0CF1020C08BF4CEBD17C04E0D5
:105250004FF0080C01E04FEAD17C0CEB4C0324FA30
:1052600003F404F00704B4F1040C06D20EEB840C32
:10527000BDE810404CF0010C6047DFE80CF0070877
:1052800002024FF00040A0F5800010BD0846420029
:1052900018BFD2F1807288BF00F0004010BD4FF0FF
:1052A0004070E1EE100A7047FBF764BA000000009E
:1052B00000000000010203040607080900000000C6
:1052C00001020304000000006E83F9A22915444E78
:1052D000D15727FCC0DD34F5999562DB4190433C02
:1052E000AB6351FE02400000000000A0000000007F
:1052F00005400000000000C8000000000C40000055
:105300000000409C00000000194000000020BCBECE
:105310000000000034400000BFC91B8E00000004E4
:10532000B5400000504BCFD06607E2CF010000002F
:105330006C4100003E8251AADFEEA734010000005C
:10534000D9420000DCB5A0E23A301F97FFFFFFFF13
:10535000B4450000FD25A0C8E9A3C14FFFFFFFFF32
:10536000FF3F00000000008000000000FF3F000041
:105370000000008000000000B4530008000000207E
:1053800074000000C40100082854000874000020C4
:105390000C060000E00100081C00000043000000B3
:1053A000F8FFFFFF0C0000000E0000000F000000DF
:1053B0002E0000000024F4000000000000000000A7
:1053C00000000000000000000000000000000000DD
:1053D00000000000000000000000000000000000CD
:1053E00000000000000000000000000000000000BD
:1053F00000000000000000000000000000000000AD
:10540000000000000000000000000000000000009C
:10541000000000000000000000000000000000008C
:08542000100000000100000073
:040000050800018965
:00000001FF
