:020000040800F2
:1000000018070020910100081D130008390B000893
:1000100019130008690700085327000800000000B2
:10002000000000000000000000000000AD1D0008FE
:1000300009080008000000001F1D0008C11E00087C
:10004000AB010008AB010008AB010008AB010008E0
:10005000AB010008AB010008AB010008AB010008D0
:10006000AB010008AB010008AB010008AB010008C0
:10007000AB010008AB010008AB010008AB010008B0
:10008000AB010008AB010008AB010008AB010008A0
:10009000AB010008AB010008AB010008AB01000890
:1000A000AB010008AB010008AB010008AB01000880
:1000B000F1210008A1220008AB010008AB010008F3
:1000C000AB010008AB010008AB010008AB01000860
:1000D000AB010008AB010008AB010008AB01000850
:1000E0000D080008AB010008AB01000800F002F8A1
:1000F00000F03FF80AA090E8000C82448344AAF183
:100100000107DA4501D100F034F8AFF2090EBAE880
:100110000F0013F0010F18BFFB1A43F0010318473B
:1001200080800000A0800000103A24BF78C878C109
:10013000FAD8520724BF30C830C144BF04680C60ED
:10014000704700000023002400250026103A28BF35
:1001500078C1FBD8520728BF30C148BF0B60704739
:10016000642900F06780002070471FB51FBD10B5DF
:1001700010BD00F0CBFA1146FFF7F7FF04F0C8F806
:1001800000F0E9FA03B4FFF7F2FF03BC02F067FBEB
:100190000948804709480047FEE7FEE7FEE7FEE71B
:1001A000FEE7FEE7FEE7FEE7FEE7FEE70448054957
:1001B000054A064B70470000C51E0008ED00000808
:1001C0001801002018070020180300201803002041
:1001D000704710B54C1084EA530404D54042C1F175
:1001E000000138BF491E1B4204D55242C3F100032F
:1001F00038BF5B1E00F02EF914F0804F04D040424F
:10020000C1F1000138BF491E14F0004F04D0524222
:10021000C3F1000338BF5B1E10BD00000FB40449DA
:1002200010B503AA029800F0F1F910BC5DF814FBB8
:10023000340000202DE9F04106460024106875299D
:10024000314616A510D0AFF30080002802DA4042F4
:1002500013A507E031688A0701D512A502E0490716
:1002600004D511A5012401E0AFF3008000210A228A
:1002700006F1240709E0B0FBF2FCB0FBF2F302FB4D
:100280001C00303078541846491C0028F3D123460E
:100290002A463046BDE8F04100F05EB9000000009B
:1002A0002D0000002B000000200000002DE9F05F71
:1002B000894604464FF0000ADFF824B1FB44C0F839
:1002C00020A02046E168884700287DD0252806D058
:1002D000D4E901219047206A401C2062F1E7002503
:1002E0005F462046E16888472028064607DB312E16
:1002F00005D2B81910F8200C08B10543F1E7A8079A
:1003000001D525F00405C4F81CA00027C4F818A0E6
:100310002A2E09D0304602F09BFA38B304EB870846
:10032000303EC8F8186019E059F8041B204604EB69
:1003300087029161E1688847012F064618D1E0697C
:10034000002820DA25F020051DE0D8F8180000EB81
:10035000800006EB40003038C8F818002046E168FD
:100360008847064602F074FA0028EED1012F0AD021
:100370002E2E08D12046E16888477F1C0646022FB2
:1003800045F02005C4DBA069002803DA404245F0AF
:100390000105A061E80701D025F01005A6B1A6F17E
:1003A0004100192802D8203645F400654A463146F6
:1003B000204625604D46FFF7D3FE60B1012807D0E7
:1003C000ED1D25F0070000E007E000F1080978E7DF
:1003D00005F1040975E730467AE7206ABDE8F09F29
:1003E0008A7D000040EA010310B59B070FD1042A63
:1003F0000DD310C808C9121F9C42F8D020BA19BAF0
:10040000884201D9012010BD4FF0FF3010BD1AB154
:10041000D30703D0521C07E0002010BD10F8013BA9
:1004200011F8014B1B1B07D110F8013B11F8014BD0
:100430001B1B01D1921EF1D1184610BD02F0FF0323
:1004400043EA032242EA024200F0F4B870477047E0
:100450007047704753EA020C00F069802DE9F04BB9
:100460004FF00006002B1FBFB3FA83F503FA05F423
:1004700024FA05F65E4012BF1643B2FA82F502FA7C
:1004800005F4C5F120051EBF22FA05FC44EA0C0460
:10049000203556EA044C4FEA144418BF641C4FF050
:1004A00000084FF00009904271EB030C39D300298A
:1004B00019BFB1FA81F701FA07F6B0FA80F700FA2E
:1004C00007F6C7F120071EBF20FA07FC46EA0C0614
:1004D0002037B6FBF4FCA7EB0507103F07F01F0B16
:1004E000CBF120060CFA0BFB2CFA06F644BFB34600
:1004F0000026202FA4BF5E464FF0000B5BEA060CDF
:1005000008BF4FF0010B19EB0B09ABFB027C48EB6A
:100510000608C01B06FB02CC0BFB03CC71EB0C01E5
:10052000C1E70B46024641464846BDE8F08B13B58D
:100530004FF000004FF00001AFF30080BDE81C4019
:10054000704710B500F096F8006810BD10B504466D
:1005500000F090F8046010BD2DE9F0470D46994673
:100560009246044600F124080168880604D5E06933
:1005700021F01001216000E00120A84201DD471BAD
:1005800000E00027A1697A1902EB0900081AA061AE
:100590002078C00602D42046AFF30080002608E091
:1005A000D4E901211AF806009047206A401C761C05
:1005B00020624E45F4DB2078C0060AD52046AFF312
:1005C000008006E0D4E9012130209047206A401CD9
:1005D0002062381EA7F10107F4DC07E0D4E901210D
:1005E00018F805009047206A401C2062281EA5F1DB
:1005F0000105F3DC2046AFF300802078000602D529
:100600000220BDE8F0870120FBE70000074B70B532
:100610000D467B4400F037F80446284600F046F8C3
:1006200010B14FF0FF3070BD204670BDFB350000AB
:100630004FF000020429C0F0128010F0030C00F00B
:100640003B80CCF1040CBCF1020F18BF00F8012B69
:10065000A8BF20F8022BA1EB0C0100F02DB85FEA37
:10066000C17C24BF00F8012B00F8012B48BF00F823
:10067000012B704700487047B800002001694A1CF0
:1006800002610878704700B58FB0CDE901310021D3
:10069000059105497944CDE9031011466846FFF7F5
:1006A00005FE0FB000BD0000E5FFFFFF007B00F07E
:1006B000800070474FF0000200B5134694469646FE
:1006C000203922BFA0E80C50A0E80C50B1F1200165
:1006D000BFF4F7AF090728BFA0E80C5048BF0CC013
:1006E0005DF804EB890028BF40F8042B08BF704771
:1006F00048BF20F8022B11F0804F18BF00F8012BE3
:100700007047000000487047B80000207546FFF7AA
:10071000F9FFAE4605006946534620F007008546BE
:1007200018B020B5FFF742FDBDE820404FF00006AD
:100730004FF000074FF000084FF0000B21F00701C9
:10074000AC46ACE8C009ACE8C009ACE8C009ACE80C
:10075000C0098D46704710B50446AFF300802046AF
:10076000BDE81040FFF70EBD00BFFEE770B50124E5
:10077000012319A20421002001F06EF9012319A21E
:100780000521002001F068F9012319A206210020AB
:1007900001F062F90FE02246641C012305213C2090
:1007A00000F090FF01232A4606212A2000F08AFF4C
:1007B000C82002F007FC03F085FF051EEBD10123E2
:1007C0000DA2042101F048F94FF47A7002F0FAFB0F
:1007D00000F00CFE70BD0000444D5020696E672E85
:1007E0002E2E0000417474656D7074733A00000021
:1007F0004572726F723A0000444D50204F4B2120D9
:100800005F5F57474E0000007047000070B51D4AFB
:100810001D491E4803F044FE58BB1B4800681C4994
:1008200008601C4800681C49086004F02DFF05465C
:1008300004F038FF2C1804EBD470401017490860FE
:10084000154801681248006805F056F80446134838
:10085000006805F001F820441149086041F658305D
:1008600001F052FA0F48006820B10D48006801F00D
:1008700077FA02E0002001F073FA4FF4805000F0A4
:1008800013F870BD78000020740000207000002074
:100890007C00002000000020800000208400002058
:1008A0008800002004000020014908607047000013
:1008B00014040140002123498279002A3AD00A46D3
:1008C000126803689A430B461A600A1D126803688F
:1008D0009A430B1D1A60027911440A6803681A438F
:1008E0000A60184A0832126803689A43154B0833A5
:1008F0001A601A1D126803689A43124B0C331A606F
:100900004279102A0ED11A1F126803681A430D4B40
:1009100008331A601A1D126803681A43094B0C3316
:100920001A600DE00749427911440A6803681A43C6
:100930000A6005E0027911440A6803689A430A6074
:10094000704700000004014030B500228B071C0FE7
:100950000F2303FA04F20B4B8C1053F8243093430B
:10096000084C8D1044F8253023468C1053F8243061
:100970008C07240F00FA04F42343024C8D1044F832
:10098000253030BD080001402DE9F0410246002528
:100990000026002000230024002791F803C00CF05B
:1009A0000F0591F803C00CF0100CBCF1000F03D040
:1009B00091F802C04CEA050591F800C0BCF1000FA7
:1009C00031D0146800202BE04FF0010C0CFA00F33A
:1009D000B1F800C00CEA03069E4220D183004FF01C
:1009E0000F0C0CFA03F7BC4305FA03FC4CEA0404B1
:1009F00091F803C0BCF1280F06D14FF0010C0CFA9E
:100A000000FCC2F814C00AE091F803C0BCF1480F22
:100A100005D14FF0010C0CFA00FCC2F810C0401CCC
:100A20000828D1D31460B1F800C0BCF1FF0F34DD49
:100A3000546800202EE000F1080C4FF0010808FA7D
:100A40000CF3B1F800C00CEA03069E4221D18300EA
:100A50004FF00F0C0CFA03F7BC4305FA03FC4CEA09
:100A6000040491F803C0BCF1280F05D100F1080C73
:100A700008FA0CF8C2F8148091F803C0BCF1480FD2
:100A800007D100F1080C4FF0010808FA0CF8C2F881
:100A90001080401C0828CED35460BDE8F0810000CF
:100AA000F0B50A46002300240021002500F000468E
:100AB000B6F1004F02D11D4EF16901E01B4E716885
:100AC000C0F3034583B200F44016B6F5401F08D1C9
:100AD00021F07061154E766826F07066134F7E60C7
:100AE00012E000F48016B6F5801F06D1032606FA40
:100AF00005F4A14341F0706106E0460D360103FAAA
:100B000006F6B14341F0706122B1460D360103FA99
:100B100006F6314300F00046B6F1004F02D1034E15
:100B2000F16101E0014E7160F0BD00000000014084
:100B3000416170470161704700BFFEE708B50121C0
:100B4000082001F0FDF814208DF8030003208DF833
:100B500002004FF48070ADF8000069460848FFF7C6
:100B600013FF4FF40070ADF8000069460448FFF72A
:100B70000BFF4FF440710248FFF7DCFF08BD000097
:100B8000000C014070B504461548006820F4702040
:100B9000134908600846006840F4403008600020AF
:100BA00010490860002517E0E0090E49091F086098
:100BB0006006040E022002F02BFA01200A49C1F857
:100BC0009401022002F024FA002006490860022065
:100BD00002F01EFA681CC5B2082DE5DB70BD0000EE
:100BE000000C0140948121420080214210B50F4841
:100BF000006820F470200D4908600846006840F441
:100C00004030086001200A4908600A49C1F894018F
:100C1000042002F0FDF9002005490860042002F0DC
:100C2000F7F900200349C1F8940110BD000C014000
:100C3000908121420080214210B50F48006820F4C5
:100C400070200D4908600846006840F44030086094
:100C500000200A4908600A49C1F89001042002F006
:100C6000D7F90120054908600549C1F89001042021
:100C700002F0CEF910BD0000000C01409481214229
:100C80000080214210B500241448006820F4702030
:100C9000124908600846006840F4002008600120FE
:100CA0000F49086002F0B4F901200E49C1F894011F
:100CB00002F0AEF907E0601CC4B2FA2C03DDFFF7C6
:100CC000BBFF012010BD0648803800680028F2D123
:100CD0000349091D086000BFF4E70000000C014053
:100CE000908121420080214270B50446204605F0E3
:100CF00031FD05460D480168284605F057FD04D230
:100D0000204605F027FD09490860604205F022FDF4
:100D1000054606480168284605F048FE04D26042B0
:100D200005F018FD0149086070BD0000A400002016
:100D300010B500200E4908600E48006820F0F00051
:100D40000C4908600846006840F030000860002048
:100D50000949C1F8A40100F011F801200449086014
:100D600000F00CF800200449C1F8A00110BD0000FB
:100D7000A0812142040C01400080214210B50220D4
:100D800002F046F910BD000008B50121082000F06E
:100D9000D7FF4FF44060ADF8000010208DF803003D
:100DA00003208DF8020069460448FFF7EDFD4FF47B
:100DB00040610248FFF7BEFE08BD0000000C014084
:100DC00010B500200E4908600E48006820F0F000C1
:100DD0000C4908600846006840F0300008600120B7
:100DE0000949C1F8A401FFF7C9FF012004490860BF
:100DF000FFF7C4FF00200449C1F8A00110BD0000A6
:100E0000A0812142040C01400080214270B50546BA
:100E100000241648006820F0F000144908600846D5
:100E2000006840F080000860002614E000201049AF
:100E30000860FFF7A3FF01200E49C1F8A00160067A
:100E4000040E0B487C38006808B1601CC4B2FFF780
:100E500095FF701CC6B2082EE8DB15B9FFF7B0FF8E
:100E600001E0FFF765FF204670BD0000040C014063
:100E7000A08121420080214270B5044612480068DA
:100E800020F0F000104908600846006840F030008B
:100E9000086000200D490860002512E0E0090B49B8
:100EA000091D08606006040E01200949C1F8A0016F
:100EB000FFF764FF002005490860FFF75FFF681C2B
:100EC000C5B2082DEADB70BD040C0140A0812142AF
:100ED0000080214210B50E48006820F0F0000C4957
:100EE00008600846006840F03000086001200949A9
:100EF00008600949C1F8A001FFF740FF002005493B
:100F00000860FFF73BFF00200349C1F8A00110BDB6
:100F1000040C0140A48121420080214210B50E48FA
:100F2000006820F0F0000C4908600846006840F0B6
:100F3000300008600020094908600949C1F8A4018F
:100F4000FFF71CFF0120054908600549C1F8A4010D
:100F5000FFF714FF10BD0000040C0140A0812142E6
:100F60000080214210B500241448006820F0F000F1
:100F7000124908600846006840F0800008600120BF
:100F80000F490860FFF7FAFE01200E49C1F8A001E1
:100F9000FFF7F4FE07E0601CC4B2FA2C03DDFFF794
:100FA000BDFF012010BD0648803800680028F2D13E
:100FB0000349091F086000BFF4E70000040C01406A
:100FC000A48121420080214238B50121084600F069
:100FD000B7FE0121082000F0B3FE4FF40040ADF849
:100FE000000010208DF8030003208DF802006946F0
:100FF0002A48FFF7C9FC01212948FFF751FD0020CD
:1010000028490860FFF7C0FE80216B2000F0F9F846
:10101000642001F0D7FF00216B2000F0F2F80320DC
:1010200000F0ADF8002000F0A2F8322000F0CCF87B
:101030000021382000F0E5F800216A2000F0E1F8F6
:101040000021232000F0DDF88021372000F0D9F8BE
:10105000752000F035F80446682C0BD101216B2077
:1010600000F0CFF800216C2000F0CBF8322000F027
:10107000ABF807E001230CA20221002000F0ECFCF9
:10108000012038BD01230BA20221002000F0E4FC66
:10109000322001F097FF0020F3E700000008014034
:1010A00000023000BC0121424D5055363035302011
:1010B000657272004D505536303530204F4B21004F
:1010C00070B50446FFF706FFD020FFF7D5FEFFF707
:1010D00049FF2046FFF7D0FEFFF744FFFFF7FAFE77
:1010E000D120FFF7C9FEFFF73DFF0020FFF78EFE7E
:1010F0000546FFF713FF284670BD2DE9F04106466F
:101100000F4614461D46FFF7E5FE002141EA460161
:10111000C8B2FFF7B1FEFFF725FF20B1FFF7FEFED3
:101120000120BDE8F0813846FFF7A6FEFFF71AFF61
:10113000FFF7D0FE012101EB4601C8B2FFF79CFE8C
:10114000FFF710FF0DE0012C04D10020FFF75EFE39
:10115000287003E00120FFF759FE2870601EC4B21A
:101160006D1C002CEFD1FFF7D9FE0020D9E710B598
:101170000446E006010E1C2000F043F810BD10B537
:101180000446E006010E1B2000F03BF810BD70B5D0
:1011900004460025BC2C01DB012510E0622C01DB9C
:1011A00002250CE02A2C01DB032508E0142C01DBCE
:1011B000042504E00A2C01DB052500E0062529466C
:1011C0001A2000F01EF870BD70B50446B4F57A7FA1
:1011D00001DD4FF47A74042C00DA04244FF47A70A1
:1011E00090FBF4F0401EC5B22946192000F009F822
:1011F0000546264604EBD671C1F34F00FFF7C7FF43
:1012000070BD70B505460C46FFF764FED020FFF7B1
:1012100033FEFFF7A7FE18B1FFF780FE012070BD77
:101220002846FFF729FEFFF79DFE2046FFF724FE24
:10123000FFF798FE18B1FFF771FE0120EFE7FFF707
:101240006DFE0020EBE72DE9F04105460E461746FE
:101250009846FFF73FFE002141EA4501C8B2FFF77B
:101260000BFEFFF77FFE20B1FFF758FE0120BDE81F
:10127000F0813046FFF700FEFFF774FE00240CE01B
:1012800018F80400FFF7F8FDFFF76CFE18B1FFF740
:1012900045FE0120EBE7601CC4B2BC42F0DBFFF767
:1012A0003DFE0020E3E700001FB50121042000F00F
:1012B00047FD0121084600F043FD4FF48050ADF892
:1012C000000048208DF8030069461248FFF75CFBD8
:1012D0000C210020FFF738FB4FF4805002900020D3
:1012E0008DF80C000C208DF80D0001208DF80E00FB
:1012F00002A8FFF7DFFA28208DF8040000208DF8FF
:1013000005008DF8060001208DF8070001A800F007
:1013100007F81FBD0008014000BFFEE7704700004E
:1013200070B5002100230F22C47804B3154C246843
:1013300004F4E064C4F5E064210AC1F10403CA4086
:10134000447804FA03F184781440214309010E4CD7
:101350000678A155047804F01F050124AC400578F7
:101360006D11AD0005F1E025C5F8004109E00478F4
:1013700004F01F050124AC40044D0678761145F8B1
:10138000264070BD0CED00E000E400E080E100E0EC
:1013900002490143024A1160704700000000FA054B
:1013A0000CED00E0014600291ADB0E48814217DAF5
:1013B0000A2901DA01207047642901DA0220FAE7DC
:1013C000B1F57A7F01DA0320F5E742F2107081422D
:1013D00001DA0420EFE70448814201DA0520EAE758
:1013E0000020E8E7A086010040420F0010B5002071
:1013F00000F04DF810BD10B50446FFF7F7FB78205C
:10140000FFF7C0FBFFF73EFC18B1FFF715FC01200A
:1014100010BD0020FFF7B6FBFFF734FC18B1FFF753
:101420000BFC0120F4E72046FFF7ACFBFFF72AFC9A
:1014300018B1FFF701FC0120EAE7FFF7FDFB0020F0
:10144000E6E710B50446FFF7D1FB7820FFF79AFBDB
:10145000FFF718FC18B1FFF7EFFB012010BD40208B
:10146000FFF790FBFFF70EFC18B1FFF7E5FB01203B
:10147000F4E72046FFF786FBFFF704FC18B1FFF7FF
:10148000DBFB0120EAE7FFF7D7FB0020E6E770B5BA
:101490000646002415E004F1B001C8B2FFF7ABFF27
:1014A0000020FFF7A8FF1020FFF7A5FF002504E0AC
:1014B0003046FFF7C6FF681CC5B2802DF8DB601C04
:1014C000C4B2082CE7DB70BD10B5FFF737FB642012
:1014D00001F078FDAE20FFF78EFF2020FFF78BFF95
:1014E0001020FFF788FFB020FFF785FFC820FFF727
:1014F00082FFA120FFF77FFF0020FFF77CFF102075
:10150000FFF779FF4020FFF776FF8120FFF773FF99
:10151000FF20FFF770FFA620FFF76DFFA820FFF761
:101520006AFF3F20FFF767FFA420FFF764FFD32087
:10153000FFF761FF0020FFF75EFFD520FFF75BFF9D
:10154000F020FFF758FFD920FFF755FF2220FFF7C3
:1015500052FFDA20FFF74FFF1220FFF74CFFDB208E
:10156000FFF749FF2020FFF746FF8D20FFF743FFDD
:101570001420FFF740FFAF20FFF73DFF0020FFF7EB
:1015800086FF022313A20121062000F065FA4FF422
:101590007A7001F017FD022312A20321062000F049
:1015A0005BFA4FF47A7001F00DFD022311A20521C0
:1015B0000A2000F051FA4FF47A7001F003FD002088
:1015C000FFF765FF01230EA20021084600F044FA50
:1015D00010BD000042793A2057616E674775616E11
:1015E0004E616E0051513A2031353031343531324F
:1015F000323400002020323032312F372F31310089
:101600004F4C4544204F4B210000000070B504466C
:101610000D4605F1B001C8B2FFF7EDFE102141EA19
:101620001410FFF7E8FE04F00F0141F00100FFF78E
:10163000E2FE70BD2DE9F04107460E461E493846D0
:1016400005F0E8F8804605F049F804461A493046A6
:1016500005F0E0F8804605F041F80546002C07DA71
:10166000022316A21946002000F0F6F9644205E0B4
:10167000022313A21946002000F0EEF902232246AD
:101680001946082000F0C6FA002D07DA02230BA243
:101690000421002000F0E0F96D4205E0022308A2D9
:1016A0000421002000F0D8F902232A460421082052
:1016B00000F0B0FABDE8F081000020412D000000EC
:1016C000200000002DE9F84F04460F4615461E463F
:1016D0000A20B5FBF0F100FB11586420B5FBF0F1D6
:1016E00000FB11500A21B0FBF1F94FF47A70B5FB01
:1016F000F0F100FB11506421B0FBF1FA42F21070DE
:10170000B5FBF0F100FB11504FF47A71B0FBF1FB27
:1017100042F21070B5FBF0F00090012E7BD128460C
:10172000FFF740FE062875D2DFE800F074030A18C0
:101730002E4E334642463946204600F00DF969E008
:1017400033464A463946204600F006F9A11DC8B284
:1017500033464246394600F0FFF85BE033465246D6
:101760003946204600F0F8F8A11DC8B233464A4673
:10177000394600F0F1F804F10C01C8B23346424694
:10178000394600F0E9F845E0A11DC8B233465A4693
:10179000394600F0E1F804F10C01C8B23346524674
:1017A000394600F0D9F804F11201C8B233464A466E
:1017B000394600F0D1F804F11801C8B23346424668
:1017C000394600F0C9F825E0334639462046009AEC
:1017D00000F0C2F8A11DC8B233465A46394600F09F
:1017E000BBF804F10C01C8B233465246394600F04A
:1017F000B3F804F11201C8B233464A46394600F044
:10180000ABF804F11801C8B233464246394600F03D
:10181000A3F800BF00BF022E7DD12846FFF7C2FD0E
:10182000062877D2DFE800F076030A19304F3346F6
:1018300042463946204600F08FF86BE033464A4670
:101840003946204600F088F804F10801C8B2334652
:101850004246394600F080F85CE03346524639464D
:10186000204600F079F804F10801C8B233464A4630
:10187000394600F071F804F11001C8B2334642460F
:10188000394600F069F845E033465A463946204665
:1018900000F062F804F10801C8B2334652463946F6
:1018A00000F05AF804F11001C8B233464A463946EE
:1018B00000F052F804F11801C8B2334642463946E6
:1018C00000F04AF826E0334639462046009A00F0F8
:1018D00043F804F10801C8B233465A46394600F0CD
:1018E0003BF804F11001C8B233465246394600F0C5
:1018F00033F804F11801C8B233464A46394600F0BD
:101900002BF804F12001C8B233464246394600F0B4
:1019100023F800BF00BFBDE8F88F000010B50446F3
:10192000002C07DA02230AA20621322000F094F8E4
:10193000644205E0022307A20621322000F08CF861
:101940000223224606213A2000F0FCF810BD0000D8
:101950002D000000200000002DE9F84F06468846C3
:1019600091469A4600270024002509F13000C0B2B4
:101970008DF8000000208DF80100BAF1010F03D0AE
:10198000BAF1020F60D126E020E01DF805002038F2
:10199000C7B27E2E04DD002608F1010000F0FF082A
:1019A00041463046FFF732FE002409E007EB4701CD
:1019B000274A02EB4101085DFFF743FD601CC4B2FA
:1019C000062CF3DBB01DC6B2681CC5B21DF80500BD
:1019D0000028DAD138E032E01DF805002038C7B21F
:1019E000782E04DD002608F1010000F0FF084146D2
:1019F0003046FFF70BFE002407E004EB0711154A01
:101A0000505CFFF71EFD601CC4B2082CF5DB08F12A
:101A10000100C1B23046FFF7F9FD002408E004EBF5
:101A2000071108310B4A505CFFF70BFD601CC4B274
:101A3000082CF4DB06F10800C6B2681CC5B21DF81C
:101A400005000028C8D100BF00BFBDE8F88F000026
:101A5000327800085A7A00082DE9F0470646894690
:101A600017469A464FF0000800240025BAF1010FEE
:101A700003D0BAF1020F5ED125E020E0785D203876
:101A800000F0FF087E2E04DD002609F1010000F0C1
:101A9000FF0949463046FFF7B9FD002409E008EB8D
:101AA0004801264A02EB4101085DFFF7CAFC601CB1
:101AB000C4B2062CF3DBB01DC6B2681CC5B2785D9B
:101AC0000028DBD137E032E0785D203800F0FF08F5
:101AD000782E04DD002609F1010000F0FF094946D7
:101AE0003046FFF793FD002407E004EB0811144A89
:101AF000505CFFF7A6FC601CC4B2082CF5DB09F1B2
:101B00000100C1B23046FFF781FD002408E004EB7C
:101B1000081108310A4A505CFFF793FC601CC4B2FC
:101B2000082CF4DB06F10800C6B2681CC5B2785D6B
:101B30000028C9D100BF00BFBDE8F0873278000897
:101B40005A7A00082DE9F05F04460F4615461E46F6
:101B50000A20B5FBF0F100FB11586420B5FBF0F151
:101B600000FB11500A21B0FBF1F94FF47A70B5FB7C
:101B7000F0F100FB11506421B0FBF1FA42F2107059
:101B8000B5FBF0F100FB11504FF47A71B0FBF1FBA3
:101B9000012E1CD133465A4639462046FFF7DCFE5B
:101BA000A11DC8B2334652463946FFF7D5FE04F1AF
:101BB0000C01C8B233464A463946FFF7CDFE04F160
:101BC0001201C8B2334642463946FFF7C5FE022E1F
:101BD0001DD133465A4639462046FFF7BDFE04F173
:101BE0000801C8B2334652463946FFF7B5FE04F144
:101BF0001001C8B233464A463946FFF7ADFE04F13C
:101C00001801C8B2334642463946FFF7A5FEBDE883
:101C1000F09F00002DE9F05F04460F4615461E4672
:101C20000A20B5FBF0F100FB11586420B5FBF0F180
:101C300000FB11500A21B0FBF1F94FF47A70B5FBAB
:101C4000F0F100FB11506421B0FBF1FA42F2107088
:101C5000B5FBF0F100FB11504FF47A71B0FBF1FBD2
:101C6000012E24D133465A4639462046FFF774FEEA
:101C7000A11DC8B2334652463946FFF76DFE04F146
:101C80000C01C8B233464A463946FFF765FE04F1F7
:101C90001201C8B233461BA23946FFF7DDFE04F13C
:101CA0001801C8B2334642463946FFF755FE022EA8
:101CB00025D133465A4639462046FFF74DFE04F1FA
:101CC0000801C8B2334652463946FFF745FE04F1D3
:101CD0001001C8B233464A463946FFF73DFE04F1CB
:101CE0001801C8B2334607A23946FFF7B5FE04F122
:101CF0002001C8B2334642463946FFF72DFEBDE803
:101D0000F09F00002E0000000A68824200DD08609B
:101D100043420A689A4201DA42420A6070477047B9
:101D200029B1064AD2690243044BDA6104E0034A4E
:101D3000D2698243014BDA61704700000010024013
:101D400029B1064A92690243044B9A6104E0034AAE
:101D500092698243014B9A61704700000010024073
:101D600010B50446002C0EDD02F0C4FA03F0B6FCF8
:101D7000C4F5E15081B20C4800F05BFCA1B20A4806
:101D800000F05BFC0FE002F0A7FA03F099FC604260
:101D9000C0F5E15081B2044800F04BFC604281B2D2
:101DA000014800F04AFC10BD002C0140704710B5FE
:101DB00000F002F810BD00000CB50020019000906A
:101DC0003348006840F480303149086000BF304833
:101DD000006800F4003000900198401C01900098C9
:101DE00018B90198B0F5A06FF1D12948006800F446
:101DF000003010B10120009001E000200090009818
:101E0000012843D12348006840F0100021490860B0
:101E10000846006820F0030008600846006840F0AB
:101E2000020008601A48406819494860084640683E
:101E300048600846406840F4806048600846406852
:101E400020F47C1048600846406840F4E810486080
:101E50000846006840F08070086000BF0C480068C9
:101E600000F000700028F9D00948406820F0030015
:101E7000074948600846406840F00200486000BFDB
:101E80000348406800F00C000828F9D10CBD0000A0
:101E90000010024000200240042808D14FF0E02149
:101EA000096941F004014FF0E022116107E04FF0B1
:101EB000E021096921F004014FF0E022116170472F
:101EC0007047000010B51348006840F00100114948
:101ED000086008464068104908400E4948600846B6
:101EE00000680E4908400B4908600846006820F465
:101EF000802008600846406820F4FE0048604FF4E7
:101F00001F008860FFF753FF4FF00060044908602E
:101F100010BD0000001002400000FFF8FFFFF6FEB9
:101F200008ED00E0F0B50C46154600220021068CB5
:101F30004FF6FE773E400684028B018C4FF60C76FE
:101F400032407E1C06EA03162E433243104EB04246
:101F50000ED0104EB0420BD0B0F1804F08D00E4ED4
:101F6000B04205D00D4EB04202D00D4EB04206D167
:101F70004FF6FD76314044F00106314305E04FF65F
:101F8000F576314044F00106314302830184F0BD0F
:101F9000002C0140003401400004004000080040D3
:101FA000000C0040F0B50C4615460022002100262A
:101FB000078C4FF6EF7C07EA0C070784028B018C35
:101FC0004FF6FF7707EA041640F6FF473A404FF610
:101FD000FF7707EA03373A434FF6FF7707EA05270B
:101FE0003A43114FB8420ED0104FB8420BD0B0F167
:101FF000804F08D00E4FB84205D00E4FB84202D0E5
:102000000D4FB84206D14FF6DF77394046F0100742
:10201000394305E04FF65F77394044F01007394304
:1020200002830184F0BD0000002C01400034014017
:102030000004004000080040000C0040F0B50C46D1
:102040001546002200210026078C4FF6FF6C07EA98
:102050000C070784828B018C4FF6FF7707EA042672
:102060004FF60C773A404FF6FF7707EA03172F43F6
:102070003A43114FB8420ED0104FB8420BD0B0F1D6
:10208000804F08D00E4FB84205D00E4FB84202D054
:102090000D4FB84206D14FF6FF57394046F48077CE
:1020A000394305E04FF2FF57394044F48077394314
:1020B00082830184F0BD0000002C01400034014007
:1020C0000004004000080040000C0040F0B50C4641
:1020D0001546002200210026078C4EF6FF7C07EAF9
:1020E0000C070784828B018C4FF6FF7707EA0436D2
:1020F00040F6FF473A404FF6FF7707EA05273A4395
:102100004FF6FF7707EA03373A43114FB8420ED034
:10211000104FB8420BD0B0F1804F08D00E4FB842EC
:1021200005D00E4FB84202D00D4FB84206D14DF641
:10213000FF77394046F48057394305E047F6FF57AB
:10214000394044F48057394382830184F0BD000054
:10215000002C014000340140000400400008004011
:10216000000C004030B587B005460C460121042024
:10217000FFF7D6FDADF81450ADF810400020ADF8D3
:102180001600ADF8120004A9174800F087FA602085
:10219000ADF800000120ADF802000020ADF8080005
:1021A0006946124800F090F96946104800F0E2F9DB
:1021B00008210E4800F0D4F908210C4800F02CFA50
:1021C0000121094800F0C7F80121074800F0CFF8C5
:1021D0004FF4E151044800F02CFA0021024800F0CD
:1021E0002AFA07B030BD000000080040002C014072
:1021F00010B50121880700F0EDF818B1012188071A
:1022000000F0A6F810BD000000B587B00121042041
:10221000FFF796FD01210846FFF782FD04208DF8A7
:102220001B000320ADF8180006A91C48FEF7ACFB04
:1022300003A800F085FA0020ADF81200ADF80E00FA
:102240004FF6FF70ADF810000020ADF80C0003A9A8
:102250004FF0804000F022FA00231A4603214FF08D
:10226000804000F093F8684600F01CF90A20ADF8B1
:1022700008006946400700F0BFF8012211469007A8
:1022800000F019F900214FF0804000F0D9F9012148
:10229000880700F060F807B000BD000000080140AA
:1022A00010B50121044800F095F818B10121024849
:1022B00000F04EF810BD00000004004000B587B0EB
:1022C00001210420FFF73CFD01210220FFF728FD3A
:1022D00004208DF81B00C020ADF8180006A91A488C
:1022E000FEF752FB03A800F02BFA0020ADF8120015
:1022F000ADF80E004FF6FF70ADF810000020ADF8FD
:102300000C0003A9114800F0C9F900231A46032163
:102310000E4800F03BF8684600F0C4F80A20ADF81B
:1023200008006946094800F067F80122114607488D
:1023300000F0C1F80021054800F082F901210348AE
:1023400000F009F807B000BD00080140000400409B
:10235000CA430282704721B1028842F00102028022
:1023600004E002884FF6FE731A400280704731B1D4
:10237000B0F8442042F40042A0F8442005E0B0F850
:102380004420C2F30E02A0F844207047F0B50C467A
:1023900015461E460021002200230189028B038C72
:1023A0004FF6F877394021434FF6FC473A4040F268
:1023B00001173A434FF6DD773B404FF6FF7707EAC8
:1023C00006172F433B43018102830384F0BD01467E
:1023D000888C704730B50246002000230024158AFF
:1023E00005EA0103958905EA010413B10CB1012046
:1023F00000E0002030BD000070B505460C462448C2
:1024000085420ED0234885420BD0B5F1804F08D0CD
:102410002148854205D02148854202D02048854286
:1024200000D100E000BF208850B92389A2886188CC
:102430002846FFF777FDE188284600F003F925E0FC
:10244000208804280AD12389A28861882846FFF7BA
:10245000A9FDE188284600F0FEF817E0208808284A
:102460000AD12389A28861882846FFF7E7FDE18821
:10247000284600F0FDF809E02389A28861882846F3
:10248000FFF724FEE188284600F0FBF870BD00004D
:10249000002C0140003401400004004000080040CE
:1024A000000C004000210180418001218180002139
:1024B000C180018170471AB183890B43838102E097
:1024C00083898B438381704770B5002400220023E9
:1024D000058C4FF6FE7635400584028C8388048B8C
:1024E0004FF68F752C40B51E2C400D882C43751E61
:1024F0002A400D892A434D882A43144DA8420BD007
:10250000134DA84208D0134DA84205D0124DA84241
:1025100002D0124DA84213D14FF6F7752A404D89CB
:102520002A434FF6FB752A408D882A434FF6FF65F4
:102530002B404FF6FF552B408D892B43CD892B43E4
:1025400083800483CD888586028470BD002C014081
:102550000034014000400140004401400048014077
:102560000A460021018B4FF6F7731940114301838E
:102570007047000070B5002400220023058C4FF640
:10258000EF7635400584028C8388048B48F6FF750E
:102590002C404FF6FF452C400D884FF6FF7606EA9B
:1025A00005252C434FF6DF752A400D8906EA0515EF
:1025B0002A434D8806EA05152A43154DA84202D044
:1025C000144DA8421DD14FF67F752A404D894FF614
:1025D000FF7606EA05152A434FF6BF752A408D8817
:1025E00006EA05152A434FF6FF352B404FF2FF75DB
:1025F0002B408D8906EA85052B43CD8906EA8505A2
:102600002B4383800483CD880587028470BD00003E
:10261000002C0140003401400A460021018B4FF29A
:10262000FF7319404FF6FF7303EA02231943018336
:1026300070478186704701877047A0F84010704747
:1026400081847047028B4FF6F3731A400283028B2A
:102650000A4302837047028B4FF2FF331A40028312
:10266000028B4FF6FF7303EA01231A43028370477C
:10267000828B4FF6F3731A408283828B0A438283E4
:102680007047828B4FF2FF331A408283828B4FF662
:10269000FF7303EA01231A438283704700220288F2
:1026A0001D4B98420ED01D4B98420BD0B0F1804F7D
:1026B00008D01B4B984205D01A4B984202D01A4BB7
:1026C000984204D14FF68F731A404B881A43174B28
:1026D000984207D0164B984204D04FF6FF431A4059
:1026E000CB881A4302808B8883850B8803850A4B2D
:1026F00098420BD0094B984208D00E4B984205D017
:102700000D4B984202D00D4B984201D10B7A0386B3
:102710000123838270470000002C014000340140F7
:102720000004004000080040000C00400010004081
:1027300000140040004001400044014000480140B6
:102740004FF6FF71818000210180C18041800172BC
:10275000704700BFFEE7490050EAC12018BF0420BF
:102760004A0D18BF40F0010040F2FF72B2EB515F1A
:1027700008BF40F00200012808BF052070472DE97E
:10278000F0414F1E00EBC7010446D1E90001154698
:102790001E4637F006020DD02A46334603F034FBBE
:1027A0007F1E04EBC703D3E9002303F025F937F0BC
:1027B0000602F1D1022F25D0042F13D0062F18BF07
:1027C000BDE8F0812A46334603F01EFBD4E90A2314
:1027D00003F012F92A46334603F016FBD4E9082326
:1027E00003F00AF92A46334603F00EFBD4E9062328
:1027F00003F002F92A46334603F006FBD4E904232A
:1028000003F0FAF82A46334603F0FEFAD4E902232D
:1028100003F0F2F82A46334603F0F6FAD4E900232F
:10282000BDE8F04103F0E8B8012204F098B903F0E4
:10283000E3B8002213461046114603F08DB900009C
:10284000024A0020110704F08AB9000001FDFFFFD1
:1028500030380A2801D2012070470020704700BF9D
:10286000704700002DE9FE4F06460F4600256846DA
:1028700001F0DCF9002442E056F8240057F8241057
:10288000A0EB010ABAF1000F01DB514601E0CAF1E9
:102890000001084603F05EFF83464FF08F4103F0CE
:1028A00027FE80465DF82400002103F0E3FE16D0E9
:1028B0005DF82410404603F01BFE82464FF07E5127
:1028C00004F0A6F8814629F0004A0F48416A5046B4
:1028D00004F06CF812D20120A04005430EE00A4833
:1028E000C169404603F062FF05D30748016A4046CC
:1028F00004F05CF802D20120A0400543641C032CC4
:10290000BADB2846BDE8FE8F146C00082DE9F04DB7
:102910008D4F21F0004A86B005460C46BA452ADBA9
:10292000AAEB070028430AD08848824501DC1AD167
:10293000CDB106B02846BDE8F04DFFF775BF844A1B
:10294000844B284603F060FA07460E46824A834BC2
:102950002846214603F058FA06B03A463346BDE809
:10296000F04D03F049B80120FDF7F0FD06B0BDE8D9
:10297000F04DFFF75EBF7A48824542DABAF1795FDF
:102980000BDA2846FFF7E7FE042808BFFFF758FFD9
:10299000284606B02146BDE8F08D2A460B46104673
:1029A00003F032FA834602466E480E460B46062175
:1029B0007844FFF7E4FE5A46334603F025FA804692
:1029C00069488A465A46334604217844FFF7D7FEC1
:1029D0005A46334603F018FA00223B4603F00CF83F
:1029E00002460B464046514603F0B6F82A462346B7
:1029F00003F00AFA06B02A462346BDE8F04D02F07D
:102A0000FBBF284624F0004100223D463B4603F030
:102A1000F9FA4FF0FF3204F0A2F806460246534896
:102A20000F460B4606217844FFF7A9FE32463B4687
:102A300003F0EAF9CDE900014D4832463B46042156
:102A40007844FFF79CFE32463B4603F0DDF9002256
:102A50002B4602F0D1FF834602913046394602F000
:102A6000D5FE804643480D46504517DCDDE90001A0
:102A70005A46029B03F070F842462B4603F0C4F915
:102A800042462B4602F0B8FF012204F068F8304AB3
:102A9000304B03F0A9FB304A304B4CE04FF0000ABA
:102AA00052460B46404602F0A7FFCDE903105246BE
:102AB0002B461046194603F0A7F932463B4603F071
:102AC000A1FADDE9033203F047F806460F46DDE9D7
:102AD00000015A46029B03F03FF883460091012211
:102AE0003046394604F03BF8194A1A4B03F08AFA8B
:102AF00006460F4601224046294604F030F85A4661
:102B0000009B03F081F932463B4603F06DFB06461D
:102B10000F4601225046294604F021F80E4DDFF8F9
:102B200058802A46434603F06DFA32463B4603F08E
:102B300069FA2A46434603F065FA002CD8BF81F0B3
:102B4000004106B0BDE8F08D0000F03F0000F07FCE
:102B5000075C143326A6913C182D4454FB21F93F01
:102B60000000E03FAC560000C256000036560000A0
:102B70004C5600003333EF3FFB21E93F2DE9F84F7E
:102B800004460D4621F0004000917349814211DC5A
:102B90007249884201DC06D12CB120462946BDE8A5
:102BA000F84FFFF741BE6E48002DCCBF6D496E490E
:102BB000BDE8F88F6D49814211DD6D498142D8BF72
:102BC0004FF0FF366DDD20462946FFF7C4FD04288F
:102BD00008BFFFF735FE20462946BDE8F88F654956
:102BE000654F25F00045814233DD6449814219DD9E
:102BF000002632464FF080432046294602F0FCFE74
:102C000080468A4601222046294603F0A8FF00227A
:102C10003B4603F0E9FA4246534602F09DFF044664
:102C20000D463EE001260022BA463B462046294694
:102C300002F0E2FE80460F46002253462046294617
:102C400003F0D2FA42463B4602F086FF04460D46A8
:102C500027E04B4981421BDDDFF828A10226002234
:102C600053462046294603F0CFF800223B4602F0A7
:102C7000C3FE80460F46002253462046294603F0F5
:102C8000B3FA42463B4602F067FF04460D4608E0B1
:102C9000032622462B4600203B4902F05DFF0446F6
:102CA0000D4622462B461046194603F0ADF88B46DA
:102CB000824602460B4603F0A7F807460246334811
:102CC00088460B4606217844FFF759FD52465B467D
:102CD00003F09AF882462E488B463A464346052131
:102CE0007844FFF74CFD3A46434603F08DF8024620
:102CF0000B46002E504659460CDA02F07DFE224665
:102D00002B4603F081F801B022462B46BDE8F04F78
:102D100003F078B902F070FE22462B4603F074F8F7
:102D20001C4A7A4402EBC603D3E9002303F05CFAA1
:102D300022462B4603F058FA174A7A4402EBC603A0
:102D4000D3E9002303F05EF9009A002AB8BF81F0AE
:102D50000041BDE8F88F0000000010440000F07F43
:102D6000182D4454FB21F93FFB21F9BF0000DC3F43
:102D70000000203E0000F33F0000F03F0000E63F6F
:102D8000008003400000F83F0000F0BF4E540000F8
:102D90000C540000AA530000725300002DE9F04DBE
:102DA0009446CCF1000423F000464CEA0404524F50
:102DB00046EAD4749A46884621F00042BC4206D8BE
:102DC000454240EA050442EAD474BC4204D9BDE855
:102DD000F04D6246FFF72BBDAAF14055A5F17F6586
:102DE00055EA0C040BD0022404EAAA74434DDFF820
:102DF00010E144EAD87452EA000B04D00CE0BDE8BC
:102E0000F04DFFF7BBBE002C14BF012CBDE8F08DC8
:102E1000022C30D0032C32D056EA0C0B0AD0BE4222
:102E200020D1BA4209D126F0804622F080423346B2
:102E3000114617E000291ADB25E0DFF8C8B0FB4493
:102E4000002C04BFDBE90001BDE8F08D012C02BFBE
:102E5000DBE9000181F00041BDE8F08D022C0AD0D1
:102E6000032C0CD0BA4212D1B8F1000F0BDA234870
:102E70002549BDE8F08D28462449BDE8F08D284657
:102E80007146BDE8F08D1D482149BDE8F08D921BCB
:102E900012153C2AC4BF19481D490EDCBAF1000FB7
:102EA000BEBF12F13C0F0020014606DB624602F075
:102EB00053FE21F00041FFF761FE002C08BFBDE882
:102EC000F08D012C04BF81F00041BDE8F08D114A66
:102ED000114B022C07D003F087F92A46BDE8F04DCC
:102EE0000A4B03F081B903F07FF92A46BDE8F04DA3
:102EF000064B03F087B800000000F07F182D445403
:102F0000FB2109C006530000FB21F9BFFB2109404A
:102F1000FB21F93F075C143326A6A13C2DE9F041C3
:102F20000446E07800F0C006E07800F03F056078E5
:102F300000F0010098B1EF102846E91705EB517138
:102F4000C910A5EBC101491C01F0FF080B4800683E
:102F500020B10A48414602683846904700BF607871
:102F600000F0080030B10548406818B1B011034ABC
:102F7000516888470020BDE8F0810000A8000020CB
:102F800010B56FF00400FEF787FF0A4800680A4991
:102F9000B0FBF1F0094908700846007800EB4001E9
:102FA000C1EBC0104FF6FF7101EAC0000449088070
:102FB00010BD00001C00002000127A00300000202C
:102FC000320000200146114A12884A434FF0E023A4
:102FD0005A6100229A611A46126942F001021A618E
:102FE00000BF4FF0E022106900F001021AB100F4B6
:102FF0008032002AF5D04FF0E022126922F001025F
:103000004FF0E0231A6100229A61704732000020DD
:103010000146114A12784A434FF0E0235A610022D8
:103020009A611A46126942F001021A6100BF4FF01C
:10303000E022106900F001021AB100F48032002A87
:10304000F5D04FF0E022126922F001024FF0E023A8
:103050001A6100229A6170473000002038B504469A
:1030600064B120208DF8000028208DF80100302068
:103070008DF8020038208DF8030004E0A32204211B
:103080006846FDF7DBF96A46042140F69E2002F00F
:10309000BBFA01F0A5FE38BD3EB5044602208DF80E
:1030A0000000CA208DF80100E3208DF802000920FD
:1030B0008DF803006A460421682002F0A5FAA320D7
:1030C0008DF8000004F0400048B1C0208DF80100E8
:1030D000C8208DF80200C2208DF8030006E0A3206E
:1030E0008DF801008DF802008DF8030004F4C07023
:1030F00048B1C4208DF80400CC208DF80500C6200E
:103100008DF8060006E0A3208DF804008DF8050078
:103110008DF80600A3208DF807008DF808008DF8C3
:1031200009006A460A2140F6A72002F06DFA04F071
:10313000030018B120208DF8000002E0D8208DF89F
:1031400000006A46012140F6B62002F05DFA04F064
:10315000200018B1012000F0ADF802E0002000F0DE
:10316000A9F804F4C07008B304F4807060B1B22010
:103170008DF800008B208DF80100B6208DF802003C
:103180009B208DF803000BE0B0208DF8000080201C
:103190008DF80100B4208DF8020090208DF8030016
:1031A0006A46042140F6A22002F02EFA04F0010043
:1031B00020B3F8208DF800006A4601214FF40B601F
:1031C00002F022FAFA21072000F02CFC072000F080
:1031D000F3FB012000F013FC642000F0F3FC4FF43B
:1031E000FA7000F002FDC821304800F0A3FB28204F
:1031F00000F0BCFB0A2000F0CCFB08E0D8208DF8E2
:1032000000006A4601214FF40B6002F0FDF904F062
:10321000020018B1D9208DF8000002E0D8208DF806
:1032200000006A46012140F23D7002F0EDF904F021
:10323000040018B1012000F069F802E0002000F05D
:1032400065F804F0100018B10120FFF707FF02E055
:103250000020FFF703FF44F008001549488101F002
:10326000BFFD00201249887304F0400018B10846E1
:10327000807B801D887304F4C07020B10C48807B73
:10328000801D0B49887304F0140020B10848807B2E
:1032900010300749887304F0030020B10448807B94
:1032A000001D0349887300203EBD000009E3CA02E7
:1032B000A80000203EB504466CB10EA1D1E9002063
:1032C0008968CDE9002002916A4609214FF4976090
:1032D00002F09AF93EBD0AA2D2E900109268CDE947
:1032E000010200916A4609214FF4976002F08CF9BF
:1032F000F0E70000B8AAB38DB4980D355D0000006A
:10330000B8AAAAAAB088C3C5C700000038B5044649
:1033100064B1C0208DF80000C2208DF80100C420E7
:103320008DF80200C6208DF8030004E08B220421F2
:103330006846FDF783F86A46042140F6982002F0BB
:1033400063F901F04DFD38BD10B5C8234FF480621C
:10335000024940F6F63001F0D7FB10BD3C6C000886
:103360002DE9F04F8DB00746884615469946DDE9B0
:10337000166B0024002030806B49887B5A4605A9D3
:1033800001F08EFC18B1601E0DB0BDE8F08F6648EC
:10339000807A00F01400002867D09DF81400000621
:1033A0009DF8151040EA01409DF8161040EA0120F2
:1033B0009DF81710084328609DF8180000069DF836
:1033C000191040EA01409DF81A1040EA01209DF8CA
:1033D0001B10084368609DF81C0000069DF81D1036
:1033E00040EA01409DF81E1040EA01209DF81F10A0
:1033F0000843A8609DF8200000069DF8211040EACF
:1034000001409DF8221040EA01209DF82310084356
:10341000E86004F11000C4B22868001401906868E4
:1034200000140290A86800140390E8680014049047
:1034300001984043029901FB0100039901FB01003F
:10344000049901FB010ABAF1706F02DBBAF1885FDF
:1034500005DD01F0C5FC00203080401E94E7B6F980
:10346000000040F48070308000BF2F48807A00F068
:10347000400020B305A9601C085C095D40EA0120FA
:1034800000B2A8F8000005A9E01C095C05AAA01C70
:10349000105C41EA002000B2A8F8020005A9601DF6
:1034A000095C201D105C41EA002000B2A8F804006D
:1034B000A01DC4B2B6F9000040F0080030801A48E0
:1034C000408900F4C07008B305A9601C085C095D60
:1034D00040EA012000B2388005A9E01C095C05AA79
:1034E000A01C105C41EA002000B2788005A9601D94
:1034F000095C201D105C41EA002000B2B880A01DCC
:10350000C4B2B6F9000040F0700030800648807AFE
:1035100000F0030018B105A90819FFF7FFFC4846A1
:1035200000F040FF00202FE7A800002070B588B011
:10353000064601A801F03CF9BDF804000021C903CA
:1035400041EA5045C4034448007A00F0030056F8AD
:10355000200005904048007A00F0040010B1059862
:10356000404205903C48007AC0F3C10056F8200064
:1035700006903948007A00F0200010B106984042C9
:1035800006903548007AC0F3811056F82000079065
:103590003148008900F4807010B1079840420790CC
:1035A0000598C117A0FB042301FB043100FB0510A3
:1035B000810041EA927005900698C117A0FB042390
:1035C00001FB043100FB0510810041EA9270069076
:1035D0000798C117A0FB042301FB043100FB051071
:1035E000810041EA927007900598000E8DF808005E
:1035F0000598000C8DF809000598000A8DF80A005E
:103600000598C0B28DF80B000698000E8DF80C00DE
:103610000698000C8DF80D000698000A8DF80E0033
:103620000698C0B28DF80F000798000E8DF81000B4
:103630000798000C8DF811000798000A8DF8120009
:103640000798C0B28DF8130002AA0C214FF4257020
:1036500001F0DAFF08B070BDA800002030B585B0D9
:10366000044616A207CA02AB07C3C82C03DD4FF0FD
:10367000FF3005B030BDC82090FBF4F0401E85B28D
:10368000280A8DF80000E8B28DF801006A46022190
:1036900040F2162001F0B8FF10B14FF0FF30E8E71C
:1036A00002AA0C2140F6C12001F0AEFF10B14FF08C
:1036B000FF30DEE7044884810020DAE7FEF2ABC485
:1036C000AAF1DFDFBBAFDFDFA80000201FB5044693
:1036D0004848007A00F0030054F820000190454863
:1036E000007A00F0040010B1019840420190414876
:1036F000007AC0F3C10054F8200002903D48007ADF
:1037000000F0200010B10298404202903948007A3F
:10371000C0F3811054F8200003903648008900F46B
:10372000807010B10398404203903349019880FBA8
:103730000101800F40EA810001902F49029880FB2F
:103740000110820042EA917002902B49039880FB9D
:103750000110820042EA917003900198000E8DF8EA
:1037600000000198000C8DF801000198000A8DF806
:1037700002000198C0B28DF803006A4604214FF49C
:10378000747001F041FF18B14FF0FF3004B010BD6C
:103790000298000E8DF800000298000C8DF80100D0
:1037A0000298000A8DF802000298C0B28DF803005A
:1037B0006A4604214FF4757001F026FF10B14FF0F6
:1037C000FF30E3E70398000E8DF800000398000C2B
:1037D0008DF801000398000A8DF802000398C0B22A
:1037E0008DF803006A4604214FF4767001F00CFF57
:1037F000CCE70000A800002009E3CA0210B586B09B
:10380000044647A00068039046A00068029046A0C6
:103810000068019045A00068009004F0030003A92F
:10382000085C8DF8140003A8C4F3C101405C8DF856
:10383000150003A8C4F38111405C8DF8160004F054
:10384000030002A9085C8DF8100002A8C4F3C101AE
:10385000405C8DF8110002A8C4F38111405C8DF822
:10386000120005AA032140F2264001F0CDFE18B156
:103870004FF0FF3006B010BD04AA032140F22A40E9
:1038800001F0C2FE10B14FF0FF30F3E70198059050
:103890000098049004F0040058B19DF8140040F022
:1038A00001008DF814009DF8100040F001008DF823
:1038B000100004F0200058B19DF8150040F0010000
:1038C0008DF815009DF8110040F001008DF81100F1
:1038D00004F4807058B19DF8160040F001008DF896
:1038E00016009DF8120040F001008DF8120005AAA4
:1038F00003214FF4886001F087FE10B14FF0FF30D4
:10390000B8E704AA032140F2314001F07DFE10B176
:103910004FF0FF30AEE7064804810020AAE7000020
:103920004CCD6C000CC92C0036567600264666003D
:10393000A8000020F8B505460E464FF47A7095FBB6
:10394000F0F000FB06F4200E8DF80000200C8DF83E
:103950000100200A8DF80200E0B28DF803006A46EB
:1039600004214FF4AE7001F04FFEF8BD38B50446A7
:10397000052094FBF0F084B220128DF80000E0B234
:103980008DF801006A4602214FF4AD7001F03CFE53
:1039900038BD38B50446052094FBF0F084B22012FF
:1039A0008DF80000E0B28DF801006A4602214FF464
:1039B000AC7001F029FE38BD38B5044600200090F7
:1039C00004F0010020B19DF8000040F030000090AC
:1039D00004F0020020B19DF8000040F00C000090BF
:1039E00004F0040020B19DF8000040F003000090B6
:1039F0006A4601214FF4A47001F006FE38BD38B5C7
:103A00000446012C01DA012402E0042C00DD042428
:103A1000601EC0B200906A46012140F24F1001F0D2
:103A2000F3FD38BD2DE9FC4706460F4606F00700BA
:103A300010B1B7F5C86F03DD4FF0FF30BDE8FC876C
:103A4000384602F09FFE8146594902F051FD8046FA
:103A5000684600F087FE9DF80000022806D0042882
:103A600016D0082826D0102848D135E04FF08D41D7
:103A7000404602F0CFFE814602F04CFE84B24D4932
:103A8000404602F0C7FE814602F044FE85B238E0AF
:103A90004FF08C41404602F0BDFE814602F03AFEF6
:103AA00084B24549404602F0B5FE814602F032FE3E
:103AB00085B226E04FF08B41404602F0ABFE8146D6
:103AC00002F028FE84B23D49404602F0A3FE814642
:103AD00002F020FE85B214E04FF08A41404602F029
:103AE00099FE814602F016FE84B23549404602F046
:103AF00091FE814602F00EFE85B202E04FF0FF30EB
:103B00009CE700BF20128DF80400E0B28DF805009C
:103B100028128DF80600E8B28DF8070006F00100C3
:103B2000A0B101AA02214FF4EA7001F06DFD10B1BD
:103B30004FF0FF3082E70DF1060202214FF4927040
:103B400001F062FD10B14FF0FF3077E706F00200A0
:103B5000A0B101AA02214FF4EC7001F055FD10B1A3
:103B60004FF0FF306AE70DF1060202214FF4947026
:103B700001F04AFD10B14FF0FF305FE706F004009E
:103B8000A0B101AA02214FF4EE7001F03DFD10B189
:103B90004FF0FF3052E70DF1060202214FF496700C
:103BA00001F032FD10B14FF0FF3047E7002045E74C
:103BB00000004843000040460000C045000040456A
:103BC0000000C04438B50446052094FBF0F085B2EF
:103BD00028128DF80000E8B28DF801006A46022133
:103BE0004FF4EF7001F010FD38BD38B504460520E4
:103BF00094FBF0F085B228128DF80000E8B28DF841
:103C000001006A4602214FF4ED7001F0FDFC38BD61
:103C100000BF054A128802F04002002AF9D0C2B261
:103C2000014B1B1D1A807047003801407CB50546CA
:103C300028494968087801AB04220D21FDF75DFA97
:103C400008B107207CBD9DF80700C0F301109DF866
:103C5000041001F0E00140EAE1008DF800009DF859
:103C60000700C0F381009DF8051001F0E00140EA73
:103C7000E1008DF801009DF8070000F003009DF8B9
:103C8000061001F0E00140EAE1008DF80200002496
:103C90001CE01DF8040018B9002045F8240013E0CA
:103CA0000D4845F8240006E055F824000B4902F0C1
:103CB000B1FD45F824001DF80400401EC0B20DF807
:103CC00004000028F0D100BF601CC4B2032CE0DB6C
:103CD0000020B7E7380000207B14AE3E1D5A843F19
:103CE0002DE9F04F87B005460C46914601208DF82E
:103CF000100000208DF81100FE4A1268917CFD4AE8
:103D00005268107804AB0222FDF79DFA20B14FF003
:103D1000FF3007B0BDE8F08FC820FFF753F900204F
:103D20008DF81000F34A1268D17BF24A526810787D
:103D300004AB0122FDF787FA10B14FF0FF30E8E73E
:103D4000EC4A12685179EB4A5268107804AB0122B0
:103D5000FDF779FA10B14FF0FF30DAE7E54A126863
:103D6000917CE44A5268107804AB0122FDF76BFAAB
:103D700010B14FF0FF30CCE7DE4A1268D17DDD4A4A
:103D80005268107804AB0122FDF75DFA10B14FF0D4
:103D9000FF30BEE7D74A12681179D64A52681078C8
:103DA00004AB0122FDF74FFA10B14FF0FF30B0E73E
:103DB0000C208DF81000CF4A12681179CD4A526854
:103DC000107804AB0122FDF73EFA10B14FF0FF303E
:103DD0009FE70F20FFF7F6F8C648806A407A8DF813
:103DE0001000C44A12689178C24A5268107804AB35
:103DF0000122FDF728FA10B14FF0FF3089E7BD48E6
:103E0000806A007A8DF81000BA4A12685178B94A6F
:103E10005268107804AB0122FDF715FA10B14FF08B
:103E2000FF3076E7B9F1000F07D0B248806A807A98
:103E300040F0E0008DF8100004E0AE48806A807A1F
:103E40008DF81000AB4A12689179AA4A526810782E
:103E500004AB0122FDF7F7F910B14FF0FF3058E73E
:103E6000B9F1000F07D0A348806AC07A40F0E000A3
:103E70008DF8100003E0A048C07A8DF810009D4A2C
:103E80001268D1799B4A5268107804AB0122FDF781
:103E9000DAF910B14FF0FF303BE7B9F1000F02D073
:103EA000C820FFF78FF840208DF81000914A126863
:103EB0001179904A5268107804AB0122FDF7C3F9DA
:103EC00010B14FF0FF3024E778208DF81000894AB8
:103ED00012685179874A5268107804AB0122FDF7C5
:103EE000B2F910B14FF0FF3013E783498889FFF72B
:103EF00069F800208DF810007E4A126851797D4AD9
:103F00005268107804AB0122FDF79DF910B14FF013
:103F1000FF30FEE6774A1268917A764A5268107846
:103F200004AB0222FDF7E9F810B14FF0FF30F0E6E4
:103F30009DF811009DF8101040EA012B0C209BFB0E
:103F4000F0F0C6B20020A86068602860A0606060E1
:103F50002060824665E0674A1268D17A654A5268F5
:103F6000107804AB0C22FDF7C8F810B14FF0FF3009
:103F7000CFE69DF811009DF8101040EA012000B234
:103F8000ADF808009DF813009DF8121040EA0120DA
:103F900000B2ADF80A009DF815009DF8141040EA33
:103FA000012000B2ADF80C00BDF9081020680844EB
:103FB0002060BDF90A10606808446060BDF90C100B
:103FC000A0680844A0609DF817009DF8161040EA0C
:103FD000012000B2ADF800009DF819009DF81810FE
:103FE00040EA012000B2ADF802009DF81B009DF8E8
:103FF0001A1040EA012000B2ADF80400BDF900102B
:10400000286808442860BDF90210686808446860A0
:10401000BDF90410A8680844A8600AF1010000F086
:10402000FF0AB24597DB3448D0F800C02868C117B2
:10403000090441EA10410704624600233846FCF7B0
:10404000C8F832460023CDE90201FCF7C2F8286027
:104050002948D0F800C06868C117090441EA104136
:104060000704624600233846FCF7B3F832460023C3
:10407000CDE90201FCF7ADF868601F48D0F800C038
:10408000A868C117090441EA1041070462460023E9
:104090003846FCF79EF832460023CDE90201FCF7D2
:1040A00098F8A8601448D0F804C02168C817000424
:1040B00040EA11480F046246002338464146FCF7A7
:1040C00088F832460023CDE90201FCF782F820602F
:1040D0000948D0F804C06068C117090441EA1041DA
:1040E0000704624600233846FCF773F83246002383
:1040F00004E0000038000020146C0008CDE9020143
:10410000FCF767F860601148D0F804C0A068C117D8
:10411000090441EA10410704624600233846FCF7CF
:1041200058F832460023CDE90201FCF752F8A060AE
:10413000A068002804DDA068A0F58030A06003E03E
:10414000A06800F58030A0600020E2E5146C000853
:104150002DE9FC5F06460F4600253D494968087871
:1041600001AB03220D21FCF7C8FF10B10720BDE809
:10417000FC9F9DF8040000F01F008DF804009DF8DE
:10418000050000F01F008DF805009DF8060000F006
:104190001F008DF80600002456E056F8240057F85A
:1041A0002410A0EB010BBBF1000F01DB594601E02D
:1041B000CBF10001084602F0CDFA4FF08F4100909C
:1041C00002F096F9814601A8005D68B321490868AC
:1041D00002F0D8FA834659461F4802F089F9804612
:1041E00004E01E49404602F015FB804601A8005D30
:1041F000401EC0B201A908550028F2D141464846E8
:1042000002F076F983464FF07E5102F001FC8246BF
:104210002AF0004B0F488169584602F0C7FB12D2C2
:104220000120A04005430EE00A480169484602F01B
:10423000BDFA05D307484169484602F0B7FB02D2F0
:104240000120A0400543641C032CA6DB28468EE712
:1042500038000020146C000800B04C4554E3853F42
:1042600010B50446204600F00FF80346E01C00F0AD
:104270000BF843EAC00083B2A01D00F005F843EA42
:10428000801083B2184610BD014691F90020002A23
:1042900001DD00201EE091F90020002A01DA04204F
:1042A00018E091F90120002A01DD012012E091F9C6
:1042B0000120002A01DA05200CE091F90220002AF1
:1042C00001DD022006E091F90220002A01DA062031
:1042D00000E007207047000010B54FF4004104488B
:1042E000FCF728FC4FF480410148FCF721FC10BD8D
:1042F000000C014010B54FF480410448FCF71AFC53
:104300004FF400410148FCF713FC10BD000C0140C4
:104310004FF4A060FDF73CF8FEF732FEFDF7D4F84D
:1043200000F078F8FCF750FEFCF720FAFCF7BCFF31
:1043300027E014491448006802F038FA05D31349FD
:104340001148006802F032FB0ED2002010490860CC
:104350001049086000211048FEF772F900214FF063
:104360008040FEF76DF902E00120094908600B4822
:10437000016805480068FDF75DF909480068FDF728
:10438000CDFAD6E70000F0C1740000200000F04133
:1043900004000020A4000020000400407800002059
:1043A000840000207047000008B501210420FDF7BB
:1043B000C7FC01210820FDF7C3FCC020ADF80000B8
:1043C00018208DF8030003208DF8020069460F487D
:1043D000FCF7DAFA0C20ADF8000010208DF803008D
:1043E00003208DF8020069460948FCF7CDFA302019
:1043F000ADF8000010208DF8030003208DF80200B6
:1044000069460348FCF7C0FA08BD0000000C0140F3
:104410000008014010B5FFF7C7FF002141F61F401B
:10442000FDF7A0FEFDF74AFFFDF7EEFE10BD000010
:1044300070B50446002624F00104184890F82400C2
:1044400008B1002070BD1548807A10B94FF0FF30D8
:10445000F8E71248057C807A204010490874084625
:10446000007CA04202D04FF0FF3600E0002614B9D5
:104470000A48007D18B1012001F080F902E0002017
:1044800001F07CF93CB100F0ABFC20B103480574AD
:104490004FF0FF30D6E73046D4E700003800002068
:1044A0002DE9F04F99B004460D4616464FF07E5761
:1044B0004FF000084FF000094FF0000A12A813A9AE
:1044C00018AB0EAACDE9001014A916A8FEF748FFF4
:1044D00018B1012019B0BDE8F08FBDF84C0000F410
:1044E000807000287ED00E9802F034F983464FF099
:1044F0009D4101F0FDFF07460F9802F02BF983461E
:104500004FF09D4101F0F4FF8046109802F022F92F
:1045100083464FF09D4101F0EBFF8146119802F078
:1045200019F983464FF09D4101F0E2FF824639467A
:104530004FF0804002F06EF94946059002F06AF9AA
:10454000414607904FF0404002F064F95146059013
:1045500002F060F90690079901F05CFF834601F0D4
:104560002DFFCDE90801FEF7D1F94FF06632544B2B
:10457000CDE90A0101F048FCCDE90C0101F00AFA8D
:10458000206049464FF0804002F044F949460290CD
:1045900002F040F9414604904FF0404002F03AF9F1
:1045A0004146029002F036F90390049902F030FA85
:1045B00083464FF07E5101F02DFF059001F0FEFE85
:1045C000CDE9080139464FF0804002F023F9414619
:1045D000039002F01FF9494604904FF0804002F02A
:1045E00019F900E068E05146039002F013F98346A0
:1045F000049901F00FFF059001F0E0FECDE90601FE
:10460000DDE90823FEF7CAFB4FF066322C4BCDE9FB
:104610000A0101F0F9FBCDE90C0101F0BBF92860BA
:104620005146504602F0F6F849460490484602F0DA
:10463000F1F841460390404602F0ECF8394601900B
:10464000384602F0E7F80090019901F0E3FE02908D
:10465000039902F0DDF98346049902F0D9F9059037
:1046600001F0ACFECDE908015146384602F0D2F81F
:1046700049460490404602F0CDF80390049901F0B9
:10468000C9FE4FF08041059002F0C4F8834601F066
:1046900095FECDE90601DDE90823FEF77FFB4FF02B
:1046A0006632074BCDE90A0101F0AEFBCDE90C0102
:1046B00001F070F9306001E002200BE7002009E70B
:1046C00066A64C4070B50024FCF75EFB00F024F9B0
:1046D000002840D1782000F02FFFC4B20CB1012097
:1046E00070BD7820FFF7A4FEC4B20CB10220F7E73A
:1046F000642000F0D3FEC4B20CB10320F0E7FEF753
:1047000023FEC4B20CB10420EAE71548FFF7A8FD68
:104710000546FFF773F8C4B20CB10520E0E740F29C
:104720007310FEF7B9FCC4B20CB10620D8E76420C0
:10473000FEF794FFC4B20CB10720D1E700F0DCFF14
:1047400004460CB10820CBE7012000F0A3FDC4B261
:104750001CB10920C4E70A20C2E70020C0E700001E
:104760006400002001461148407A30B1012807D08A
:10477000022808D003280CD108E0022008700BE0C2
:104780000420087008E00820087005E01020087078
:1047900002E04FF0FF30704700BF0448C07C18B102
:1047A00008784006000E08700020F4E7380000206A
:1047B00001461348407A30B1012808D002280AD0B7
:1047C000032810D10BE04FF4804008800EE041F642
:1047D0009C7008800AE04FF48050088006E04FF497
:1047E0000060088002E04FF0FF30704700BF0448CF
:1047F000C07C10B10888401008800020F5E7000058
:104800003800002001460248007C087000207047F4
:104810003800002001460F48007A30B1012807D047
:10482000022809D003280FD10AE0FA2008800EE000
:104830004FF4FA7008800AE04FF47A70088006E0BE
:104840004FF4FA60088002E00020088000BF00BF3B
:10485000002070473800002001460E48007A30B131
:10486000012807D0022808D003280CD108E00A4804
:1048700008600BE00948086008E00948086005E0A6
:104880000848086002E04FF0FF30704700BF00208A
:10489000FBE70000380000200000034300008342D3
:1048A000333303423333834101461248C07A082828
:1048B00017D2DFE800F01704070A0D101318BC2008
:1048C000088013E06220088010E02A2008800DE0B4
:1048D000142008800AE00A20088007E005200880EC
:1048E00004E000BF00BF0020088000BF00BF002020
:1048F00070470000380000200146064890F8240068
:1049000010B14FF0FF3070470248C0890880002086
:10491000F9E70000380000201CB580208DF8000069
:10492000654A1268917C644A526810786B4601228D
:10493000FCF789FC10B14FF0FF301CBD6420FEF77E
:1049400041FB00208DF800005B4A1268917C5A4AB6
:10495000526810786B460122FCF775FC10B14FF0DD
:10496000FF30EAE7544A1268917D534A5268107842
:104970006B460622FCF7C1FB10B14FF0FF30DCE7BD
:104980009DF80500C007400F9DF8031001F00101DC
:1049900040EA41009DF8011001F0010140EA0104E4
:1049A00094B1012C03D101214348C17431E0022CA0
:1049B00003D100214048C1742BE021463FA0FBF702
:1049C0002DFC4FF0FF30B8E73B4A1268D1783A4AE5
:1049D000526810786B460122FCF78FFB10B14FF044
:1049E000FF30AAE79DF8000000F00F042CB93D4805
:1049F000FBF714FC4FF0FF309FE7042C06D13AA0E0
:104A0000FBF70CFC01212C48C17402E000212A486C
:104A1000C174FF2128488172FF2027490872FF21B5
:104A200025484172C1724FF6FF71C181FF210174A7
:104A300081740121017380F82210002180F8231075
:104A4000417501751630016041608160163880F84B
:104A5000241080F82510C1844FF4FA6000F062FC45
:104A600010B14FF0FF3068E7022000F02BFB10B1CF
:104A70004FF0FF3061E72A2000F0CEFC10B14FF07C
:104A8000FF305AE7322000F009FD10B14FF0FF303F
:104A900053E70020FFF7CCFC10B14FF0FF304CE79C
:104AA000002000F051FB10B14FF0FF3045E700202F
:104AB00000F042FD002040E738000020556E73757D
:104AC00070706F7274656420736F6674776172655D
:104AD0002070726F64756374207265762025642E71
:104AE0000A0000005081000848616C662073656E02
:104AF0007369746976697479207061727420666F65
:104B0000756E642E0A0000002DE9F04385B005465D
:104B10000E4690469946294890F8250020B14FF05E
:104B2000FF3005B0BDE8F08316B94FF0FF30F8E76D
:104B3000002423E0281B102801DD102000E0281BA2
:104B400087B232193946204600F05EFD10B14FF0B1
:104B5000FF30E6E701AA3946204600F001F910B11E
:104B60004FF0FF30DDE730193A4601A9FBF73AFC78
:104B700010B16FF00100D4E7E01984B2AC42D9DB88
:104B80004FEA28208DF8000008F0FF008DF80100A2
:104B90000A4A1268917E094A526810786B460222CE
:104BA000FCF751FB10B14FF0FF30BAE70121034889
:104BB00080F82510A0F826900020B2E738000020E9
:104BC00038B50446282C02DD4FF0FF3038BDDCB983
:104BD000002000F0EBFB00208DF8000007208DF88E
:104BE00001002E4A1268917C2C4A526810786B465C
:104BF0000222FCF728FB10B14FF0FF30E6E700215E
:104C0000264801750020E1E7012000F0CFFB2020BD
:104C10008DF80000012C06D100208DF80100052040
:104C200000F0FAFB17E0052C06DC01208DF80100EE
:104C3000052000F0F1FB0EE0142C06DC02208DF8BC
:104C400001000A2000F0E8FB05E003208DF80100D8
:104C5000142000F0E1FB9DF80100072101EB80101A
:104C6000C0B28DF801000D4A1268917C0B4A52685F
:104C700010786B460222FCF7E6FA10B14FF0FF30D5
:104C8000A4E7082105488172002101730121017503
:104C90000020FFF7CDFB002098E70000380000203F
:104CA000F8B504460F4616462C4890F8240010B973
:104CB0004FF0FF30F8BD2948807A10B94FF0FF302F
:104CC000F8E7264A1268917A244A526810786B46AF
:104CD0000222FCF712FA10B14FF0FF30EAE79DF81C
:104CE00001009DF8001040EA0125A54203DA0020EA
:104CF0003070401EDEE7194840684088B5EB600F11
:104D000017DD164A1268517C144A526810786B46B7
:104D10000122FCF7F2F910B14FF0FF30CAE79DF81D
:104D2000000000F0100020B100F05AF86FF0010010
:104D3000C0E7E2B2094B1B68D97A084B5B68187868
:104D40003B46FCF7DAF910B14FF0FF30B2E795FBC4
:104D5000F4F0401E30700020ACE700003800002066
:104D6000F8B504460D46164616B94FF0FF30F8BDAB
:104D70001A48807A10B94FF0FF30F8E720128DF80A
:104D80000000E0B28DF801009DF8010028441349AD
:104D900049684989884202DD4FF0FF30E7E70F4A52
:104DA0001268117E0D4A526810786B460222FCF799
:104DB0004AFA10B14FF0FF30D9E7EAB2074B1B684F
:104DC000597D064B5B6818783346FCF796F910B1AD
:104DD0004FF0FF30CBE70020C9E70000380000208B
:104DE00008B57048807A10B94FF0FF3008BD002038
:104DF00000906C4A1268D17B6A4A526810786B4600
:104E00000122FCF720FA10B14FF0FF30EEE7654ABF
:104E100012685179634A526810786B460122FCF798
:104E200012FA10B14FF0FF30E0E75E4A12681179D4
:104E30005C4A526810786B460122FCF704FA10B104
:104E40004FF0FF30D2E7574890F82400002853D0A5
:104E50000C200090534A12681179524A5268107817
:104E60006B460122FCF7EFF910B14FF0FF30BDE7C0
:104E70003220FEF7A7F8C02000904A48807A00F060
:104E8000010020B19DF8000040F020000090454A4C
:104E900012681179434A526810786B460122FCF778
:104EA000D2F910B14FF0FF30A0E73E48407C10B17E
:104EB0000220009001E0002000903A4A1268D17B65
:104EC000384A526810786B460122FCF7BCF910B1E1
:104ED0004FF0FF308AE700200090324A1268517983
:104EE000304A526810786B460122FCF7ACF9002872
:104EF00055D04FF0FF3079E704200090294A12681E
:104F00001179284A526810786B460122FCF79BF908
:104F100010B14FF0FF3069E72248807C20B921486A
:104F2000807A00F0010010B94020009001E060207C
:104F300000901C4A126811791A4A526810786B4620
:104F40000122FCF780F910B14FF0FF304EE732201C
:104F5000FEF738F81348407C10B10120009001E0C2
:104F6000002000900F4A1268D17B0E4A52681078D8
:104F70006B460122FCF767F910B14FF0FF3035E7BF
:104F8000084A12685179074A52681078054B103365
:104F90000122FCF758F910B14FF0FF3026E700204E
:104FA00024E70000380000202DE9F04F8DB0834643
:104FB0000F4602200C90424890F8240020B10020B7
:104FC00000F068F9012600E0002603A8FFF722FCA4
:104FD00005A8FFF7C7FB01A8FFF766FC02A8FFF7CB
:104FE0008BFC374890F80AA004A8FFF70BFC0024BC
:104FF00007E0002239465846FEF772FE00B902E08B
:10500000641C022CF5DB00BF022C01D1002528E036
:10501000002407E0012206A909A8FEF761FE00B9F5
:1050200002E0641C022CF5DB00BF022C01D100253C
:1050300017E006A93846FDF715FC00F0FF0809A99E
:105040005846FFF785F800F0FF090025B9F1000F79
:1050500001D145F00105B8F1000F01D145F002057D
:1050600000BFFF2016490872FF2115484172C17226
:105070004FF6FF71C181FF2181720174012101731B
:10508000BDF80C0000F04EF99DF8140000F01AF87D
:10509000BDF8040000F0C0F9BDF8080000F0FEF90A
:1050A000504600F049FA9DF81000FFF7C1F916B11B
:1050B000012000F0EFF828460DB0BDE8F08F0000A9
:1050C0003800002038B504461E48807A10B94FF0E9
:1050D000FF3038BD022C06D0042C07D0082C08D095
:1050E000102C0CD108E0002000900BE0082000906C
:1050F00008E01020009005E01820009002E04FF03A
:10510000FF30E6E700BF0F48407A9DF80010B0EB93
:10511000E10F01D10020DCE70A4A1268D179094A7F
:10512000526810786B460122FCF78DF810B14FF0F1
:10513000FF30CEE79DF80000C11002484172002008
:10514000C7E700003800002038B504465048807C8E
:10515000A04201D1002038BD002C46D04C4A126834
:1051600011794B4A526810786B460122FBF7C5FF54
:1051700010B14FF0FF30EEE79DF8000020F0200066
:105180000090434A12681179414A526810786B4680
:105190000122FCF758F810B14FF0FF30DBE7032095
:1051A000FDF710FF02200090394890F8220020B14E
:1051B0009DF8000040F080000090354890F82300F2
:1051C00020B19DF8000040F030000090304A126895
:1051D000117D2F4A526810786B460122FCF733F894
:1051E000002851D04FF0FF30B5E7294A12681179F5
:1051F000274A526810786B460122FBF77EFF10B1F8
:105200004FF0FF30A7E72248807A00F0010028B174
:105210009DF8000040F02000009004E09DF80000A0
:1052200020F0200000901A4A12681179184A52683A
:1052300010786B460122FCF706F810B14FF0FF30F2
:1052400089E70320FDF7BEFE114890F8220010B157
:105250008020009001E0002000900D4890F823008D
:1052600020B19DF8000040F030000090084A12681C
:10527000117D074A526810786B460122FBF7E3FF65
:1052800010B14FF0FF3066E701488474002062E7F8
:105290003800002038B50446214890F82400A04288
:1052A00001D1002038BD24B31D4890F8250010B965
:1052B0004FF0FF30F6E7002000F060FA0020FFF723
:1052C00043FF1749C88C00F0E9F80020009014490A
:1052D000496808786B4601222321FBF7B4FF0121BE
:1052E0000F4880F82410012000F048FAFFF778FDFD
:1052F00013E0002000F042FA0948007C00900849C1
:10530000496808786B4601222321FBF79CFF0021A6
:10531000034880F82410FFF763FD0020C2E7000077
:105320003800002038B504461F48807A10B94FF085
:10533000FF3038BDFA2C09D0B4F5FA7F09D0B4F5A6
:105340007A7F09D0B4F5FA6F0CD108E00020009004
:105350000BE00820009008E01020009005E01820E5
:10536000009002E04FF0FF30E3E700BF0E48007A04
:105370009DF80010B0EBE10F01D10020D9E70A4AF7
:1053800012689179084A526810786B460122FBF73F
:105390005AFF10B14FF0FF30CBE79DF80000C0106E
:1053A000014908720020C4E73800002038B50446DF
:1053B000184890F82300A04201D1002038BD14B154
:1053C0003020009001E0002000901248807C20B145
:1053D0009DF8000040F0020000900E4890F8220076
:1053E00020B19DF8000040F080000090094A12684A
:1053F000117D084A526810786B460122FBF723FFA3
:1054000010B14FF0FF30D9E7024880F82340002068
:10541000D4E700003800002038B504461E48807AE2
:1054200010B94FF0FF3038BDBC2C02DB01200090DA
:1054300015E0622C02DB0220009010E02A2C02DB37
:10544000032000900BE0142C02DB0420009006E007
:105450000A2C02DB0520009001E0062000900E4897
:10546000C07A9DF80010884201D10020DBE70A4A8B
:1054700012689178084A526810786B460122FBF74F
:10548000E2FE10B14FF0FF30CDE79DF8001002486A
:10549000C1720020C7E700003800002038B504467C
:1054A0002448807A10B94FF0FF3038BD214890F879
:1054B000240010B14FF0FF30F7E71E48007D50B1D7
:1054C00034B1282C04DCE0B2FFF77AFB0020ECE7D3
:1054D0000020FFF775FB042C01DA042404E0B4F586
:1054E0007A7F01DD4FF47A744FF47A7090FBF4F018
:1054F000401EC0B200900F4A126851780D4A52689F
:1055000010786B460122FBF79EFE10B14FF0FF3082
:10551000CBE79DF80000401C4FF47A7191FBF0F04E
:1055200081B20448C1810146C9894810FFF774FF60
:105530000020BAE73800002038B5044604F07000B7
:1055400010B10120009005E014B10020009001E0AE
:10555000402000902B4A1268917C2A4A52681078A9
:105560006B460122FBF76FFE20B1002125488172B6
:10557000481E38BD9DF8000020F04001214801730D
:105580000020009004F0400020B99DF8000040F099
:105590000400009004F0200020B99DF8000040F0C5
:1055A0000200009004F0100020B99DF8000040F0C7
:1055B0000100009004F0080020B99DF8000040F0C0
:1055C000380000900F4A1268D17C0E4A5268107859
:1055D0006B460122FBF737FE20B10021094881729A
:1055E000481EC6E724B1082C02D00020FFF7DEFEDB
:1055F00004488472002101753220FDF7E3FC00208D
:10560000B7E7000038000020F8B504460D461646FE
:1056100016B94FF0FF30F8BD1A48807A10B94FF034
:10562000FF30F8E720128DF80000E0B28DF801009D
:105630009DF801002844134949684989884202DDE0
:105640004FF0FF30E7E70F4A1268117E0D4A5268AB
:1056500010786B460222FBF7F6FD10B14FF0FF30D9
:10566000D9E7EAB2074B1B68597D064B5B6818788F
:105670003346FBF7E8FD10B14FF0FF30CBE70020D9
:10568000C9E700003800002010B54FF08040FCF75B
:105690009EFE04B200214FF08040FCF7D1FF20466F
:1056A00010BD000010B50548FCF791FE04B20021C2
:1056B0000248FCF7C5FF204610BD00000004004072
:1056C00010B54FF400510448FBF734FA4FF4805101
:1056D0000148FBF72DFA10BD000C014010B54FF446
:1056E00080510448FBF726FA4FF400510148FBF7BC
:1056F0001FFA10BD000C0140F0B587B001A904A845
:10570000FFF752FC0546032D36D16846FFF7A4F893
:10571000049801F01FF80746009901F07BF806464F
:1057200000F0DCFF0490059801F014F8074600999A
:1057300001F070F8064600F0D1FF0590069801F0E0
:1057400009F80746009901F065F8064600F0C6FF23
:10575000069004A8FDF7BAFF002401986043019069
:1057600002986043029003986043039001A8FDF7FC
:10577000DDFE002007B0F0BD0120FBE738B5044690
:10578000214890F82400C0B114B10220009001E03B
:10579000002000901C4A1268D17B1B4A5268107886
:1057A0006B460122FBF74FFD10B14FF0FF3038BDC3
:1057B0009DF800101448417423E01348807A10B912
:1057C0004FF0FF30F3E724B10F48407C08B10020D0
:1057D000EDE714B10120009001E0002000900A4A9A
:1057E0001268D17B084A526810786B460122FBF799
:1057F0002AFD10B14FF0FF30D9E79DF800100248A4
:1058000041740020D3E70000380000202DE9F0416A
:1058100006460F4600F002FC041E0D4618BF01208C
:10582000284320F00040C0F17F6000F1E040C00F4D
:105830000ED0301C18BF0120384320F00040C0F1CA
:105840007F6000F1E040C00F04BF0120FAF77EFE48
:1058500020462946BDE8F0812DE9F0410446204D5F
:1058600029464FF07E5001F0D3F880461D4801686C
:10587000404600F0CFFF0646204600F06BFF804612
:10588000294600F0C7FF0746314600F0C3FD164920
:105890000860084601681548006800F0BBFD134920
:1058A000086040F6B830FBF71FFA0F4800680D4952
:1058B00008600E4801680E48006800F0ABFF07461C
:1058C000094801680B48006800F0A4FF804639468B
:1058D00000F0A0FD064600F001FFBDE8F0810000E9
:1058E0009A99993EA00000209C000020A40000206E
:1058F00018000020140000202DE9F04704460D4652
:105900002946204601F084F81B49086008460168D2
:105910001A48006800F07EFD1849086018480168C0
:105920001548006801F074F81649086012480068CC
:1059300013490860134801681348006800F06AFFC3
:1059400080460E4801681148006800F063FF8146F8
:10595000094801680E48006800F05CFF824649462D
:1059600000F058FD0746414600F054FD064600F0A1
:10597000B5FEBDE8F08700008C00002094000020F8
:105980009000002098000020100000200C00002053
:105990000800002021F00042A2F16052B2F5801F01
:1059A00001F0004328BFD2F17F6C0BD95FEA001CE5
:1059B00043EAC20242EB507018BF704728BF20F084
:1059C00001007047B2F5801FBCBF184670474FEA10
:1059D000410C1CF5001F02D2084600F0E2BF70B572
:1059E00000F0BCFA00000089FFF7F6BF4FF000405E
:1059F000A0F580007047000010B591EA030F48BF82
:105A000083F0004300F1F883841A71EB030C05D294
:105A1000121943EB0C03001B61EB0C01DFF824E1CE
:105A20004FEA1154A4EB135C1EEA430F18BF9EEA21
:105A3000445F73D023EA0E03DCF1200E21EA045107
:105A400043F4801332D322FA0CFE10EB0E0023FA3B
:105A50000CFE41EB0E01CCF1200E03FA0EFE10EB12
:105A60000E0051F10001B1F5801FCCF1200E32D2B1
:105A700001EB045112FA0EF2BDE8104058BF704716
:105A8000401C38BF5FEA420218BF7047002814BFAD
:105A900020F0010041F100014FEA410313F5001F1E
:105AA00038BF7047A1F1C04100F0A6BA012A43EB0C
:105AB0000302ACF1200CDCF11F0E32BF4FF0000EE0
:105AC00023FA0CF310EB030041EB0451B4EB115F2C
:105AD000D0D0A1EB045101F5801149085FEA3000F4
