:020000040800F2
:10000000D005002031020008A71900089F19000838
:10001000A31900082D0600081D210008000000009B
:10002000000000000000000000000000AB19000804
:100030003106000800000000A9190008AD190008E9
:100040005502000855020008550200085502000834
:100050005502000855020008550200085502000824
:100060005502000855020008550200085502000814
:100070005502000855020008550200085502000804
:1000800055020008550200085502000855020008F4
:1000900055020008550200085502000855020008E4
:1000A00055020008550200085502000855020008D4
:1000B00055020008550200085502000855020008C4
:1000C00055020008550200085502000855020008B4
:1000D000550200080D2100085502000855020008CD
:1000E0005502000855020008550200085502000894
:1000F0005502000855020008550200085502000884
:100100005502000855020008550200085502000873
:100110005502000855020008550200085502000863
:100120005502000855020008550200085502000853
:100130005502000855020008550200085502000843
:100140005502000855020008550200085502000833
:100150005502000855020008550200085502000823
:100160005502000855020008550200085502000813
:100170005502000855020008550200080000000062
:10018000550200085502000800F002F800F041F89E
:100190000AA090E8000C82448344AAF10107DA45E2
:1001A00001D100F036F8AFF2090EBAE80F0013F0F3
:1001B000010F18BFFB1A43F0010318471822000073
:1001C00038220000103A24BF78C878C1FAD8520704
:1001D00024BF30C830C144BF04680C6070470000C1
:1001E0000023002400250026103A28BF78C1FBD840
:1001F000520728BF30C148BF0B607047642900F028
:10020000F580002070471FB502F0D2F81FBD10B571
:1002100010BD00F0D9F91146FFF7F5FF02F01AF80A
:1002200000F0F7F903B4FFF7F2FF03BC01F094FF0D
:100230000C48016841F4700101600B4880470B488D
:100240000047FEE7FEE7FEE7FEE7FEE7FEE7FEE724
:10025000FEE7FEE7FEE7000005480649044A064BB4
:100260007047000088ED00E0B5190008890100081A
:10027000D0010020D0050020D0010020704753EAB3
:10028000020C00F069802DE9F04B4FF00006002BC6
:100290001FBFB3FA83F503FA05F424FA05F65E40AE
:1002A00012BF1643B2FA82F502FA05F4C5F1200531
:1002B0001EBF22FA05FC44EA0C04203556EA044C21
:1002C0004FEA144418BF641C4FF000084FF00009B7
:1002D000904271EB030C39D3002919BFB1FA81F7B1
:1002E00001FA07F6B0FA80F700FA07F6C7F120071F
:1002F0001EBF20FA07FC46EA0C062037B6FBF4FCCA
:10030000A7EB0507103F07F01F0BCBF120060CFAF7
:100310000BFB2CFA06F644BFB3460026202FA4BFE1
:100320005E464FF0000B5BEA060C08BF4FF0010B76
:1003300019EB0B09ABFB027C48EB0608C01B06FB64
:1003400002CC0BFB03CC71EB0C01C1E70B46024660
:1003500041464846BDE8F08B13B54FF000004FF022
:100360000001AFF30080BDE81C4070470FB40449A2
:1003700010B503AA029800F0F9F810BC5DF814FB60
:10038000080000202DE9F0410E46044600202062BE
:100390002046E168884730B3252805D0D4E90121FB
:1003A0009047206A401CF2E7E16820460027884712
:1003B000050018D0A5F14100192802D820354FF4C6
:1003C00000673246294620462760FFF717FF40B1F5
:1003D000012804D0F61D26F007060836D8E7361D9A
:1003E000D6E72846DAE7206ABDE8F0812DE9F0413A
:1003F0000646002410687529314616A510D0AFF3C3
:100400000080002802DA404213A507E031688A071D
:1004100001D512A502E0490704D511A5012401E088
:10042000AFF3008000210A2206F1240709E0B0FBA7
:10043000F2FCB0FBF2F302FB1C003030785418469B
:10044000491C0028F3D123462A463046BDE8F04136
:1004500000F033B8000000002D0000002B00000069
:10046000200000004FF0000200B513469446964667
:10047000203922BFA0E80C50A0E80C50B1F12001B7
:10048000BFF4F7AF090728BFA0E80C5048BF0CC065
:100490005DF804EB890028BF40F8042B08BF7047C3
:1004A00048BF20F8022B11F0804F18BF00F8012B35
:1004B000704770477047704770472DE9F0470D4609
:1004C00099469246044600F124080168880604D53E
:1004D000E06921F01001216000E00120A84201DD67
:1004E000471B00E00027A1697A1902EB0900081AEE
:1004F000A0612078C00602D42046AFF30080002619
:1005000008E0D4E901211AF806009047206A401C4F
:10051000761C20624E45F4DB2078C0060AD52046C2
:10052000AFF3008006E0D4E9012130209047206A33
:10053000401C2062381EA7F10107F4DC07E0D4E973
:10054000012118F805009047206A401C2062281EEF
:10055000A5F10105F3DC2046AFF30080207800060A
:1005600002D50220BDE8F0870120FBE7074B70B5FC
:100570000D467B4400F011F80446284600F020F8B0
:1005800010B14FF0FF3070BD204670BD4F1C000011
:1005900001694A1C02610878704700B58FB0CDE947
:1005A00001310021059105497944CDE90310114637
:1005B0006846FFF7E7FE0FB000BD0000E5FFFFFF54
:1005C000007B00F080007047754600F02BF8AE46C7
:1005D00005006946534620F00700854618B020B54F
:1005E000FFF73AFEBDE820404FF000064FF000074D
:1005F0004FF000084FF0000B21F00701AC46ACE8CB
:10060000C009ACE8C009ACE8C009ACE8C0098D4637
:10061000704710B50446AFF300802046BDE8104097
:10062000FFF700BE004870477001002000BFFEE7E2
:10063000704770B50446A56D00F066F9064694F85B
:100640003500022808D08020606500BF002084F8B3
:10065000340000BF012070BD2068006820F0160043
:10066000216808602068406920F0800021684861A6
:10067000206C08B9A06C28B12068006820F0080040
:10068000216808602068006820F001002168086087
:100690000FE000F039F9801B05280AD92020606599
:1006A00000BF002084F8340000BF032084F8350028
:1006B000D1E72068006800F001000028E9D194F833
:1006C0005C103F208840A86000BF002084F8340000
:1006D00000BF012084F835000020BCE7014691F8F6
:1006E0003500022803D0802048650120704705208E
:1006F00081F835000868006820F001000A68106081
:100700000020F3E7F8B502460B4600250024002040
:100710000021DEE0012606FA01F51E6806EA05045E
:10072000AC4275D11E7906F00306012E04D01E7965
:1007300006F00306022E13D190684F000326BE4038
:10074000B0434F00DE68BE403043906050680126E1
:100750008E40B0431E79C6F300168E403043506081
:100760001E7906F00306032E09D0D0684F00032639
:10077000BE40B0434F009E68BE403043D0601E79FB
:1007800006F00306022E13D1CF0802F1200656F818
:1007900027004E07F70E0F26BE40B0434F07FF0E4F
:1007A0001E69BE403043CF0802F1200646F82700FC
:1007B00010684F000326BE40B0431E7906F00306C2
:1007C0004F00BE40304310605E6806F08056B6F1C0
:1007D000805F7DD100BF00260096404E366846F40B
:1007E00080463E4F3E603E46366806F480460096A0
:1007F00000BF00BF3A4E8F0856F827008E07370F0C
:100800000F26BE40B043374EB24202D1002624E04C
:100810005EE0354EB24201D101261EE0334EB242B7
:1008200001D1022619E0324EB24201D1032614E072
:10083000304EB24201D104260FE02F4EB24201D118
:1008400005260AE02D4EB24201D1062605E02C4EC7
:10085000B24201D1072600E008268F073F0FBE40B5
:1008600030431F4E8F0846F82700264E3068A043BD
:100870005E6806F48036B6F5803F00D12043214EF5
:100880003060361D3068A0435E6806F40036B6F569
:10089000003F00D120431B4E361D3060361D3068AE
:1008A000A0435E6806F48016B6F5801F00D1204391
:1008B000144E08363060361D3068A0435E6806F47A
:1008C0000016B6F5001F00D120430E4E0C363060E6
:1008D000491C1029FFF41EAFF8BD00004438024047
:1008E00008380140000002400004024000080240B5
:1008F000000C0240001002400014024000180240A8
:10090000001C0240003C01400148006870470000A4
:100910001000002003480068034909780844014991
:1009200008607047100000201800002010B50D4826
:10093000006840F400700B4908600846006840F405
:10094000806008600846006840F4807008600320FA
:1009500000F080F80F2000F007F800F02BF80020DE
:1009600010BD0000003C024070B504460E480078FF
:100970004FF47A71B1FBF0F00C490968B1FBF0F566
:10098000284600F009FC08B1012070BD102C07D2E8
:1009900000222146501E00F01EF80548046001E0C8
:1009A0000120F2E70020F0E71800002000000020FE
:1009B00014000020704701460846002809DB00F0BB
:1009C0001F0301229A4043099B0003F1E023C3F86F
:1009D000002100BF70472DE9F05F80460D461646A6
:1009E000002701F09DFB074639462A46334601F0B1
:1009F0000700C0F1070ABAF1040F02D94FF0040A48
:100A000001E0C0F1070AD14600F1040ABAF1070F6C
:100A100002D24FF0000A01E0A0F1030AD4464FF0E1
:100A2000010A0AFA09FAAAF1010A0AEA020A0AFA0A
:100A30000CFA4FF0010B0BFA0CFBABF1010B0BEABC
:100A4000030B4AEA0B042146404601F071FBBDE866
:100A5000F09F000000BF00F00702064B19684FF638
:100A6000FF031940044B0B4343EA0221014B196079
:100A700000BF70470CED00E00000FA0570B50446B9
:100A80000D460CB9012070BD5848006800F0070001
:100A9000A84209D255490D700846006800F00700C9
:100AA000A84201D00120EEE7207800F002000228E1
:100AB0001DD1207800F00400042805D14C480068BE
:100AC00040F4E0504A490860207800F00800082807
:100AD00005D14748006840F46040454908604448F3
:100AE000006820F0F000A1680843414908602078C0
:100AF00000F00100A8B36068012807D13C4808381D
:100B00000068C0F34040B8B90120BCE76068022823
:100B100002D06068032807D1354808380068C0F360
:100B2000406048B90120AEE7314808380068C0F39A
:100B3000400008B90120A6E72D48006820F0030016
:100B4000616808432A490860FFF7DEFE064609E0AF
:100B5000FFF7DAFE801B41F28831884202D9032078
:100B600091E707E02248006800F00C006168B0EBF4
:100B7000810FEDD11D48006800F00700A84209D997
:100B80001A490D700846006800F00700A84201D01D
:100B9000012078E7207800F00400042807D11448E9
:100BA000006820F4E050E1680843114908602078AB
:100BB00000F00800082808D10D48006820F46040C3
:100BC000216940EAC1000A49086000F03FF808497D
:100BD0000968C1F30311074A515CC840064908601F
:100BE00006480068FFF7C0FE00204CE7003C0240CA
:100BF00008380240BA23000800000020140000203A
:100C000001480068704700000000002000B5FFF7B1
:100C1000F7FF04490968C1F38221034A515CC840C7
:100C200000BD000008380240CA23000800B5FFF7E5
:100C3000E7FF04490968C1F34231034A515CC840E7
:100C400000BD000008380240CA2300082DE9F04723
:100C5000002400250026A1462548006800F00C006D
:100C600020B1042805D008283AD105E0DFF88490A7
:100C700039E0DFF8849036E01D48001F006800F07E
:100C80003F041B48001F006800F4800078B11A4838
:100C90001749091F0968C1F38811A0FB01700146BB
:100CA000224600233846FFF7EAFA05460EE01148CF
:100CB0000F49091F0968C1F38811A0FB01700146A3
:100CC000224600233846FFF7DAFA05460848001F97
:100CD0000068C0F30140401C4600B5FBF6F902E095
:100CE000DFF8109000BF00BF4846BDE8F087000065
:100CF000083802400024F40000127A00F8B50446D7
:100D00000CB90120F8BD207800F00100002874D053
:100D1000F948006800F00C0004280DD0F64800687F
:100D200000F00C00082813D1F348001F006800F4FD
:100D30008000B0F5800F0BD1EF4808380068C0F391
:100D40004040002859D06068002856D10120D9E7DA
:100D500000BF6068B0F5803F08D1E74808380068F8
:100D600040F48030E449083908601EE06068B0F55E
:100D7000A02F0DD1E0480838006840F48020DE49FB
:100D8000083908600846006840F4803008600CE0CC
:100D9000D9480838006820F48030D74908390860FD
:100DA0000846006820F48020086000BF606890B1A9
:100DB000FFF7AAFD054606E0FFF7A6FD401B6428E5
:100DC00001D903209EE7CC4808380068C0F34040B2
:100DD0000028F1D011E0FFF797FD054606E0FFF788
:100DE00093FD401B642801D903208BE7C2480838D3
:100DF0000068C0F340400028F1D1207800F00200E4
:100E000002285FD1BC48006800F00C0058B1BA4815
:100E1000006800F00C0008281CD1B748001F0068CB
:100E200000F48000B0B9B44808380068C0F340004E
:100E300020B1E068012801D0012063E7AE480838FE
:100E4000006820F0F800216940EAC100AA49083989
:100E5000086037E0E06800B30120A8490860FFF7A8
:100E600053FD054606E0FFF74FFD401B022801D960
:100E7000032047E7A04808380068C0F34000002876
:100E8000F1D09D480838006820F0F800216940EA58
:100E9000C10099490839086014E0002097490860AA
:100EA000FFF732FD054606E0FFF72EFD401B022846
:100EB00001D9032026E7904808380068C0F34000B5
:100EC0000028F1D1207800F0080008282CD16069B2
:100ED000A8B101208A490860FFF716FD054606E023
:100EE000FFF712FD401B022801D903200AE78248C0
:100EF0006C300068C0F340000028F1D014E00020FE
:100F00007F490860FFF700FD054606E0FFF7FCFC9F
:100F1000401B022801D90320F4E677486C300068B2
:100F2000C0F340000028F1D1207800F0040004282C
:100F300070D1002770483830006800F0805090B9B8
:100F400000BF002000906C483830006840F08050AE
:100F50006949383108600846006800F08050009008
:100F600000BF00BF01276748006800F48070B0B977
:100F70006448006840F4807062490860FFF7C4FC70
:100F8000054606E0FFF7C0FC401B022801D90320FC
:100F9000B8E65C48006800F480700028F2D000BF1A
:100FA000A068012808D154486830006840F001006A
:100FB0005149683108601DE0A06805280DD14E48F0
:100FC0006830006840F004004B496831086008460A
:100FD000006840F0010008600CE047486830006895
:100FE00020F001004449683108600846006820F09C
:100FF0000400086000BFA068A8B1FFF785FC0546A3
:1010000009E0FFF781FC401B41F28831884202D998
:10101000032077E626E0384868300068C0F34000D7
:101020000028EED013E0FFF76FFC054608E0FFF75D
:101030006BFC401B41F28831884201D9032061E6F4
:101040002D4868300068C0F340000028EFD1012F20
:1010500007D129483830006820F0805026493831BF
:10106000086000BFA069002845D02348006800F050
:101070000C0008285DD0A069022845D100201F4936
:101080000866FFF741FC054606E0FFF73DFC401B04
:10109000022801D9032035E6174808380068C0F354
:1010A00040600028F1D1D4E907010843616A40EAB1
:1010B00081110122A06AC2EB500041EA00412C20BC
:1010C000005D41EA00600C49091F086001200B49DE
:1010D0000866FFF719FC054606E0FFF715FC401B04
:1010E000022801D903200DE6034808380068C0F340
:1010F00040600028F1D049E0083802400000474233
:10110000800E474200700040002021490866FFF72A
:10111000FBFB054606E0FFF7F7FB401B022801D961
:101120000320EFE51B480068C0F340600028F2D1BF
:101130002CE0A069012800D1E4E51648001D0668EE
:10114000A069012820D006F48001E06981421BD10A
:1011500006F03F01206A814216D147F6C070304048
:10116000616AB0EB811F0FD106F440310122A06A01
:10117000C2EB5000B1EB004F06D106F070612C209D
:10118000005DB1EB006F01D00120BBE50020B9E5A7
:10119000000047420038024070B504462546681EEC
:1011A000B0F1807F01D301200FE0681E4FF0E021F5
:1011B00048610F214FF0FF3000F0BAFF00204FF0E0
:1011C000E021886107200861002070BD2DE9F04111
:1011D00004460D46164600BF94F83C00012802D193
:1011E0000220BDE8F081012084F83C0000BF96B9E0
:1011F000EB68D5E90012206800F0D6FC2068806911
:1012000020F00C002168886120688069A968084383
:10121000216888613DE0042E13D1EB68D5E9001206
:10122000206800F01DFD2068806920F4406021687E
:10123000886120688069A96840EA01202168886186
:1012400027E0082E12D1EB68D5E90012206800F0E3
:1012500024FD2068C06920F00C002168C861206866
:10126000C069A96808432168C86112E0EB68D5E944
:101270000012206800F02DFD2068C06920F4406055
:101280002168C8612068C069A96840EA0120216816
:10129000C86100BF002084F83C0000BF00BFA0E789
:1012A00010B504460CB9012010BD94F83D0028B9D2
:1012B000002084F83C00204600F026F8022084F844
:1012C0003D00211D206800F07FFB012084F84600CE
:1012D00000BF84F83E0001213F2001554020015508
:1012E0004120015500BF00BF012084F84200432087
:1012F0000155442001554520015500BF012084F8C7
:101300003D000020D0E7000010B586B004462068FC
:10131000B0F1804F2DD100BF00200090164800682A
:1013200040F00100144908600846006800F0010020
:10133000009000BF00BF00BF002000900E4810309A
:10134000006840F001000C49103108600846006850
:1013500000F00100009000BF00BF012001900220BA
:10136000029003900120059001A90448FFF7CAF9F3
:1013700000BF06B010BD000030380240000002403F
:101380002DE9F04104460D4615B994F83E000BE0F6
:10139000042D02D13F20005D06E0082D02D140203F
:1013A000005D01E04120005D074615B994F8420058
:1013B0000BE0042D02D14320005D06E0082D02D190
:1013C0004420005D01E04520005D8046012F02D1F0
:1013D000B8F1010F02D00120BDE8F0811DB9022053
:1013E00084F83E000EE0042D03D102213F20015578
:1013F00008E0082D03D102214020015502E002211E
:10140000412001551DB9022084F842000EE0042D50
:1014100003D102214320015508E0082D03D1022108
:101420004420015502E002214520015501222946B0
:10143000206800F035FB1A49206888421BD02068DC
:10144000B0F1804F17D017492068884213D0164951
:10145000206888420FD01549206888420BD0144973
:101460002068884207D013492068884203D0124977
:10147000206888420CD12068806800F00706062E9C
:101480000CD02068006840F001002168086005E089
:101490002068006840F001002168086000209BE798
:1014A000000001400004004000080040000C004023
:1014B00000040140004001400018004070B504469F
:1014C0000D4600BF94F83C00012801D1022070BDF8
:1014D000012084F83C0000BF022084F83D0029462A
:1014E000204600F0F9FA48B1012084F83D0000BF21
:1014F000002084F83C0000BF0120E8E72068C068B5
:1015000020F040002168C8602068C06820F4804056
:101510002168C860012084F83D0000BF002084F8E5
:101520003C0000BF00BFD2E7704770472DE9F84F7D
:101530000446206805682068C668206847694FF03F
:101540000009CA4605F00F09B9F1000F0AD105F0EC
:10155000200038B106F0200020B1204600F00CFC3D
:10156000BDE8F88FB9F1000F72D007F0010018B98B
:1015700006F4907000286BD005F0010030B106F43D
:10158000807018B1206C40F00100206405F0040068
:1015900030B107F0010018B1206C40F00200206467
:1015A00005F0020030B107F0010018B1206C40F0E6
:1015B0000400206405F0080048B106F0200010B9CE
:1015C00007F0010018B1206C40F008002064206C86
:1015D00070B305F0200028B106F0200010B12046BD
:1015E00000F0CAFB20684069C0F3801A206C00F04C
:1015F000080010B9BAF1000F23D0204600F091FB8B
:101600002068406900F04000402816D120684069F9
:1016100020F0400021684861A06B50B15648A16B92
:101620000865A06BFFF75AF810B1A06B016D8847F1
:101630000CE02046FFF779FF08E02046FFF775FF32
:1016400004E02046FFF771FF0020206488E7FFE7F1
:10165000206B012879D105F01000002875D006F024
:101660001000002871D000BF0020009020680068A2
:10167000009020684068009000BF00BF206840696B
:1016800000F04000402839D1A06B006840681FFA84
:1016900080F8B8F1000F30D0A08D40452DDDA4F8C2
:1016A0002E80A06BC069B0F5807F1FD02068C06815
:1016B00020F480702168C8602068406920F0010033
:1016C000216848612068406920F040002168486135
:1016D000202084F83E00002020632068C06820F0AD
:1016E00010002168C860A06BFEF7A3FFA08DE28DFB
:1016F000801A81B22046FFF717FF31E7A08DE18DF8
:10170000401A1FFA80F8E08DE8B1B8F1000F1AD046
:101710002068C06820F490702168C8602068406923
:1017200020F0010021684861202084F83E0000205C
:1017300020632068C06820F010002168C86041461E
:101740002046FFF7F1FE0BE7FFE705F0800030B120
:1017500006F0800018B1204600F0A7FC00E705F075
:10176000400030B106F0400018B1204600F0F4FA15
:10177000F6E600BFF4E600000F1D000810B50446B1
:101780000CB9012010BDA06900B100E000BF94F8C1
:101790003D0028B9002084F83C00204600F028F8DD
:1017A000242084F83D002068C06820F4005021689F
:1017B000C860204600F040FB2068006920F490409B
:1017C000216808612068406920F02A00216848618A
:1017D0002068C06840F400502168C8600020206480
:1017E000202084F83D0084F83E000020CAE7000075
:1017F00010B586B004462E492068884255D100BFF6
:1018000000BF002000902B48006840F010002949DC
:1018100008600846006800F01000009000BF00BF9C
:1018200000BF00BF00BF00200090224814380068AD
:1018300040F001001F49143908600846006800F0B4
:101840000100009000BF00BF00BF00BF00BF00202C
:1018500000900846006840F00100086008460068F3
:1018600000F00100009000BF00BF00BF48150190CC
:10187000022002900120039002200490072005908E
:1018800001A90D48FEF73EFF4FF48060019007204C
:10189000059001A90848FEF735FF2520FFF78BF8D2
:1018A000032211462520FFF796F806B010BD000070
:1018B00000100140443802400000024070B5044668
:1018C0000D46164694F83E00202816D105B10EB9F3
:1018D000012070BD00BF94F83C00012801D1022016
:1018E000F7E7012084F83C0000BF00202063324667
:1018F0002946204600F0B6FBEBE70220E9E70000AE
:1019000010B504462049206888423BD11F48008812
:1019100000F4004088BB1D48008800F4804070B18E
:101920001B4800780A2803D000201849088024E0CA
:101930001648008840F40040144908801DE014480F
:1019400000780D2806D11148008840F480400F49E6
:10195000088012E00E4800780C490988C1F30D0197
:101960000C4A505409480088401C08490880084621
:101970000088C72801DD00200880012204490648AC
:10198000FFF79CFF10BD0000001001400C0000207C
:101990000E000020640000202C010020704700BFD2
:1019A000FEE700BFFEE770477047704710B5FEF7CF
:1019B000B1FF10BD0348006840F4700001490860A1
:1019C0007047000088ED00E010B50268294B98428E
:1019D0000ED0B0F1804F0BD0274B984208D0274B48
:1019E000984205D0264B984202D0264B984203D10C
:1019F00022F070024B681A431E4B984220D0B0F17F
:101A0000804F1DD01C4B98421AD01C4B984217D0C7
:101A10001B4B984214D01B4B984211D01A4B984242
:101A20000ED01A4B98420BD0194B984208D0194B44
:101A3000984205D0184B984202D0184B984203D1D7
:101A400022F44072CB681A4322F080034C6943EAC7
:101A5000040202608B68C3620B688362054B984284
:101A600002D0084B984201D10B6903630123436103
:101A700010BD0000000001400004004000080040CC
:101A8000000C0040000401400040014000440140BF
:101A90000048014000180040001C004000200040A9
:101AA00030B501F01F05012404FA05F3046A9C43D4
:101AB0000462046A01F01F0502FA05F52C43046272
:101AC00030BD30B50C46816821F47F4142EA0325E0
:101AD00025432943816030BD2DE9F04105460C4680
:101AE0002868866826F070066068064326F00706B8
:101AF0002068064328688660606800F00F010029AE
:101B00003BD10011082838D2DFE800F033343536F5
:101B10000B272D04D4E90313A2682868FFF7D1FF2F
:101B20002CE02068052802D10120BDE8F08128685A
:101B3000D0F820802868006A20F001002968086237
:101B40002868876927F0F007206947EA00172868A6
:101B500087612868C0F8208010E02269A1682868A1
:101B600000F00FF80AE02269A168286800F064F824
:101B700004E000BF00BF00BF00E000BF00BF0020C6
:101B8000D3E730B50B461446026A056A25F0010515
:101B90000562816921F0F00141EA041122F00A0294
:101BA0001A438161026230BD70B50C461546066A63
:101BB00026F0010606628169026A184EB04214D00E
:101BC000B0F1804F11D0164EB0420ED0154EB0423B
:101BD0000BD0154EB04208D0144EB04205D0144E72
:101BE000B04202D0134EB04201D1012600E00026DF
:101BF0001EB121F00301294301E041F0010121F070
:101C0000F001F02606EA0316314322F00A0204F03E
:101C10000A0632438161026270BD0000000001408B
:101C20000004004000080040000C00400004014097
:101C3000004001400018004030B50B461446056ACC
:101C400025F0100505628169026A21F4704141EABC
:101C5000043122F0A00242EA03128161026230BD27
:101C600070B50C461546066A26F0100606628169B4
:101C7000026A21F4407141EA052121F470414FF4D8
:101C8000704606EA0336314322F0A002A02606EA97
:101C9000041632438161026270BD70B50C46154670
:101CA000066A26F480760662C169026A21F00301A1
:101CB000294321F0F001F02606EA0316314322F40D
:101CC00020624FF4206606EA04263243C1610262B4
:101CD00070BD70B50C461546066A26F4805606623D
:101CE000C169026A21F4407141EA052121F4704181
:101CF0004FF4704606EA0336314322F420424FF493
:101D0000204606EA04363243C161026270BD70B5F6
:101D10000546AC6B0020E085E0842046FFF705FC1B
:101D200070BD0168C96821F490710268D1600168D2
:101D3000496921F0010102685161016B012905D156
:101D40000168C96821F010010268D160202180F883
:101D50003E1000210163704710B504462068C0683A
:101D600020F040002168C860202084F83D00204613
:101D7000FFF714FE002010BD70B5044694F83E0035
:101D8000222856D1A068B0F5805F0CD1206950B9E7
:101D90000025A66A20684068C0F308003080A06A69
:101DA000801CA06215E0A56A0026A068B0F5805FDF
:101DB00003D0A06828B9206918B920684068287045
:101DC00004E02068406800F07F002870A06A401C92
:101DD000A062E08D401E80B2E08540BB2068C068F4
:101DE00020F020002168C8602068C06820F480705E
:101DF0002168C8602068406920F0010021684861BE
:101E0000202084F83E00206B01280AD12068C06899
:101E100020F010002168C860A18D2046FFF784FBE8
:101E200002E02046FFF76CFD0020206370BD00201B
:101E3000FCE70220FAE700002DE9F84F044620688D
:101E4000006920F44050E168084321680861216975
:101E5000A068084361690843E1690843009020686D
:101E6000C06849F20C618843009908432168C86042
:101E70002068406920F44070A169084321684861E6
:101E800076492068884203D075492068884203D18A
:101E9000FEF7CCFE814602E0FEF7B8FE8146E0691F
:101EA000B0F5004F6CD102206168A0FB01500346E1
:101EB0001920A9FB007001462A463846FEF7DFF9D3
:101EC0006421B0FBF1F04FEA001A02206168A0FB28
:101ED00001510B461920A9FB00712A463846FEF72E
:101EE000CEF9834602206168A0FB01500346192009
:101EF000A9FB00712A463846FEF7C1F96421B0FB00
:101F0000F1F000EBC00101EB0010ABEB80003221DF
:101F100001EBC0006421B0FBF1F000F0F8000AEB27
:101F2000400A02206168A0FB015003461920A9FB6A
:101F3000007001462A463846FEF7A1F98346022082
:101F40006168A0FB015003461920A9FB00712A46D5
:101F50003846FEF794F96421B0FBF1F000EBC001C4
:101F600001EB0010ABEB8000322101EBC0006421DB
:101F7000B0FBF1F000F007005044216888606AE08F
:101F800004206168A0FB015003461920A9FB0070E2
:101F900001462A463846FEF772F9824604206168F7
:101FA000A0FB015003461920A9FB007001462A46F8
:101FB0003846FEF764F96421B0FBF1F000EBC00194
:101FC00001EB0010AAEB8000322101EB001064212C
:101FD000B0FBF1F000F0F00A04206168A0FB017092
:101FE00003461920A9FB00513A462846FEF747F957
:101FF0006421B0FBF1F00AEB001A04206168A0FB39
:1020000001510B461920A9FB00712A463846FEF7FC
:1020100036F9834604206168A0FB0150034619206D
:10202000A9FB007001462A463846FEF728F96421CC
:10203000B0FBF1F000EBC00101EB0010ABEB800056
:10204000322101EB00106421B0FBF1F000F00F0031
:10205000504421688860BDE8F88F000000100140FE
:102060000014014010B5034699629A85DA85002074
:102070001864222083F83E0000BF002083F83C0053
:1020800000BF1868C06840F480701C68E060186881
:10209000406940F001001C6860611868C06840F049
:1020A00020001C68E060002010BD014691F83D0052
:1020B000212828D18868B0F5805F0BD1086948B91C
:1020C0000A6A1088C0F308000B685860086A801C10
:1020D000086205E00B6A581C086218780B685860A3
:1020E000C88C401E80B2C88458B90868C06820F007
:1020F00080000B68D8600868C06840F040000B683A
:10210000D860002070470220FCE7000010B50248AC
:10211000FFF70CFA10BD00002C01002000BFFEE705
:1021200002480068C0F30220704700000CED00E098
:1021300010B5002804DB0A07130E054A135406E005
:102140000A07140E034A00F00F031B1FD45410BDDE
:1021500000E400E018ED00E000BF704701490860AE
:10216000704700000400002010B504464FF47A7157
:1021700004FB01F000F002F810BD000070B503464A
:1021800000224FF0E02675690D4E366803FB06F419
:102190004FF0E026B16910E04FF0E026B0698842C8
:1021A0000BD0884202D20E1A324402E02E1A0E449C
:1021B00032440146A24200D300E0EDE700BF70BD0B
:1021C0000400002000BF054A126802F04002002A05
:1021D000F9D0C2B2014B5A607047000000100140B4
:1021E00010B58AB00446142105A8FEF73BF94FF05C
:1021F00080401749086008464460002181604FF61E
:10220000FF71C160FFF74CF8072005905020069041
:10221000002007900820099005A90D48FFF74EF906
:102220000020019002900390049008200490002068
:1022300001900120029000200390002201A904488F
:10224000FEF7C4FF00210248FFF79AF80AB010BD5C
:102250001C00002000240025FEF768FB0723022253
:1022600008214FF4A87000F027F8A820FFF776FFA8
:102270000020FFF7B5FF4FF4E13000F07DF810E0EB
:1022800008480068406A84B2A5420AD0254629461B
:1022900005A0FEF76BF80A20FFF766FF1420FFF792
:1022A00063FFEDE71C000020C2F6B3E5CAFDCEAA2D
:1022B000A3BA2564200D0A002DE9F04192B08046B2
:1022C0000C4615461E460027302106A8FEF7CAF820
:1022D000142101A8FEF7C6F800BF00200090244892
:1022E000006840F08050224908600846006800F00D
:1022F0008050009000BF00BF00BF002000901D482C
:10230000006840F480401B4908600846006800F4FB
:102310008040009000BF00BF01200690000407909D
:1023200002200C9041050D91CDF83C800E94109543
:10233000119606A8FEF7E2FC07461FB1012012B075
:10234000BDE8F0810F200190022002900020039050
:102350004FF4A05004904FF480500590052101A83F
:10236000FEF78CFB07460FB10120E8E70020E6E707
:10237000403802400070004010B5044609480A4940
:1023800008600846446000218160C160016181618C
:102390000C214161FFF7F2F9012204490248FFF7DD
:1023A0008DFA10BD001001402C0100200E0000200D
:1023B0004FF04070E1EE100A70470000000000008E
:1023C00000000102030406070809000000000102E2
:1023D00003040000F4230008000000201C0000009B
:1023E000C4010008102400081C000020B4050000EF
:1023F000E00100080024F4000000000000000000DC
:1024000000000000000000001000000001000000BB
:040000050800018965
:00000001FF
