:020000040800F2
:10000000880B00203D020008852B00088521000890
:10001000B92A00088F1D00084940000800000000B0
:10002000000000000000000000000000693400082B
:10003000C51E00080000000025320008F536000843
:10004000570200085702000857020008570200082C
:10005000570200085702000857020008570200081C
:10006000570200085702000857020008570200080C
:1000700057020008570200085702000857020008FC
:1000800057020008570200085702000857020008EC
:1000900057020008570200085702000857020008DC
:1000A0005702000899390008570200085702000853
:1000B00057020008570200085702000857020008BC
:1000C00057020008570200085702000857020008AC
:1000D000570200087D3E000857020008570200083A
:1000E00057020008570200085702000800F002F803
:1000F00000F094F80AA090E8000C82448344AAF12E
:100100000107DA4501D100F089F8AFF2090EBAE82B
:100110000F0013F0010F18BFFB1A43F0010318473B
:100120004C6200006C620000103A24BF78C878C1AD
:10013000FAD8520724BF30C830C144BF04680C60ED
:10014000704700000023002400250026103A28BF35
:1001500078C1FBD8520728BF30C148BF0B60704739
:100160006E2900F0CD83702900F06D81662905F0BD
:100170006883652905F06583672905F06283612935
:1001800005F0618303681B0A28BF41F080016929DB
:1001900000F0DE80642900F0DB80752900F0D88053
:1001A0006F2900F09C84782900F03981E92900F05A
:1001B0003784E42900F03484F52900F03184EF29F4
:1001C00000F09984F82900F038810368DB0928BF22
:1001D00041F08001632901F09780732901F09C8030
:1001E000E32901F0A780F32901F0AC8000207047DB
:1001F0001FB59DE8030000F087FA01F0FBF804004A
:100200000020002104F00AFA401C60600020002158
:1002100004F0EEF9E0601FBD10B510BD01F0BDF8AF
:100220001146FFF7E5FF04F061F901F099F903B415
:10023000FFF7F2FF03BC03F086FF00000948804788
:1002400009480047FEE7FEE7FEE7FEE7FEE7FEE7B8
:10025000FEE7FEE7FEE7FEE704480549054A064BD0
:1002600070470000F9360008ED00000888050020FE
:10027000880B00208807002088070020704770B591
:10028000064600F025FA056806F10B0020F0070489
:10029000B4429CBF002070BD2B466A68BAB110689A
:1002A000A04210D304F1080188423CBF5068586056
:1002B00007D35168101941601168091B016058602B
:1002C0001460101D70BD13465268002AE7D1214604
:1002D000284600F005FA0028DED170BD1CB50C469A
:1002E000064B7B4469460090204600F022FB044602
:1002F0000020694600F030FB20461CBD730600005C
:1003000070B5044685690068C10601D5302600E055
:100310002026C00707D070BDD4E9012130469047A0
:10032000206A401C20626D1EF6D570BD70B5044673
:1003300085690078C00707D170BDD4E9012120206C
:100340009047206A401C20626D1EF6D570BD0000EB
:100350002DE9F0410646002410687529314616A59E
:1003600010D000F039FA002802DA404213A507E065
:1003700031688A0701D512A502E0490704D511A505
:10038000012401E000F031FA00210A2206F12407DD
:1003900009E0B0FBF2FCB0FBF2F302FB1C003030D2
:1003A00078541846491C0028F3D123462A46304683
:1003B000BDE8F04100F04BBA000000002D00000045
:1003C0002B00000020000000F0B40D460188090554
:1003D00002D5214C7C4402E01F4C7C440E340021A9
:1003E00000F1240608E002F00F071209E75D42EA77
:1003F00003721B097754491C52EA0307F3D10278B0
:100400000023120704D5702D06D009B10223113440
:100410002246F0BC00F01BBA01231034F8E770B597
:1004200004460D462146106800F0DFF902462946D1
:100430002046BDE870400023C6E7D21D22F0070326
:10044000D3E90023C0E70368126843F02003036088
:100450000823C3610023B7E7F65D00002DE9F05FD4
:10046000894604464FF0000ADFF874B1FB44C0F837
:1004700020A02046E1688847002874D0252806D0AF
:10048000D4E901219047206A401C2062F1E7002650
:100490005F462046E16888472028054607DB312D66
:1004A00005D2781910F8200C08B10643F1E7B0071F
:1004B00001D526F00406C4F81CA00027C4F818A033
:1004C0002A2D09D0284603F037FE38B304EB8708FD
:1004D000303DC8F8185019E059F8041B204604EBC9
:1004E00087029161E1688847012F054618D1E069CC
:1004F000002820DA26F020061DE0D8F8180000EBCE
:10050000800005EB40003038C8F818002046E1684C
:100510008847054603F010FE0028EED1012F0AD0CF
:100520002E2D08D12046E16888477F1C0546022F02
:1005300046F02006C4DBA069002803DA404246F0FA
:100540000106A061F00701D026F010066C2D0BD03B
:10055000682D09D04C2D39D06A2D35D0742D35D069
:100560007A2D33D016E038E0E1682F4620468847E0
:10057000B842054609D16C2F26D04FF48060E1685F
:10058000064320468847054604E06C2F1AD04FF4F6
:10059000807006430DB3A5F14100192802D820351B
:1005A00046F400664A462946204626604E46FFF736
:1005B000D7FD80B101280BD0F61D26F0070000F111
:1005C000080956E74020E4E78020D8E70020D6E776
:1005D00006F104094DE7284652E7206ABDE8F09F7E
:1005E000865D000010B5203AC0F00B80B1E81850CD
:1005F000203AA0E81850B1E81850A0E81850BFF40D
:10060000F5AF5FEA027C24BFB1E81850A0E81850AB
:1006100044BF18C918C0BDE810405FEA827C24BFFF
:1006200051F8043B40F8043B08BF7047D20728BF8D
:1006300031F8023B48BF11F8012B28BF20F8023BDC
:1006400048BF00F8012B70474FF0013C50F8042BD5
:1006500051F8043B9A4221D1A2EB0C03934313EAD5
:10066000CC1317D150F8042B51F8043B9A4215D102
:10067000A2EB0C03934313EACC130BD150F8042BD9
:1006800051F8043B9A4209D1A2EB0C03934313EABD
:10069000CC13DBD04FF00000704700BFD01A01BA76
:1006A000B1FA81F101F0180122FA01F0CB40C1F159
:1006B0002001DBB2C0B2C01A2CFA01F3D11A914367
:1006C00011EAC311E6D17047704770477047704711
:1006D00000487047300500207047704770477047EA
:1006E00038B504460A4600206946AFF3008000286A
:1006F00008BF38BD02460099204600F00FFA0120DD
:1007000038BD012000F042BEF8B5AFF300800546C9
:1007100000200C46102000BF0646A819A0420DD9A3
:10072000324669460020AFF30080070008BF00F0A2
:100730002DFE0098A04218BF0546C419FFF7C8FF58
:1007400005600746F01D20F007004619284600F016
:100750000AF8B44208BFF8BDA21B31463868BDE8AC
:10076000F84000F0DBB900210160C0E901107047DA
:100770001020704770B50446051FFFF7A9FF0068F9
:10078000002C14BF446870BD002C18BFAC423CBFA5
:1007900020466468F8D301680A18AA4218BF456069
:1007A00003D12A6805461144016028684119A14215
:1007B0001CBF6C6070BD6168696021680844286076
:1007C00070BD10B500F0A6F9006810BD10B5044664
:1007D00000F0A0F9046010BD09684A0501D540B2D7
:1007E0007047C905FCD500B2704709684A0501D5B4
:1007F000C0B27047C905FCD580B2704770B50C46D1
:100800000546012A05D02878800600D5EA6900232C
:1008100002E0012305E05B1C934202D2E05C002869
:10082000F9D1A869E618C01AA861286A1844286294
:100830002846FFF765FD04E0D5E9012114F8010B16
:100840009047B442F8D32846FFF770FD70BD2DE9FC
:10085000F0470D4699469246044600F12408016887
:10086000880604D5E06921F01001216000E0012034
:10087000A84201DD471B00E00027A1697A1902EBBD
:100880000900081AA0612078C00602D42046FFF7AC
:1008900037FD002608E0D4E901211AF80600904748
:1008A000206A401C761C20624E45F4DB2078C0068E
:1008B0000AD52046FFF724FD06E0D4E901213020C7
:1008C0009047206A401C2062381EA7F10107F4DC23
:1008D00007E0D4E9012118F805009047206A401C80
:1008E0002062281EA5F10105F3DC2046FFF71EFD5E
:1008F0002078000602D50220BDE8F0870120FBE742
:1009000011680268006A530501D508700AE0D30532
:1009100001D5088006E0130603D5C217C1E900021D
:1009200000E008600120704701694A1C02610878F4
:10093000704700B58FB0CDE901310021059105491F
:100940007944CDE9031011466846FFF787FD0FB0E3
:1009500000BD0000E5FFFFFF0A6802F8010B0A6016
:10096000704700002DE9FF5F15468A460446DFF810
:10097000AC80F8440027D8E900103E46CDE90010CD
:1009800010E03AF816106A4602A800F0DFFC411C9D
:1009900007D02178890603D5E269391891420DD82C
:1009A0000744761C2078800602D5E069B84205DD50
:1009B000AE42E6DB3AF816000028E2D1A069C01B7F
:1009C000A0612046FFF79CFCD8E90010CDE900109B
:1009D000002017E03AF818106A4602A800F0B6FCAA
:1009E000B0F1FF3F81460BD000250DF1080B05E06B
:1009F000D4E901211BF8050090476D1C4D45F7D344
:100A000008F10100B0428046E4DB206A38442062ED
:100A10002046FFF78BFCBDE8FF9F000092580000C6
:100A20002DE9F0418046D21D22F007020025D2E9CF
:100A30000002F52915A614D0011E72F1000106DA94
:100A40000023D0EB030063EB020211A608E0D8F804
:100A500000108B0701D50FA602E0490701D50EA6AD
:100A600001251146002408F1240704E000F070F885
:100A700030323A55641C50EA0102F7D12B46324617
:100A800021464046BDE8F041FFF7E1BE000000000E
:100A90002D0000002B0000002000000030B40021D9
:100AA00000F1240408E002F00705D208303542EADC
:100AB0004372DB086554491C52EA0305F3D104680C
:100AC000002310A2250707D5A40600D421B1C469CC
:100AD00001230DA2641EC46130BCFFF7B8BE10B57F
:100AE000044621461068FFF780FE02462046BDE816
:100AF00010400023D2E7D21D22F00701D1E90023E4
:100B0000CCE7000000000000300000000048704703
:100B1000280500200048704728050020034640684B
:100B20008C46002818BF88423CBF03464068F8D373
:100B300018681844884207D00CF1030020F0070021
:100B4000001D411A521A0146081D0A60FFF712BE25
:100B500030B5B0F10A024FEA900E71F100034EEA8F
:100B6000817EB0EB0E0061EB91014FEA101E4EEA60
:100B7000017E10EB0E0041EB11114FEA102E4EEAF0
:100B8000016E10EB0E0041EB11214FEA104E4EEAC0
:100B9000014E10EB0E0041EB1141401841F10001F4
:100BA0004FEAD00040EA41704FEAD10110EB8005D6
:100BB0004FEA810444EA907444EB01046D1944EB5C
:100BC0000404521BA3414FF0000348BF0A3200D572
:100BD00030BD401C41F1000130BD70472DE9FF4F91
:100BE0000C461E464FF0FF378BB0D2E90001DDF80E
:100BF00060800A908A46C1F30A5505B93D46002136
:100C000008464FF00000BAF1000F00F4400005DA8A
:100C100000EB80004FF4400101EA50004FEA905988
:100C2000B9F1010F00DDB9460A9850EA4A000ED02A
:100C300044F61050A5F2FF3545432F14B8F1000FCC
:100C40001ED07542291E1EDDC9F100021CE0B8F15C
:100C5000010F4FF0000001D0302103E0F24305E026
:100C60002154401CB042FBDB3046002200212154BD
:100C70000B99C1F80880C1E900200FB0BDE8F08FE2
:100C8000BD1B6D1CDEE74A4600DA694206A800F08B
:100C9000F5FB06AB93E8070003AB83E8070050467B
:100CA0000A9900F0ACFC8DE80700A0F500501F3851
:100CB00000900398002D0ADD42F21F014A460844C5
:100CC000002303A90390684600F015FF09E0A0F592
:100CD00000504A461F38002303A90390684600F0DD
:100CE0001FFF8DE807000004000C03D04FF0FF3019
:100CF000410800E01046B8F1000F03D00022009236
:100D000015461EE0751E05D4FFF722FF30326255EE
:100D10006D1EF9D5B3460122084302D000227F1C84
:100D200004E02078302801D100227F1E002A099794
:100D300084D01DE0112D07DAFFF70AFF303262552B
:100D40006D1C50EA0102F5D1084302D00098C8B1E9
:100D50000EE00021681E05E0235C625C63542254AF
:100D6000401E491C8142F7DBAB46A81B401E099080
:100D7000002004F80B000B98099AC0F80880C0E91D
:100D8000002B7AE711264FF0000857E72DE9F04FC6
:100D900088460446D21D22F0070191B0D1E9000136
:100DA000CDE90A0103F052F902460B98C00F01D0B9
:100DB0002D2007E02068810701D52B2002E02021AB
:100DC00001EAC000032A099001D0072A05DB034687
:100DD0004146204600F012FB0BE12078800601D549
:100DE000E06900E00620B8F1650F814606D0B8F151
:100DF000660F18D0B8F1670F70D131E00020B9F15B
:100E0000110F009001DB112301E009F101030AAA8F
:100E100001A90CA8FFF7E2FEDDE90C70002609F13C
:100E20000105834647E001204B4600904FF0004704
:100E30000AAA01A90CA8FFF7D1FEDDE90DB00C99B3
:100E40005D46002610B909F101000D18B9EB050047
:100E500003D4C0F1FF3609F10105A5EB09002BE031
:100E6000B9F1010F01DA4FF001090020B9F1110FBA
:100E70000090484601DD112300E003460AAA01A9BB
:100E80000CA8FFF7ABFEDDE90C704D46002683464B
:100E9000207800070AD4AB4500DA5D4601A8012D91
:100EA00004DD411911F8011C302907D04F4502DA41
:100EB00017F1040F04DA012082460FE06D1EEEE701
:100EC000002F02DCED1B3E4403E0781CA84200DD4D
:100ED0007D1CB81B00F1010A4FF000472078000785
:100EE00003D4AA4501DB4FF0FF3A0021B7F1004FD0
:100EF0000DF143088DF8431024D002202B23002F3E
:100F000001DA7F422D230A21021EA0F1010000DC3C
:100F10005FB197FBF1FC97FBF1F201FB1C7C1746DC
:100F20000CF1300C08F801CDEEE7A8F101000370D8
:100F30002188090501D5452100E06521A0F10108BE
:100F400000F8011C09980FA9A1EB0807FF1D00B1CB
:100F50000120411901EBEA70A1693844081A401ECA
:100F6000A0612078C00602D42046FFF7C9F909988D
:100F700028B1D4E901219047206A401C20622078E2
:100F8000C00622D52046FFF7BBF91EE0002E04DB89
:100F9000B34502DD01A8805D00E03020D4E90121E5
:100FA0009047206A401C2062761CAAF101005FEA8B
:100FB000000A0AD100F01EFAC0680168405CD4E95A
:100FC00001219047206A401C2062281EA5F10105DE
:100FD000DCDC07E0D4E9012118F8010B9047206A16
:100FE000401C2062381EA7F10107F3DC2046FFF702
:100FF0009DF9032011B041E62DE9F04F04460D465E
:10100000D21D22F0070089B0D0E900974846394642
:1010100003F01CF80246F80F01D02D2307E02068EA
:10102000810701D52B2302E0202101EAC0038DF8BE
:1010300020300BB1012000E00020032A824601D0BD
:10104000072A04DB2946204600F0D8F93FE1207842
:10105000800601D40D2500E0E569C7F30A560D2D81
:1010600049DA00214FEA175B08464FF00000002FD5
:1010700000F4400007DA00EB80004FF4400100EB81
:10108000D07001EA60008115012901DD4FF0FF31C8
:1010900000224FEA850CBCF1180F06D31346ACF1C1
:1010A00018004FF08052C24003E04FF4801323FA3F
:1010B0000CF30CF10C0CBCF1200F04D3ACF1200CA0
:1010C00009FA0CF001E007FA0CF000294FF0004893
:1010D00001DD18B90FE00ED140450CD319EB020920
:1010E0005F4121B9404502D19F4329EA0209BBEB88
:1010F000175F00D0761C2088000502D57B48784415
:1011000002E07A487844193808AA302302F80A30F5
:10111000037C0AF10101002E0AF1020A53546A46C7
:1011200002DC4FF0300101E04FF031014FF00108D7
:101130008DF8001002D0A6F2FF3603E059EA47010D
:1011400000D06B4E002D02DC2178090704D54FF04A
:1011500002082E218DF80110C44600210BE0C7F3D0
:1011600003433F01C35C491C6D1E02F8083005298A
:1011700008F1010801DA002DF1DC00210CE000EBA0
:101180001973491C1B786D1E082902F808304FEAB4
:10119000091908F1010801DA002DF0DC21688B063D
:1011A00002D516E0A8F10108E04505DD02EB0803D1
:1011B00013F8013C302BF5D0B8F1000F09DD02EB3C
:1011C000080313F8013C2E2B03D1090701D4A8F121
:1011D0000108002D05DD3E2102F808106D1E08F102
:1011E0000108407C002E02F8080008F1010804DA2A
:1011F0002D20764202F8080002E02B2002F80800B9
:101200000A214FF47A70864208F101080BDB96FB45
:10121000F0F3303302F8083096FBF0F308F10108E0
:1012200000FB136601E0642E0CDB642096FBF0F3F8
:10123000303302F8083096FBF0F308F1010800FBA8
:10124000136601E00A2E06DB96FBF1F0303002F85F
:10125000080008F1010896FBF1F001FB1060303046
:1012600002F80800A16908F1010808EB050202EB89
:101270000A00081AA0612078C00602D42046FFF7B1
:101280003FF8216A08AE01EB0A00206204E0D4E9CD
:10129000012116F8010B9047BAF1010AF7D2207824
:1012A000C00602D52046FFF72BF86E4609E016F877
:1012B000010B3E280FD0D4E901219047206A401C41
:1012C0002062B8F10108F2D22046FFF72FF809B0EA
:1012D0000320BDE8F08F206A2844206203E0D4E9AF
:1012E0000121302090476D1EEBD3F8E7C15100007B
:1012F00002FCFFFF10B5436913B1AFF3008001E0BA
:10130000FFF77CFA012010BD127800F124010A7069
:1013100000224A700122EDE711684FF0FF32E9E741
:1013200010B5436913B1AFF3008001E0FFF71AFB7A
:10133000012010BD128800F1240182840022C284A1
:101340000122EDE711684FF0FF32E9E770B516466C
:101350000C46054600F046F8036893F801010128A1
:1013600006D0FF2C0FD8185D68B101202C7070BD1D
:10137000D3F807013246214603F2071303442846F7
:10138000BDE8704018474FF0FF3070BD10B500F059
:10139000F5F8BDE8104000F0ECB87546FFF7B6FB75
:1013A000AE4605006946534620F00700854618B052
:1013B00020B5FEF751FFBDE820404FF000064FF08A
:1013C00000074FF000084FF0000B21F00701AC467A
:1013D000ACE8C009ACE8C009ACE8C009ACE8C00999
:1013E0008D46704710B500F005F8001D10BD00BF18
:1013F0002D32000000487047480500202DE9F041DB
:101400001F46044603260168072A01F4006004DB36
:1014100008B116A505E016A503E008B115A500E082
:1014200015A521F010002060A069C01EA0610FB1B9
:10143000401EA0612046FEF763FF4FB1D4E90121B1
:1014400038469047206A401C2062C01C206206E09B
:10145000206AFAE7D4E9012115F8010B9047761EBE
:10146000F8D22046FEF762FFBDE8F0814E414E0003
:101470006E616E00494E4600696E66002DE9F047C8
:10148000814616468AB0354878440DC88DE80D006F
:1014900032487844801C03AC0DC884E80D0041F646
:1014A0009B300844372190FBF1F290FBF1F5A5F158
:1014B000800501FB12041B3C02D56442012000E0C0
:1014C0000020DFF898A080460027FA44AAF1BE0A5F
:1014D0000EE0E0070AD03246684607EB47010123D9
:1014E0000AEB810100F01CFB8DE8070064107F1CF3
:1014F000002CEED1194F7F44AE3F19E0E80715D01C
:1015000007EB04100DF1180A90E80E008AE80E00AF
:10151000C068F04201D1981908903246012306A90B
:1015200003A800F0FDFA03AB83E807006D10641C0C
:10153000002DE3D14FF0010332466946B8F1000FA8
:1015400003A802D000F0D7FA01E000F0E9FAC9E9F7
:101550000001C9F808200AB0BDE8F087C84E0000B5
:1015600010B50446AFF300802046BDE81040FEF7FA
:101570005EBE002801D002F0E6BD704710B501281C
:1015800005D0002103A000F021F8012010BD09A121
:10159000F8E7000053494752544D454D3A204F75E6
:1015A00074206F662068656170206D656D6F72795B
:1015B000000000003A2048656170206D656D6F7213
:1015C0007920636F727275707465640070B505463A
:1015D0000C460A2000E06D1C02F0B7FD35B12878FA
:1015E0000028F8D102E0641C02F0AFFD14B12078AD
:1015F0000028F8D1BDE870400A2002F0A6BD5FEADD
:10160000400C08BF91F0000F4FEA8C234FEAC12233
:1016100043EA51514FEA1C5018BF00F5F0404FEA21
:10162000300018BF41F000415FEA6C5C00F0298097
:10163000BCF1FF3F08BF40F080407047130C06BF6D
:1016400012044FF0100C4FF0000C130E04BF1202E6
:101650000CF1080C130F04BF12010CF1040C930FD2
:1016600004BF92000CF1020CD30F04BF52000CF126
:10167000010C11464FF00002A0F11F00A0EB0C007E
:10168000704711F0004F08BF704731F000413FF440
:10169000D5AF0B0C06BF09044FF0100C4FF0000C37
:1016A0000B0E04BF09020CF1080C0B0F04BF09015B
:1016B0000CF1040C8B0F04BF89000CF1020CCB0F52
:1016C00004BF49000CF1010CCCF12003A0EB0C008D
:1016D00022FA03F302FA0CF241EA030100F10100DD
:1016E000704720F07F4C80EA030023F07F47ACEB8B
:1016F000070303F57C5300F0004003F1FF032DE9DD
:1017000080494FEA154B09B44FEA144325EA0B4EC2
:1017100024EA03480FF2042606EB132749083E7813
:101720005FEA320203FB0667C7F5000707FB06F610
:101730004FEA54374FEAD64606F1020607FB066C1D
:10174000CCF1005C4FEA1C472CEA074C07FB06F47F
:101750000CFB06F504EB15464FEA961634BF002045
:101760004FF000404FEAD13706FB07FC4FEA1C4C14
:101770000CFB0BF7D21B03FB0CF761EB07010CFB17
:101780000EF7B0EB074072EB17420CFB08F734BFC3
:10179000A2EB0742B2EB074261EB17414FEA0C4460
:1017A0004FEA910706FB07FC4FEA1C4C0CFB0BF7BA
:1017B000B0EBC74072EB573203FB0CF734BFA2EB20
:1017C000C742B2EBC74261EB57310CFB0EF7B0EBEF
:1017D000C70072EB57720CFB08F734BFA2EBC702CD
:1017E000B2EBC70261EB5771039F4FEA816141EA97
:1017F000921104EBCC044FEAD1374FEA826206FB28
:1018000007FC42EA90124FEA80604FEA1C4C0CFB46
:101810000BF7D21B03FB0CF761EB07010CFB0EF778
:10182000B0EB074072EB17420CFB08F734BFA2EB9A
:101830000742B2EB074261EB17414FEA8C554FEA82
:10184000910704EB9C2406FB07FC4FEA1C4C0CFBA5
:101850000BF7B0EBC74072EB573203FB0CF734BF0A
:10186000A2EBC742B2EBC74261EB57310CFB0EF75C
:10187000B0EBC70072EB57720CFB08F734BFA2EB5A
:10188000C702B2EBC70261EB577115EB4C254FEA6B
:10189000816141EA92114FEA82624FEAD13742EA0E
:1018A000901206FB07FC44F100044FEA80604FEA07
:1018B0001C4C0CFB0BF7D21B03FB0CF761EB070175
:1018C0000CFB0EF7B0EB074072EB17420CFB08F76E
:1018D00034BFA2EB0742B2EB074261EB174115EBB5
:1018E0001C154FEA813141EA92414FEA823242EAC5
:1018F00090424FEA80304FEA0C7644F1000448EA07
:1019000003434EEA0B484FF0000EB2EB080C71EBAC
:10191000030724BF624639464EEB0E0E4FF0000B14
:101920000018524149414BEB0B0BB2EB080C71EB29
:1019300003077BF1000B24BF624639464EEB0E0EC7
:101940004FF0000B0018524149414BEB0B0BB2EB2F
:10195000080C71EB03077BF1000B24BF624639468C
:101960004EEB0E0E51EA020718BF46F0010616EBC9
:101970000E7655F1000254F1000103D5BDE889014E
:10198000BDE80088BDE88901BDE80048B6195241AC
:1019900041EB0101A3F10103704780807F7E7D7CD4
:1019A0007B7A7978777676757473727171706F6EF1
:1019B0006E6D6C6C6B6A6A6968686766666564649C
:1019C000636362616160605F5F5E5E5D5D5C5C5B26
:1019D0005B5A5A5959585857575656555555545495
:1019E000535352525251515050504F4F4F4E4E4DF3
:1019F0004D4D4C4C4C4B4B4B4A4A4A49494948483F
:101A0000484747474746464645454544444444437E
:101A100043434342424242414141002B9C4630D421
:101A200077002BD01CB54FEA370703B44FF01000F6
:101A30004FF01001BAF1000F06D0BCF1000FDCBF6F
:101A400040F0080040F008014FF000000FBCBDE876
:101A500010400BF1010BBBF1010F08BF5FEA170744
:101A600022BF12F1010211F101014FF0004143F1D7
:101A7000000300F0004043EA00007047F9D3570824
:101A8000D0E746EA064613F1400F4FEA16461FDD3F
:101A900013F1200FDFBF16430A46002120335B42BB
:101AA000BED0C3F1200746EA064602FA07F74FEA1E
:101AB000164646EA0706C3F1200722FA03F201FAA6
:101AC00007F721FA03F14FF0000342EA0702A7E704
:101AD00046EA020646EA06464FEA164646EA010686
:101AE000BCBF46EA0646360C4FF000034FF000023A
:101AF0004FF0000194E72DE9804C9A46934670B46C
:101B000091E8380007C831EA400C48BF34EA430C7A
:101B100003D5FFF7E6FDFFF780FFF0BCBDE8008CC2
:101B20002DE9804C9A46934670B491E8380007C876
:101B300010F0804F08BF13F0804F03D100F005F87C
:101B4000FFF76BFFF0BCBDE8008C20F07F4780EA18
:101B5000030023F07F4C07EB0C03A3F57C5300F04C
:101B60000040A3F1FE0392F0000F00F0B38095F067
:101B7000000F00F077802DE901494FEA11404FEA4C
:101B8000144621EA004800FB06FC24EA064708FB4D
:101B900006F607FB08F800FB07F718EB06484CEBC6
:101BA000164C4FEA124B18EB07484FEA15464CEB20
:101BB000174022EA0B4E0BFB06FC25EA06470EFBFC
:101BC00006F607FB0EFE0BFB07F71EEB064E4CEB73
:101BD000164C4FF000061EEB074E4CEB174B18EB64
:101BE0000B0840F1000018EB0E0B58EB000840F119
:101BF00000008F1A4FF000013CBFC943661B14BFA1
:101C0000B5EB040C00213CBFC943F61B4FEA174457
:101C10004EEA8E0E27EA04454FEA1C4704FB076292
:101C20002CEA074C05FB07F70CFB05F604FB0CFC44
:101C300016EB074642EB174216EB0C4642EB1C42F2
:101C40001BEB060658EB0202414146EA9E0601D50F
:101C5000BDE80189B619524141EB0101A3F101032D
:101C6000BDE801894FEA14454FEA114724EA0546C9
:101C700021EA074C05FB07F406FB07F70CFB06F10E
:101C800005FB0CFC11EB074144EB17444FEA1247EC
:101C900011EB0C4144EB1C4422EA074C05FB07F214
:101CA00006FB07F70CFB06F605FB0CFC16EB0746DC
:101CB00042EB174216EB0C4642EB1C456A1854F1F6
:101CC000000148BF7047B619524141EB0101A3F131
:101CD0000103704795F0000F37D04FEA11424FEAE9
:101CE000144721EA024624EA074C02FB07F106FBEF
:101CF00007F70CFB06F402FB0CFC14EB074441EB6A
:101D000017414FEA154714EB0C4441EB1C4125EAFF
:101D1000074C02FB07F506FB07F70CFB06F602FB78
:101D20000CFC16EB074645EB174516EB0C4645EB4E
:101D30001C42121951F1000148BF7047B6195241B7
:101D400041EB0101A3F1010370474FEA14454FEA4B
:101D5000114724EA054621EA074C05FB07F106FB7B
:101D600007F70CFB06F24FF0000605FB0CFC12EB2C
:101D7000074241EB174112EB0C4251EB1C4148BFAB
:101D80007047921841EB0101A3F10103704700BFB6
:101D9000FEE700002DE9F0418AB007460C461546E3
:101DA0001E46DDF840801020FEF769FA01904FEAE8
:101DB0004800019988810198046001980581019883
:101DC0004681002001994860019988733248049047
:101DD0003248059000208DF81800314802903148B3
:101DE000039000200790099008902F48844204D166
:101DF0000121042001F028FA2EE02C48844204D16D
:101E00000121082001F020FA26E02948844204D16B
:101E10000121102001F018FA1EE02648844204D166
:101E20000121202001F010FA16E02348844204D159
:101E30000121402001F008FA0EE02048844204D13C
:101E40000121802001F000FA06E01D48844203D100
:101E50000121801501F0F8F903208DF8020014200B
:101E60008DF8030045EA0600ADF8000069462046FB
:101E700000F0DAF801222946204600F06DF901222F
:101E80003146204600F068F9242201A93846FEF7C1
:101E9000A9FB0AB0BDE8F081A12100086D3300085C
:101EA000C92300083D22000800080140000C014041
:101EB000001001400014014000180140001C0140C6
:101EC00000200140704700B5034603E04FF47A70EC
:101ED00000F005F8181EA3F10103F7D100BD00B909
:101EE000704700EBC001C9004FF0E02251610021B2
:101EF00091610521116100BF4FF0E021096901F4F2
:101F000080310029F8D004214FF0E022116100BF98
:101F1000E6E710B54FF0804001F0D3FD04B2002198
:101F20004FF0804001F0EAFE204610BD10B5054894
:101F300001F0C7FD04B20021024801F0DFFE204697
:101F400010BD00000004004000B587B00121084624
:101F500001F06AF90121022001F066F90121042053
:101F600001F072F948208DF81B00C320ADF818006D
:101F700003208DF81A0006A9294800F055F8002022
:101F8000ADF81200ADF80E004FF6FF70ADF810007E
:101F90000020ADF80C008DF8140003A94FF080402C
:101FA00001F0DAFE03A91F4801F0D6FE0020ADF8CB
:101FB00000000F20ADF808000020ADF802006946CF
:101FC0004FF0804001F092FD6946164801F08EFD09
:101FD0000420ADF800000F20ADF808000020ADF897
:101FE000020069464FF0804001F080FD69460D48CF
:101FF00001F07CFD02231A460321580701F040FD41
:102000000121880701F030FD022300220321054849
:1020100001F036FD0121034801F026FD07B000BDA7
:1020200000080140000400402DE9F041024600256F
:102030000026002000230024002791F803C00CF0A4
:102040000F0591F803C00CF0100CBCF1000F03D089
:1020500091F802C04CEA050591F800C0BCF1000FF0
:1020600031D0146800202BE04FF0010C0CFA00F383
:10207000B1F800C00CEA03069E4220D183004FF065
:102080000F0C0CFA03F7BC4305FA03FC4CEA0404FA
:1020900091F803C0BCF1280F06D14FF0010C0CFAE7
:1020A00000FCC2F814C00AE091F803C0BCF1480F6C
:1020B00005D14FF0010C0CFA00FCC2F810C0401C16
:1020C0000828D1D31460B1F800C0BCF1FF0F34DD93
:1020D000546800202EE000F1080C4FF0010808FAC7
:1020E0000CF3B1F800C00CEA03069E4221D1830034
:1020F0004FF00F0C0CFA03F7BC4305FA03FC4CEA53
:10210000040491F803C0BCF1280F05D100F1080CBC
:1021100008FA0CF8C2F8148091F803C0BCF1480F1B
:1021200007D100F1080C4FF0010808FA0CF8C2F8CA
:102130001080401C0828CED35460BDE8F0810246D0
:10214000002093680B400BB1012000E00020704795
:1021500041617047016170470AB1016100E041616E
:10216000704770B505460E464FF47A7402E0641E5F
:1021700004B905E03146284600F032F80128F6D1CE
:1021800000BF70BD00BFFEE721B1028842F480624B
:10219000028004E002884FF6FF331A400280704745
:1021A00010B50E4800680068807BA0B9012410E0DB
:1021B00001F017F96106080E01F038F901F0E8F8AE
:1021C00018B901F01CF9204610BD01F018F9601C87
:1021D000C4B2802CECDB0020F6E7000014000020E5
:1021E00070B502460024002500230020958A138B39
:1021F0001B0445EA030626F07F4404EA01068E42EA
:1022000001D1012000E0002070BD21B1028842F41C
:102210008072028004E002884FF6FF631A40028059
:10222000704721B1028842F40072028004E0028803
:102230004FF6FF531A4002807047000070B5054604
:10224000564800680068807B002876D053490968AA
:10225000096848680121FFF7D8FF504909680968F3
:1022600048684F49FFF77DFF4C4A12681268117B9E
:102270004A4A126812685068002200F099F84749EB
:102280000968096848684749FFF76BFF43490968CF
:1022900009684868294600F094F8404909680968C7
:1022A00048684049891CFFF75CFF3C490968096898
:1022B00048680121FFF7A9FF38490968096848689B
:1022C0003749FFF74EFF354A12681268117B334ACF
:1022D000126812685068012200F06AF82F490968F4
:1022E000096848682E49491CFFF73BFF2B490968DC
:1022F000096848680021FFF747FF2849096809680D
:1023000048680121FFF78DFF24490968096848687A
:1023100023493F31FFF725FF2049096809684868CC
:1023200000F042F804461D4909680968486801211F
:10233000FFF72AFF204670BDFFE701F052F817496A
:1023400009680968087B01F071F801F021F8284656
:1023500001F06CF801F01CF801F043F80F4909682E
:102360000968097B41F0010001F060F801F010F804
:102370000A480068007D012806D101F018F804021F
:1023800001F015F8044302E001F011F804460120C1
:1023900001F040F801F033F82046CCE714000020AB
:1023A00001000300820007000146088AC0B270479E
:1023B00012B141F0010102E04FF6FE7319400182B3
:1023C000704701827047000070B505460C463848DA
:1023D00000680068807B002845D035490968096895
:1023E00048680121FFF711FF314909680968486809
:1023F0003049FFF7B6FE2E4A12681268117B2C4A4C
:102400001268126850680022FFF7D2FF2849096855
:10241000096848682849FFF7A4FE25490968096842
:1024200048682946FFF7CDFF2149096809684868CF
:102430002149891EFFF795FEE1B21D4A1268126814
:102440005068FFF7BEFF1A490968096848681A49C9
:10245000891CFFF786FE164909680968486801214A
:10246000FFF7DFFE22E000F0BCFF114909680968B0
:10247000087B00F0DBFF00F08BFF284600F0D6FF62
:1024800000F086FF0A480068007D012807D1E1B20C
:10249000081200F0CBFFE0B200F0C8FF02E0E0B2AB
:1024A00000F0C4FF00F074FF00F0A9FF70BD000051
:1024B0001400002001000300820007002DE9F04114
:1024C00004460D462168E06802F07CFEE060616829
:1024D000E06802F077FE06463146E06802F0E0FE72
:1024E00020612846A16803F037F90746216903F007
:1024F00035F80646A16802F065FEA0604FF07E50F8
:10250000216903F029F90646E16803F027F8E06045
:10251000A068BDE8F081000010B520210348FFF756
:1025200019FE10210148FFF713FE10BD00080140FD
:1025300010B510210348FFF70DFE20210148FFF7D9
:1025400007FE10BD000801402DE9F04F97B004468A
:1025500000201690DB480068B0B1DB48DB4908601A
:10256000DB484860002088604FF07E50C860D64845
:10257000D8490860D6484860002088604FF07E50F7
:10258000C8600020CF490860D348D44A10608168F1
:102590003C2088478346D048D04A106081683B2061
:1025A00088470BEB002000B21690169802F076FFD9
:1025B0004FF08041119002F0D1FF83464FF08E41E1
:1025C00002F06EFE0646C448C44A106081683E2090
:1025D00088478346C048C14A106081683D208847CB
:1025E0000BEB002000B21690169802F057FF4FF048
:1025F0008041119002F0B2FF83464FF08E4102F00D
:102600004FFE0746B448B54A1060816840208847AD
:102610008346B148B14A106081683F2088470BEB80
:10262000002000B21690169802F038FF4FF080415B
:10263000119002F093FF83464FF08E4102F030FE7E
:102640008046A548A54A1060816844208847834693
:10265000A148A24A10608168432088470BEB002004
:1026600000B21690169802F019FF9D49119002F0E1
:1026700075FF83469B4902F071FF82469648974A50
:10268000106081684620884783469348934A1060CB
:102690008168452088470BEB002000B21690169801
:1026A00002F0FCFE8E49119002F058FF83468D49DE
:1026B00002F054FF15908848884A106081684820CD
:1026C000884783468448854A106081684720884748
:1026D0000BEB002084490988401A00B21690169826
:1026E00002F0DCFE7E49119002F038FF83467D49FE
:1026F00002F034FF81464146404602F02FFF394642
:102700000C90384602F02AFF31460B90304602F01A
:1027100025FF0A900B9902F055FD83460C9902F0B3
:1027200051FD0D9002F022FDCDE90E0101F03AFFBE
:10273000CDE9100101F088FF1490149802F016FD05
:102740004FF03332694BCDE9100102F0FDFA01D2AE
:10275000674D01E04FF07E5566481599006802F01C
:1027600031FD6449086051466348006802F02AFD63
:102770006149086029464FF07E5002F0EDFF0B9052
:102780005C4801680B9802F0E9FE834602F0EEFC1B
:10279000CDE90E01404602F0E9FCCDE902013846E0
:1027A00002F0E4FCCDE90001DDE9022301F0DEFDE9
:1027B000CDE90601284602F0D9FCCDE90401DDE9A6
:1027C000062302F0C3F94FF080424C4BCDE90801DB
:1027D00002F028F800224A4BCDE90A0102F0B6F9CE
:1027E000CDE90C01DDE90E2301F060FFCDE9100118
:1027F00001F02AFF139029464FF07E5002F0ACFF03
:102800000B903D4801680B9802F0A8FE834602F049
:10281000ADFCCDE90E01404602F0A8FCCDE9020175
:10282000304602F0A3FCCDE90001DDE9022301F00E
:102830009DFDCDE90601284602F098FCCDE9040192
:10284000DDE9062302F082F94FF080422B4BCDE9FF
:10285000080101F0E7FF0022294BCDE90A0102F04F
:1028600075F9CDE90C01DDE90E2301F01FFF81F0C0
:102870000041CDE9100101F0E7FE129013481399D1
:10288000FFF71CFE606013481299FFF717FEA06067
:1028900029F0004B584602F069FC1A4A1A4BCDE960
:1028A000100102F051FA09D84FF08041484602F079
:1028B000F7FC8346216802F085FC206017B0BDE874
:1028C000F08F00002C0000206F12833AE8000020F7
:1028D000CDCCCC3DFC000020C40000201400002022
:1028E0000AD7233C03FA8E3C240000203333F33F05
:1028F000CDCC4C3F3000002034000020FB210940AB
:10290000008066407B14AE47E17A843F2DE9F047B2
:102910000446394839490860802142686B20904755
:102920006420FFF7D0FA3448344908600021426837
:102930006B2090472088B0F57A7F03DB4FF47A70E4
:10294000208004E02088042801DA042020802088E8
:1029500002F0BCFD81464946294802F0A1FC8046B0
:102960004FF07E5102F0F8FE074602F077FDC6B246
:102970002148224908603146426819209047A179D0
:102980001D481E4B1860426838209047A1781A48AD
:102990001A4B186042681A209047E1781648174B86
:1029A000186042681B20904721791348134B186028
:1029B00042681C20904761790F48104B18604268AC
:1029C000232090470025607900B14025A07900F0D0
:1029D000010008B945F0080507480849086029467C
:1029E00042686A209047044804490860012142680F
:1029F0006B209047BDE8F087C40000201400002041
:102A000000007A442DE9F04104460025002715E036
:102A10000F48104A106081684820884780460C485B
:102A20000C4A106081684720884748EA002006B2B7
:102A300035440A20FFF747FA781C87B2A742E7DB44
:102A400095FBF4F000B204490880BDE8F081000075
:102A5000C4000020140000202400002070B58CB0B9
:102A600004460D461646682033462A462146009005
:102A700001A8FFF78FF9242201A90E48FDF7B2FD46
:102A80006420ADF8280006208DF82A0000208DF87B
:102A90002B008DF82C008DF82D008DF82E000AA843
:102AA000FFF734FFFA20FFF70EFAC820FFF7AAFF5E
:102AB0000CB070BDC400002000BFFEE708B50121C6
:102AC000042000F0C1FB10208DF803003C20ADF87D
:102AD000000003208DF8020069460348FFF7A4FABE
:102AE00000F042FB08BD00000008014010B5084A94
:102AF000126812685189064A126812681068FFF756
:102B00001EFB04460020FFF7EAF9204610BD000036
:102B10001400002010B504464CB10B480068006852
:102B200000890949096809680968086108E00648D8
:102B300000680068008904490968096809684861F3
:102B40000020FFF7CCF910BD1400002010B504469A
:102B50004CB10B4800680068408909490968096858
:102B60000968086108E0064800680068408904496F
:102B700009680968096848610020FFF7B0F910BDCD
:102B8000140000207047000070B5002100230F22C0
:102B9000C47804B3154C246804F4E064C4F5E0641C
:102BA000210AC1F10403CA40447804FA03F184788D
:102BB0001440214309010E4C0678A155047804F015
:102BC0001F050124AC4005786D11AD0005F1E0252D
:102BD000C5F8004109E0047804F01F050124AC4069
:102BE000044D0678761145F8264070BD0CED00E0E6
:102BF00000E400E080E100E002490143024A116084
:102C0000704700000000FA050CED00E000200CE029
:102C1000002106E00022064B03EBC0135A544A1C65
:102C2000D1B28029F6DB421CD0B20828F0DB704715
:102C3000100100202DE9F04304460D4616461F46BC
:102C4000284638E0224631E0002A2DDB7F2A2BDCA3
:102C5000002829DB3F2827DC4FEAE07C00EB5C7C86
:102C60004FEAEC0CDFF8588008EBCC1C1CF802C0D3
:102C700003464FEAE07800EB58784FEAE808A0EB0B
:102C8000C8094FF0010808FA09F82CEA080C0146B7
:102C90004FEAE07800EB58784FEAE808DFF8209038
:102CA00009EBC81808F802C0511C0AB2A1199142D8
:102CB000CADC411C08B2E9198142C3DCBDE8F083DB
:102CC000100100202DE9F84304460D4616462F4812
:102CD000446005814681002708E04FF0000801E0CC
:102CE00008F10108B8F57A7FFAD37F1CB7F57A7F2F
:102CF000F3D32748844204D10121042000F0A4FA30
:102D00002EE02448844204D10121082000F09CFADE
:102D100026E02148844204D10121102000F094FAD9
:102D20001EE01E48844204D10121202000F08CFACC
:102D300016E01B48844204D10121402000F084FAAF
:102D40000EE01848844204D10121802000F07CFA72
:102D500006E01548844203D10121801500F074FA81
:102D600014208DF8030003208DF8020045EA0600C8
:102D7000ADF8000069462046FFF756F9012000F043
:102D80009FF9012000F0ACF9BDE8F88310050020A0
:102D900000080140000C01400010014000140140F7
:102DA00000180140001C01400020014010B50446FD
:102DB00000230DE08021194101EA040000F090F9A0
:102DC000012000F07DF9002000F07AF9581CC3B210
:102DD000082BEFDB012000F073F9002000F070F900
:102DE00010BD00B5012000F07BF9012000F068F96A
:102DF000002000F075F9002000F062F900BD00B578
:102E0000002000F06DF9012000F05AF9012000F0D7
:102E100067F900BD70B504460D4616463246294690
:102E20002046FFF74FFF002025490870AE2000F034
:102E300067F9D52000F064F9802000F061F9A8203E
:102E400000F05EF93F2000F05BF9D32000F058F964
:102E5000002000F055F9402000F052F9A12000F0C8
:102E60004FF9C82000F04CF9DA2000F049F912209F
:102E700000F046F9812000F043F9CF2000F040F93E
:102E8000D92000F03DF9F12000F03AF9DB2000F004
:102E900037F9302000F034F9A42000F031F9A620F1
:102EA00000F02EF98D2000F02BF9142000F028F905
:102EB000AF2000F025F9FFF7A9FE00F0EDF870BD96
:102EC000600000200FB470B5C2B005460E4614462F
:102ED0004AA8019002A8019A4999FDF7FFF900203C
:102EE0000190234602AA3146284600F0BDF842B0C0
:102EF00070BC5DF814FB30B505460C4645F0B000DB
:102F000000F0FEF8102141EA141000F0F9F804F086
:102F10000F0000F0F5F830BDF8B506460F46144630
:102F20001D46082D0CD1A4F120000E4901EB001024
:102F30001023082239460090304600F017F80FE0C1
:102F4000062D0DD1A4F1200000EB4000064901EB55
:102F500040000823062239460090304600F006F86B
:102F6000F8BD00003A5900082A5F00082DE9FF4F1C
:102F700080460E469146DDF834B0002500244A46CE
:102F800031464046039BFFF755FE00BF5EE000253B
:102F900058E008EB0500002852DB08EB05007F280D
:102FA0004EDC3046F11706EB5171C9100FB2F11724
:102FB00006EB5171C910A6EBC10A002E05DA781E86
:102FC00007B20AF108000FFA80FA3819002817DB57
:102FD0003819072814DC3819224901EBC01008EB16
:102FE0000501405C04FB09511BF8011001FA0AF1CC
:102FF000084339191B4A02EBC11108EB050288543A
:103000003819401C00281BDB3819401C072817DC26
:103010003819401C134901EBC01008EB0501405C56
:1030200004FB09511BF80110CAF1080211410843C1
:103030003919491C0B4A02EBC11108EB05028854EF
:10304000681CC5B24D45A4DB601CC4B20399481E80
:10305000C11700EB5171012202EBE101A14296DCA4
:10306000BDE8FF8F100100202DE9F041064688469B
:1030700015461F46002409E02A5D04FB076108B2DB
:103080003B464146FFF748FF601CC4B2285D00285C
:10309000F2D1BDE8F081000010B500240BE0002162
:1030A0002046FFF728FF054901EBC410802100F0FE
:1030B0003DF8601CC4B2082CF1DB10BD10010020EB
:1030C00028B106490989054A5268116104E003499B
:1030D0000989024A526851617047000010050020BA
:1030E00028B106494989054A5268116104E003493B
:1030F0004989024A5268516170470000100500205A
:1031000010B504460848007860B9FFF76AFE7820D9
:10311000FFF74CFE0020FFF749FE2046FFF746FE72
:10312000FFF76DFE10BD00006000002070B5054681
:103130000E460C48007898B9FFF753FE7820FFF749
:1031400035FE4020FFF732FE002404E0285DFFF743
:103150002DFE601CC4B2B442F8DBFFF750FE00BF86
:1031600070BD00006000002000B589B0012104207E
:1031700000F05AF80121082000F066F818208DF8B8
:103180002300C020ADF8200003208DF8220008A9FC
:103190001848FEF749FF184800F007FD0020ADF879
:1031A0001A00ADF816006320ADF818000020ADF845
:1031B00014008DF81C0005A90F4800F0CDFD60201B
:1031C000ADF804000020ADF80C000120ADF80600B9
:1031D0000020ADF80A0001A9074800F0EDFC01A9A4
:1031E000054800F035FD0121034800F03DFC09B021
:1031F00000BD0000000C01400008004010B504466E
:103200002146024800F076FD10BD00000008004095
:1032100010B504462146024800F06EFD10BD0000C6
:10322000000800407047000029B1064AD2690243F5
:10323000044BDA6104E0034AD2698243014BDA614C
:10324000704700000010024029B1064A926902430B
:10325000044B9A6104E0034A92698243014B9A61EC
:10326000704700000010024030B500210022002409
:1032700000232D4D6D6805F00C0121B1042905D006
:10328000082923D105E0294D056022E0274D05607E
:103290001FE0254D6D6805F47012234D6D6805F42F
:1032A0008034022505EB92421CB9214D554305603F
:1032B0000BE01D4D6D6805F400351DB11C4D5543E7
:1032C000056002E0194D5543056002E0174D0560A9
:1032D00000BF00BF144D6D6805F0F0010909154DE0
:1032E0006B5C0568DD4045600F4D6D6805F4E0617D
:1032F000090A104D6B5C4568DD4085600A4D6D68BC
:1033000005F46051C90A0B4D6B5C4568DD40C56032
:10331000054D6D6805F44041890B074D6B5CC56830
:10332000B5FBF3F5056130BD0010024000127A00D4
:1033300000093D00000000201000002010B504210D
:103340000348FEF707FF08210148FEF701FF10BD03
:103350000008014010B508210348FEF7FBFE0421D8
:103360000148FEF7F5FE10BD0008014010B500F061
:1033700038F8064909680968087B00F057F800F03A
:1033800007F8044600F03BF8204610BD140000206A
:1033900010B50120FFF7DAFB0120FFF7BBFBFFF7B9
:1033A000A5FB04460020FFF7B5FB204610BD70B515
:1033B00000250120FFF7CAFB00240EE00120FFF7E3
:1033C000A9FBFFF793FB012802D180202041054390
:1033D0000020FFF79FFB601CC4B2082CEEDB2846E0
:1033E00070BD10B50120FFF7B1FB0120FFF792FB84
:1033F0000020FFF7ABFB0020FFF78CFB10BD10B5E2
:103400000020FFF7A3FB0120FFF784FB0120FFF75B
:103410009DFB10BD10B504462046FFF797FB012029
:10342000FFF778FB0020FFF775FB10BD70B5054670
:10343000002416E08021214101EA0500FFF786FB08
:103440000020FEF74CFD0120FFF764FB0020FEF793
:1034500046FD0020FFF75EFB0020FEF740FD601CEC
:10346000C4B2082CE6DB70BD7047000030B587B0F1
:1034700004460D4603208DF81A004A4884421FD1A5
:1034800001218803FFF7E0FE01210420FFF7DCFEA5
:1034900018208DF81B006015ADF8180006A94248E9
:1034A000FEF7C2FD04208DF81B000002ADF81800E5
:1034B00006A93D48FEF7B8FD25208DF8140044E02C
:1034C0003A4884421FD101214804FFF7BDFE012183
:1034D0000420FFF7B9FE18208DF81B000420ADF87A
:1034E000180006A93048FEF79FFD04208DF81B0048
:1034F0000820ADF8180006A92B48FEF795FD2620F8
:103500008DF8140021E02A4884421ED1012188044C
:10351000FFF79AFE01210820FFF796FE18208DF88C
:103520001B002015ADF8180006A92248FEF77CFD07
:1035300004208DF81B004002ADF8180006A91D48B4
:10354000FEF772FD27208DF8140001950020ADF8DC
:1035500010000C20ADF80E000020ADF80C00ADF806
:103560000A00ADF8080001A9204600F001FD012283
:1035700040F22551204600F0D6FC4FF4A060FFF742
:103580003BFB01208DF817008DF8150000208DF809
:10359000160005A8FFF7F8FA0121204600F08DFC7F
:1035A00007B030BD00380140000801400044004031
:1035B00000480040000C014010B50446002C07DD17
:1035C000FEF7B6FFFFF7C6FEA0B2FFF717FE07E053
:1035D000FEF7A2FFFFF7B2FE614288B2FFF70EFED0
:1035E00010BD10B50446002C07DDFEF7A1FFFFF764
:1035F000B1FEA0B2FFF70CFE07E0FEF78DFFFFF76C
:103600009DFE614288B2FFF703FE10BD10B500F0C9
:1036100001F810BD0CB500200190009033480068FF
:1036200040F480303149086000BF3048006800F441
:10363000003000900198401C0190009818B9019842
:10364000B0F5A06FF1D12948006800F4003010B146
:103650000120009001E0002000900098012843D153
:103660002348006840F010002149086008460068BF
:1036700020F0030008600846006840F0020008607F
:103680001A4840681949486008464068486008463A
:10369000406840F4806048600846406820F47C1030
:1036A00048600846406840F4E810486008460068F2
:1036B00040F08070086000BF0C48006800F00070A7
:1036C0000028F9D00948406820F003000749486005
:1036D0000846406840F00200486000BF0348406868
:1036E00000F00C000828F9D10CBD000000100240C9
:1036F000002002407047000010B51348006840F0F9
:1037000001001149086008464068104908400E4908
:103710004860084600680E4908400B4908600846A2
:10372000006820F4802008600846406820F4FE000D
:1037300048604FF41F008860FFF768FF4FF000609B
:103740000449086010BD0000001002400000FFF8AE
:10375000FFFFF6FE08ED00E0F0B50C46154600222E
:103760000021068C4FF6FE773E400684028B018CCA
:103770004FF60C7632407E1C06EA03162E43324387
:10378000104EB0420ED0104EB0420BD0B0F1804F70
:1037900008D00E4EB04205D00D4EB04202D00D4EB4
:1037A000B04206D14FF6FD76314044F00106314378
:1037B00005E04FF6F576314044F0010631430283CF
:1037C0000184F0BD002C01400034014000040040A1
:1037D00000080040000C0040F0B50C4615460022E1
:1037E00000210026078C4FF6EF7C07EA0C070784C0
:1037F000028B018C4FF6FF7707EA041640F6FF476D
:103800003A404FF6FF7707EA03373A434FF6FF7720
:1038100007EA05273A43114FB8420ED0104FB8427D
:103820000BD0B0F1804F08D00E4FB84205D00E4FEC
:10383000B84202D00D4FB84206D14FF6DF7739407B
:1038400046F01007394305E04FF65F77394044F002
:103850001007394302830184F0BD0000002C0140B1
:10386000003401400004004000080040000C00400B
:10387000F0B50C461546002200210026078C4FF6B5
:10388000FF6C07EA0C070784828B018C4FF6FF77E9
:1038900007EA04264FF60C773A404FF6FF7707EA1F
:1038A00003172F433A43114FB8420ED0104FB8427E
:1038B0000BD0B0F1804F08D00E4FB84205D00E4F5C
:1038C000B84202D00D4FB84206D14FF6FF573940EB
:1038D00046F48077394305E04FF2FF57394044F40E
:1038E0008077394382830184F0BD0000002C0140C1
:1038F000003401400004004000080040000C00407B
:10390000F0B50C461546002200210026078C4EF625
:10391000FF7C07EA0C070784828B018C4FF6FF7748
:1039200007EA043640F6FF473A404FF6FF7707EACA
:1039300005273A434FF6FF7707EA03373A43114F1B
:10394000B8420ED0104FB8420BD0B0F1804F08D023
:103950000E4FB84205D00E4FB84202D00D4FB842BC
:1039600006D14DF6FF77394046F48057394305E0DC
:1039700047F6FF57394044F4805739438283018426
:10398000F0BD0000002C0140003401400004004064
:1039900000080040000C004070B50121274800F0ED
:1039A00093F8012848D10121244800F05AF824480E
:1039B000FEF7CAFD22488068224948602248006814
:1039C0000860FEF7A6FA0546FEF7B0FA2C1804EBDD
:1039D000D471481001F062FD1C4948601A48006823
:1039E0000860184A9168194A906801F0EBFB184981
:1039F000086018491648006801F07CFE02D215489C
:103A00001349086014491248006801F073FD02D29E
:103A100011480F4908600E48006801F003FD044694
:103A2000FFF7CAFD0A48006880F00045284601F00B
:103A3000F9FC0446FFF7D5FD70BD0000002C0140E5
:103A40001C0500206C00002064000020980000206D
:103A5000680000200080BB450080BBC5CA430282CD
:103A60007047CA430282704721B1028842F00102C6
:103A7000028004E002884FF6FE731A40028070470D
:103A8000F0B50C4615461E46002100220023018990
:103A9000028B038C4FF6F877394021434FF6FC47F1
:103AA0003A4040F201173A434FF6DD773B404FF67C
:103AB000FF7707EA06172F433B4301810283038404
:103AC000F0BD0146888C704730B5024600200023C7
:103AD0000024158A05EA0103958905EA010413B15A
:103AE0000CB1012000E0002030BD000070B505469B
:103AF0000C46244885420ED0234885420BD0B5F1B0
:103B0000804F08D02148854205D02148854202D007
:103B10002048854200D100E000BF208850B92389A9
:103B2000A28861882846FFF717FEE188284600F042
:103B3000E7F825E0208804280AD12389A288618833
:103B40002846FFF749FEE188284600F0E2F817E032
:103B5000208808280AD12389A28861882846FFF78F
:103B600087FEE188284600F0E1F809E02389A28871
:103B700061882846FFF7C4FEE188284600F0DFF898
:103B800070BD0000002C01400034014000040040E2
:103B900000080040000C00401AB183890B43838168
:103BA00002E083898B438381704701894FF6F87265
:103BB000114001817047000070B5002400220023ED
:103BC000058C4FF6FE7635400584028C8388048B85
:103BD0004FF68F752C40B51E2C400D882C43751E5A
:103BE0002A400D892A434D882A43144DA8420BD000
:103BF000134DA84208D0134DA84205D0124DA8423B
:103C000002D0124DA84213D14FF6F7752A404D89C4
:103C10002A434FF6FB752A408D882A434FF6FF65ED
:103C20002B404FF6FF552B408D892B43CD892B43DD
:103C300083800483CD888586028470BD002C01407A
:103C40000034014000400140004401400048014070
:103C500070B5002400220023058C4FF6EF76354026
:103C60000584028C8388048B48F6FF752C404FF640
:103C7000FF452C400D884FF6FF7606EA05252C43BC
:103C80004FF6DF752A400D8906EA05152A434D884F
:103C900006EA05152A43154DA84202D0144DA84244
:103CA0001DD14FF67F752A404D894FF6FF7606EA03
:103CB00005152A434FF6BF752A408D8806EA05157B
:103CC0002A434FF6FF352B404FF2FF752B408D896D
:103CD00006EA85052B43CD8906EA85052B438380BB
:103CE0000483CD880587028470BD0000002C01404C
:103CF0000034014081867047018770478184704796
:103D0000028B4FF6F3731A400283028B0A4302833D
:103D10007047028B4FF2FF331A400283028B4FF63B
:103D2000FF7303EA01231A4302837047828B4FF625
:103D3000F3731A408283828B0A4382837047828B9B
:103D40004FF2FF331A408283828B4FF6FF7303EAF0
:103D500001231A4382837047002202881D4B984238
:103D60000ED01D4B98420BD0B0F1804F08D01B4BAA
:103D7000984205D01A4B984202D01A4B984204D16F
:103D80004FF68F731A404B881A43174B984207D04F
:103D9000164B984204D04FF6FF431A40CB881A4383
:103DA00002808B8883850B8803850A4B98420BD051
:103DB000094B984208D00E4B984205D00D4B9842C3
:103DC00002D00D4B984201D10B7A038601238382E6
:103DD00070470000002C0140003401400004004006
:103DE00000080040000C004000100040001400409B
:103DF0000040014000440140004801401FB5044616
:103E00000121C802FFF720FA0020ADF80A00ADF842
:103E1000060004EB84004000401E80B2ADF80800AC
:103E200041F61F40ADF8040000208DF80C0001A9F8
:103E30001148FFF791FF01210F48FFF70FFE012204
:103E400011460D48FFF7A8FE4FF4A060FEF7D4FE20
:103E500019208DF8000001208DF8030002208DF854
:103E6000010001208DF802006846FEF78DFE012159
:103E70000148FFF7F9FD1FBD002C014010B540F2CD
:103E80002551054800F025F8012804D140F22551BC
:103E9000014800F003F810BD0038014010B50022C1
:103EA000002340F66A14A14200D100BF0A12012487
:103EB0009440A3B2DC43048010BD21B1828942F456
:103EC0000052828104E082894DF6FF731A4082819C
:103ED000704770B50246002400230025002040F6FC
:103EE0006A16B14200D100BFC1F3421501F01F03B1
:103EF000012606FA03F3012D02D19689334006E02C
:103F0000022D02D1168A334001E0968A33400C120A
:103F1000012606FA04F41688344013B10CB10120CE
:103F200000E0002070BDF0B5034600240026002507
:103F3000002040F66A17B94200D100BF1846C1F30D
:103F4000421401F01F06012707FA06F5012C01D1E2
:103F50000C3004E0022C01D1103000E014301AB112
:103F600007682F43076002E00768AF430760F0BDB2
:103F70002DE9F04786B005460E460024A24600BF54
:103F8000A1460027B08900B100BF2F462C8A4CF60D
:103F9000FF700440F08804432C82AC894EF6F31085
:103FA0000440B08831890843718908430443AC81D7
:103FB000AC8A4FF6FF400440B0890443AC8201A8AC
:103FC000FFF752F91F48874202D1DDF810A001E047
:103FD000DDF80CA0A88900F4004040B10AEBCA004B
:103FE00000EB0A1031684900B0FBF1F807E00AEB7A
:103FF000CA0000EB0A1031688900B0FBF1F86420B8
:10400000B8FBF0F004012009642101FB1089A889A4
:1040100000F4004040B1322000EBC900B0FBF1F0E9
:1040200000F00700044308E0322000EB091064218F
:10403000B0FBF1F000F00F0004432C8106B0BDE8A6
:10404000F08700000038014000BFFEE7490050EA59
:10405000C12018BF04204A0D18BF40F0010040F2F3
:10406000FF72B2EB515F08BF40F00200012808BFA9
:10407000052070472DE9F0414F1E00EBC7010446B3
:10408000D1E9000115461E4637F006020DD02A463A
:10409000334600F05BFD7F1E04EBC703D3E900232A
:1040A00000F004FB37F00602F1D1022F25D0042FD7
:1040B00013D0062F18BFBDE8F0812A46334600F022
:1040C00045FDD4E90A2300F0F1FA2A46334600F010
:1040D0003DFDD4E9082300F0E9FA2A46334600F012
:1040E00035FDD4E9062300F0E1FA2A46334600F014
:1040F0002DFDD4E9042300F0D9FA2A46334600F016
:1041000025FDD4E9022300F0D1FA2A46334600F017
:104110001DFDD4E90023BDE8F04100F0C7BA01223B
:1041200001F0C5BB00F0C2BA024A0020110701F03D
:10413000BEBB000001FDFFFF30380A2801D201207C
:1041400070470020704700BF704770472DE9F84F57
:1041500004460D4621F0004000917349814211DC74
:104160007249884201DC06D12CB120462946BDE8BF
:10417000F84FFFF7D4BF6E48002DCCBF6D496E4994
:10418000BDE8F88F6D49814211DD6D498142D8BF8C
:104190004FF0FF366DDD20462946FFF757FF042814
:1041A00008BFFFF7C1FF20462946BDE8F88F6549E3
:1041B000654F25F00045814233DD6449814219DDB8
:1041C000002632464FF080432046294600F06EFA22
:1041D00080468A4601222046294601F068FB0022DB
:1041E0003B4600F0D9FE4246534600F01BFB044616
:1041F0000D463EE001260022BA463B4620462946AF
:1042000000F054FA80460F460022534620462946C5
:1042100000F0C2FE42463B4600F004FB04460D4659
:1042200027E04B4981421BDDDFF828A1022600224E
:1042300053462046294600F089FC00223B4600F008
:1042400035FA80460F46002253462046294600F0A4
:10425000A3FE42463B4600F0E5FA04460D4608E060
:10426000032622462B4600203B4900F0DBFA044699
:104270000D4622462B461046194600F067FC8B4639
:10428000824602460B4600F061FC07460246334870
:1042900088460B4606217844FFF7ECFE52465B4603
:1042A00000F054FC82462E488B463A464346052190
:1042B0007844FFF7DFFE3A46434600F047FC0246EB
:1042C0000B46002E504659460CDA00F0EFF9224614
:1042D0002B4600F03BFC01B022462B46BDE8F04FD8
:1042E00000F068BD00F0E2F922462B4600F02EFCFB
:1042F0001C4A7A4402EBC603D3E9002300F04CFECB
:1043000022462B4600F048FE174A7A4402EBC603C9
:10431000D3E9002300F04EFD009A002AB8BF81F0D7
:104320000041BDE8F88F0000000010440000F07F5D
:10433000182D4454FB21F93FFB21F9BF0000DC3F5D
:104340000000203E0000F33F0000F03F0000E63F89
:10435000008003400000F83F0000F0BFDE1F0000B7
:104360009C1F00003A1F0000021F00002DE9F04DC5
:104370009446CCF1000423F000464CEA0404524F6A
:1043800046EAD4749A46884621F00042BC4206D8D8
:10439000454240EA050442EAD474BC4204D9BDE86F
:1043A000F04D6246FFF7BEBEAAF14055A5F17F650C
:1043B00055EA0C040BD0022404EAAA74434DDFF83A
:1043C00010E144EAD87452EA000B04D00CE0BDE8D6
:1043D000F04DFFF7BBBE002C14BF012CBDE8F08DE3
:1043E000022C30D0032C32D056EA0C0B0AD0BE423D
:1043F00020D1BA4209D126F0804622F080423346CD
:10440000114617E000291ADB25E0DFF8C8B0FB44AD
:10441000002C04BFDBE90001BDE8F08D012C02BFD8
:10442000DBE9000181F00041BDE8F08D022C0AD0EB
:10443000032C0CD0BA4212D1B8F1000F0BDA23488A
:104440002549BDE8F08D28462449BDE8F08D284671
:104450007146BDE8F08D1D482149BDE8F08D921BE5
:1044600012153C2AC4BF19481D490EDCBAF1000FD1
:10447000BEBF12F13C0F0020014606DB624600F091
:10448000D1F921F00041FFF761FE002C08BFBDE823
:10449000F08D012C04BF81F00041BDE8F08D114A80
:1044A000114B022C07D000F077FD2A46BDE8F04DF5
:1044B0000A4B00F071BD00F06FFD2A46BDE8F04DDB
:1044C000064B00F077BC00000000F07F182D44542C
:1044D000FB2109C0961E0000FB21F9BFFB2109400A
:1044E000FB21F93F075C143326A6A13C1CB5FDF760
:1044F0002BFDFEF7E3FA4FF4E1311E48FEF7B6FF5D
:104500004FF4007251101C48FEF784FC4FF4006217
:1045100051101948FEF7A2FA0A20FFF76FFC27E0B6
:10452000FEF774FB1549486800F020FE14A306222C
:10453000CDE9000100210846FEF7C4FC0F49886858
:1045400000F014FE11A30622CDE90001082100208D
:10455000FEF7B8FC0949086800F008FE0EA3062221
:10456000CDE9000110210020FEF7ACFCFEF794FD20
:10457000D6E7000000380140000C01401C05002077
:10458000726F6C6C3A252E3266000000706974639D
:10459000683A252E326600007961773A252E326618
:1045A000000000002DE9F04106460F4600F00EFC29
:1045B000041E0D4618BF0120284320F00040C0F122
:1045C0007F6000F1E040C00F0ED0301C18BF01200A
:1045D000384320F00040C0F17F6000F1E040C00FA0
:1045E00004BF0120FCF7F2F820462946BDE8F0811F
:1045F00010B500290AD00878002807D0054878446B
:10460000FCF722F8002801D0002010BD02487844B1
:1046100010BD00008E1D0000861D000010B5002991
:104620000AD00878002807D005487844FCF70CF831
:10463000002801D0002010BD0248784410BD0000C1
:104640007E1D0000761D000021F00042A2F16052A4
:10465000B2F5801F01F0004328BFD2F17F6C0BD967
:104660005FEA001C43EAC20242EB507018BF704779
:1046700028BF20F001007047B2F5801FBCBF18466C
:1046800070474FEA410C1CF5001F02D2084601F0AA
:104690002CB870B500F004FB00000089FFF7F6BFEE
:1046A0004FF00040A0F580007047000010B591EA7F
:1046B000030F48BF83F0004300F17684841A71EB46
:1046C000030C05D2121943EB0C03001B61EB0C0128
:1046D000DFF824E14FEA1154A4EB135C1EEA430F08
:1046E00018BF9EEA445F73D023EA0E03DCF1200E6C
:1046F00021EA045143F4801332D322FA0CFE10EB6A
:104700000E0023FA0CFE41EB0E01CCF1200E03FA51
:104710000EFE10EB0E0051F10001B1F5801FCCF13F
:10472000200E32D201EB045112FA0EF2BDE8104015
:1047300058BF7047401C38BF5FEA420218BF70473D
:10474000002814BF20F0010041F100014FEA4103AD
:1047500013F5001F38BF7047A1F1C04100F0EEBA59
:10476000012A43EB0302ACF1200CDCF11F0E32BF37
:104770004FF0000E23FA0CF310EB030041EB045151
:10478000B4EB115FD0D0A1EB045101F580114908C1
:104790005FEA300001EB04510ED350F1000038BF46
:1047A00012FA0EFE08D1BDE81040C9E7401C38BF20
:1047B0005FEA4202CAD1C3E7BDE810404FEA4103B5
:1047C00013F5001F38BF7047A1F1C04100F0B6BA21
:1047D0009EEA445F08D011EA5E0FBDE8104004BFB6
:1047E00001F0004100207047BDE8104070B500F0B6
:1047F00057FA00BF64FBBE3E0000E0FF02494FF0E5
:10480000000001F022B800BF0000F87F491058BF37
:10481000C1F140415B1058BFC3F140438B42EFF3FD
:10482000008070472DE9C04130B4DFF8A0C23CEAF7
:10483000111418BF3CEA131400F0EC8081EA030560
:104840001CEA111444EAD57418BF1CEA131500F0D1
:10485000C780A4EB05044FF0004545EAC12145EAB5
:10486000C32341EA505143EA525304F17F74994201
:1048700004F500344FEAC0204FEAC22208BF90423C
:1048800000F09C804FEA13650FF24016765D4FEA08
:10489000134506FB05F7C7F1807706FB07F74FEADC
:1048A000D737A7FB03687642C8F58038A7FB06CE4A
:1048B00038BFA8F1010807FB08E64FF0000EA6FB81
:1048C000028CE6FB03CEDCF1000CCEF1004E38BFCB
:1048D000AEF1010EA6FB0C584FF000074FF000059B
:1048E000E6FB0E87A1FB08C6A0FB07CE16EB0E0663
:1048F00045F10005E1FB076515F1E04E7EBFA4F52B
:1049000080345FEA46066D4116F1800745F10005E7
:104910004FEA17274FEA066647EA0567A6F1DE4623
:10492000B6F1805F4FEA15251FD9384624F0010CF7
:1049300005EBC471BCF1FE6F01EB0C1102D8F0BCA9
:10494000BDE8008124425CBF01F5801E9EEAC47F61
:1049500002D4F0BCBDE80081244238D4F0BCA1F1FF
:10496000C041BDE8004100F0E9B94FEAD22242EA75
:1049700043524FEAD323A7FB02864FEAD02040EAF6
:10498000415007FB03661EEA0E0F4FEAD12105FBDB
:10499000026658BFA6EB0056B6EB00564FEA520E21
:1049A0004EEAC37E18EB0E0E56EB530EBDD518EB38
:1049B00002085E417F1C55F10005B6E74FF48015F3
:1049C0004FF000074FF000064FF00008ADE7F0BCD5
:1049D0004FF0000001F1C04101F00041BDE800814D
:1049E00011EA0C1F0CEA131500D00CE013EA0C1F9F
:1049F00000F025804FF00000F0BC81EA030101F0D7
:104A00000041BDE80081F0BCBDE8004181EA03013E
:104A100000F094B9F0BCBDE8004170B500F040F979
:104A2000097EFC3E00F007B881EA03014FF0000068
:104A300001F00041704781EA030100F07FB9F0BC4A
:104A4000BDE800414FF0000021497047FFFDFBF930
:104A5000F7F5F4F2F0EEEDEBE9E8E6E4E3E1E0DEB1
:104A6000DDDBDAD8D7D5D4D3D1D0CFCDCCCBCAC823
:104A7000C7C6C5C4C2C1C0BFBEBDBCBBBAB9B8B74A
:104A8000B6B5B4B3B2B1B0AFAEADACABAAA9A8A83D
:104A9000A7A6A5A4A3A3A2A1A09F9F9E9D9C9C9B0B
:104AA0009A999998979796959594939392919190B6
:104AB0008F8F8E8E8D8C8C8B8B8A89898888878747
:104AC0008685858484838382828181800000FF07BC
:104AD0000000F87F51EA030C17D41CF5801F58BF63
:104AE000BCF5801F00F10680994218BF704708BFCF
:104AF0009042704707D711F5801F58BF13F5801FEC
:104B000019D499427047894270471CF5801F08D517
:104B1000BCF5801FF7D58B4218BF704708BF824293
:104B200070474FF4001C1CEB410F38BF1CEB430FC8
:104B300001D28B42704770B500F0B2F89224490060
:104B40004FF000514FF08053FFF760BEDFF848C1CF
:104B500070B51CEA111E1EBF1CEA13159EEA0C0F4D
:104B600095EA0C0F00F06F8081EA030423EA4C13EE
:104B70004EEAD47E21EA4C1141F4801143F48013B3
:104B8000AE44A1FB024CA0FB0365AEF17F7E36195B
:104B900055EB0C05A1FB034C4CF10003A0FB021CE0
:104BA00016EB0C06654153F10003094218BF46F0AD
:104BB000010613F4007F0BD14FEA03314FEA0530B1
:104BC000340341EA155140EA16506FF003020AE03F
:104BD0004FEAC3214FEAC520F40241EA555140EAA9
:104BE00056506FF0020202EB2E4201EB025585EAAD
:104BF000CE710AD05FEA440C18BF24F0004450F193
:104C0000000041F1000120EAD47040F2FE7C6245D0
:104C100000D270BDA84214BF4FF080444FF0404412
:104C2000002E08BF0024BEF1806FA8BFA1F1C041D3
:104C3000BDE8704080F282804FF0000001F1C04179
:104C400001F0004170479EEA0C0F0CEA131518BFE3
:104C500095EA0C0F06D04FF0000081EA030E0EF02B
:104C6000004170BD00F01CF88900013E00F007B85B
:104C700000F009B84FEA430C5FEA5C5C08D081EAB7
:104C8000030100F05BB84FEA410C5FEA5C5CF6D1CF
:104C90004FF00000014970470000FF070000F87F57
:104CA0000EF1020E2EF0030E5EF8046B364205D4B0
:104CB000012A43EB030515F5001F12D8012841EB2B
:104CC000010C1CF5001F0CD80ED14FEAD17C15F554
:104CD000001F0CEB4C0C0CF1020C08BF4CEBD37C0E
:104CE00004E04FF0080C01E04FEAD37C0CEB4C05DC
:104CF00026FA05F606F00706B6F1040C06D20EEB0E
:104D0000860CBDE870404CF0010C6047DFE80CF009
:104D1000090B02024FF000414FF00000A1F5002105
:104D200070BD19461046012851EB010418BFD4F597
:104D3000001484BF002001F0004170BD0808A0F5F8
:104D400000114FEA3101704753EA010C17D41CF5EA
:104D5000801F58BFBCF5801F00F106808B4218BF32
:104D6000704708BF8242704707D713F5801F58BFAE
:104D700011F5801F19D48B4270479B4270471CF578
:104D8000801F08D5BCF5801FF7D5994218BF704722
:104D900008BF904270474FF4001C1CEB430F38BF14
:104DA0001CEB410F01D2994270470FB40CBC03BCFD
:104DB000FFF7C1BE91EA030F10B581F000413FF546
:104DC0007DAC83F0004300F0EFB800002DE9F04126
:104DD00001F5801CBCF5001FC0F2C3804FEA115CD6
:104DE00021EA0C510CF1FD0C41F480115FEA5C0CDE
:104DF0000CF5C07C01D3400049413DA4890241EA41
:104E0000905187028E0E0A0CA45D04FB04F602FB8F
:104E100006F6C6F14046A4FB0662F60D46EA4226B7
:104E200006FB06F4A4FB01235242C3F1404338BF02
:104E30005B1EA6FB02420024E6FB0324D20B42EADF
:104E40004446A6FB0623A1FB02E2A3FB07E4A41849
:104E50004FF0000252F10002E3FB01426442C2F152
:104E6000404E38BFAEF1010EA6FB04234FF0000206
:104E7000E6FB0E32A2FB03464FF00004B61954F1D4
:104E80000004E2FB0264A1FB06E6A4FB07E816EBC4
:104E900008064FF0000858F10008E4FB016876426C
:104EA000C8F1405838BFA8F10108A2FB06E4A3FBF3
:104EB00008E52D194FF0000454F10004E2FB0854FA
:104EC000A1FB05E6A7FB04E818EB06084FF0000677
:104ED00056F10006E1FB048618F1200556F10006A4
:104EE000A809A8F11B08B10908F03F08B8F10A0F9A
:104EF00040EA86601CD901EB0C51BDE8F08100BF8F
:104F0000FCF5EEE8E2DDD8D3CFCBC7C3C0BDB9B660
:104F1000B4B1AEACA9A7A5A3A19F9D9B9A98969565
:104F20009392908F8D8C8B898887868584838281EC
:104F3000A0FB006800FB01F208EB4208B8EB8728F1
:104F400007D5341858EB0104D5D5401C51F10001A8
:104F5000D1E7341A78EB0104CDD4401E71F1000181
:104F6000C9E75FEA4C0C5FEA9C5C0DD105D34FF0BA
:104F7000000001F00041BDE8F081BDE8F04170B5EE
:104F8000FFF78EFE6DDBFFBEBDE8F0414FF0000085
:104F9000004970470000F87F10B591EA030F48BF41
:104FA00083F000433FF58AAB841A71EB030C07D200
:104FB00012198CF0004C43EB0C03001B61EB0C014D
:104FC000DFF8A4E14FEA1154A4EB135C1EEA430F8F
:104FD00018BF9EEA445F00F0B08023EA6E0352429D
:104FE00021EA0451C3EB6E0338BF5B1EDCF1200ED7
:104FF00025D322FA0CFE10EB0E0043FA0CFE41EB17
:105000000E01CCF1200E03FA0EFE10EB0E0051F152
:105010000001CCF1200E29D412FA0EF201EB04515A
:10502000BDE8104058BF7047401C1CBFB2F1004F94
:10503000704700280CBF491C20F00100704712EB9C
:10504000020E43EB030218BF4FF0010E4EEA42027C
:10505000ACF1200CDCF11E0E54D943FA0CFE10EB1F
:105060000E0051F1FF31CCF11E0ED5D50EF1010E1F
:1050700012FA0EFE404141EB010101EB445C5FEA94
:105080005C5C10D910EBDE7001EB045138BFBEF14F
:10509000004FBDE8104018BF704700280CBF491CE6
:1050A00020F00100704730D24FEAD42C11F50011E6
:1050B00024F400641BD0B1FA81F20B3AA41AA41EA6
:1050C000D2F12003914030FA03F31943904001EBF1
:1050D000CC71002C01EB0451BDE81040A8BF704713
:1050E00001F1C0414FF0000001F000417047B0FAFB
:1050F00080F310FA03F100D110BDE41A173C480503
:10510000C90AE4E701EB045110BD491001EB045159
:10511000BDE810404FEA300002E04FF00001704758
:105120004A0008BF0042F8D0B2F5001F28BF704700
:1051300001F000414FF0000070479EEA445F07D045
:1051400011EA5E0FBDE8104004BF00210020704747
:10515000BDE8104070B5FFF7A3FD00BF40DFF63E8D
:1051600083F00041104670470000E0FF43004FEA23
:10517000D30C4FEA3C0C43401FBF40070CF1605179
:1051800013F0FE4F70471CF0006F03D100200CF0AD
:10519000004170470CF0004343EA507010B540EAFC
:1051A000CC0000F05CFA00BF000000924FEA000162
:1051B000FFF7C4BD4FF000414FF00000A1F5002102
:1051C0007047000090EA010F48BF81F0004100F1F4
:1051D000CA82421A3CBF801A89184FEAD0524FF057
:1051E0007F4C1CEA410FA2EBD15318BF9CEA026F1F
:1051F00000F03B804FF0004C4CEA00204CEA0121CB
:1052000021FA03FC10EB0C0C1ED202F1FF325FEA14
:105210001C2040EBC25038BF70471CF07F0F4FEA94
:10522000400C18BFBCF17F4F38BF7047C3F120035B
:10523000994008BF20F00100BCF17F4F38BF704794
:10524000A0F1C04000F051BA4FEA3C00000A40EB28
:10525000C25028BF1CF0FF0F4FEA400CE6D018BF29
:10526000BCF17F4F38BF7047EAE79CEA026F05D078
:1052700010EA5C0F08BF00F00040704710B500F066
:10528000EEF900BF64FBBE3E401058BFC0F1404085
:10529000491058BFC1F140418142EFF3008070478F
:1052A0004FF47F0C1CEAD0121EBF1CEAD11392EA05
:1052B0000C0F93EA0C0F00F0858090EA010F48BFB5
:1052C00042F4807240F4000C41F400002CF07F4165
:1052D00020F07F4000B58142A2EB03020FF2081CD0
:1052E000ACEB504EC0F100009EF800E04FEA4E0ECD
:1052F00000FB0EFC38BF49004FEA2C1C02F5FA02F5
:105300000CFB0EF34FEACE1E4FEA112C4FEAC121DF
:105310000EEB635E42EB22420EFB0CFC4FEA1C5389
:1053200000FB03114FEA112C4FEA01310EFB0CFC7C
:105330004FEADC4C00FB0C11C14228BF09184CEBB2
:1053400003335DF804EB10EB410143EBC250B2F5BF
:105350007C0F38BF704729D512F0F00F1CBF00F149
:10536000C04000F0004070470081828384858687BA
:1053700088898B8C8D8E8F919293959697999A9C14
:105380009D9FA0A2A3A5A7A8AAACAEB0B2B3B5B783
:10539000B9BCBEC0C2C5C7C9CCCED1D4D7D9DCDF59
:1053A000E2E6E9ECF0F3F7FAFE0000004FEA400C09
:1053B0000CF1807CBCF17E4F28BF7047B0F1C0403B
:1053C00000F093B990EA010F0CEAD11348BF42F400
:1053D0008072624538BF634507D213F47F0F16D041
:1053E00080EA010000F00040704710B500F037F986
:1053F000097EFC3E00F005B880EA010000F00040A4
:10540000704780EA010000F0004000F06EB912F42D
:105410007F0F04BF0248704780EA010000F065B9C1
:105420000000C07F41000B0ED3F19E0208D950F45A
:1054300000034FEA032323FA02F048BF40427047BB
:1054400010B500F00CF900BF49922480002070478D
:105450006FF0004282EA200070470000C10DD1F1D8
:105460009E0206DB4FEA002343F0004323FA02F0DA
:105470007047004207D54FEA4001B1F1FE4F02D21A
:105480004FF00000704710B500F0E9F84992248011
:10549000002070476FEA20007047000010F00041C4
:1054A00048BF4042B0FA80F310FA03F2C3F19D0303
:1054B0000BD051EAC35101EB1220530638BF70479D
:1054C00000F1010008BF20F001007047B0FA80F33E
:1054D00010FA03F2C3F19D030AD0D90501EB1220A3
:1054E000530638BF704700F1010008BF20F00100EB
:1054F0007047000050EA010C00F113801CF5000F0A
:1055000058BFBCF5000F01D48842704707D710F58B
:10551000000F58BF11F5000F15D48842704789421B
:1055200070471CF5000F04D5BCF5000FF7D581427C
:1055300070474FF0807C1CEB400F38BF1CEB410FD5
:1055400001D28142704710B500F089F892244900D9
:105550004FF000504FF08051FFF796BE4FF47F0C94
:105560001CEAD0121EBF1CEAD11392EA0C0F93EA78
:105570000C0F00F0478090EA010F48BF42F48072A0
:105580004FF0004C4CEA00204CEA012102EB0302F0
:10559000A0FB0113A2F50002002918BF43F001038C
:1055A0005B0028BF4FEA330342EB22425FEA132C31
:1055B0004CEBC2502EBFBCEB436FB2F57C0F704773
:1055C0004FEA036CBCF1004F08BF20F00100B2F5B8
:1055D0007C0F38BF70470BD582F0FF0212F5803F79
:1055E000C8BF704700F1C040D8BF00F0004070470E
:1055F00000F5000C5FEA4C0C48BF7047B0F1C040AA
:1056000000F073B890EA010F0CEAD11348BF42F4DE
:105610008072624538BF634504D280EA010000F021
:105620000040704710B500F01AF800BF8900013E35
:1056300000F007B800F009B85FEA410C5FEA1C6CA3
:1056400008D080EA010000F050B85FEA400C5FEA41
:105650001C6CF6D14FF00040A0F5800070470EF1B1
:10566000020E2EF0030E5EF8044B244204D44FEADF
:105670004102B2F17F4F11D84FEA4003B3F17F4F9F
:105680000CD80ED14FEAD07CB2F17F4F0CEB4C0C12
:105690000CF1020C08BF4CEBD17C04E04FF0080C7D
:1056A00001E04FEAD17C0CEB4C0324FA03F404F044
:1056B0000704B4F1040C06D20EEB840CBDE81040D4
:1056C0004CF0010C6047DFE80CF0070802024FF0D5
:1056D0000040A0F5800010BD0846420018BFD2F17E
:1056E000807288BF00F0004010BDFF2141EAD05019
:1056F000C005704751EA000C00F113801CF5000F43
:1057000058BFBCF5000F01D48142704707D711F58F
:10571000000F58BF10F5000F15D481427047894221
:1057200070471CF5000F04D5BCF5000FF7D5884273
:1057300070474FF0807C1CEB410F38BF1CEB400FD3
:1057400001D28842704780EA010081EA000180EAC4
:105750000100FFF7F8BE000090EA010F48BF81F09A
:1057600000413FF536AD421A04D882F00042A0EB6A
:10577000020011444FEAD0524FF07F4C1CEA410F17
:10578000A2EBD15318BF9CEA026F4AD04FF0004CF5
:105790004CEA00204CEA012121FA03FCB0EB0C0C8E
:1057A0000FD412F0FE0F36D05FEA4C001DD5001268
:1057B00040EBC25038BF70471CF03F0F18BF704716
:1057C0000BE0A2F101025FEA1C2040EBC25038BF9F
:1057D00070471CF07F0F18BF7047C3F1200399403A
:1057E00014BF401E20F00100704780084FEA1223CA
:1057F00008BF7047B0FA80FCA2EB0C02CCF1280C79
:1058000060FA0CF093EA122F04BF00EBC25070470D
:105810004FEAC3707047130A5FEADC1008BF704795
:10582000F6E79CEA026F04D010EA5C0F08BF002084
:10583000704710B5FFF713FF40DFF63E81F00040E0
:105840007047FBF7A3BAFBF7D7BB0CF00F03092B8C
:1058500008BF082000F059800A2B0BD0082B18BF76
:10586000704708BF1CF0400F0AD04FF000004FF007
:10587000000170471CF0400F18BF4FF00040704708
:105880001CF0100F08D020F0704300F07F4242EA75
:10589000D3014FEA4370704700F0604021F07F422F
:1058A00042EA000201F07F4040EA727070474FF018
:1058B000FF0C4CF4E06C1CEA11531CBF9CEA030C77
:1058C0009445C2BFDA4201EB02517047002B0DD064
:1058D000BCF1000F0FD0002A01F00041A4BF41F03D
:1058E000E04141F07F614FF00000704701F000415E
:1058F0004FF00000704750EA01334FF09B0C18BF87
:105900004CF0806C7EF47AAF70471CF4801F11D08D
:105910001CF4E02F03D06FEACC31490070474FF000
:105920004050EFF3008222F0704242EA000282F31C
:10593000008870474FF00000704700000000000032
:1059400000000000000000000000000000F800005F
:105950000000000000333000000000160E00160E9C
:105960000000000000000000000040C07840C07847
:105970004000043F04043F040400007088FC083029
:105980000000001820FF211E0000F008F000E018C1
:10599000000000211C031E211E0000F0088870007A
:1059A00000001E21232419272110000000160E00DC
:1059B00000000000000000000000000000E01804EB
:1059C0000200000000071820400000020418E00058
:1059D00000000040201807000000404080F0804098
:1059E00040000202010F01020200000000F000006E
:1059F00000000101011F0101010000000000000082
:105A0000000000B070000000000000000000000076
:105A1000000000010101010101010000000000007F
:105A20000000003030000000000000000000806036
:105A30001804006018060100000000E010080810BB
:105A4000E000000F102020100F00001010F80000E0
:105A500000000020203F2020000000700808088877
:105A60007000003028242221300000300888884847
:105A700030000018202020110E000000C02010F877
:105A8000000000070424243F240000F80888880848
:105A900008000019212020110E0000E0108888184D
:105AA0000000000F112020110E0000380808C8382F
:105AB00008000000003F000000000070880808880F
:105AC0007000001C222121221C0000E01008081098
:105AD000E0000000312222110F00000000C0C000D1
